:1000000000800020A10000009D000000FB00000017
:100010009D0000009D0000009D0000009D0000006C
:100020009D0000009D000000602400009D00000075
:100030009D000000A02400009D0000009D00000025
:1000400010B5054C237833B9044B13B1044800E0D4
:1000500000BF0123237010BD080100200000000034
:10006000C825000008B5034B1BB10349034800E055
:1000700000BF08BD000000000C010020C8250000E2
:10008000044B054A9A60D3F8882042F47002C3F802
:100090008820704700ED00E000000000FEE700004F
:1000A00008B5FFF7EDFF00F0B3F80A4A0A4B0B4919
:1000B0008B4206D300210A4B0A4A934206D300F032
:1000C00021F852F8040F43F8040BF1E743F8041B3E
:1000D000F3E700BFC8250000000100200801002050
:1000E00008010020240100200020704770470120F3
:1000F000704700F06FBC00F0D2BC4FF4017001F00B
:100100005DBB000013B501A800F052FC374B9B6D9E
:10011000DB0318D4364A136823F4FF0323F4FE43A9
:1001200043F4BC1343F4A063136052F8043C23F47B
:10013000704343F4404342F8043C52F8043C43F417
:10014000E06342F8043C9DF80530012B0FD19DF887
:10015000043063B94FF000531B68264B1B68264BD5
:100160001B68264B1B68264B1B68264B1B68264AC0
:10017000D2F8803043F00303C2F88030FFF7B9FFB4
:1001800001F0ECFA08B901F0D7FA00F048FE044695
:1001900058B901F0E3FA08B101F0DAFA40F20120AF
:1001A00001F00CFB4FF4017018E001F0D7FA08B928
:1001B00001F0C8FA01F0E8FA012802D901F0C8FA02
:1001C000FEE701F0EBFA114B0193019B002B0ADCD7
:1001D00040F205439C42E5D140F2032001F0EEFAE3
:1001E000002002B010BD019B013BEDE700C00040C4
:1001F00034C00040004000200080002000C00020EB
:1002000000000120004001200080004000350C006B
:1002100013B501244FF040238DF806408DF80740B8
:10022000D3F894305B060FD501F0DCFAA0F202207F
:1002300080B2072808D8844014F0C90F1EBF0023DD
:100240008DF806308DF8073044F204031B68013343
:1002500008D14FF4027001F08CFA00238DF80630BB
:100260008DF807309DF8073063B14FF4804001F0FE
:1002700005F98DF806009DF806301BB94FF40270A1
:1002800001F077FA9DF806308BB101F067FA08B1FA
:1002900001F05EFA4FF48043064A93601846016805
:1002A00081F3088881F3098840688746FEE702B039
:1002B00010BD00BF00ED00E00020704730B5012404
:1002C0000025074B01445C609D601A611A46DC60A2
:1002D000884201D1586A30BD10F8014B1462F7E72B
:1002E000008008402DE9F04100F12007044638461F
:1002F0001D461646884600F0DDFBDDE9061238464D
:1003000000F0DCFB002384F85880636432682B0C17
:10031000C4F859207268C4F85D20B26884F865306A
:100320002B0AC4F8612084F8663084F86750BDE871
:10033000F0811FB51C4600F14803CDE9011200937E
:1003400000F1440200F158032146203000F02EFC59
:1003500004B010BD2DE9F04798B08846174699467D
:10036000209E8246002862D0002960D0002A5ED0FC
:10037000002B5AD02F4D304B002E08BF1D461C229B
:10038000002111A802F058F82C4B18AC44F8203D7D
:100390002946204600F0BFFA2021204600F0BBFA93
:1003A0000122274BCDF80490029203930496059204
:1003B0000693B9F1000F08D03EB101A9204600F024
:1003C00096FA04A9204600F092FA01261C4D07A9CE
:1003D0002046CDF81CA00896099500F088FA0AA9D5
:1003E0002046CDF828800B960C950D970E960F950C
:1003F00000F07DFA0DA9204600F079FA204600F0C1
:1004000093FA104B00934FF098435A6CD202FCD5EC
:100410005B6D40F2046003F470230093009B002B9B
:1004200008BF002018B0BDE8F087034DA7E740F2F1
:100430000160F7E71F2400801F24FC8400000106F0
:10044000200000207856341210B5044600F0AEF8B3
:100450002046BDE81040002100F0ACB800F0AFB875
:10046000014600F0B9B800002DE9F7431446DDE974
:100470000A820E461F46002845D11CB9002003B051
:10048000BDE8F08313683F2B3BD85168204D11B174
:10049000002F18BF3D4603F03F00E318136022BF52
:1004A00053680133536080B3C0F140094C4522D3F7
:1004B00031464A46404401F0B4FF012342460093CE
:1004C00029463B460020A4EB090400F093F83F2C9A
:1004D0004E440DD93D46A309009332463B4629467A
:1004E000002000F087F824F03F031E4404F03F048E
:1004F000002CC3D0002022463146404401F091FF39
:10050000BCE73D46C7E70348B9E73F2CF3D9E2E72C
:10051000E024000080AFFFFFF0B51D460C461746F3
:100520001A6887B0D3008DF80F3053098DF80E305C
:10053000530B8DF80D30530D8DF80C306B68CDE9F1
:100540000075D90001EB52718DF80B1002F03F02DB
:100550005909372A8DF80A104FEA53314FEA53539D
:1005600094BFC2F13802C2F178028DF809108DF8FB
:1005700008300D4923460646FFF776FF082223463A
:100580000DEB0201CDE900753046FFF76DFF234604
:100590000C9A04F1200153F8040B8B4242F8040B2F
:1005A000F9D1002007B0F0BD00250000682200212D
:1005B00001F042BF0023C0E900331846704707B579
:1005C00000F128030190009300F108030020FFF7D9
:1005D0004BFF03B05DF804FB07B50346009100F143
:1005E000280200F108010020FFF796FF03B05DF834
:1005F00004FB0000F0B593B00E46174600211C2204
:1006000004460BA81D4601F017FF01214FF00052D0
:10061000019702910392049605910692079508911D
:100620000992002C37D11D4B189D12AC44F8203D87
:10063000AD012946204600F06EF9039B04A91D4335
:100640000395069B204643F020030693099B43F045
:100650002003099300F04BF901A9204600F047F967
:1006600007A9204600F04DF900F058FB054678B97F
:10067000204600F059F94FF098435A6CD202FCD54D
:100680005C6D00F059FB064B14F4702F18BF1D462B
:10069000284613B0F0BD034DFAE700BF0004010384
:1006A00080ADFFFF80AFFFFFF0B5114A114C124E35
:1006B00000F00105E3695F0713D40DB9334213D18C
:1006C00003EA00078F4207D10B4A1A40002A14BFE1
:1006D0006FF001000020F0BD013AEBD16FF0020095
:1006E000F9E74FF0FF30F6E76FF00100F3E700BFE6
:1006F00080969800000003400200010070B5134C82
:100700006061E06943071DD40E1D0968151FA161D2
:100710005DB90423294623612120FFF7C5FF58B99D
:10072000BDE870402120FFF7BFBF08210846FFF752
:10073000BBFF10B10423236170BD56F8043B043D98
:10074000A361E5E74FF0FF30F6E700BF000003408C
:1007500038B541F671330E4C0122E569E36341F28D
:100760000C03E2500223606100212361212005F483
:100770008035FFF799FF18B901462120FFF794FF54
:1007800042F20C030122E2500DB10023E36338BDB5
:10079000000003402DE9F843154641F67132164B2F
:1007A0008846DF690121DA6341F20C020646DFF870
:1007B0004C9007F48037995055B9284642F20C0204
:1007C00001210D4B99500FB10022DA63BDE8F88387
:1007D00006F5005404EA0904A41BAC4228BF2C46C9
:1007E000414622463046FFF789FF0028E6D12644DD
:1007F000A0442D1BE0E700BF0000034000E0FFFF26
:100800002DE9F04F4FF0010C41F204044FF4502653
:100810002B4D41F6713745F804C02A4CDFF8B08003
:1008200044F820603026002406FB0056F465346648
:100830003467254C0CFA00F0D4F81CE0E763E76855
:10084000DFF8909047EA0C07AC46DFF88CA0E76031
:100850004BB9E2681EF4803F22F00102E26000D052
:10086000E36318462AE001F5005525F4FF5525F00D
:100870001F056D1A9D4228BF1D466161D4F81CB04A
:10088000AF081BF0040F17D1013F3F0147F060573D
:1008900077660E4FB266F766C8F80000DCF8347071
:1008A0003842FBD00427C9F800002944CAF80000E8
:1008B0002A4427615B1BCBE74FF0FF30BDE8F08F88
:1008C00000000440004004400000034018000340C2
:1008D0002410044034200440281004404FF0984372
:1008E0005A6CD202FCD5586D00F4702070474368F2
:1008F00013B9416070475B685A68012AFBD159609F
:100900007047836813B9816070475B685A68012A31
:10091000FBD159607047C369032B9FBF00EB830273
:100920000133D160C3617047C369042B15D84FF000
:100930009842116CC902FCD504339B001365016811
:10094000103B116041680C30116050F8041C0344E6
:1009500011604FF09842984200D1704750F8041B44
:100960001160F8E7F0B515460F4C104A8DB0002B1A
:1009700008BF144607461C220E4605A8002101F0B8
:100980005BFD012301A904A83C4345F000550196F5
:10099000049402930395FFF7B4FF04A8FFF7C4FF84
:1009A000FFF79CFF0DB0F0BD01000AFF010008FF3A
:1009B000054B5B69C3F38512827003F03F021B0B8A
:1009C00042700370704700BF00C007400048704786
:1009D0004025000000207047024BD86900F001005C
:1009E000704700BF00000340B2F5801F10B51346EA
:1009F0000C460CD8B0F5801F09D80344B3F5801F0E
:100A000005D80146204601F00CFD002010BD40F243
:100A10000240FBE7B2F5801F10B511D8B0F5801F7A
:100A20000ED88318B3F5801F0AD8002303E0C458FA
:100A3000013408D104339A42F9D800F0FDFB28B9FB
:100A400040F2024010BD40F20340FBE70020F9E70E
:100A50004FF0FF30704738B541EA0003C3F30C0391
:100A60000446CBB9B1F5801F0FD8B0F5801F0CD864
:100A70000D18B5F5801F08D8204604F5005400F085
:100A8000BDFBAC4204D00028F6D140F2024038BD94
:100A90000028FAD00020FAE740F20440F7E70020EF
:100AA00070474FF098435A6CD202FCD5586D00F451
:100AB000702070472422002101F0BEBC38B51446D6
:100AC0000D462422002101F0B7FC24F04002802AC8
:100AD000034602D0B4F5807F08D11846E20840F8FA
:100AE000044B294601F09DFC002038BD6FF07100D9
:100AF000FBE700002DE9F04104681F4624F04003A5
:100B0000802B92B005468846164602D0B4F5807F09
:100B100042D11C2200210BA801F08EFC204B214960
:100B20000122B8F1010F18BF19462B1D0193E408EB
:100B30001D4B0A9144F0005401A90AA802920394A3
:100B4000049605920693079708920993FFF7CFFE44
:100B500004A90AA8FFF7CBFE07A90AA8FFF7D1FE50
:100B600029680AA8C908FFF7D6FE10210AA8FFF7CE
:100B7000D2FE00F0D3F8044650B90AA8FFF7D4FE1D
:100B8000FFF78FFF054600F0D7F8002D18BF2C4661
:100B9000204612B0BDE8F0816FF07104F8E700BFA5
:100BA0000001010400010004100000202DE9F04FB5
:100BB0009BB0074689469846DDF894B0164672B158
:100BC00015683B6823F04002802A03D0B3F5807F8C
:100BD00040F09B800BEB0903002400930DE01546C9
:100BE000EFE795B1249A1BF80430525D013553406C
:100BF000269A05F00F05135501344C45F1D3002E0C
:100C000000F086803560002060E0A9EB040ABAF1AC
:100C10000F0F51D91C22294613A801F00DFC3D4BA2
:100C20003A6812933B1D03930123D20842F000520D
:100C300004930592384A2699CDF818802AF00F0AB5
:100C400007930892CDF824800A930B920BEB0402D1
:100C50000C9221444AF000520D9312A80E920F916B
:100C600003A910931192FFF742FE06A912A8FFF7FD
:100C70003EFE0CA912A8FFF73AFE0FA912A8FFF733
:100C800040FE09A912A8FFF73CFE396812A8C9085E
:100C9000FFF741FE514612A8FFF73DFE00F03EF877
:100CA000A0B912A8FFF740FEFFF7FBFE019000F08D
:100CB00043F8019B544443B9269B0BEB040A1C44A4
:100CC000009B534505D14C4697E718461BB0BDE83D
:100CD000F08F7DB94246249B01213846FFF70AFF79
:100CE00008F1100212F8013D0133DBB213700BB9A9
:100CF0009045F7D1249A1AF8013B525D01355340D3
:100D000004F8013B05F00F05DAE76FF01F00DDE79F
:100D10003046DBE7030300041000002008B500F0B4
:100D20002AF830B900F029F8003018BF01204042FD
:100D300008BD4FF0FF30FBE700F021B800207047FE
:100D40000020704700207047002070470020704747
:100D5000002070470120704728231B6818697047DE
:100D60002823186870474FF40040704701207047EF
:100D700041F20600704700207047002070470020B5
:100D8000704710B5ADF50A7D4FF40A726946002030
:100D900000F088F940F201240021684600F0C5F80F
:100DA000A042F9D040F20323984204D040F205401B
:100DB0000DF50A7D10BD9DF8003059070DD49DF842
:100DC00000309A071AD4DB07F0D50399869800F013
:100DD000DFF90028EAD00020EAE70A9800F0DEFBFD
:100DE0000028ECD0869800F08FF90028E7D0FFF7B4
:100DF000BAFF00F0FDFB0028E1D1D7E728221268F6
:100E0000019992689142DED9869800F09BF90028FA
:100E1000CCD0FFF7A8FF099900F078FBC6E7FFF7F1
:100E2000B0BF000000B591B00023402269464FF4E6
:100E30008070FFF797FDB0F5A02F034818BF002082
:100E400011B05DF804FB00BF4CE30F0000B591B09A
:100E50000023402269464FF48070FFF783FDB0F510
:100E6000A02F034818BF002011B05DF804FB00BF9D
:100E70006CE30F000048704786E20F0031B10A4B67
:100E80005A68824205D80023C1E9003340F201408C
:100E90007047013053F8302003EBC0035B680A60F1
:100EA0004B600020704700BF5C25000001221A70D3
:100EB0007047000070B40D4C0E46114662688242C5
:100EC0000DD9013004EBC0025268F51895420AD8DA
:100ED00054F830001A46304470BCFFF785BD40F22C
:100EE000014070BC704740F20240FAE75C25000008
:100EF00030B504460D46A3B002AAD0F820128023D4
:100F0000D0F81802FFF7D6FF0095802302AA2146E9
:100F100004F12C0000F0EEFDD4F82032C4F82402D5
:100F20008033C4F8203223B030BD1FB50023CDE993
:100F30000033CDE90213D0F824320446A3B9D0F827
:100F40002022D0F81C329A420ED26946FFF7D0FF19
:100F5000D4F8240298B141F2070240F201239042F2
:100F600008BF184604B010BDA3785BB140F2022060
:100F700040F20323E278002A18BF1846F2E740F255
:100F80000120EFE740F20220ECE7000070B50D46CB
:100F9000002186B006AB03F8111D02931E4B0446D8
:100FA0001646116028461C22CDE90333059301F053
:100FB00043FA9DF8072062B994F87230142B08D0D8
:100FC000D4F824322BB9D4F82012D4F81C32994228
:100FD0001AD32378990744BF636833602378DB070B
:100FE00009D504F1080304F1240153F8040B8B42E2
:100FF00045F8040BF9D162B9237840F20640002B82
:1010000018BF002006B070BD02A92046FFF770FF90
:10101000CFE70020F6E700BFAD0E000070B40D4C26
:101020000E461146626882420DD9013004EBC002BF
:101030005268F51895420AD854F830001A463044E0
:1010400070BCFFF7E7BC40F2014070BC704740F253
:101050000240FAE75C250000074B5A68824207D934
:10106000013003EBC002516853F83000FFF7F3BCC6
:1010700040F20140704700BF5C25000010B50446F7
:1010800060B14FF480320023C0E90023044B1A788A
:101090005B680272C360FFF799FC206110BD00BF5E
:1010A0005C25000037B50C4605461146204600F089
:1010B000D3FA48B969462846FFF7E0FE20B9019BFC
:1010C000C4F81852C4F81C3203B030BD38B500F56E
:1010D000D87204460D46202300F5A4712C3000F090
:1010E000C3FCD4F824322BB9D4F82022D4F81C3213
:1010F0009A4203D3A07800B1E07838BD2946204653
:10110000FFF7F6FEEDE7000000B5ADF50F7D4FF4FB
:101110000A7204A9FFF7C6FF78B904238DF81130CD
:10112000074BCDE900000290694604A80393FFF73E
:10113000CDFF0DF50F7D5DF804FB0020F9E700BF42
:10114000D912000030B5ADF50F7D0D460446FFF70E
:1011500007FE8368AB4203D300200DF50F7D30BD41
:101160004FF40A7204A92046FFF79CFF0028F3D130
:1011700002238DF81130054BCDE90000029069463D
:1011800004A80393FFF7A2FFE7E700BFD91200000E
:1011900000B5ADF50F7D4FF40A7204A9FFF782FF89
:1011A00078B901238DF81130074B0090CDE901305B
:1011B0000390694604A8FFF789FF0DF50F7D5DF8E0
:1011C00004FB0020F9E700BFAF12000000234FF03E
:1011D000FF32036001238B4201D30020704740F8A7
:1011E00023200133F7E7036840F204500133012B59
:1011F00098BF0020704740F20250704708B5FFF7D3
:10120000A7FAB0FA80F0400908BD072B10B50446D4
:1012100018460FD862B142EA04039B070AD113466D
:101220000A462146FFF7ECFAB0FA80F0400910BDFB
:101230000120FCE70020FAE710B5134642B1034352
:101240009B0707D1FFF7A6FAB0FA80F0400910BD5E
:101250000120FCE70020FAE74FF098435A6CD202D5
:10126000FCD5586D00F470207047C0F30C032DE9D5
:10127000F04105460F4616460BB9FFF7BFFF05F5CF
:10128000005424F4FF5424F01F0405EB0608A04585
:1012900007D8324639462846BDE8F0410223FFF719
:1012A000B4BF2046FFF7AAFF04F50054EFE770B57E
:1012B00004460E461546FFF753FD0369A3420AD8BC
:1012C000426963199A4206D32A4631462046BDE850
:1012D0007040FFF7CABF70BD2DE9F04115460746C3
:1012E0008846FFF73DFD0646FFF73DFDC41963192B
:1012F000B3F5801F0FD83FB9FFF735FD73698342FF
:1013000002D93069FFF77AFF2A4641462046BDE8F8
:10131000F041FFF7AABFBDE8F0810000F0B585B04D
:101320006C46024626460D4B03F110072546186809
:101330005968083303C5BB422C46F7D104AB501E95
:1013400013F8011D10F8012F914204D1B342F7D1D7
:10135000012005B0F0BD0020FBE700BFB82500006C
:10136000007C01288CBF00200120704738B504465E
:101370000D46FFF7D3FF48B16369012B09D1204621
:10138000FFF7EEFF08B1A3692B6038BD2C60012088
:10139000FBE70020F9E740F20463F0B5A1B0446B2D
:1013A00005460493FFF7DCFC06462046FFF7B6FF30
:1013B00010B9002021B0F0BD2046FFF7D1FF002872
:1013C000F7D0FFF7C5FC002846D134231F68384604
:1013D000FFF7A4FF0028ECD0B7F57F5FE9D8002322
:1013E00020A901F8713D2046FEF781FE0028E0D0DB
:1013F00005A92046FFF7BAFF0028DAD0059B32691D
:101400009A42D6D8AB42D4D3B3F5801FD1D806A820
:10141000FFF71AF8059A2946521B06A8FFF71EF88F
:1014200006A8FFF71DF8059DFFF790FC2035059EE7
:10143000D8B19DF80F30B3B1A36B03F12402009231
:1014400004332A46314606A8FEF784FF0490049828
:10145000B0FA80F04009ADE70121206AFEF744FEB2
:101460000028B2D1A5E7BB6BE7E7FFF7DBFC04463A
:10147000FFF7ECFC23460090E3E70000F8B5D0E965
:10148000006706F160460446456BFFF769FCB6F558
:10149000C03F01D90020F8BD0369BB42FAD8B7F5B7
:1014A000801FF7D84033AB4202D8B5F5801F05D96D
:1014B000FEF702FF80F00100C0B2ECE7FEF7FCFE91
:1014C00020B12046BDE8F840FFF765BF2846FFF78A
:1014D00025FFB8B12846FFF743FF0028DAD06B6933
:1014E000002BD8D0022BECD1AB69C4F10401194414
:1014F0004FF0FF322046FEF7E1FE034BC31A58427D
:101500005841C8E70120C6E7E320BBDE70B54FF0C5
:10151000FF3290B006460D46FEF7D0FE1C4B9842B7
:1015200033D11C22002101A800F086FF194B10AC1A
:1015300044F8403D20463146FFF7EDF92946204664
:10154000FFF7E9F92046FFF7EFF9FFF785FE0446BC
:10155000D8B9FEF7CBFD40F2022000F00AF91C22B8
:10156000214609A800F068FF0B4B10AC44F8203D61
:1015700031462046FFF7CFF929462046FFF7CBF941
:101580002046FFF7D1F9FFF767FE002010B070BDCD
:10159000E320BBDE01000543010006434FF0FF33AB
:1015A00010B58CB01C220021044605A8009300F061
:1015B00043FF0D4BCDF804D00493012302930B4B52
:1015C00001A904A80393FFF79CF904A8FFF7ACF95D
:1015D000FFF742FE30B90098A0422CBF0020012046
:1015E0000CB010BD0020FBE7000008430400002001
:1015F00030B5054691B01C22002101A800F01CFF67
:10160000134B10AC44F8403D29462046FFF783F9C0
:101610002046FFF789F9FFF71FFE0446A8B940F2FC
:10162000022000F0A6F81C22214609A800F004FFC1
:10163000084B10AC44F8203D29462046FFF76BF9D3
:101640002046FFF771F9FFF707FE002011B030BD0B
:101650000000024300000343B1F50A7F10B50446C1
:1016600010D34FF40A72002100F0E6FE002304F5C7
:10167000D872637004F5A47104F12C00BDE8104029
:1016800000F0F2B940F2052010BD13B504460091F8
:1016900001462C3000F02EFAC4F8240218B141F2B1
:1016A0000703984209D1A3784BB140F2032040F2DE
:1016B0000223E278002A08BF184602B010BD40F2AB
:1016C0000120FAE72DE9F04387B002AF04468846CF
:1016D00091460021102238461D460E9E00F0ACFEB9
:1016E00000211C223160284600F0A6FE4B464246EF
:1016F0000097214604F12C0000F0FCF923789A07AA
:1017000044BF636833602378DB0709D504F108031D
:1017100004F1240253F8041B934245F8041BF9D149
:10172000237840F20640002B18BF002007B0BDE828
:10173000F0834FF40A7070474FF000534CF23C3284
:101740005A8070474FF000534AF6C0325A807047B3
:101750004FF000534FF20F025A8070474FF0005382
:101760004AF6C0305B8823F00F031B1A58425841D9
:1017700070474FF0005208B51080FFF7EFFF10B927
:101780004FF20F03538008BD08B5FFF7E7FF20B104
:101790004FF00053987800F00F0008BD08B5FFF730
:1017A000DDFF50B14FF00052538803F00F010F29B5
:1017B00014BF013323F00F03538008BD08B5FFF7B2
:1017C000D8FFBFF34F8F0549054BCA6802F4E062AA
:1017D0001343CB60BFF34F8F00BFFDE700ED00E088
:1017E0000400FA0508B5FFF7B9FF30B94FF0005310
:1017F0004FF20F015A888A4203D14FF000531888E4
:1018000008BD3AB91B8840F20220012B18BF4FF4E3
:101810000070F5E74FF40070F2E770B5D1E90152BE
:10182000AA4205D290F840302B449B1A402B10D985
:10183000002012E00A6890F84040D65C90F8412001
:101840000133224402F03F02013486548B6080F859
:1018500040408B689D42EDD8012070BD2DE9F843D2
:101860001746D1E90125521B90F8405004462A44FE
:1018700093420E469DF820909DF8248057D9FFF79B
:10188000CCFF00285DD1152341F2020084F84630D8
:10189000BDE8F88394F84120A25C7A5594F8412081
:1018A0000135013202F03F0284F8412094F84020D3
:1018B000013A84F8402094F8402012B1AB42E9D1BB
:1018C0001D46D6E901128A4201D2AB4231D8AB4261
:1018D000D9D1D4F8882029463846FEF7EFFCC4F861
:1018E0008800B9F1000F04D02A463946E06CFEF7B3
:1018F000B5FDB8F1000F08D094F843302BB12B465A
:101900003A463946A06CFEF714FD94F8433043B1D3
:10191000E36DA26D2B449342E36524BF002384F85A
:101920004330636D41F203001D446565B0E7002557
:10193000C1E731688A5C7A55B26801350132B2601C
:10194000BFE70020A4E700007FB50023CDE9003306
:10195000082315460DEB03020446FFF77FFF41F213
:1019600003039842064626D194F8433063B1082217
:10197000E06C0DEB0201FEF771FD08230DEB030295
:101980001146A06CFEF7D5FC039A029B6A6094F89E
:1019900043202B605AB9094A934208D0084A93421F
:1019A00005D00822E06C0DEB0201FEF757FD6B68D5
:1019B000236500236365304604B070BDF70A0AF75B
:1019C000FC0404FC2DE9F843044658680D4616460D
:1019D0001F46002843D08B0743D1FFF7BDF9216E86
:1019E00000F1040C06EB0109CC451DD800F11C02E6
:1019F000914219D28C45634638BF0B46914594BF3E
:101A0000C3EB0909C3EB0209591AA3EB0C0005EB60
:101A1000010868304A464146204400F002FD4A462B
:101A2000FF21404600F008FDFFF79DF9226E031DDF
:101A300093420AD3B1180830814206D39B1AEA5860
:101A4000C4F880204FF0FF32EA50D7E90038324620
:101A5000206E2946C0470020236E1E442666BDE83E
:101A6000F88341F20200FAE72DE9F04100254FF03A
:101A7000FF3704468846164603F0200380F84230BC
:101A800080F84650A0F8405080F8435080F8455008
:101A900080F84450C0F88870C0E918551822FF211A
:101AA000683000F0C9FCC4F88070C4F88470C4E9E0
:101AB00012868822294604F1900000F0BDFC84F8CB
:101AC0001851FFF741F930B1B8F1000F03D141F2DD
:101AD0000B00BDE8F081FFF735F930B1002EF6D0EC
:101AE000E06CFEF7B1FC0020F3E7002EF8D13046A1
:101AF000EFE700002DE9F04FB7B0CDE9092334221C
:101B000003930023D2F800A00446BAF57F5F88460D
:101B1000409D0B9300F2E28099460B9A039B9A42F8
:101B20005CD294F84630152BF8D8DFE813F08E001D
:101B3000A7008700D400590040003700550240003C
:101B40004F024000360240004F0243032A041600B1
:101B5000B303B703D303C8022A040027636D0F2B16
:101B600071D8012610230CAA0197009609A92046D6
:101B7000FFF774FE41F203030690069A9A426FD172
:101B8000D4F848B0FFF776F980230DAACDE9000319
:101B9000022133465846FEF7A5FBDFE70126D4E9CC
:101BA00014329A42C0F06C8184F84660B5E70DF1BA
:101BB000300BD4E91462B2420B9944D20A9BB61A94
:101BC00094F840205B1A032E134440F20982032B41
:101BD00000F22F8209A92046FFF71FFE00207FE0B8
:101BE0000126636D072B98D808230CAACDE900665F
:101BF00009A92046FFF732FE41F203030690069A38
:101C00009A422DD198F8003043F0020388F8003052
:101C10000C9BC8F80430236D083BC8F824300D9B9A
:101C20000593002B57D1052284F8462094F84520CF
:101C3000636642F0010284F84520D2E70026636D16
:101C4000072B40F2E480012315E007AA09A92046EA
:101C5000FFF77AFE41F203030690069A9A4201D0FA
:101C600006983DE0089B079A236500236365A04B17
:101C70009A4230D1022384F846304EE707AA09A9D8
:101C80002046FFF761FE41F203030690069A9A424E
:101C9000E6D194F84420079B22B1964A93421AD188
:101CA0000E23E8E794F84220D60756D594F843204F
:101CB000002A40F06983904A934248D01BD88F4A4B
:101CC000934200F098800ED8894A934203D002F1E3
:101CD000B64293421AD1152384F8463041F20100EE
:101CE00037B0BDE8F08F864A9342F4D0854A9342DC
:101CF000F1D0854AEDE7854A93421ED00FD8844A39
:101D0000934200F06383834A934218D0152307A8B7
:101D100084F84630FFF712F80028DFD11AE07E4A37
:101D20009342D8D07D4A9342D5D0724A9342EDD1A6
:101D3000FFF708F80028B3D0CDE710239BE7112365
:101D400084F84630236DA3650023E365E5E615239B
:101D500084F8463041F20800C2E76A4A934236D01E
:101D600000F22683654A934240D000F2178302F1C5
:101D7000D74202F5D81202F6F832934223D007A8D0
:101D8000FEF7DCFF002838D01423079884F846308B
:101D9000C4F88C00FEF7D4FF94F8423081469806D0
:101DA0007FF5BBAEB9F1000F3FF4B7AED9F8043000
:101DB000002B3FF4B2AE204698470690069B002BBE
:101DC0003FF4ABAE8AE70B2355E7062353E707231F
:101DD00051E70D234FE7FEF7B5FF00287FF47BAFF7
:101DE00094F84330002B3FF45BAF74E794F8433032
:101DF000002B7FF470AF12233DE7152384F84630A3
:101E000094F84330002BA5D041F2040068E7012389
:101E10000CAA00930196082309A92046FFF71EFD8E
:101E200041F203030690069A9A427FF419AF0C9B85
:101E300003F07F43B3F1407F05D0152341F2090041
:101E400084F846304CE70D9BD90705930ED594F8DE
:101E5000423043F0010384F84230FEF773FF00285C
:101E60003FF4EDAE059BDA0504D5E8E6FEF76CFF1E
:101E70000028F2D0152341F20A0084F846302FE7FB
:101E80000CAACDE9006609A92046FFF7E7FC41F25C
:101E900003030690069A9A427FF4E2AE08F108071F
:101EA0003B460DF1300C0DF1480E624603CA7245F7
:101EB00018605960944603F10803F6D11068186061
:101EC00098F80030384643F0010388F80030FEF7F8
:101ED0004DFF28B9152341F20C0084F84630FFE687
:101EE00000213846FEF736FF00287FF458AEF1E7B0
:101EF000EB17A603FC0404FCF70909F7F30B0BF33B
:101F0000F50909F5F60808F6F40A0AF4FA0606FADD
:101F1000F70A0AF7F90707F9FD0303FDFE0101FEC1
:101F200001230EAACDE9003309A908232046FFF7B3
:101F300095FC41F203030690069A9A427FF490AE14
:101F400098F8003043F0040388F800300F9BC8F87D
:101F5000283098F801305B071CD50020A34B606641
:101F60000C93236DC4F8843094F8453043F0020399
:101F700084F84530EE686EB12B6804220CA9B04796
:101F80000822606E2B68EE680EA91044B047636E9D
:101F9000103363660C2384F84630636D072BBFD97A
:101FA000BBE504230CAACDE9006609A92046FFF78A
:101FB00055FC41F203030690069A9A427FF450AE14
:101FC000226D0C9B042A059301D923660126636DBB
:101FD000032BE6D90A234EE60023636608234AE66C
:101FE0009E423FF6F7AD9E4228BF1E460123032EB8
:101FF00088BF26F00306CDE900335A46334609A9C7
:102000002046FFF72BFC41F203030690069A9A4202
:102010007FF426AE94F84630082B13D1AF688FB109
:102020002B6832465946606EB847636E1E4466663A
:10203000BFE5402E28BF4026D5E74FF0FF320BF812
:1020400006200136032EF8D90A2B11D16B683BB15B
:10205000012108F10800FEF77DFE00283FF43AAFA9
:102060002B46324659462046FFF7ACFC0690A0E5C9
:10207000052B18D198F801309F077FF59AADEB68D2
:10208000002B3FF496AD626E042A0AD89319062BF2
:1020900007D90DAB9B1A1A68C4F884204FF0FF32A1
:1020A0001A60EF68BCE70C2B7FF483AD98F8013021
:1020B00058077FF57EADEF68002FB1D179E594F830
:1020C0004230990607D5D4F88C00FEF739FE8146D8
:1020D00000283FF403AE6B683BB1012108F1080012
:1020E000FEF738FE00283FF4F5AE012743E0002B51
:1020F0005ED0B9F1000F5BD0D9F81030002B57D06B
:1021000020469847DDE90A63F61A94F840303344D4
:1021100098423FF65FADD4E91462B61A402E28BF4C
:1021200040269E4228BF1E460CAA3346CDE90077C2
:1021300009A92046FFF792FB41F203030690069A95
:102140009A427FF48DAD94F842309A0613D5B9F1D6
:10215000000F3FF4C3ADD9F808B0BBF1000F3FF456
:10216000BDAD2B4632460CA92046D8470690069BAB
:10217000002B7FF475ADD4E9142194F842309142DC
:1021800003F02003B3D3002B3FF45DADB9F1000F92
:102190003FF459ADD9F80C30002B3FF454AD29462B
:1021A000204698470690069B002B3FF44CAD57E520
:1021B0000120A7E700230CAACDE9003309A90423D5
:1021C0002046FFF74BFB41F203030690069A9A4222
:1021D0007FF446ADD4F88820054B9A420AD01523E7
:1021E00041F2050084F846307AE500BFEB17A65EA1
:1021F000E320BBDEFEF7A6FD10B9012388F803300B
:1022000098F80330002B3ED094F845309B0707D058
:10221000EE682EB104222B6804F184011046B04709
:10222000236E83B36B6873B34FF0FF3336AF47F859
:10223000C43D04F1800904224946384600F0E2F822
:1022400040B1FEF790FD28B1D5E900360422494699
:102250001044B04704F1680604223146384600F0C5
:10226000D1F880B16F68FEF777FD2B68142204F176
:102270006C010830B8476F68FEF76EFD04222B68CA
:1022800031461044B847012388F802300F2384F800
:102290004630A3E4012384F84330ECE494F8183189
:1022A000002B7FF43AAC1CAB524609A92046FEF73E
:1022B0005FFD41F206030690069A9A4203D1152368
:1022C00084F84630CCE441F20303069A9A423FF484
:1022D00024ACC5E494F84430002B7FF4B4ACCDE9D1
:1022E00000330CAA402309A92046FFF7B7FA41F2B0
:1022F00003030690069A9A427FF4B2ACE06CFEF7B4
:10230000AFF894F81861AEB104F1B403009304F18E
:102310009403E06C14AA0CA9FEF71CF80690069B27
:102320004BB3002388F80330152341F2060084F8EC
:102330004630D5E4FEF70AFD88B1DAF838300CA94A
:1023400003F124020092043314AAE06CFEF702F8B1
:102350000690069B002BE2D000963346D9E7E66C48
:10236000FEF760FD0746FEF771FD3B46009014AA9C
:102370000CA93046D0E7012388F8033084F84430B4
:1023800061E441F20700ABE4164A93423FF41FAD0B
:102390000ED8154A93427FF4E8AC9CE4134A93426A
:1023A0003FF413AD124A93427FF4E9AC042362E494
:1023B000104A93423FF40FAD0AD80F4A93427FF47C
:1023C000DEAC94F84330002B7FF485AC132352E449
:1023D0000A4A93423FF4FDAC094A93427FF4CFACE2
:1023E000092348E4F60808F6F30B0BF3F40A0AF4A1
:1023F000F50909F5FC0404FCF70A0AF7FD0303FDDF
:10240000FE0101FE30B50024A24201D1002007E008
:10241000035D01340D1915F8015CAB42F4D0581B73
:1024200030BD431E0A4410B5914200D110BD11F8D1
:10243000014B03F8014FF7E702440346934200D1F2
:10244000704703F8011BF9E7F8B500BFF8BC08BCFA
:102450009E467047F8B500BFF8BC08BC9E46704762
:1024600007B0CD5E0100000000000C01D82500007F
:102470000040000000001000F0000100F300000028
:10248000F70000007D140000591600008B160000B4
:1024900074250000C516000033170000000000007E
:1024A00013B779FAC925DDB7ADF3CFE0F1B614B8AB
:1024B0000101000000000000D425000040000000E1
:1024C00000000C01000000000000000000000000FF
:1024D00000000000000000000000000000000000FC
:1024E0006A09E667BB67AE853C6EF372A54FF53AA5
:1024F000510E527F9B05688C1F83D9AB5BE0CD19D1
:10250000800000000000000000000000000000004B
:1025100000000000000000000000000000000000BB
:1025200000000000000000000000000000000000AB
:10253000000000000000000000000000000000009B
:102540000102030028000000280000000020000015
:10255000000010006C2500000400000001000000D5
:10256000010000000040080000000700454652330B
:1025700032000000000100007D1000007D0E000010
:10258000B50E00001D10000059100000E7110000FA
:10259000CD110000F7110000A51000002B0F000066
:1025A0008D0F0000D9090000E9090000150A00009C
:1025B000570A0000510A0000B814B6F1E0CFF3AD9D
:0C25C000B7DD25C9FA79B7130000000050
:0825CC00650000004100000061
:04000003000000A158
:00000001FF
