:1000000000800020A10000009D0000009901000078
:100010009D0000009D0000009D0000009D0000006C
:100020009D0000009D000000E42A00009D000000EB
:100030009D000000182B00009D0000009D000000A6
:1000400010B5054C237833B9044B13B1044800E0D4
:1000500000BF0123237010BD4801002000000000F4
:10006000742C000008B5034B1BB10349034800E0A2
:1000700000BF08BD000000004C010020742C0000EF
:10008000044B054A9A60D3F8882042F47002C3F802
:100090008820704700ED00E000000000FEE700004F
:1000A00008B5FFF7EDFF00F0EFF80A4A0A4B0B49DD
:1000B0008B4206D300210A4B0A4A934206D300F032
:1000C0006FF852F8040F43F8040BF1E743F8041BF0
:1000D000F3E700BF742C000000010020480100205D
:1000E0004801002080050020002070470020704754
:1000F00030B51C4B87B001AA03F1100514461868EF
:100100005968083303C4AB422246F7D11B782370E9
:10011000154B1B6F03F00703032B1ED0134A936884
:10012000C3F30443102B1AD806A90B4413F8140C7C
:100130000F4B104943438B4206D191680122C1F312
:1001400001618A40B3FBF2F3074A106FC0F301303C
:100150000130B3FBF0F007B030BD074BF4E7074BBD
:10016000F2E700BFD02A00000080004000000140FC
:1001700040420F0000093D0000F04902C0EA2101A1
:1001800040F60A4343610023490101F1804101F532
:100190007031C1F8AC3570474FF4017001F00ABE00
:1001A00013B501A800F060FB2F4B9B6DDB0318D447
:1001B0002E4A136823F4FF0323F4FE4343F4BC13D5
:1001C00043F4A063136052F8043C23F4704343F4F7
:1001D000404342F8043C52F8043C43F4E06342F8E4
:1001E000043C9DF80530012B0FD19DF8043063B914
:1001F0004FF000531B681E4B1B681E4B1B681E4BA9
:100200001B681E4B1B681E4B1B681E4AD2F88030B1
:1002100043F00303C2F88030FFF766FF01F0C3FD2F
:1002200000F0D6FB00F0E6FB18B14FF4017001F0CE
:10023000C1FD00F003FC044600F042FE1CB140F298
:1002400003739C4203D140F2012001F0B3FDA4F2FC
:100250000574012C94BF40F203204FF4017001F0AB
:10026000A9FD002002B010BD00C0004034C0004015
:10027000004000200080002000C00020000001207D
:10028000004001200080004008B54FF04023D3F823
:1002900094305B060FD400F049FB80F00100C0B23F
:1002A00044F204031B68013314D1BDE808404FF445
:1002B000027001F071BD01F095FDA0F2022080B244
:1002C0000728E8D8012303FA00F010F0C90FE2D0A4
:1002D0000020E5E790B14FF4804001F03DFC00289C
:1002E000E3D04FF48043064A93601846016881F3D7
:1002F000088881F3098840688746FEE708BD00BF8B
:1003000000ED00E00020704749BA89B24840C0F3D0
:100310000311414008B280EA013000B2C3B280EA62
:10032000431080B2704738B5044645181046AC42B9
:1003300000D138BD014614F8010BFFF7E5FFF6E7E1
:1003400030B501240025074B01445C609D601A61B3
:100350001A46DC60884201D1586A30BD10F8014B62
:100360001462F7E700800840F8B504461D461646BB
:100370000F4600F0BFFDDDE90612204600F0C0FD8B
:10038000002384F83870636232682B0CC4F839207B
:100390007268C4F83D20B26884F845302B0AC4F86E
:1003A000412084F8463084F84750F8BD30B51D46EA
:1003B00085B000F12803CDE90112009300F1240279
:1003C00000F13803294600F01FFE05B030BD0000E3
:1003D0002DE9F04798B0884617469946209E8246F8
:1003E00000285DD000295BD0002A59D0002B55D0C1
:1003F0002D4D2E4B002E08BF1D461C22002111A89A
:1004000002F052FB2A4B18AC44F8203D2946204606
:1004100000F0DDF92021204600F0D9F90122254B1A
:10042000CDF8049002920393049605920693B9F1D5
:10043000000F08D03EB101A9204600F0B4F904A98C
:10044000204600F0B0F901261A4D07A92046CDF844
:100450001CA00896099500F0A6F90AA92046CDF837
:1004600028800B960C950D970E960F9500F09BF932
:100470000DA9204600F097F9204600F0B1F94FF0A1
:1004800098435A6CD202FCD55B6D40F2046013F4C1
:10049000702F08BF002018B0BDE8F087034DACE70F
:1004A00040F20160F7E700BF1F2400801F24FC8496
:1004B000000001062000002010B5044600F0AAFF4D
:1004C0002046BDE81040002100F0CEBF00F0D6BFAE
:1004D000014600F0D5BF000013B50446FFF708FE43
:1004E000074BB0FBF3F044430720B4FBF0F40134B6
:1004F0000194019B5A1E0192002BFAD102B010BD4B
:1005000040420F001FB5FFF7F3FD4FF47A23B0FB15
:10051000F3F00A4B0E2218600021684602F0C4FA7C
:1005200001238DF8003040F2FF3369460448ADF8EE
:10053000023000F0AEF905B05DF804FB6801002060
:10054000008004400D4A0E4B10B5546A1B68A4B2DB
:1005500013FB004080B2A0422CBF00240124094BB1
:100560001880094B1C70134611B15A6A8242FCD1A3
:10057000012242F214015A509A6110BD00800440D9
:100580006801002064010020660100200A4B1A78EF
:100590000A4B22B1586910F0010003D170475A6923
:1005A000D20707D4586A064B1B88984234BF0020F4
:1005B0000120704701207047660100200080044040
:1005C00064010020F0B54AB1012530241D4E8D4054
:1005D00004FB00640BB341F21006A55130244443E0
:1005E000072904F1804404F5703419D80F27656891
:1005F0008E00B74025EA070502FA06F63543656026
:1006000052B9012202FA01F130220E4C02FB0040E5
:10061000A3B141F21003C150F0BD42F21006DCE775
:100620000F2701F18045083DE668AD00AF4026EA9E
:10063000070602FA05F53543E560E1E742F21003EB
:10064000E9E700BF00C0034070B50D4C0D4E0E4DE4
:10065000F36913EA050208D00C4A1A40002A14BFB5
:100660006FF001004FF0FF3070BD03408B4204D0AB
:10067000013CEDD16FF00200F6E71046F4E700BF51
:10068000809698000000034006000100020001006F
:1006900070B5134C6061E06943071DD40E1D0968F5
:1006A000151FA1615DB90423294623612120FFF7AD
:1006B000CBFF58B9BDE870402120FFF7C5BF082126
:1006C0000846FFF7C1FF10B10423236170BD56F83F
:1006D000043B043DA361E5E74FF0FF30F6E700BFC0
:1006E0000000034038B541F671330E4C0122E56934
:1006F000E36341F20C03E2500223606100212361B5
:10070000212005F48035FFF79FFF18B9014621200D
:10071000FFF79AFF42F20C030122E2500DB10023D1
:10072000E36338BD000003402DE9F843154641F668
:100730007132164B8846DF690121DA6341F20C02FF
:100740000646DFF84C9007F48037995055B9284693
:1007500042F20C0201210D4B99500FB10022DA63D5
:10076000BDE8F88306F5005404EA0904A41BAC4272
:1007700028BF2C46414622463046FFF789FF002815
:10078000E6D12644A0442D1BE0E700BF0000034053
:1007900000E0FFFF4FF098435A6CD202FCD5586D31
:1007A00000F470207047436813B9416070475B687C
:1007B0005A68012AFBD159607047836813B9816078
:1007C00070475B685A68012AFBD159607047C3695A
:1007D000032B9FBF00EB83020133D160C3617047DD
:1007E000C369042B15D84FF09842116CC902FCD58F
:1007F00004339B0013650168103B116041680C30A5
:10080000116050F8041C034411604FF09842984264
:1008100000D1704750F8041B1160F8E7F0B5154699
:100820000F4C104A8DB0002B08BF144607461C22FF
:100830000E4605A8002102F037F9012301A904A8FA
:100840003C4345F000550196049402930395FFF74D
:10085000B4FF04A8FFF7C4FFFFF79CFF0DB0F0BD85
:1008600001000AFF010008FF054B5B69C3F3851215
:10087000827003F03F021B0B42700370704700BF91
:1008800000C00740036BDA0702D503695B06F9D4A1
:10089000704710B50446FFF7F5FF012242F230031E
:1008A000C2500B7948881B0243EA8043487A0343CD
:1008B0004878002814BF402000200343887A00288D
:1008C00014BF802000200343C87A002814BF2020D2
:1008D00000200343087B002814BF1020002003439E
:1008E000487B002814BF0820002003438879002893
:1008F00014BF4FF4803000200343636041F23003A3
:10090000E2500A780AB90223E3600023C8796362DF
:100910000B7A497943EA8003002914BF1021002192
:100920000B43A3600AB10123E36010BD012310B59E
:10093000194618460222FFF745FE064B00221C68A6
:10094000012318461946FFF73DFE6FEA540000F0F8
:10095000010010BD44C0034009490A787AB9094B27
:100960001870A720987003205A7083F8200083F82D
:10097000212083F8222083F8232001230B70704765
:10098000000100209401002008B50D4B1B68D8071A
:1009900014D50C4B1A68910710D401210A4A116032
:1009A0001A689207FCD51420FFF796FD0122074B29
:1009B00032201A60BDE80840FFF78EBD08BD00BFB9
:1009C00040C0034044C0034040E0034040D00340E7
:1009D00008B50123042218460021FFF7F3FD012387
:1009E000022219461846FFF7EDFDBDE8084000F069
:1009F00061BD000010B5FFF7C7FF01220C4B0024BA
:100A00001A6004220B4B1A7009220B4B5A70A72252
:100A10009A7003221C7083F8202083F8214083F809
:100A2000224083F8234000F0F1FE204610BD00BFB5
:100A300040E0034043020020940100202DE9F04FE4
:100A4000202387B0B14AB249B24801F01DFBB24F32
:100A5000DFF80C93B14E3378042BFDD8DFE813F0A8
:100A60008D010500290182018201002000F0E4FDD2
:100A70000121002000F062FEA94B1D7835B14FF432
:100A8000FA70FFF729FD02233370E3E7A54AD37814
:100A90000B2B4CD005D80A2B58D00420FFF75CFF55
:100AA000F1E7FD3B012BF8D8FD2301219E4C23707B
:100AB000A72384F820101179E370012984F82150CC
:100AC00084F8225084F82350A0465ED150795128F2
:100AD0005BD1DFF86CA203939AF800209349C2B36C
:100AE000D1F820B0A01C5A4601F0D3FF039B04EBC1
:100AF0000B029370A378C4F820B08AF80050A3705A
:100B0000D8F82020182B627002F103022262BAD1B9
:100B1000864A01211370002382F8213082F82230A6
:100B200082F82330824B82F820101970ABE7C12283
:100B30007D4B1A70A7225A70022283F8215083F845
:100B4000202083F8225083F823509CE7764B8222A2
:100B5000EFE70A46774B03F1180053F8045B834232
:100B600042F8045BF9D11B88138000221A2381F814
:100B7000212081F8222081F82320012281F82030D1
:100B80006D498AF800200A70B9E76B4B1B78002B7F
:100B900000F089805379012B02D1852940F08580AE
:100BA0000DF11301654800F03BFE9DF813305F4DD9
:100BB000062B82462B704FF0000B1FD100F096FEE3
:100BC0000323687085F802B085F8203001235C4A61
:100BD00085F821B0137040F60412924585F822B0D2
:100BE00085F823B040D015DC40F60112924520D0A4
:100BF00006DCBAF1000F1ED0182380E70123E3E7DB
:100C000040F602139A4552D040F603139A45F3D1A9
:100C1000212374E740F606139A4527D028DB40F6D7
:100C200007139A4526D040F608139A45E4D11923B4
:100C300065E7242363E7434A434D1370434B444A1B
:100C4000C3F800A0434B294600933248802301F0AB
:100C500061FA10B1AB78002BCED0AB78002BE6D088
:100C6000EB78002BE3D1C7E7222348E7272346E7A9
:100C7000252344E7344B9A78002ABDD0DA78002A3D
:100C8000BAD01A78520708D40122334B1A7000F0F8
:100C90002DFE01306870172331E7986A00F0E8FFF5
:100CA0000028F1D1A8E74D2329E7262327E72323AE
:100CB00025E71D4C216A204600F08AFC68B9012313
:100CC000C9F8003000F066FC236A9842FAD201228B
:100CD000224B1A600022124B1A703B681C07FCD58D
:100CE000002000F057FD164B1A780AB10323CBE61B
:100CF000194B327019780E4B1B78002940F0A780F1
:100D0000002B3FF4A7AE40F20570C3E0CC040020F6
:100D100038050020B003002074C0034043020020C7
:100D200000010020B8010020940100206E01002085
:100D30006D010020682B000093010020BD01002000
:100D400092010020440200200401002048020020FB
:100D5000C0010020582B00006C01002040D003404F
:100D600040E003403B681807FCD51420FFF7B4FBB4
:100D70000123C9F80030002386E63B681907FCD53B
:100D8000474C012000F058FC217889B1002141F244
:100D90008830FFF7D7FBDFF82481424D3B681A0704
:100DA00009D4FF23404CE370254604F1030821E0F9
:100DB0004FF47A70EDE7FFF7E7FDFFF7E7FB002858
:100DC000ECD098F800100029E8D12B682278013384
:100DD0002B6032B10C2B60D841F28830FFF7B2FBA8
:100DE000DCE73C2B59D811464FF47A70F6E74046C1
:100DF00000F09AFCEB78FF2BF9D04FF001082B4B59
:100E00002B48C3F8008000F08FFCE3780333DBB29B
:100E10004345237917D8852B02D94046FFF79CFD1F
:100E20004FF4FA7321790093012305AA194421484C
:100E300000F02EFC20B10220FFF78EFD012323E6F7
:100E4000059B1D442B79A72BF8D00320F4E7002B3A
:100E50007FF459AF184C23785B0707D500F025FBCA
:100E600000F030FF40F2022000F0A4FF207810F0E4
:100E700002000FD028231B6862689B689A4204D93D
:100E800000F013FB616A00F0ADFE40F2022000F0BA
:100E900091FF002007B0BDE8F08F40F20470F9E741
:100EA0004402002048020020B801002040D0034046
:100EB000BC010020BD01002004010020920100209F
:100EC00010B500F05FFB002301201A461946FFF71A
:100ED00079FBBDE81040002301211A460846FFF7C0
:100EE00071BB4FF098435A6CD202FCD5586D00F498
:100EF0007020704718B12422002101F0D5BD704741
:100F000070B50E4615460446A0B199B124220021C1
:100F100001F0CAFD25F04003802B02D0B5F5807F9B
:100F20000BD12046EA0840F8045B314601F0B1FDE0
:100F3000002070BD6FF02100FBE76FF01F00F8E7A5
:100F40002DE9F041884692B016461F460546002816
:100F50004ED0002A4CD0002B4AD0046824F0400325
:100F6000802B02D0B4F5807F45D11C2200210BA834
:100F700001F09AFD214B22490122B8F1010F18BF5F
:100F800019462B1D0193E4081E4B0A9144F00054AE
:100F900001A90AA802920394049605920693079762
:100FA00008920993FFF7FFFB04A90AA8FFF7FBFBD0
:100FB00007A90AA8FFF701FC29680AA8C908FFF7D2
:100FC00006FC10210AA8FFF702FC00F0EBF804462B
:100FD00050B90AA8FFF704FCFFF783FF054600F0AD
:100FE000E3F8002D18BF2C46204612B0BDE8F08172
:100FF0006FF02104F8E76FF01F04F5E7000101042A
:1010000000010004100000202DE9F04F9BB00746BE
:101010008A469846DDF8949016460AB31568002F64
:1010200000F0B480B9F1000F00F0B080269B002BD7
:1010300000F0AC80B8F1000F00F0A880249B002BDA
:1010400000F0A4803B6823F04002802A03D0B3F56F
:10105000807F40F09E8009EB0A03002400930DE09E
:101060001546DCE795B1249A19F80430525D013534
:101070005340269A05F00F05135501345445F1D31A
:10108000002E00F089803560002060E0AAEB040BA0
:10109000BBF10F0F51D91C22294613A801F004FD02
:1010A0003E4B3A6812933B1D03930123D20842F052
:1010B0000052049305923A4A2699CDF818802BF0F5
:1010C0000F0B07930892CDF824800A930B9209EB3B
:1010D00004020C9221444BF000520D9312A80E9280
:1010E0000F9103A910931192FFF75DFB06A912A8B7
:1010F000FFF759FB0CA912A8FFF755FB0FA912A87F
:10110000FFF75BFB09A912A8FFF757FB396812A884
:10111000C908FFF75CFB594612A8FFF758FB00F01F
:1011200041F8A0B912A8FFF75BFBFFF7DAFE0190C8
:1011300000F03AF8019B5C4443B9269B09EB040B91
:101140001C44009B5B4505D1544697E718461BB0ED
:10115000BDE8F08F7DB94246249B01213846FFF758
:10116000EFFE08F1100212F8013D0133DBB21370FB
:101170000BB99045F7D1249A1BF8013B525D01351C
:10118000534004F8013B05F00F05DAE76FF021004A
:10119000DDE76FF01F00DAE73046D8E7030300040D
:1011A0001000002000207047002070472DE9F0411A
:1011B00092B005460F46904600211C220BA81E4601
:1011C000189C01F071FC01214FF000528D42CDF8C6
:1011D0000480029103920497059106920796089164
:1011E00009923BD003D3022D4BD0274C32E0274B42
:1011F00012A8A40140F8203D2146FFF7E8FA039B1E
:101200001C430394069B43F014030693099B43F08D
:10121000140304A90AA80993FFF7C5FA01A90AA8AB
:10122000FFF7C1FA07A90AA8FFF7C7FAFFF7BAFF45
:10123000044678B90AA8FFF7D3FA4FF098435A6CDE
:10124000D202FCD55D6DFFF7AFFF114B15F4702F87
:1012500018BF1C46204612B0BDE8F0810D4B12A805
:10126000A40140F8203D2146FFF7B1FA039B1C433F
:101270000394069B43F020030693099B43F020034D
:10128000C7E712A8044BEBE780AFFFFF00020103A2
:1012900080ADFFFF00030103000401032DE9F347C4
:1012A00002281446DDE90A9280460E461F464ED8B3
:1012B0001CB9002002B0BDE8F08713683F2B42D86C
:1012C000516809B1002F3ED1B8F1010F3DD0224D38
:1012D0002249B8F1020F18BF0D4603F03F00E31892
:1012E000136022BF53680133536090B3C0F1400ACA
:1012F000544522D331465246484401F0CAFB0123EB
:101300004A46009329463B464046A4EB0A04FFF7B1
:101310004DFF3F2C56440DD93D46A309009332465C
:101320003B4629464046FFF741FF24F03F031E4459
:1013300004F03F04002CBCD0002022463146484433
:1013400001F0A7FBB5E73D46C7E7054DC5E70548F2
:10135000B0E73F2CF1D9E0E7C22B0000822B000060
:10136000A22B000080AFFFFF2DE9F041012886B0DD
:1013700004460E4690461D4604D045D3022841D06F
:1013800022483CE01C272A68CDE90085D3008DF86F
:101390000F3053098DF80E30530B8DF80D30530D6F
:1013A0008DF80C306B682046D90001EB52718DF836
:1013B0000B1002F03F025909372A8DF80A104FEA44
:1013C00053314FEA535394BFC2F13802C2F178024D
:1013D0008DF809108DF808300D493346FFF75EFF90
:1013E000082233460DEB0201CDE900852046FFF7C8
:1013F00055FF3A4631460C9801F04BFB002006B0F1
:10140000BDE8F0812027BEE71427BCE780AFFFFFCF
:10141000E22B000018B16C22002101F045BB70479F
:1014200007B590F868300190002B00F12803009375
:1014300000F1080314BF01200220FFF72FFF03B0C3
:101440005DF804FB07B590F868200346002A009178
:1014500000F1280200F1080114BF01200220FFF76B
:1014600083FF03B05DF804FB00239942D4BF002141
:101470000121C0E9003380F868107047FFF7D0BF42
:10148000FFF7E0BF00207047002070470020704742
:1014900000207047002070470020704728231B68F9
:1014A000186970472823186870474FF40040704748
:1014B0000120704738B50123042219460220FFF7A6
:1014C00081F8012300211A460220FFF77BF801234F
:1014D00002211A460846FFF775F8012303211A4630
:1014E0000220FFF76FF841F2040401210220204B93
:1014F000204A214D1951C2F80406C2F8FC554FF09C
:101500000215C2F8005605F58035C2F8F0551925C8
:10151000C2F8EC559A684FF4C02542F480620A4341
:101520009A600522DA6045225A614FF0F052A3F525
:10153000003319519A600022104C5A629A631A645F
:101540005A65256005441A66DA656560C3F890201F
:10155000C3F88C205A6B22F003025A63084A1A67B8
:1015600041F2100299649850BDE83840FEF7CABFB6
:101570000000064000C0034002000100004004409B
:10158000242C0000222202210148FEF7F9BD00BFF1
:10159000000006400C4B10B5DA6A92070FD53321D4
:1015A0000A4CD3F89400A269C0F30A10C2F30142B6
:1015B00010440130884200D110BD0146F1E7034BD1
:1015C0009869C0F30140F7E70000044000000640BE
:1015D000312938B505460C461FD8FFF7DBFFF8B9AF
:1015E000114BA04215D1114B01381A8860F30E122D
:1015F0001A800F4AC2F8A03002239364FFF7CAFF93
:101600000028FBD041F2EC5304210020094AD150BC
:1016100038BD2A5CC2540130E3E741F20310F7E71A
:1016200041F20610F4E700BF7C03002030010020E7
:101630000000044000C00340034B10B180225A61F7
:1016400070474022FBE700BF000006400D4BD86EFC
:1016500040F2011398420FD040F2022398420DD07D
:10166000094BC01A094B1B68834209D02ABFC3F536
:101670009673C01AC01870470020F3E79620F1E770
:1016800000207047000004404C0200207803002036
:101690002DE9F041069E04460D461746DBB9FFF7DB
:1016A000D5FFA84202D2FFF7D1FF054600214FF037
:1016B000010E4FF00208194A204666191368DFF838
:1016C00064C0174CB04216D101B1136007B13D6040
:1016D0000020BDE8F0811EB100213046FEF732FF48
:1016E000FFF7B4FFA842DAD2002EF9D0FEF74EFF82
:1016F0000028F5D0D3E71CF803100133B3F5967F2B
:1017000000F8011B04D10023C4F800800121D9E7AF
:10171000962B08BFC4F800E0F8E700BF780300206C
:10172000101004404C02002007B501230022194686
:101730000092FFF7ADFF03B05DF804FB58B1022241
:10174000104B9A625A6B22F002025A634FF4806285
:1017500003F500335A61A1B101210020094B9962C0
:101760005A6B22F001025A63074A1A67074A10604F
:101770004FF40060064A5061996441F21002022160
:101780009950704700000440242C0000780300208A
:10179000000006400146064B042218B141F2EC510C
:1017A0005A50704742F2EC501A500120FFF7C6BF62
:1017B00000C0034000B591B00023402269464FF4B9
:1017C0008070FFF72BF8B0F5A02F034818BF00205A
:1017D00011B05DF804FB00BF4CE30F0000B591B001
:1017E0000023402269464FF48070FFF717F8B0F5E8
:1017F000A02F034818BF002011B05DF804FB00BF04
:101800006CE30F000048704786E20F000023024A95
:101810001370024A13707047AE030020AF0300201C
:1018200038B503780546042B0C4650D008D8012B58
:101830000AD0032B50D1182340F6081023700DE076
:10184000182BF8D0432BF5E7264B42781978D9B9F5
:10185000012A04D0152340F60410237038BD1A70F5
:10186000AB781A44FF2AF5D100228021E81CFEF74C
:101870005AFD95F88320C0F30F239A4216D0152302
:1018800040F602102370E9E7174B1B78934204D10E
:10189000062340F606102370E0E70133DBB29342E3
:1018A000DED0152340F605102370D7E795F8843075
:1018B000C0B2834204D0152340F601102370CDE757
:1018C0006A78094B00201A7006232370C6E70623A6
:1018D00040F607100B70C1E7182340F60310237081
:1018E000BCE700BFAF030020AE030020014B187817
:1018F000704700BFAE0300204FF098435A6CD202ED
:10190000FCD5586D00F4702070470000F0B585B02C
:101910006C46024626460D4B03F110072546186813
:101920005968083303C5BB422C46F7D104AB501E9F
:1019300013F8011D10F8012F914204D1B342F7D1E1
:10194000012005B0F0BD0020FBE700BF642C0000C3
:10195000C0F30C032DE9F04105460F4616460BB9BE
:1019600000F055FA05F5005424F4FF5424F01F0448
:1019700005EB0608A04506D8324639462846BDE89C
:10198000F04100F04BBA204600F041FA04F5005453
:10199000F0E738B504460D46FFF7B8FF40B163697C
:1019A000012B08D1237C012B05D8A3692B6038BDFE
:1019B0002C600120FBE70020F9E72DE9F0479EB0FD
:1019C000446B0646FFF76EFD82462046FFF79EFFFA
:1019D00018B900201EB0BDE8F087237C012BF8D891
:1019E0003427D7F800804046FFF790FF0028F0D05A
:1019F000B8F57F5FEDD8FFF74DFD002835D14FF0EA
:101A0000000902A92046FFF7C4FF0028E1D0029B8D
:101A1000DAF810209A42DCD8B342DAD3B3F5801F4B
:101A2000D7D803A8FEF748FD029A3146921B03A8B7
:101A3000FEF74CFD03A8FEF74BFD029DFFF72AFDC4
:101A40002035029E002849D0B9F1000F43D0A36B86
:101A500003F12402009204332A46314603A8FEF71C
:101A6000B7FCB0FA80F04009B4E7236913F0FF0F28
:101A70002CD01B0A2AD0A56B45B33F683846FFF728
:101A800045FF81460028A4D0B7F57F5FA1D8BB6B86
:101A90005A6C6B6C9A429CD803A8FEF70DFD482245
:101AA000294603A8FEF712FD03A8FEF711FDBB6B44
:101AB00005F1480103F124020092043305F16802A4
:101AC00003A8FEF785FC00289BD082E7FFF7E4FC23
:101AD000002894D07DE7D8F83830B9E7FFF76AFEE0
:101AE0000446FFF77BFE23460090B5E770B5044639
:101AF0000E461546FFF7D6FC0369A3420AD8426991
:101B000063199A4206D32A4631462046BDE8704002
:101B1000FFF71EBF70BD2DE9F04115460746884608
:101B2000FFF7C0FC0646FFF7C0FCC4196319B3F504
:101B3000801F0FD83FB9FFF7B8FC7369834202D901
:101B4000306900F064F92A4641462046BDE8F0417C
:101B5000FFF7FEBEBDE8F081F8B5D0E9006706F1F9
:101B600060460446456BFFF79DFCB6F5C03F01D9C2
:101B70000020F8BD0369BB42FAD8B7F5801FF7D83B
:101B80004033AB4202D8B5F5801F05D9FEF7BAFB4A
:101B900080F00100C0B2ECE7FEF7B4FB20B12046B4
:101BA000BDE8F840FFF709BF2846FFF7AFFEA8B130
:101BB0002B7C012BDCD86B69002BDAD0022BEED109
:101BC000AB69C4F1040119444FF0FF322046FEF71F
:101BD000B7FB034BC31A58425841CAE70120C8E774
:101BE000E320BBDE70B54FF0FF3290B006460D46E5
:101BF000FEF7A6FB1B4B984231D11C22002101A805
:101C000000F052FF184B10AC44F8403D20463146DE
:101C1000FEF7DDFD29462046FEF7D9FD2046FEF7FA
:101C2000DFFDFFF769FE0446C8B940F2022000F06C
:101C3000B3F81C22214609A800F036FF0B4B10AC6C
:101C400044F8203D31462046FEF7C1FD2946204696
:101C5000FEF7BDFD2046FEF7C3FDFFF74DFE002059
:101C600010B070BDE320BBDE010005430100064358
:101C70004FF0FF3310B58CB01C220021044605A89C
:101C8000009300F011FF0D4BCDF804D00493012315
:101C900002930B4B01A904A80393FEF78EFD04A841
:101CA000FEF79EFDFFF728FE30B90098A0422CBF3A
:101CB000002001200CB010BD0020FBE7000008430D
:101CC0000400002030B5054691B01C22002101A877
:101CD00000F0EAFE134B10AC44F8403D2946204684
:101CE000FEF775FD2046FEF77BFDFFF705FE044677
:101CF000A8B940F2022000F04FF81C22214609A8A2
:101D000000F0D2FE084B10AC44F8203D2946204696
:101D1000FEF75DFD2046FEF763FDFFF7EDFD0020B9
:101D200011B030BD0000024300000343B1F5037F52
:101D300010B5044610D34FF40372002100F0B4FE36
:101D4000002304F5C872637004F5A47104F12C003B
:101D5000BDE8104000F098B940F2052010BD13B561
:101D60000446009101462C3000F0D4F9C4F8080272
:101D700018B141F20703984209D1A3784BB140F260
:101D8000032040F20223E278002A08BF184602B07E
:101D900010BD40F20120FAE74FF000534FF20F025E
:101DA00018805A8070474FF000534CF23C325A80F2
:101DB000704700004FF000534FF20F0218805A8016
:101DC000BFF34F8F0549064BCA6802F4E062134324
:101DD000CB60BFF34F8F00BFFDE700BF00ED00E019
:101DE0000400FA054FF000534FF20F015A888A425F
:101DF00001D1188870473AB91B8840F20220012BA4
:101E000018BF4FF4007070474FF40070704708B56A
:101E1000FEF768FCB0FA80F0400908BD10B540EA52
:101E20000204A40706D13AB1FEF77EFCB0FA80F0B6
:101E3000400910BD0020FCE70120FAE770B5D1E9A8
:101E40000152AA4205D290F840302B449B1A402BF5
:101E500010D9002012E00A6890F84040D65C90F853
:101E600041200133224402F03F02013486548B604A
:101E700080F840408B689D42EDD8012070BD2DE96F
:101E8000F8431746D1E90125521B90F8405004460B
:101E90002A4493420E469DF820909DF8248057D9FD
:101EA000FFF7CCFF00285DD1152341F2020084F832
:101EB0004630BDE8F88394F84120A25C7A5594F846
:101EC00041200135013202F03F0284F8412094F8AC
:101ED0004020013A84F8402094F8402012B1AB42EF
:101EE000E9D11D46D6E901128A4201D2AB4231D86E
:101EF000AB42D9D1D4F8882029463846FEF720FADB
:101F0000C4F88800B9F1000F04D02A463946E06CC5
:101F1000FEF7DCFAB8F1000F08D094F843302BB18B
:101F20002B463A463946A06CFEF740FA94F8433007
:101F300043B1E36DA26D2B449342E36524BF0023BC
:101F400084F84330636D41F203001D446565B0E7DA
:101F50000025C1E731688A5C7A55B26801350132E3
:101F6000B260BFE70020A4E77FB50023CDE90033CE
:101F7000082315460DEB03020446FFF780FF41F2EC
:101F800003039842064626D194F8433063B10822F1
:101F9000E06C0DEB0201FEF799FA08230DEB03024A
:101FA0001146A06CFEF702FA039A029B6A6094F84D
:101FB00043202B605AB9094A934208D0084A9342F9
:101FC00005D00822E06C0DEB0201FEF77FFA6B688A
:101FD000236500236365304604B070BDF70A0AF735
:101FE000FC0404FC2DE9F843044658680D461646E7
:101FF0001F46002843D08B0743D1FFF74FFA216ECD
:1020000000F1040C06EB0109CC451DD800F11C02BF
:10201000914219D28C45634638BF0B46914594BF17
:10202000C3EB0909C3EB0209591AA3EB0C0005EB3A
:10203000010868304A464146204400F02AFD4A46DD
:10204000FF21404600F030FDFFF72FFA226E031DFE
:1020500093420AD3B1180830814206D39B1AEA583A
:10206000C4F880204FF0FF32EA50D7E900383246FA
:10207000206E2946C0470020236E1E442666BDE818
:10208000F88341F20200FAE72DE9F04100254FF014
:10209000FF3704468846164603F0200380F8423096
:1020A00080F84650A0F8405080F8435080F84550E2
:1020B00080F84450C0F88870C0E918551822FF21F4
:1020C000683000F0F1FCC4F88070C4F88470C4E992
:1020D00012868822294604F1900000F0E5FC84F87D
:1020E0001851FFF7D5F930B1B8F1000F03D141F223
:1020F0000B00BDE8F081FFF7C9F930B1002EF6D032
:10210000E06CFEF7D9F90020F3E7002EF8D1304655
:10211000EFE700002DE9F04FB7B0CDE908233422F6
:1021200003930023D2F800A00446BAF57F5F8846E7
:10213000409E0A9300F2D98099460A9A039B9A42DC
:102140005BD294F84630152BF8D8DFE813F08B00FB
:10215000A0008400CB0058003F0036003C023F0046
:1021600036023F0005023F0036020D034F04160001
:1021700076037A030C04A2024F040027636D0F2B31
:102180006ED801251023019700950BAA08A92046B7
:10219000FFF775FE41F20303984240F0A880D4F89F
:1021A00048B0FFF72FFB80230CAACDE900030221E2
:1021B0002B465846FEF7D8F8E0E70125D4E914325B
:1021C0009A42C0F05F8184F84650B6E70DF12C0BBF
:1021D000D4E91452AA420A9942D2099BAD1A94F842
:1021E00040205B1A032D134440F2F181032B00F2CF
:1021F000158208A92046FFF721FE002077E001257F
:10220000636D072B99D80823CDE900550BAA08A9BF
:102210002046FFF734FE41F20303984267D198F855
:10222000003043F0020388F800300B9BC8F80430FC
:10223000236D083BC8F824300C9B0593002B51D12B
:10224000052284F8462094F84520636642F0010296
:1022500084F84520D4E70025636D072B40F2DB802E
:10226000012311E006AA08A92046FFF77DFE41F2EE
:10227000030398423BD1079B069A236500236365BD
:10228000B74B9A422ED1022384F8463055E706AA6E
:1022900008A92046FFF768FE41F20303984226D1C1
:1022A00094F84420069B22B1AE4A93421AD10E23E1
:1022B000EAE794F84220D50756D594F84320002A3F
:1022C00040F09783A84A934248D01BD8A74A93422C
:1022D00000F095800ED8A24A934203D002F1B64294
:1022E00093421AD1152384F8463041F2010037B0E9
:1022F000BDE8F08F9E4A9342F4D09E4A9342F1D0BB
:102300009D4AEDE79D4A93421ED00FD89C4A9342C6
:1023100000F091839B4A934218D0152306A884F8B5
:102320004630FFF7AFF80028DFD11AE0964A934213
:10233000D8D0964A9342D5D08A4A9342EDD1FFF73E
:10234000A5F80028B3D0CDE710239DE7112384F82A
:102350004630236DA3650023E365EEE6152384F87C
:10236000463041F20800C2E7824A934233D000F27D
:1023700054837E4A93423DD000F2458302F1D74216
:1023800002F5D81202F6F832934220D006A8FFF7E1
:1023900079F8B0B31423069884F84630C4F88C005A
:1023A000FFF772F894F84230814698067FF5C5AE83
:1023B000B9F1000F3FF4C1AED9F80430002B3FF45F
:1023C000BCAE2046984700283FF4B7AE8DE70B23FC
:1023D0005AE7062358E7072356E70D2354E7FFF78C
:1023E00055F800287FF47EAF94F84330002B3FF47B
:1023F0005EAF77E794F84330002B7FF473AF12237E
:1024000042E7152384F8463094F84330002BA8D0D7
:1024100041F204006BE70123019500930BAA082306
:1024200008A92046FFF72BFD41F2030398427FF4F1
:102430005EAF0B9B03F07F43B3F1407F05D01523C4
:1024400041F2090084F8463051E70C9BD907059307
:102450000ED594F8423043F0010384F84230FFF780
:1024600015F800283FF4F8AE059BDA0504D5F3E62D
:10247000FFF70EF80028F2D0152341F20A0084F885
:10248000463034E7CDE900550BAA08A92046FFF7EE
:10249000F6FC41F2030398427FF429AF08F1080CDF
:1024A00063460BAF0DF1440E3A4603CA72451860FD
:1024B0005960174603F10803F6D11068186098F8C0
:1024C0000030604643F0010388F80030FEF7F0FF6B
:1024D00000287FF473AE152341F20C0084F84630D7
:1024E00005E701230DAACDE9003308A908232046FA
:1024F000FFF7C5FC41F2030398427FF4F8AE98F869
:10250000003043F0040388F800300E9BC8F82830F0
:1025100098F801305B071CD500201D4B60660B93BB
:10252000236DC4F8843094F8453043F0020384F8F6
:102530004530F5686DB1336804220BA9A84708221D
:10254000606E3368F5680DA91044A847636E1033B8
:1025500063660C2384F84630636D072BC1D9ECE524
:10256000EB17A603FC0404FCF70909F7F30B0BF3C4
:10257000F50909F5F60808F6F40A0AF4FA0606FA67
:10258000F70A0AF7F90707F9FD0303FDFE0101FE4B
:10259000EB17A65E0423CDE900550BAA08A9204637
:1025A000FFF76DFC41F2030398427FF4A0AE226D69
:1025B0000B9B042A059301D923660125636D032B28
:1025C000E8D90A2360E60023636608235CE69D429F
:1025D0003FF60FAE9D4228BF1D460123032D88BF45
:1025E00025F00305CDE900335A462B4608A92046BD
:1025F000FFF745FC41F2030398427FF478AE94F86C
:102600004630082B13D1B7688FB133682A46594634
:10261000606EB847636E1D446566D9E5402D28BFDE
:102620004025D7E74FF0FF320BF805200135032D89
:10263000F8D90A2B06D133462A4659462046FFF7D9
:10264000D1FCC5E5052B18D198F801309F077FF51F
:10265000BFADF368002B3FF4BBAD626E042A0AD80D
:102660005319062B07D90CAB9B1A1A68C4F884209F
:102670004FF0FF321A60F768C7E70C2B7FF4A8AD64
:1026800098F8013058077FF5A3ADF768002FBCD14B
:102690009EE594F84230990607D5D4F88C00FEF7F1
:1026A000F3FE814600283FF420AE01273FE0002BD7
:1026B00058D0B9F1000F55D0D9F81030002B51D0B7
:1026C00020469847DDE90953ED1A94F840302B4431
:1026D00098423FF68EADD4E91452AD1A402D28BF72
:1026E00040259D4228BF1D46CDE900772B460BAA09
:1026F00008A92046FFF7C3FB41F2030398427FF489
:10270000F6AD94F842309A0611D5B9F1000F3FF4B6
:10271000ECADD9F808B0BBF1000F3FF4E6AD33469D
:102720002A460BA92046D84700287FF4E0ADD4E91B
:10273000142194F84230914203F02003B7D3002BC8
:102740003FF48EADB9F1000F3FF48AADD9F80C30EB
:10275000002B3FF485AD31462046984700283FF4D2
:102760007FADC4E50120ADE700230BAACDE900331E
:1027700008A904232046FFF782FB41F20303984295
:102780007FF4B5ADD4F88820B14B9A4205D015231B
:1027900041F2050084F84630A9E5FEF777FE10B94E
:1027A000012388F8033098F80330002B3ED094F8CA
:1027B00045309B0707D0F5682DB10422336804F13A
:1027C00084011046A847236E83B3736873B34FF038
:1027D000FF3336AF47F8C43D04F18009042249466F
:1027E000384600F047F940B1FEF75FFE28B1D6E960
:1027F0000035042249461044A84704F16805042224
:102800002946384600F036F980B17768FEF746FE73
:102810003368142204F16C010830B8477768FEF77A
:102820003DFE0422336829461044B847012388F846
:1028300002300F2384F84630DFE4012384F843306C
:1028400022E594F81831002B7FF477AC626D019388
:10285000032A10D801230BAA009308A904232046B9
:10286000FFF70DFB41F2030398427FF440AD0B9B51
:10287000C4F8903061E4432A1AD801230BAA0093CC
:1028800008A940232046FFF7FAFA41F203039842D1
:102890007FF42DAD0BAD04F194021BAF2B4603CB9F
:1028A000BB42106051601D4602F10802F6D144E4BB
:1028B000472A4FF00102009217D804230BAA08A957
:1028C0002046FFF7DCFA41F2030398427FF40FAD94
:1028D0000B9BC4F8D430DAF83820002A3FF4FBAD63
:1028E000526C9A427FF629ACF5E540230BAA08A961
:1028F0002046FFF7C4FA41F2030398427FF4F7AC95
:1029000004F1D80C67460BAB1BAD1A4603CAAA42AA
:10291000CCF80000CCF8041013460CF1080CF4D1EC
:102920002846FDF7C9FD482204F190012846FDF72D
:10293000CDFD2846FDF7CCFDDAF83830394603F1F5
:1029400024020092043304F1F8022846FDF740FD0A
:1029500028B1152341F2060084F84630C7E401236C
:1029600084F8183190E494F84430002B7FF478AC6C
:10297000CDE900330BAA402308A92046FFF77FFAD0
:1029800041F2030398427FF4B2ACE06CFDF7A0FD86
:1029900094F8183173B104F1B403009304F1940373
:1029A000E06C13AA0BA9FDF713FDC8B1002388F84A
:1029B0000330CEE7FEF76EFD30B1DAF8383003F1C0
:1029C000240200920433EBE7E56CFEF7F3FE0746C2
:1029D000FEF704FF3B46009013AA0BA92846E2E746
:1029E000012388F8033084F8443039E441F20700C9
:1029F0007DE4184A93423FF4EEAC0ED8164A934257
:102A00007FF4BAAC6EE4154A93423FF4E2AC144A48
:102A100093427FF4BBAC042336E4124A93423FF462
:102A2000DEAC0AD8104A93427FF4B0AC94F843303D
:102A3000002B7FF457AC132326E40C4A93423FF457
:102A4000CCAC0B4A93427FF4A1AC09231CE400BF39
:102A5000E320BBDEF60808F6F30B0BF3F40A0AF4E6
:102A6000F50909F5FC0404FCF70A0AF7FD0303FD68
:102A7000FE0101FE30B50024A24201D1002007E092
:102A8000035D01340D1915F8015CAB42F4D0581BFD
:102A900030BD431E0A4410B5914200D110BD11F85B
:102AA000014B03F8014FF7E702440346934200D17C
:102AB000704703F8011BF9E7F8B500BFF8BC08BC84
:102AC0009E467047F8B500BFF8BC08BC9E467047EC
:102AD0000400000700000D1013001A2026303840B3
:102AE0005000000007B0CD5E0100000003000A01A5
:102AF000C42C00000040000000001000F000100096
:102B0000E9000000ED000000591B00002D1D000031
:102B10005F1D00000000000013B779FAC925DDB77A
:102B2000ADF3CFE0F1B614B80101000000000000E1
:102B3000C02C00004000000003000A01000000005B
:102B40000000000000000000000000000000000085
:102B5000000000000000000000000000ED1A00006E
:102B600000000000171B00005201FFFF00000000E2
:102B70000000000000000000000000000004180930
:102B8000010A67452301EFCDAB8998BADCFE10320C
:102B90005476C3D2E1F00000000000000000000005
:102BA0000000C1059ED8367CD5073070DD17F70EC2
:102BB0005939FFC00B316858151164F98FA7BEFA57
:102BC0004FA46A09E667BB67AE853C6EF372A54FFA
:102BD000F53A510E527F9B05688C1F83D9AB5BE0A1
:102BE000CD1980000000000000000000000000007F
:102BF00000000000000000000000000000000000D5
:102C000000000000000000000000000000000000C4
:102C100000000000000000000000000000000000B4
:102C20000000000050091003240006404C02002060
:102C30001300000009000000000100000202000073
:102C4000130000005009100324000640E202002097
:102C50001300000009000000000200000101000054
:102C6000D3FFFFFFB814B6F1E0CFF3ADB7DD25C950
:082C7000FA79B713000000001F
:102C78000100000000FF000000000000000000004C
:102C8800000000000000000000000000000000003C
:102C9800000000000000000000000000000000002C
:102CA800F07F10307C0300203C000640000000004C
:082CB80065000000410000006E
:04000003000000A158
:00000001FF
