:1040000000100020E9410000454200004542000048
:104010008D830000454200004542000045420000FB
:104020004542000045420000454200004542000074
:1040300045420000B0BC010045420000454200007E
:104040004542000045420000454200004542000054
:104050004542000045420000454200004542000044
:104060004542000045420000937E0000A1C90000C7
:104070004542000045420000454200004542000024
:104080004542000045420000454200004542000014
:1040900045420000C98B0000454200004542000037
:1040A00045420000759000004D9000004542000020
:1040B00045420000454200004542000019820100CF
:1040C000B9810100B5810100197901001582010053
:1040D000BD810100DD810100C18101006D61010030
:1040E0005582010045420000454200004542000063
:1040F0004542000075840000454200004542000032
:104100004542000045420000454200004542000093
:104110004542000045420000454200004542000083
:104120004542000045420000454200004542000073
:104130004542000010B5054C237833B9044B13B148
:10414000044800E000BF0123237010BD7C1600204E
:104150000000000094EA010008B5034B1BB10349BD
:10416000034800E000BF08BD0000000080160020EA
:1041700094EA0100154B002B08BF134B9D46A3F595
:10418000803A00218B460F461348144A121A14F045
:10419000D6F90F4B002B00D098470E4B002B00D0C8
:1041A00098470020002104000D000D48002802D08F
:1041B0000C4800E000BF14F051F92000290006F07F
:1041C0006FFB14F025F900BF00000800001000206C
:1041D00000000000000000007C160020F4300020E9
:1041E000000000000000000080B582B000AF00F0C9
:1041F0002DF80F4B7B600F4B3B6007E07A68131D77
:104200007B603B68191D396012681A603B680A4A76
:104210009342F3D3094B3B6004E03B681A1D3A60BC
:1042200000221A603B68064A9342F6D3FFF7A2FFCA
:104230009CEA0100001000207C1600207C16002063
:10424000F430002080B400AFFEE7000080B400AF7F
:10425000074B084A9A60064BD3F88830044A43F467
:104260007003C2F8883000BFBD465DF8047B70471C
:1042700000ED00E00040000080B400AF034B1B687D
:104280001846BD465DF8047B704700BF081000204B
:1042900080B483B000AF7860044A7B68136000BFCD
:1042A0000C37BD465DF8047B704700BF0810002046
:1042B00080B582B000AF00237B600E4B1B6F03F014
:1042C0000703022B04D0032B06D0012B08D00AE0F1
:1042D000FFF7D2FF786007E0074B1B687B6003E0C5
:1042E000064B7B6000E0FEE77B6818460837BD465A
:1042F00080BD00BF0080004000100020002D310173
:1043000080B582B000AFFFF7D3FF7860094B1B6F19
:104310001B0B03F003033B603B6801337A68B2FB7D
:10432000F3F37B60044A7B6813607B6818460837A8
:10433000BD4680BD008000400C10002080B400AF5E
:10434000024B1846BD465DF8047B704700B4C404B8
:1043500080B400AF034B1B681846BD465DF8047B74
:10436000704700BF0010002080B582B000AF7860B9
:10437000074A7B681360074B1B6F03F00703032B8F
:1043800001D1FFF7BDFF00BF0837BD4680BD00BFAC
:10439000001000200080004080B400AF00231846C9
:1043A000BD465DF8047B704780B400AF024B1846F1
:1043B000BD465DF8047B7047002D310180B483B0A9
:1043C00000AF00237B602C4B9B681B0C03F01F038A
:1043D0000C2B48D801A252F823F000BF1144000072
:1043E0006744000067440000674400006744000021
:1043F0006744000043440000494400004F4400006B
:1044000067440000554400005B4400006144000024
:10441000194B9B6803F04073B3F1807F07D0B3F171
:10442000007F07D0002B08D1144B7B6008E0144BB1
:104430007B6005E0134B7B6002E000237B6000BFE4
:1044400012E0114B7B600FE0104B7B600CE0104BD7
:104450007B6009E00F4B7B6006E00F4B7B6003E065
:104460000E4B7B6000E000BF7B6818460C37BD46F2
:104470005DF8047B704700BF0040014A00093D0021
:1044800080841E0040420F00405DC6000024F400FE
:10449000C0EA210180BA8C010048E801005A62029A
:1044A00080B400AF4FF400431846BD465DF8047B6E
:1044B000704780B400AF4FF47A731846BD465DF87C
:1044C000047B704780B400AF034B1B681846BD46A1
:1044D0005DF8047B704700BF04100020B0B582B0C7
:1044E00000AF786078680DF073FE074A7B68144669
:1044F0001D460FCD0FC495E80F0084E80F00002380
:1045000018460837BD46B0BD9816002080B48DB05F
:1045100000AF78600B46FB7013463B8000237B8521
:10452000B7F9003047F6FF72934201D1FF23E7E06D
:10453000FB78032B01D90023E2E0FB78DB00734A10
:1045400013443B623B6A9B78FB770023BB61FA7F95
:10455000BB699342B8BF13467B613B6A1B78012B52
:1045600025D13B6ADB789AB27B699BB2D31A9BB2A6
:104570007B8505E0B7F92A309BB2013B9BB27B8576
:10458000B7F92A30002B0BD03B6A5A68B7F92A30AA
:104590005B001344B3F90030B7F900209A42E9DB1D
:1045A0007B8DDAB27B69DBB21344DBB2A8E03B6AF5
:1045B0005B683B613B69002B01D10023A0E03B69B4
:1045C000B3F90030B7F900209A4203DD3B691B883C
:1045D0003B8009E03B69B3F90230B7F900209A4209
:1045E00002DA3B695B883B80C8233B852823FB8438
:1045F0003B699B88FF2B09D17B8D01339BB27B8567
:104600003B69DB883B853B699B68FB84B7F92820C5
:10461000B7F90030D21AB7F9263092FBF3F39AB209
:104620007B8D13449BB27B853B6A5B789BB2013BDD
:104630009BB21BB2B7F92A209A4205DD3B6A5B7830
:104640009BB2013B9BB27B85B7F92A30DB003A690C
:1046500013440433FB60FB685A68FB68B3F902300B
:104660001946B7F9003003FB01F31344002B02DABB
:104670000023FB620BE0FB685A68FB68B3F9023069
:104680001946B7F9003003FB01F31344FB62FB6AE0
:1046900003F5FA731E4AA2FB03239B09FB62B7F9D9
:1046A0002A309BB201339BB27B85B7F92A303A6A34
:1046B0005278934209DAB7F92A303A69DB00134499
:1046C0009B881A46FB6A9342BED9B7F92A30013B50
:1046D0003A69DB0013449B881A46FB6A934207D968
:1046E000B7F92A30013B3A69DB0013449B88FB622F
:1046F000FA6A7B699A4201D27B69FB62FB6ADBB290
:1047000018463437BD465DF8047B70479816002084
:10471000D34D621080B48BB000AF78600B46FB7055
:104720001346BB70FB78032B01D9624BBBE0FB78CF
:10473000DB00614A13443B623B6A1B78012B28D1A2
:104740003B6ADB78BA789A4202D93B6ADB78BB7065
:104750003B6A9B78FB740023FB60FA7CFB68934206
:10476000B8BF1346DBB2BA78D31ABB70BA783B6ACB
:10477000DB7819463B6A9B78CB1A9A4201DD00230D
:10478000BB703B6A5A68BB785B001344B3F90030D6
:1047900089E03B6A5B68FB61FB69002B01D1454BFB
:1047A00081E0FB690433BB61BB69002B01D1414B44
:1047B00079E0BB78FA69B2F90220934203DCFB6925
:1047C000B3F902306FE03B6ADB78BA789A4203D3E0
:1047D000FB69B3F9003066E03B6A5B78013B87F820
:1047E0002630BB691B88FF2B04D197F82630013B8C
:1047F00087F82630002387F827300FE097F8273016
:104800000133DB00BA6913441A88BB789BB29A4221
:104810000BD397F82730013387F8273097F82720F4
:1048200097F826309A42E9D300E000BFBB784FF4F6
:104830007A7202FB03F297F82730DB00B9690B4468
:104840005B68D31A7B6197F82730DB00BA691344A1
:10485000B3F90230DA0F13445B101BB21A467B69BE
:10486000134497F82720D200B9690A44B2F902200C
:1048700093FBF2F37B61FB69B3F900301A467B6965
:10488000934203DDFB69B3F900300CE0FB69B3F937
:1048900002301A467B69934203DAFB69B3F90230AE
:1048A00001E07B691BB218462C37BD465DF8047BDE
:1048B000704700BF0080FFFF9816002080B500AF52
:1048C0000348FFF70BFE01200DF0CAFC00BF80BDBE
:1048D00078E7010080B582B000AF3B4600221A6045
:1048E0005A600123BB703B4619464FF0FF300DF074
:1048F00043FC00BF0837BD4680BD000080B586B0D0
:1049000000AF3B1D00221A605A609A60DA601A619B
:1049100002233B71094BBB6002237B730423BB73EF
:104920000223FB7405233B753B1D19464FF0FF30F6
:104930000DF068FD00BF1837BD4680BD006A180045
:1049400080B582B000AF00F00EF9786000BF083784
:10495000BD4680BD80B58EB000AFF860B9607A60AA
:1049600000F001F978637B6B002B02D06FF03B0302
:104970001DE007F11403184600F07EF978637B6BA5
:10498000002B02D06FF03B0311E007F11403BA686B
:10499000F968184600F020F878637B6B002B04D18F
:1049A0007B68BA681A60002301E06FF03B03184689
:1049B0003837BD4680BD80B584B000AFF860B960BF
:1049C0007A603B603A687968B868FFF7C3FF0346CE
:1049D00018461037BD4680BD80B590B000AFF86076
:1049E000B9607A600023BB62FB68002B05D07B684E
:1049F000002B04D0BB68002B01D1212384E0FB688D
:104A0000BB637B6803F003037B637B6823F00303D2
:104A10007B607B68002B2CD0FB684FF0E0621A6053
:104A2000FB6800225A60FB6800229A60FB68002243
:104A3000DA61BB68FB6101233B627B6843F0005392
:104A40007B6207F11C031946B86B01F0CDFF796852
:104A5000B86B01F0EAFFF86800F0E6F838633B6BEA
:104A6000002B06D07A680021B86813F068FD3B6B14
:104A70004AE07B6B002B46D0FB684FF0E0621A6087
:104A8000FB6800225A60FB6800229A60FB680022E3
:104A9000DA6107F128033B6101237B611C4BBB6199
:104AA00007F110031946B86B01F09EFF0421B86BA3
:104AB00001F0BBFFF86800F0B7F838633B6B002BE0
:104AC00009D07A687B6B13441A460021B86813F04A
:104AD00036FD3B6B18E0BA687B681344FB62002329
:104AE000FB630CE0BA6AFB6BDB0022FA03F1FA6AA3
:104AF000FB6B1344CAB21A70FB6B0133FB63FA6B96
:104B00007B6B9A42EED3002318464037BD4680BDEA
:104B10000400002080B400AF4FF098435B6C03F4B6
:104B20008013002B14BF01230023DBB21846BD46BF
:104B30005DF8047B704780B500AF00BFFFF7EAFF68
:104B4000034683F00103DBB2002BF7D100BF80BD29
:104B500080B500AFFFF7EFFF4FF098435B6D03F4B4
:104B60007023184680BD80B483B000AF00237B6003
:104B70007B6818460C37BD465DF8047B704780B4EF
:104B800083B000AF78607B68B3F5802F2BD0B3F58E
:104B9000802F0FD8B3F5803F1FD0B3F5803F02D8E8
:104BA000002B18D029E0B3F5003F18D0B3F5403FF3
:104BB00017D022E0B3F5C02F19D0B3F5C02F03D81A
:104BC000B3F5A02F11D018E0B3F5E02F11D0B3F555
:104BD0007F0F10D011E0002310E048230EE02A23BD
:104BE0000CE02C230AE04B2308E0012306E001231C
:104BF00004E0212302E0062300E0012318460C37DD
:104C0000BD465DF8047B704780B400AF00231846B2
:104C1000BD465DF8047B704780B400AF00231846A2
:104C2000BD465DF8047B704780B584B000AF786006
:104C30007B68002B01D121231AE0FFF7E5FFF86024
:104C4000FB68002B01D0FB6812E07B68184601F07E
:104C500009FFFFF77DFFB860FFF7DEFFF860BB6874
:104C6000002B01D1FB6803E0B868FFF788FF03461B
:104C700018461037BD4680BDB0B58AB000AF786029
:104C800007F1080320220021184613F058FC7B6826
:104C9000002B01D121230AE07B681D4607F108049F
:104CA0000FCC0FC594E80F0085E80F0000231846CD
:104CB0002837BD46B0BD80B483B000AF03460A4676
:104CC000FB711346BB7100BF0C37BD465DF8047B1A
:104CD000704780B500AF01211520FFF7ECFF05F00C
:104CE000D3FC00F00AF800BF80BD80B500AF012101
:104CF0001520FFF7E0FF00BF80BD80B500AF0123A6
:104D000004220321032001F021FC0023184680BD6A
:104D100080B500AF002304220321032001F016FC1C
:104D20000023184680BD80B500AF05F025FD05F0D5
:104D30003BFD05F03FFD05F051FD05F05BFD00BFBB
:104D400080BD80B500AF05F05BFD05F060FD05F0AE
:104D500065FD05F06AFD00BF80BD000080B483B032
:104D600000AF03463960FB7197F90730002B0ADB6F
:104D70003B68DAB20C4997F907301201D2B20B4402
:104D800083F800230AE03B68DAB20849FB7903F0B4
:104D90000F03043B1201D2B20B441A7600BF0C374A
:104DA000BD465DF8047B704700E100E000ED00E0E7
:104DB00080B582B000AFFB23FB710BE097F90730A1
:104DC00005211846FFF7CAFF97F90730DBB2013318
:104DD000DBB2FB7197F907303C2BEFDD002318465F
:104DE0000837BD4680BD000080B500AF024800F026
:104DF0005BFD0023184680BD00B4C40480B400AF3E
:104E000000231846BD465DF8047B704780B582B02C
:104E100000AF4FF040235B6F4FF0402243F001039F
:104E200053673B4600221A601A7100233B713B46D0
:104E3000184601F076FA002318460837BD4680BDB3
:104E4000B0B586B000AF1C4B3C461D460FCD0FC41D
:104E50002B681A46228002341B0C237000237B73BC
:104E60004FF0FF337B617B69B3F1FF3F08D1134BF8
:104E70001B884FF6FF72934202D0104B1B887B6158
:104E80007B69B3F1FF3F01D18C237B617B69B3F177
:104E9000FF3F05D07B69DBB27B727B69DBB2BB7203
:104EA0000748FFF761FA3B46184600F079FD0023FA
:104EB00018461837BD46B0BD48BC01000001E00FE0
:104EC00000F0490280B485B000AF78600C4B1A68DE
:104ED0007B6813440B4A934202D94FF0FF3309E039
:104EE000074B1B68FB60064B1A687B681344044A37
:104EF0001360FB6818461437BD465DF8047B7047A5
:104F0000101000200080012080B500AFFFF7F8F9F5
:104F10000346184680BD000090B585B000AF03463B
:104F2000FB710023FB60FB79252B00F2BA8001A204
:104F300052F823F0CD4F0000D74F0000E14F0000A2
:104F4000F74F00000D5000002550000033500000C6
:104F5000415000004F5000005D5000006B500000B9
:104F6000795000008750000095500000A3500000C9
:104F7000D74F000041500000A3500000A350000094
:104F80004F500000D74F0000F74F00000D500000B9
:104F9000F74F000025500000D74F0000415000009F
:104FA000F74F0000955000003350000033500000D0
:104FB0003350000033500000F74F0000F74F00005F
:104FC000F74F00005D5000006B500000FFF770F9D4
:104FD0000346FB6066E0FFF793F90346FB6061E080
:104FE000FFF766F90446022000F0DEF80346B4FB42
:104FF000F3F3FB6056E0FFF783F90446032000F06B
:10500000D3F80346B4FBF3F3FB604BE0FFF778F90A
:105010000446032000F0C8F80346B4FBF3F35B0832
:10502000FB603FE007F10C030021184600F09CFFF5
:1050300038E007F10C030021184600F0F1FD31E0E3
:1050400007F10C030021184600F032FE2AE007F1B8
:105050000C030021184600F065FE23E007F10C0365
:105060000021184601F024F81CE007F10C03002190
:10507000184600F04FF815E007F10C030021184620
:1050800000F08AFD0EE007F10C030021184600F045
:105090000FF807E007F10C030021184600F0C2FFEB
:1050A00000E000BFFB6818461437BD4690BD00BF46
:1050B00080B584B000AF786039600023FB60144B8A
:1050C000D3F8803003F00303022B02D0032B06D069
:1050D0000BE0FFF715F9F8600B23FB7208E0FFF710
:1050E0006DF9F8600523FB7202E00023FB7200BF3C
:1050F0007B68002B02D07B68FA681A603B68002B43
:1051000002D03B68FA7A1A7000BF1037BD4680BDE6
:105110000080004080B584B000AF78603960002323
:10512000FB60204BD3F8083203F00703013B032B4D
:1051300024D801A252F823F0495100005551000033
:10514000615100006D510000FFF7AAF9F8600823D3
:10515000FB7216E0FFF7B6F9F8600723FB7210E068
:10516000FFF7A7F9F8600923FB720AE0FFF7C8F818
:1051700003469B0AFB600C23FB7202E00023FB72D8
:1051800000BF7B68002B02D07B68FA681A603B681E
:10519000002B02D03B68FA7A1A7000BF1037BD4668
:1051A00080BD00BF0080004080B485B000AF0346E2
:1051B000FB710023FB60FB79013B0E2B36D801A26B
:1051C00052F823F0015200000F5200001F5200005D
:1051D0002D5200002D5200002D5200002D520000D3
:1051E0002D5200002D5200002D5200002D520000C3
:1051F0002D5200002D5200002D52000001520000DF
:105200000F4B1B6F1B0B03F00303FB600FE00C4BFA
:10521000D3F890301B0E03F01F03FB6007E0084B30
:105220001B6F9B0A03F00103FB6000E000BFFB68FB
:10523000013318461437BD465DF8047B704700BF44
:105240000080004080B582B000AF03463960FB713A
:10525000FB79013B0E2B66D801A252F823F000BF68
:105260009D520000DF52000005530000275300004C
:105270002753000027530000275300002753000046
:105280002753000027530000275300002753000036
:1052900027530000275300009D5200003B68012B5C
:1052A00004D03B68022B01D03B68042B00BF00F008
:1052B000F3FE00F097FE1E4B1B6F23F440523B6839
:1052C000013B1B031A4913430B67FFF71DFE0346FF
:1052D0000021184600F04AFC00F08CFE24E03B68F8
:1052E000002B02D03B68202B00BF114BD3F890302D
:1052F00023F0F8523B68013B1B060D491343C1F8EC
:10530000903011E03B68012B01D03B68022B00BFBD
:10531000074B1B6F23F480623B68013B9B020449EF
:1053200013430B6700E000BF00BF0837BD4680BDD8
:105330000080004080B584B000AF0346FB710023BD
:10534000FB73FB79252B00F2B08001A252F823F009
:10535000E9530000AB540000AB540000AB54000014
:10536000AB5400002D5400003B5400004954000091
:10537000575400006554000073540000815400002D
:105380008F5400009D540000AB540000AB5400004B
:1053900049540000AB540000AB54000057540000C7
:1053A000AB540000AB540000AB540000AB54000001
:1053B0002D540000AB54000049540000AB540000D1
:1053C0009D5400003B5400003B5400003B5400003F
:1053D0003B540000AB540000AB540000AB54000041
:1053E0006554000073540000334B1B6F03F0070338
:1053F000013B032B16D801A252F823F01F540000E2
:105400000D54000013540000195400000423FB73D2
:105410000BE00323FB7308E00623FB7305E0022384
:10542000FB7302E00023FB7300BF3FE007F10F03B3
:105430001946002000F098FD38E007F10F031946E7
:10544000002000F0EDFB31E007F10F0319460020CA
:1054500000F02EFC2AE007F10F031946002000F0AF
:1054600061FC23E007F10F031946002000F020FE45
:105470001CE007F10F0319460020FFF74BFE15E073
:1054800007F10F031946002000F086FB0EE007F13C
:105490000F0319460020FFF70BFE07E007F10F038B
:1054A0001946002000F0BEFD00E000BFFB7B18465F
:1054B0001037BD4680BD00BF0080004080B584B07D
:1054C00000AF03460A46FB711346BB710023FB6025
:1054D0000023FB72FB79252B00F2DF8101A252F839
:1054E00023F000BF7D5500009B5800009B58000032
:1054F0009B5800009B580000295600006156000090
:10550000B1560000E956000021570000795700000D
:10551000D15700002D5800005B5800009B58000038
:105520009B580000B15600009B5800009B5800009B
:10553000E95600009B5800009B5800009B58000053
:105540009B580000295600009B580000B1560000EF
:105550009B5800005B580000615600006156000037
:1055600061560000615600009B5800009B580000E7
:105570009B5800002157000079570000BB79023B7F
:10558000042B28D801A252F823F000BFD155000007
:10559000A7550000A1550000D7550000CB550000CD
:1055A0000223FB6018E00323FB60B14B9B6A03F00E
:1055B0000203002B14BF01230023FB72AC4B03F545
:1055C0008153083301221A6006E00423FB6003E0E4
:1055D0000123FB6000E000BF00F05EFD00F002FD73
:1055E000A44B1B6F23F00702A249FB6813430B6710
:1055F000FFF78AFC03460021184600F0B7FA00F0D6
:10560000F9FCFB7A83F00103DBB2002B0AD0BB79F3
:10561000032B00D007E0964B03F5005328330122FB
:105620001A6000E000BF39E1BB79052B07D00D2BD4
:1056300002D0022B06D008E00123FB6005E0022324
:10564000FB6002E00323FB6000BF8A4BD3F880318C
:1056500023F003028749FB681343C1F880311DE141
:10566000BB79023B032B17D801A252F823F000BFED
:105670009356000087560000815600008D560000AA
:105680000123FB6009E00223FB6006E00323FB60CB
:1056900003E00423FB6000E000BF764BD3F8203129
:1056A00023F007027349FB681343C1F82031F5E08A
:1056B000BB79082B04D0092B08D0072B03D008E0B6
:1056C0000123FB6005E00223FB6002E00323FB6093
:1056D00000BF684BD3F8403123F003026549FB68F3
:1056E0001343C1F84031D9E0BB79082B04D0092B12
:1056F00008D0072B03D008E00123FB6005E002235C
:10570000FB6002E00323FB6000BF5A4BD3F860311B
:1057100023F003025749FB681343C1F86031BDE031
:10572000BB79073B052B1BD801A252F823F000BF21
:105730004F570000495700005557000061570000BF
:10574000615700005B5700000123FB6009E0022362
:10575000FB6006E00323FB6003E00423FB6000E042
:1057600000BF444BD3F8003223F007024149FB68E5
:105770001343C1F8003291E0BB79073B052B1BD8DE
:1057800001A252F823F000BFA7570000A157000064
:10579000AD570000B9570000B9570000B3570000DB
:1057A0000123FB6009E00223FB6006E00323FB60AA
:1057B00003E00423FB6000E000BF2E4BD3F8083267
:1057C00023F007022B49FB681343C1F8083265E058
:1057D000BB79013B062B1DD801A252F823F000BF74
:1057E0000F58000015580000FD5700001558000024
:1057F0001558000009580000035800000123FB6001
:1058000009E00223FB6006E00323FB6003E00023C2
:10581000FB6000E000BF174BD3F8003123F0030218
:105820001449FB681343C1F8003137E0BB79052BFD
:1058300005D00B2B00D005E00223FB6002E0032320
:10584000FB6000BF0B4BD3F8803023F00302094903
:10585000FB681343C1F8803020E0BB79082B04D0EB
:10586000092B0CD0072B07D00CE00123FB6009E0CB
:1058700000C00040008000400223FB6002E00323E0
:10588000FB6000BF074BD3F8403223F00302054909
:10589000FB681343C1F8403200E000BF00BF10377F
:1058A000BD4680BD0080004080B588B000AF786004
:1058B000786800F0BBFAF861FB69002B03D0FB6944
:1058C000B3F1FF3F00BF324B5B68012B0CD1304B73
:1058D00003F50053043301221A6000BF2C4B9B696F
:1058E00003F00303002BF9D10020FFF723FD03464B
:1058F000042B03D100F0D0FB00F074FBFB6923F014
:105900004073FB617B68234A934203D0224A93424F
:1059100005D009E0FB6943F00073FB6104E0FB691B
:1059200043F08073FB6100BF00BF1C4BDB6803F0DA
:105930000603002BF9D1194B9B68BB61174AFB6921
:105940009360FB6903F4F8137B61144B9B6803F4C9
:10595000F8133B617A693B699A4203D17868FEF794
:1059600097FC02E00D4ABB6993600020FFF7E2FC60
:105970000346042B08D1FFF7C7FAF8600021F86846
:1059800000F0F4F800F036FB00BF2037BD4680BDC4
:1059900000C0014040420F0080841E000000014012
:1059A00080B582B000AF78600020FFF7C3FC0346EB
:1059B000032B00F0D1806A4B45F60E02C3F880201D
:1059C000674B03F58153083302221A60644B03F5D9
:1059D0000053283301221A6000BF614B9B6D03F412
:1059E0008033002BF9D17B681B781A067B685B78C3
:1059F0001B051A437B68DB781B041A437B681B7901
:105A00001B031A437B685B799B0113437A68927985
:105A10001A43534B1A61524B9B6903F000437A6857
:105A2000D279920613437A68127A120613437A687F
:105A3000527A120413437A68927A120213437A68F4
:105A4000D27A1146464A0B439361454B1B6A23F0B9
:105A50000D037A68527B002A01D1002200E008225F
:105A600013437A68127B920013437A68527B114683
:105A70003B4A0B4313627B685B7B002B51D1384B55
:105A80009B6A23F033037A68927B520113437A684E
:105A9000D27B12011343324A43F00103936200BFE9
:105AA0002F4B9A6D2F4B13402E4A9342F8D12C4B1B
:105AB00003F58153083302221A6000BF284B9B6D07
:105AC00003F08043002BF9D1254B1B6923F47003AD
:105AD0007A68927812051146214A0B431361204BD4
:105AE00003F5805318334FF000421A607B681B7C2B
:105AF00083F00103DBB2002B05D0194B03F50053F3
:105B0000283302221A607B685B7C83F00103DBB2DE
:105B1000002B18D0124B03F50053283301221A60D2
:105B200011E00F4B9B6A23F033037A68927B52019A
:105B300013437A68127C520013437A68527C1146F0
:105B4000074A0B4393627B689B7C002B05D0044B78
:105B5000054AC3F8802000E000BF0837BD4680BD7D
:105B600000C0004003000140F1A7FFFF80B582B0F4
:105B700000AF786039603B68002B04DD0121786854
:105B800000F00AF903E00021786800F005F900BF91
:105B90000837BD4680BD000080B584B000AF786096
:105BA00039600023FB601D4BD3F8003103F0030381
:105BB000032B20D801A252F823F000BFF15B0000B4
:105BC000CD5B0000D95B0000E55B0000FEF7C0FB89
:105BD000F8600323FB7211E0FEF774FCF860072302
:105BE000FB720BE0FEF7D8FBF8600623FB7205E0C2
:105BF0000123FB7202E00023FB7200BF7B68002BD5
:105C000002D07B68FA681A603B68002B02D03B68C0
:105C1000FA7A1A7000BF1037BD4680BD0080004080
:105C200080B584B000AF786039600023FB601F4B03
:105C3000D3F8203103F00703013B032B22D801A244
:105C400052F823F0555C0000615C00006D5C0000C0
:105C5000795C0000FEF710FBF8600423FB7214E08F
:105C6000FEF776FBF8600323FB720EE0FEF7A6FB5F
:105C7000F8600523FB7208E0FEF796FBF86002234C
:105C8000FB7202E00023FB7200BF7B68002B02D096
:105C90007B68FA681A603B68002B02D03B68FA7A8E
:105CA0001A7000BF1037BD4680BD00BF00800040A5
:105CB00080B584B000AF786039600023FB60184B7A
:105CC000D3F8403103F00303022B09D0032B0DD08E
:105CD000012B11D1FEF7E4FBF8600823FB720EE004
:105CE000FEF7F0FBF8600723FB7208E0FEF7E1FB2C
:105CF000F8600923FB7202E00023FB7200BF7B689F
:105D0000002B02D07B68FA681A603B68002B02D037
:105D10003B68FA7A1A7000BF1037BD4680BD00BFDD
:105D20000080004080B584B000AF78603960002307
:105D3000FB60184BD3F8603103F00303022B09D04A
:105D4000032B0DD0012B11D1FEF7AAFBF86008231D
:105D5000FB720EE0FEF7B6FBF8600723FB7208E06B
:105D6000FEF7A7FBF8600923FB7202E00023FB7239
:105D700000BF7B68002B02D07B68FA681A603B6822
:105D8000002B02D03B68FA7A1A7000BF1037BD466C
:105D900080BD00BF0080004080B485B000AF786057
:105DA00039601E4BDB6903F48033B3F5803F0CBFD1
:105DB00001230023FB72194B41F67132DA63174B52
:105DC0009B6823F44013FB607B68154A934203D918
:105DD000FB6843F48013FB60104AFB689360114B2F
:105DE000D3F8183223F00203FB607B680E4A93421B
:105DF00003D9FB6843F00203FB600A4AFB68C2F860
:105E00001832FB7A002B02D0044B0022DA6300BF69
:105E10001437BD465DF8047B704700BF00000340A7
:105E2000C017530200C0074080F0FA0280B485B06A
:105E300000AF78600023FB607B683C4A934245D00A
:105E40003A4A934218D83A4A93422FD0384A93425A
:105E500008D8384A934229D0374A934226D0002B9B
:105E60005BD05BE0354A934228D0354A934229D033
:105E7000344A93421ED051E0334A934239D0324AD9
:105E8000934209D8314A934229D0314A93422BD0C8
:105E9000304A93421ED041E02F4A934233D02F4ADA
:105EA000934235D02E4A934228D037E02D4B9B6D3C
:105EB000FB6033E02B4B5B6EFB602FE0294B1B6FCD
:105EC000FB602BE0274B5B6FFB6027E0254B9B6F54
:105ED000FB6023E0234BD3F88030FB601EE0214BB6
:105EE000D3F88430FB6019E01E4BD3F88830FB6098
:105EF00014E01C4BD3F88C30FB600FE0194BD3F847
:105F00009030FB600AE0174BD3F89430FB6005E05B
:105F1000144BD3F89830FB6000E000BFFB681846D4
:105F20001437BD465DF8047B704700BFC0EA21010D
:105F300000093D0040420F0080841E00405DC60005
:105F40000024F400C0CF6A00006CDC020048E801C5
:105F500080D5430280BA8C010090D00300B4C40401
:105F6000007E56030080E00F80B584B000AF7860FB
:105F700039600023BB601A4BD3F8803103F0030370
:105F8000022B0CD0032B11D0012B16D107F10803E3
:105F900000211846FFF744FE0D23FB7310E0FEF7C7
:105FA0000DFA0346BB600523FB7309E0FEF7FCF91D
:105FB0000346BB600223FB7302E00023FB7300BFB8
:105FC0007B68002B02D0BA687B681A603B68002BA4
:105FD00002D03B68FA7B1A7000BF1037BD4680BD07
:105FE0000080004080B500AF02210320FFF72AF9AE
:105FF00000BF80BD80B582B000AF02237B6001206E
:10600000FEF78AFF0246064B9A4201D801237B60C5
:1060100079680320FFF716F900BF0837BD4680BD39
:1060200080F0FA0280B584B000AF78603960002358
:10603000FB60184BD3F8403203F00303022B09D066
:10604000032B0DD0012B11D1FEF72AFAF86008239B
:10605000FB720EE0FEF736FAF8600723FB7208E0E9
:10606000FEF727FAF8600923FB7202E00023FB72B7
:1060700000BF7B68002B02D07B68FA681A603B681F
:10608000002B02D03B68FA7A1A7000BF1037BD4669
:1060900080BD00BF0080004080B500AFFEF74EF924
:1060A000034600211846FFF777FE00BF80BD0000C1
:1060B00080B584B000AF786039600023FB60204B6E
:1060C000D3F8003203F00703013B032B24D801A2CD
:1060D00052F823F0E5600000F1600000FD60000070
:1060E00009610000FEF7DCF9F8600823FB7216E096
:1060F000FEF7E8F9F8600723FB7210E0FEF7D9F924
:10610000F8600923FB720AE0FEF7FAF803469B0ADF
:10611000FB600C23FB7202E00023FB7200BF7B6874
:10612000002B02D07B68FA681A603B68002B02D013
:106130003B68FA7A1A7000BF1037BD4680BD00BFB9
:106140000080004080B483B000AF0346FB7197F934
:106150000730002B09DB0D4A97F90730134493F8F9
:106160000033DBB21B09DBB209E0094AFB7903F01B
:106170000F03043B13441B7EDBB21B09DBB2184642
:106180000C37BD465DF8047B704700BF00E100E0BE
:1061900000ED00E080B483B000AFEFF310833B600C
:1061A0003B687B6072B67B6818460C37BD465DF86D
:1061B000047B704780B483B000AF78607B68002BAD
:1061C00000D162B600BF0C37BD465DF8047B704756
:1061D00080B485B000AFEFF311837B607B68FB6018
:1061E0003023BB60BB6883F31188FB681846143703
:1061F000BD465DF8047B704780B485B000AF786021
:106200007B68FB60FB6883F3118800BF1437BD46D1
:106210005DF8047B7047000080B588B000AF03468E
:10622000FB7197F9073013F10C0F03DB97F9073077
:106230003C2B00BFEFF310833B613B6903F001038C
:10624000002B01D0012335E097F90730184600F004
:1062500037F80346002B01D001232BE097F90730D4
:106260001846FFF76FFFF861EFF31183FB60FB68DF
:10627000BB61BB69002B06D0BB691B09FA699A4256
:1062800001D3012316E00D4B5B68C3F308037B6168
:106290007B69002B0DD07B69DBB2103BDBB25BB2BC
:1062A0001846FFF74FFF0246FB69934201D30123D3
:1062B00000E0002318462037BD4680BD00ED00E019
:1062C00080B485B000AF0346FB7197F90730002B0F
:1062D00003DB97F907303C2B00BF0D4BFB6097F9B0
:1062E00007305A09FB6853F82220FB7903F01F039B
:1062F00022FA03F303F00103002B0CBF0123002358
:10630000DBB218461437BD465DF8047B704700BF0A
:1063100000E100E080B400AF00BFBD465DF8047B43
:10632000704780B483B000AF78604FF04023DB6EDD
:1063300023F030037A68127911464FF040220B4364
:10634000D36600BF0C37BD465DF8047B704780B450
:1063500087B000AFF860B9607A607B68002B04D02A
:10636000FB6803F580537B6103E0FB6803F5005392
:106370007B610122BB689A407B691A6000BF1C37B1
:10638000BD465DF8047B704780B586B000AFF8600D
:10639000B9607A60FFF7FEFE7861FB681A68BB6837
:1063A000DB431A407968BB680B401A43FB681A60EC
:1063B0007869FFF7FFFE00BF1837BD4680BD0000BB
:1063C00080B483B000AF7860054B03F510532033E1
:1063D0007A681A6000BF0C37BD465DF8047B7047D1
:1063E00000C0034080B483B000AF03463960FB7146
:1063F000FB79002B07D0FB79012B04D0FB79022B12
:1064000001D0FB79032B01223B6802FA03F309490F
:10641000FA79184613465B0013441B010B4403F53D
:1064200000531033186000BF0C37BD465DF8047B85
:10643000704700BF00C0034080B483B000AF034684
:106440003960FB71FB79002B07D0FB79012B04D05D
:10645000FB79022B01D0FB79032B01223B6802FA66
:1064600003F30949FA79184613465B0013441B01EC
:106470000B4403F580531033186000BF0C37BD4642
:106480005DF8047B704700BF00C0034080B584B056
:1064900000AFB9607A601A460346FB731346BB73BC
:1064A000FB7B002B07D0FB7B012B04D0FB7B022B5B
:1064B00001D0FB7B032B7B68072B0DD87B689B00EF
:1064C000032202FA03F1FA7B7B689B0002FA03F3D2
:1064D0001A461948FFF758FF7B68072B0FD87B68CF
:1064E0009B00032202FA03F1BB6803F003027B68FE
:1064F0009B0002FA03F31A461048FFF745FFBB7BE7
:106500001A4679680E48FFF722FF3B7E1A467968E3
:106510000C48FFF71CFF01227B6802FA03F31846C0
:10652000FFF74EFF3B7F1A4679680748FFF70FFFDA
:1065300000BF1037BD4680BD00C4034008C40340FF
:1065400010C4034014C4034024C4034080B584B085
:1065500000AFB9607B600346FB731346BB73FB7BE4
:10656000002B07D0FB7B012B04D0FB7B022B01D03F
:10657000FB7B032BBB7B002B0DD07B68002B05D056
:10658000FB7BB9681846FFF757FF04E0FB7BB9684F
:106590001846FFF727FFBB68072B20D82D49FA7B49
:1065A00013465B0013441B010B4404331A68BB6899
:1065B0009B000F2101FA03F3DB431340B97BBA6858
:1065C000920001FA02F211462248FA7B194313465F
:1065D0005B0013441B0103440433196025E01D498B
:1065E000FA7B13465B0013441B010B440C331A68FF
:1065F000BB6803F18043083B9B000F2101FA03F3C2
:10660000DB4302EA0301BA7BBB6803F18043083B2A
:106610009B0002FA03F30F48FA7B194313465B0011
:1066200013441B0103440C331960BB7B002B0DD1B9
:106630007B68002B05D0FB7BB9681846FFF7FCFE92
:1066400004E0FB7BB9681846FFF7CCFE00BF1037AB
:10665000BD4680BD00C0034080B483B000AF034698
:10666000FB7197F90730002B0BDBFB7903F01F025E
:10667000074997F907305B09012000FA02F241F857
:10668000232000BF0C37BD465DF8047B704700BF78
:1066900000E100E080B483B000AF0346FB7197F9DE
:1066A0000730002B0CDBFB7903F01F02074997F939
:1066B00007305B09012000FA02F2603341F8232021
:1066C00000BF0C37BD465DF8047B704700E100E079
:1066D00080B483B000AF03463960FB7197F907308F
:1066E000002B0ADB3B68DAB20C4997F9073012013C
:1066F000D2B20B4483F800230AE03B68DAB20849BF
:10670000FB7903F00F03043B1201D2B20B441A765B
:1067100000BF0C37BD465DF8047B704700E100E028
:1067200000ED00E080B487B000AFF860B9607A6037
:106730007B68002B04D0FB6803F580537B6103E08A
:10674000FB6803F500537B610122BB689A407B69BB
:106750001A6000BF1C37BD465DF8047B704780B4EB
:1067600085B000AF786039607B6803F50053FB604B
:10677000FB683A681A6000BF1437BD465DF8047BB9
:106780007047000080B582B000AF78600B46FB70A8
:106790007968FB7883F00103DBB21A460348FFF700
:1067A000C1FF00BF0837BD4680BD00BF40000440A8
:1067B00080B584B000AF78601A4B01225A607B68C4
:1067C0001B781B06FB60174AFB6893607B685B784D
:1067D0001B047A6892781A43124B9A61114BFF227C
:1067E0009A62104B00229A630E4B00221A640D4BE2
:1067F0004FF000425A650B4B03F5015310334FF035
:10680000FF321A601520FFF745FF7B68DB781946D9
:106810001520FFF75DFF1520FFF71EFF00BF1037A3
:10682000BD4680BD0000044080B586B000AFF86072
:10683000B9607A60FB68DBB21A46012393407B6142
:106840003F49BB681A68FB6841F82320BB685B7B43
:106850003C491846FA6813465B0013441B010B447D
:1068600060331860BB689B7A1A04BB68DB7A1B052F
:106870001A43BB681B7B5B05134332491846FA6811
:1068800013465B0013441B010B445C3318607B68A8
:106890002C4823F00301FA6813465B0013441B01E4
:1068A000034470331960274B03F5015310337A69A1
:1068B0001A60FFF78DFC3861224B5A6D21497B69C4
:1068C00013434B65BB681B7A002B05D01D4B1A6C1C
:1068D0001C497B6913430B64BB685B7A002B05D0B2
:1068E000184B9A6B17497B6913438B63BB681B7901
:1068F0001B04BA68927913431A46124B02F0FF1236
:1069000003F5005318331A60BB685B791B04BA683F
:10691000D27913431A460B4B02F0FF1203F5805352
:1069200018331A6079690848FFF719FF054A7B692F
:1069300093643869FFF760FC00BF1837BD4680BD1F
:1069400000400440000004403400044080B588B09A
:1069500000AF78607B68DBB21A4601239340FB618D
:10696000FFF736FCB861184B1B6D7B61164B5B6BF8
:106970003B6115497A6813465B0013441B010B44C5
:1069800064331B68FB60B869FFF736FC7A69FB6902
:1069900013407B613A69FB6913403B61FB681B094B
:1069A000C3F30A03FB603B69002B05D1FB68002B96
:1069B00004D17B69002B01D0002301E0FB68013387
:1069C00018462037BD4680BD0000044080B483B027
:1069D00000AF78604FF098427B68136000BF0C37BF
:1069E000BD465DF8047B704780B485B000AF786029
:1069F00039607B689B68002B03D17B683A689A609A
:106A00000DE07B689B68FB6002E0FB685B68FB60F5
:106A1000FB685B68012BF8D1FB683A685A6000BFDD
:106A20001437BD465DF8047B704780B483B000AF77
:106A3000786039607B68DB69032B0DD87B68DB6984
:106A40007A6802339B0013443A685A607B68DB69BA
:106A50005A1C7B68DA6100E000BF0C37BD465DF868
:106A6000047B704780B584B000AF78607B68DB69D9
:106A7000042B33D800BF4FF098431B6C03F48013F2
:106A8000002BF8D07B68DB6904334FF098429B0001
:106A900013657B681B681846FFF798FF7B685B6887
:106AA0001846FFF793FF7B689B681846FFF78EFF39
:106AB0000023FB600BE07A68FB6802339B00134401
:106AC0005B681846FFF782FFFB680133FB607B6859
:106AD000DB69FA689A42EED300BF00E000BF1037CE
:106AE000BD4680BD80B400AF4FF0402303F5835313
:106AF00010334FF400321A6000BFBD465DF8047BCE
:106B0000704780B400AF4FF04023D3F8943018465C
:106B1000BD465DF8047B704780B400AF074B41F67B
:106B20007132DA63054B03F500530C3301221A600E
:106B300000BFBD465DF8047B704700BF0000034006
:106B400080B400AF084B41F67132DA63064B03F5AF
:106B500000530C3301221A60034B0022DA6300BF9A
:106B6000BD465DF8047B70470000034080B400AF71
:106B700000BF4FF090435B68002B04D04FF0904370
:106B80009B6A002BF5D100BFBD465DF8047B7047C2
:106B900080B500AFFFF7EAFF4FF090430122DA60C3
:106BA00000BF80BD80B500AFFFF7E0FF4FF090431E
:106BB0000222DA6000BF80BD80B485B000AF78608B
:106BC00039603B681B781A463B685B789B001A4328
:106BD0003B68DB785B011A433B681B791B014FF074
:106BE000904042EA03017A6813465B0013449B001D
:106BF0000344303319603B681B78012B09D1084BE3
:106C0000FB603B6899787B689B00FA6813440A46EE
:106C10001A6000BF1437BD465DF8047B704700BFA3
:106C2000D080034080B582B000AF0346FB714FF0C7
:106C300090435B68002B05D1FB7983F00103DBB245
:106C4000002B1FD14FF090435B68002B01D0FFF762
:106C50008DFFFB79002B09D04FF0904303F5805353
:106C6000043301221A60FFF793FF0CE0FFF79AFF4D
:106C7000FFF77CFF4FF0904303F5005304330122EC
:106C80001A6000E000BF0837BD4680BD80B582B005
:106C900000AF78604FF090435B68002B01D0FFF7A6
:106CA00065FF4FF0904303F50053043301221A604F
:106CB0007B685B78002B01D0012200E000227B681A
:106CC0009B78002B01D0022300E0002313437A6855
:106CD000D278002A01D0042200E000221A437B6807
:106CE0001B791B011A437B685B79DB004FF09041F5
:106CF00013438B604FF0904303F58053043301221C
:106D00001A607B681B78002B01D0012300E002236E
:106D10004FF09042D36000BF0837BD4680BD0000F1
:106D200080B485B000AF78600E4B5B69FB60FB6898
:106D30009B09DBB203F03F03DAB27B689A70FB6811
:106D4000DBB203F03F03DAB27B685A70FB681B0BBF
:106D5000DAB27B681A7000BF1437BD465DF8047B59
:106D6000704700BF00C0074080B483B000AF7860B8
:106D70000B46FB707B68124A934204D1114AFB78A0
:106D8000C2F8843110E07B680F4A934204D10D4A67
:106D9000FB78C2F8943107E07B680C4A934203D138
:106DA000084AFB78C2F8A4317B68DB6D43F08002AF
:106DB0007B68DA6500BF0C37BD465DF8047B704721
:106DC000008005400080034000C0054000000640F0
:106DD00080B586B000AFF860B9607A60FB70BB68C0
:106DE000002B03D10320FEF797F8B860FB78202B27
:106DF0000CD0202B02DC002B05D03AE0402B08D031
:106E0000602B09D035E010237B6108E008237B610B
:106E100005E006237B6102E004237B6100BFBB68C1
:106E20005A017B69796801FB03F35B0813443B61FA
:106E30007B697A6802FB03F33A69B2FBF3F33B61C7
:106E40003B69203B3B613B69DB003B613A690A4B94
:106E500013403B61FB689B6823F06002FB689A600B
:106E6000FB689A68FB781A43FB689A60FB683A698A
:106E7000DA611837BD4680BDF8FF7F0080B485B069
:106E800000AF78600B46FB707B68174A934206D0D0
:106E90007B68164A934202D07B68154A934200BF32
:106EA0007B6803F58053043301221A60FB78DB43CF
:106EB000FB60FB6803F00503FB60FB685A007B681E
:106EC0005A61FA787B685A61FB78002B05D17B68A0
:106ED00003F50053043301221A6000BF1437BD4686
:106EE0005DF8047B704700BF0080054000C005408E
:106EF0000000064080B582B000AF786039607B68E2
:106F0000584A934206D07B68574A934202D07B6826
:106F1000564A934200BF786800F0ACF87B6803F5EE
:106F20008053043301221A603B689B7C002B05D000
:106F30007B689B6843F080427B689A603B68DB7C9F
:106F4000002B05D03B681B7D19467868FFF70CFFC6
:106F50003B685B7B1A463B681B8A13433A68D289BD
:106F60001A437B68DA603B6859683B689A683B68FB
:106F70001B7B7868FFF72CFF3B685B7D002B05D0FF
:106F80007B689B6843F480327B689A603B689B7D9A
:106F90001B0703F0E0423B68DB7D1B0503F4E003C5
:106FA0001A437B689A653B681B7E022B03D03B68C3
:106FB0001B7E032B1CD12E4A7B682A498B420ED0A4
:106FC0007B6829498B4208D07B6828498B4201D1D4
:106FD000022305E04FF0FF3302E0012300E000232D
:106FE0005B01134403F5AD530C3302221A601BE01E
:106FF0001F4A7B681B498B420ED07B681A498B4223
:1070000008D07B6819498B4201D1022305E04FF07B
:10701000FF3302E0012300E000235B01134403F58A
:1070200016532C3302221A603B681B7E012B03D0BF
:107030003B681B7E032B06D17B6803F582531C3310
:1070400004221A6005E07B6803F501531C33042217
:107050001A603B681B781A467B685A6100BF083784
:10706000BD4680BD0080054000C0054000000640D0
:1070700000C0034080B483B000AF78607B682D4AC5
:10708000934206D07B682C4A934202D07B682B4AFD
:10709000934200BF7B6803F58053043301221A60DA
:1070A0007B6840F6AA625A617B6800229A607B681E
:1070B0000022DA657B6841F20502DA607B68002213
:1070C0001A617B680022DA617B680022DA647B68DF
:1070D00003F5015308331A4A1A607B6800229A6547
:1070E0007B68144A934207D07B68134A934203D0CB
:1070F0007B68124A934202D17B6800221A657B6842
:107100000C4A934207D07B680B4A934203D07B68BA
:107110000A4A934202D17B6800225A657B6803F5D4
:107120000053043301221A6000BF0C37BD465DF8DE
:10713000047B70470080054000C005400000064009
:10714000FFFF010080B483B000AF78600B46FB7096
:1071500000BF7B689B6903F04003002BF9D0FA78ED
:107160007B68DA6300BF0C37BD465DF8047B70476F
:1071700090B583B000AFFFF72BF878601E4B1B78FB
:1071800083F00103DBB2002B2ED01C4B00221A60CF
:107190001B4B00221A601B4B00221A8000F064FD7A
:1071A000012000F001FE00F0A2FE0246164B1A601C
:1071B000154B1B68002B04D17868FFF71DF82323BB
:1071C00016E0114B1B684FF000041A4623460F4887
:1071D00040F2E73114F050FB03460C461A460C4BC4
:1071E0001A60054B01221A707868FFF705F8002332
:1071F00018460C37BD4690BDC8160020C0160020AA
:10720000C4160020B8160020BC16002018FCFFFF92
:10721000CC16002080B58AB004AFF860B9607A60FF
:107220003B600023FB75FB68002B01D1222318E093
:1072300007F117031946F86800F056F8FB7D002B9C
:1072400001D003230DE0BB8C029397F8203001930B
:107250003B6800937B680022B968F86800F05EFB29
:10726000034618461837BD4680BD000080B586B07D
:1072700000AF78600023FB757B68002B01D12223CF
:107280002CE0FEF7A5FF386100F010FB154B1B68E2
:107290007A689A4201D10123FB75786800F0AEFA52
:1072A000F860FB68002B04D03869FEF7A5FFFB6887
:1072B00014E0FB7D002B06D00A4B1B68002B02D08C
:1072C00000F0DAFA06E0074B1B68002B02D102201F
:1072D00000F08AFD3869FEF78FFF00231846183743
:1072E000BD4680BDC016002080B584B000AF786078
:1072F00039607B68002B02D03B68002B01D1222330
:1073000022E03B6800221A70FEF762FFB860104B63
:107310001B68FB600AE0FA687B689A4203D13B680D
:1073200001221A7002E0FB689B68FB60FB68002B7F
:1073300006D03B681B7883F00103DBB2002BEAD157
:10734000B868FEF759FF002318461037BD4680BDC8
:10735000C016002080B582B000AFFEF739FF78601C
:1073600000F0C4FC38607868FEF746FF3B681846BA
:107370000837BD4680BD00002DE9904884B000AFBD
:10738000FEF726FF786000F0B1FCF860154B1B8813
:107390009BB2BB60012000F055FD0346002B05D0D9
:1073A00000F0A4FCF860BB680133BB607868FEF7AE
:1073B00023FFBB6819464FF000024FF0000B4FF05F
:1073C000000C8C464FF0000BFA6811464FF000029B
:1073D0004BEA01034CEA0204184621461037BD4629
:1073E000BDE89088B8160020B0B582B000AF7860D4
:1073F0003960144B1B687A689A421DD87B6819461D
:107400004FF00002104B1B684FF0000403FB02F525
:1074100001FB04F00544A1FB03016B1819464FF46E
:107420007A724FF0000314F027FA03460C465A1CF8
:107430003B681A60002300E0212318460837BD4648
:10744000B0BD00BFCC160020BC160020000000001C
:107450002DE9F04385B000AFC7E902017A60D7E9B2
:1074600002344CA2D2E90012A24208BF9942C0F0F5
:107470008680474B1B68184600F0DEFA0346002B57
:1074800044D0D7E9028943464C464FF000014FF003
:107490000002620142EAD36259010B461446B3EB83
:1074A000080364EB09044FF000014FF00002A20052
:1074B00042EA937299000B46144613EB080344EB1F
:1074C00009044FF000014FF00002E20042EA53725B
:1074D000D9000B4614469846A1462D4B1B6818460A
:1074E00000F09AFA0346C3F12001A3F1200228FA22
:1074F00003F509FA01F10D4329FA02F2154329FABD
:1075000003F67B68C3E90056002339E0D7E9025649
:107510002B4634464FF000014FF00002620142EA70
:10752000D36259010B4614465B1B64EB06044FF013
:1075300000014FF00002A20042EA937299000B464C
:1075400014465B1944EB06044FF000014FF00002B3
:10755000E20042EA5372D9000B461446184621460F
:107560000B4B1B684FF000041A46234614F084F9B5
:1075700003460C467A68C2E90034002300E0212368
:1075800018461437BD46BDE8F08300BFAFF3008056
:10759000BC160020EFA7C64B3789410080B58AB0E2
:1075A00000AF0346FB71FB7903F00103002B0ED003
:1075B0005F4B1B889BB201339AB25D4B1A8000F07F
:1075C00075F95C4B1B68002B01D000F055F9FB7975
:1075D00003F00203002B00F0A68000233B6200F0C2
:1075E00085FBF8610023BB6100237B61524B1B6864
:1075F000FA69D31A3B62FEF7EBFD786263E03B6AFF
:107600003B614C4B1B68FB604A4B1B68BB614A4AA1
:10761000FB6913600FE0BB691A79FB681B799A421A
:1076200001D9FB68BB61FB685B693A69D31A3B61AE
:10763000FB689B68FB60FB68002B04D0FB685B6900
:107640003A699A42E7D2786AFEF7D6FDBB695B6970
:107650003A6AD31A3B62BB6900225A61FEF7B8FD51
:107660007862B86900F0CAF8786AFEF7C5FDBB69B0
:107670001B69002B0BD0FEF7ABFD7862BB691B6961
:107680001946B86900F05CF8786AFEF7B5FDBB6989
:10769000DB68002B06D0BB69DB68BA69126811464B
:1076A000B86998477B6901337B6100F01FFBB860C4
:1076B000BA68FB69D31A3A6A13443B62BB68FB6140
:1076C000FEF786FD78621B4B1B68002B05D0194B1B
:1076D0001B685B693A6A9A4291D27B69012B07D198
:1076E000BB69DB88022B03D1144B01221A7002E024
:1076F000124B00221A700F4B1B68002B0DD00D4B44
:107700001B6859690B4B1B683A6A8A1A5A610A4A04
:10771000FB69136000F0B0F802E0022000F064FBA7
:10772000786AFEF769FD00BF2837BD4680BD00BFFF
:10773000B8160020C0160020C4160020D016002065
:1077400080B487B000AF786039603B687B617B684C
:107750007A695A61284B1B68002B40D000233B619B
:10776000254B1B68FB600CE0FB685B697A69D31AE8
:107770007B617B687A695A61FB683B61FB689B6847
:10778000FB60FB68002B13D0FB685B697A699A4247
:10779000EAD2FB685B69002BE6D0FB685B697A691B
:1077A0009A4205D17B681A79FB681B799A42DBD82B
:1077B0003B69002B03D03B697A689A6002E00E4A6D
:1077C0007B6813607B68FA689A60FB68002B0CD0BA
:1077D000FB685A697B69D21AFB685A6105E0064A60
:1077E0007B6813607B6800229A6000BF1C37BD462F
:1077F0005DF8047B704700BFC016002080B485B0E0
:1078000000AF78600023FB601A4B1B68BB6004E08C
:10781000BB68FB60BB689B68BB60BB68002B03D088
:10782000BA687B689A42F3D1BA687B689A4201D001
:10783000022319E0FB68002B04D07B689A68FB6880
:107840009A6003E07B689B680A4A13607B689B68C8
:10785000002B08D07B689B6859697B685A697B68F4
:107860009B680A445A61002318461437BD465DF8E8
:10787000047B7047C016002080B582B000AF094B72
:107880001B685A69084B1B6813447B60022000F098
:107890008BFA786800F03AFA00F08EF800BF0837EB
:1078A000BD4680BDC0160020C416002080B582B041
:1078B00000AF00F01BFA7860164B1B68002B22D03B
:1078C000154B1B687A68D31A3B60124B1B685B69C7
:1078D0003A689A420BD80F4B1B6859690D4B1B68CD
:1078E0003A688A1A5A610C4A7B6813600EE0094BA9
:1078F0001B685B697A68D31A074A1360054B1B68DB
:1079000000225A6102E0044A7B68136000BF083716
:10791000BD4680BDC0160020C416002080B586B0CC
:1079200000AFF860B9607A603B60FB6897F824208C
:107930001A71FB683A6A1A60FB6800229A60FB6859
:107940007A681A61FB683A68DA60FB683A8DDA8017
:10795000BB68002B15D1FB6800225A61FB68DB680D
:10796000002B06D0FB68DB68FA6812681146F868DD
:1079700098477B68002B02D07B68BB6001E0002346
:1079800013E0FEF725FC7861FFF790FFB968F8680F
:10799000FFF7D6FE074B1B68FA689A4201D1FFF742
:1079A0006BFF7869FEF728FC002318461837BD46A0
:1079B00080BD00BFC016002080B483B000AF144B60
:1079C0001B687B6000233B60124B00221A7014E09E
:1079D0007B68DB8803F00203002B03D00D4B0122F0
:1079E0001A700FE07B689B687B607B68002B08D077
:1079F0007B685B693A6813443B603B68012BE7D9BD
:107A000000E000BF00BF0C37BD465DF8047B704747
:107A1000C0160020C916002080B483B000AF786083
:107A20007B68B3FA83F3DBB2C3F11F0318460C374C
:107A3000BD465DF8047B704780B483B000AF7860CA
:107A40007B68002B07D07B685A1E7B681340002B95
:107A500001D1012300E0002318460C37BD465DF834
:107A6000047B704780B483B000AF0346FB7197F985
:107A70000730002B0BDBFB7903F01F02074997F956
:107A800007305B09012000FA02F241F8232000BF11
:107A90000C37BD465DF8047B704700BF00E100E095
:107AA00080B483B000AF0346FB7197F90730002B19
:107AB0000CDBFB7903F01F02074997F907305B09DC
:107AC000012000FA02F2603341F8232000BF0C3796
:107AD000BD465DF8047B704700E100E080B483B0F0
:107AE00000AF78604FF090417A6813465B00134412
:107AF0009B000B4434331B6818460C37BD465DF8B9
:107B0000047B704780B483B000AF786039604FF079
:107B100090417A6813465B0013449B000B44343356
:107B20003A681A6000BF0C37BD465DF8047B7047A9
:107B300080B582B000AF78607868FFF7CFFF03466A
:107B400018460837BD4680BD80B582B000AF78606A
:107B5000396039687868FFF7D5FF00BF0837BD4640
:107B600080BD80B400AF00BF4FF090439B6A03F02C
:107B70000803002BF8D14FF090431B6A1846BD460E
:107B80005DF8047B704780B483B000AF78604FF03D
:107B9000904303F5005314337A681A6000BF0C3722
:107BA000BD465DF8047B704780B483B000AF786059
:107BB0004FF090439A697B68DB434FF0904113404C
:107BC0008B6100BF0C37BD465DF8047B704780B405
:107BD00083B000AF78604FF090439A694FF09041C6
:107BE0007B6813438B6100BF0C37BD465DF8047B97
:107BF000704780B400AF4FF090435B691846BD46B4
:107C00005DF8047B704780B483B000AF78600122D8
:107C10007B6802FA03F318460C37BD465DF8047B17
:107C2000704780B483B000AF03460A46FB71134629
:107C3000BB7100BF0C37BD465DF8047B704780B553
:107C400084B000AF78607B680133B3FA83F3DBB2B2
:107C5000C3F11F03FB60F868FFF7D5FFFB68184608
:107C60001037BD4680BD000080B584B000AF1D4A0E
:107C700007F1080392E803001860043319801A4AD8
:107C80003B4692E8030018600433197001211C2060
:107C9000FFF7C7FF00233B720020FFF7D0FF03462A
:107CA000DBB23B7307F108031846FEF7EFFF002332
:107CB0003B703B4619460120FEF77EFF1F20FFF771
:107CC00073FF1F20FFF75FFF0120FEF7ABFF0A20C5
:107CD000FFF7E6FE0A20FFF7C5FE00BF1037BD46DE
:107CE00080BD00BF5CBC010064BC010080B500AF7A
:107CF000FFF737FF0346184680BD80B500AF01206F
:107D0000FFF716FF0346184680BD000080B586B019
:107D100000AF7860FFF7EAFF3861FFF7EEFFF86029
:107D20007B687B61FFF765FF034603F00803002BC8
:107D30000AD13969F86800F0E8F80346022B03D845
:107D4000FA683B699A4219D13969786900F0DDF81F
:107D50000346012B02D83B6902337B617B69B3F197
:107D6000FF3F2CBF0122002252429B1A7B6179699E
:107D70000120FFF7E9FE022000F016F8094B1B78FE
:107D8000002B0AD04FF09043DB6B4FF0904243F052
:107D90000203D363034B00221A7000BF1837BD469D
:107DA00080BD00BF1410002080B584B000AF034632
:107DB000FB710023FB60FB7903F00103002B03D070
:107DC000FB6843F00103FB60FB7903F00203002B27
:107DD00003D0FB6843F00803FB60F868FFF7F7FE89
:107DE00000BF1037BD4680BD80B584B000AF0346EC
:107DF000FB710023FB60FB7903F00103002B03D030
:107E0000FB6843F00103FB60FB7903F00203002BE6
:107E10000ED0FB6843F00803FB60094B01221A7087
:107E20004FF09043DB6B4FF0904223F00303D3639A
:107E3000F868FFF7B9FE00BF1037BD4680BD00BF30
:107E40001410002080B584B000AF0346FB710023FE
:107E5000FB73FFF7CEFEB860FB79012B0BD0022B32
:107E600000D011E0BB6803F00803002B14BF01230E
:107E70000023FB7308E0BB6803F00103002B14BF71
:107E800001230023FB7300BFFB7B18461037BD4660
:107E900080BD80B584B000AF0023FB73FEF798F976
:107EA000B860FFF7A6FE78607B6803F00103002B43
:107EB00003D0FB7B43F00103FB737B6803F00803F3
:107EC000002B03D0FB7B43F00203FB737B6803F0C2
:107ED0000D031846FFF757FEFB7B1846FFF75EFBC6
:107EE000B868FEF789F900BF1037BD4680BD98B568
:107EF00000AF1C20FDF710F804460020FFF79FFE9E
:107F0000034624FA03F3184698BD80B483B000AF4B
:107F1000786039607A683B68D31A18460C37BD46DA
:107F20005DF8047B7047000080B584B000AF034665
:107F30000A46FB711346BB710023BB60BB79032B60
:107F400016D801A252F823F0597F00005F7F00008D
:107F5000657F00006B7F00000123BB6008E0042305
:107F6000BB6005E01023BB6002E04023BB6000BFA4
:107F7000FB79032B1ED801A252F823F08D7F00005D
:107F8000977F0000A17F0000AB7F0000BB6843F03B
:107F90000203BB600EE0BB6843F00803BB6009E06E
:107FA000BB6843F02003BB6004E0BB6843F0800380
:107FB000BB6000BF0D4B1B68FB6010E0FB685B689B
:107FC0001A68BB681340002B06D0FB685B685B68CF
:107FD000B979FA7910469847FB681B68FB60FB6823
:107FE000002BEBD100BF1037BD4680BDD816002056
:107FF00080B500AF0D4B1B78002B14D00C4B1B78B9
:10800000002B10D000F020F80A4B1B7801211846F5
:10801000FFF78AFF054B01221A70074B00221A70E6
:10802000034B00221A7000BF80BD00BFD116002094
:10803000D4160020D2160020D316002080B500AF41
:10804000FCF75EF900BF80BD80B500AFFEF762F9B6
:108050000B4B1B6F23F007020A4B1B6808491343A5
:108060000B67094B1B78002B05D0084B03F5005319
:10807000283301221A60FFF7E1FF00BF80BD00BF77
:1080800000800040882F0020DC16002000C0004047
:1080900080B400AFBFF34F8F054BDB6803F4E062A1
:1080A0000349044B1343CB60BFF34F8F00BFFDE781
:1080B00000ED00E00400FA0580B483B000AF786002
:1080C000BFF34F8FBFF36F8F084A7B6843F0010304
:1080D0005360074B5B6A064A43F48033536200BF28
:1080E0000C37BD465DF8047B704700BF90ED00E0A3
:1080F00000ED00E080B400AFBFF34F8FBFF36F8F90
:10810000084B5B6A074A23F480335362064B5B6873
:10811000054A23F00103536000BFBD465DF8047BB0
:10812000704700BF00ED00E090ED00E080B487B044
:1081300000AF78600B46FB701346BB70FB789B0862
:10814000FB75FB7803F00303DB003B61FF223B6917
:1081500002FA03F3FB60FB7D012B16D8FA7D7B68E6
:108160000C3253F82220FB68DB4302EA0301BA78A1
:108170003B6902FA03F31A46FB681340FA7D194380
:108180007B680C3243F8221000E000BF1C37BD466C
:108190005DF8047B7047000080B582B000AF0346F5
:1081A0000A46FB711346BB71BA79FB79194603483D
:1081B000FFF7BCFF00BF0837BD4680BD90ED00E073
:1081C00080B485B000AFF860B9607A603B60FB684E
:1081D000BA689A60FB687A68DA60FB683A681A6184
:1081E00000BF1437BD465DF8047B704780B584B08E
:1081F00000AFF860B9607A607B68BA68F9680348D4
:10820000FFF7DEFF00BF1037BD4680BD90ED00E0F8
:1082100080B584B000AF0023FB600023BB60FFF794
:1082200069FF4FF00053FB602A4A2B4B9A4204D05F
:10823000294B23F01F03203B01E04FF08043BB603C
:10824000A0210020FFF7A8FFFA68BB689A4215D862
:10825000FB6823F01F0343F003037B601F4B186888
:10826000BB6823F01F0343F001031A467968FFF748
:10827000BDFF1A4B1B680133184A1360154A164B91
:108280009A421CD0134B1F3323F01F03FB60144B87
:10829000BB60FB6823F01F0343F003037B600F4BBD
:1082A0001868BB6823F01F0343F001031A4679687E
:1082B000FFF79CFF094B1B680133084A1360042039
:1082C000FFF7FAFEBFF34F8FBFF36F8F00BF10377A
:1082D000BD4680BD7416002094130020E0160020D7
:1082E000E0FFFF3F80B588B000AFF860B9607A600A
:1082F0000023FB610023BB61FFF7FCFE7B681F2BA3
:1083000030D901210120FFF747FFFB6803F01F036D
:10831000002B04D0FB6823F01F03203300E0FB6830
:10832000FB61BB6803F01F03002B03D0BB6823F085
:108330001F0300E0BB68BB61FB6923F01F0343F030
:1083400003037B610D4B1868BB6923F01F0343F0E7
:1083500003031A467969FFF749FF084B1B6801338D
:10836000064A13600420FFF7A7FEBFF34F8FBFF349
:108370006F8F002318462037BD4680BDE0160020D1
:1083800080B500AFFFF784FE00BF80BD80B500AFB1
:10839000FFF7F6FF00BF80BD80B400AF00BFBD4651
:1083A0005DF8047B7047000080B500AF294B1B7857
:1083B00083F00103DBB2002B49D1FEF7CBFF02466D
:1083C000254B1B68D31A254A1360244B1B68002BCE
:1083D00002D0224B1B6800E00123204A1360204B8F
:1083E0001B68204A127811461F4A52F82120114674
:1083F0001A4A12688A1A9B1A194A1360194B1B7879
:108400001946164B1B68184A42F82130144B1B685A
:108410000933164AA2FB0323DB08154A1360114BEC
:108420001B780133DAB20F4B1A700E4B1A780F4BD0
:10843000A3FB0213D9080B469B000B445B00D31A25
:10844000DAB2084B1A70034B00221A7000E000BF2A
:1084500080BD00BF201700201C170020E816002058
:108460001817002014170020EC160020CDCCCCCC1F
:10847000E416002080B500AF00F002F800BF80BD18
:1084800080B582B000AFA24B1B6F7B60A04B9B6A94
:1084900003F00203002B14BF01230023FB709C4B4D
:1084A0009B6A03F00103002B14BF01230023BB7060
:1084B0007B6803F00103002B00F0858094497B6802
:1084C00003F0010201F5015330331A60914B1B7820
:1084D000002B71D08F4B00221A708F4B1B78012B11
:1084E00064D88B4B03F50053283301221A60884B64
:1084F00003F58153083302221A6000BF844B9B6D41
:1085000003F48033002BF9D1814B5B6B23F4706251
:10851000824B1B687E4913434B637D4B9B6923F45D
:108520007F0323F47F437E4A12681A437D4B1B6806
:10853000774913438B61764B1B6923F47F6323F0E8
:108540000F03794A12681A43784B1B68704913432A
:108550000B616F4B9B6923F0FF02754B1B686C49E5
:1085600013438B61FB7883F00103DBB2002B06D051
:10857000674B03F50053283302221A6005E0644B71
:1085800003F58153083302221A60BB78002B06D012
:108590005F4B03F58153083301221A6013E05C4BF3
:1085A00003F50053283301221A600CE0FFF7F4FEB4
:1085B000604B01221A7006E0FFF7F6FEFFF718FD88
:1085C000554B00221A707B6803F00053002B00F01B
:1085D000CF804F497B6803F0005201F501533033DF
:1085E0001A604C4B01221A704B4B1B780133DAB2E4
:1085F000494B1A70464B5B6B03F47063474A136038
:10860000434B9B6903F47F43454A1360404B9B698E
:1086100003F47F03434A13603D4B9B69DBB2444A3A
:1086200013603B4B1B6903F47C633F4A1360384B78
:108630001B6903F03F033D4A1360354B03F50053BC
:10864000283301221A60324B03F58153083302228A
:108650001A602F4B03F5815308334FF000421A6024
:1086600000BF2B4B9B6D03F48033002BF9D1284BBB
:1086700003F5005328334FF000421A60244B5B6B24
:1086800023F470622C4B1B68214913434B63244B2A
:108690001B681B0A642B04D8224B1B681B0C642B21
:1086A0000FD91B4B9B6923F47F0323F47F43234A99
:1086B000126812021A43214B1B681B04144913430E
:1086C0008B61134B1B6923F47F6323F00F031C4A58
:1086D000126892081A431A4B1B689B089B010C49AD
:1086E00013430B610A4B9B6923F0FF02144B1B6879
:1086F000074913438B61FB7883F00103DBB2002B46
:1087000020D0034B03F50053283302221A601FE0E8
:1087100000C000402117002022170020241700204D
:10872000281700202C1700203417002038170020AD
:108730003017002023170020181000201C100020E4
:1087400020100020324B03F58153083302221A60B7
:10875000BB78002B06D02E4B03F581530833012242
:108760001A6005E02A4B03F50053283301221A60F2
:108770007B68002B48DA26497B6803F0004201F54C
:10878000015330331A60234B1B78002B3CD0204B15
:1087900003F50053283301221A601D4B03F5815362
:1087A000083302221A6000BF194B9B6D03F480331B
:1087B000002BF9D1164B03F5805318334FF00042CC
:1087C0001A60FB7883F00103DBB2002B06D0104B5C
:1087D00003F50053283302221A6005E00C4B03F521
:1087E0008153083302221A60BB78002B06D0084B55
:1087F00003F58153083301221A6005E0044B03F5A9
:108800000053283301221A6000BF0837BD4680BDDF
:1088100000C000402317002080B483B000AF786010
:108820007B68002B02DB7B681F2B01DD00230BE044
:10883000084BDB6A01217A6801FA02F21340002B2F
:1088400014BF01230023DBB218460C37BD465DF888
:10885000047B70470000044080B584B000AF7860AE
:108860003960214B1B7883F00103DBB2002B01D070
:108870001E4B34E07B68002B01D11D4B2FE0FDF730
:10888000A7FCB8600023FB6022E01A4AFB681B01CA
:1088900013440C331B7883F00103DBB2002B14D09C
:1088A000FA687B681A60134AFB681B0113440C3397
:1088B00001221A700F4AFB681B01134400221A6040
:1088C000B868FDF799FC002309E0FB680133FB6001
:1088D000FB68072BD9DDB868FDF78EFC064B184600
:1088E0001037BD4680BD00BF3C170020028000F05D
:1088F000018000F040170020048000F080B584B0B3
:1089000000AF194B1B687B6000233B71FDF760FCD7
:10891000B860164B1B78002B04D0B868FDF76CFCD0
:10892000134B1CE0114B01221A70B868FDF764FC70
:108930000023FB6009E00F4AFB681B0113440C3362
:1089400000221A70FB680133FB60FB68072BF2DD25
:108950000423FB713B1D1846FDF72AFF0023184630
:108960001037BD4680BD00BF6CBC01003C17002025
:10897000038000F04017002080B58CB008AFF8608D
:10898000B9607A603B60BB6A07937B6A069397F88D
:1089900020300593FB6904933B7E039300230293ED
:1089A0003B6801937B680093BB68FA680021002054
:1089B00000F07CF9034618461037BD4680BD80B5EF
:1089C0008CB008AFF860B9607A603B60BB6A07930F
:1089D0007B6A069397F820300593FB6904933B7EEE
:1089E0000393002302933B6801937B680093BB6869
:1089F000FA680121002000F059F9034618461037A3
:108A0000BD4680BD80B582B000AF7860124B1B7848
:108A100083F00103DBB2002B01D0104B17E07B6821
:108A2000072B01D90E4B12E00E4A7B681B01134441
:108A30000C331B7883F00103DBB2002B01D00A4B0F
:108A400005E07B6800211846FDF79CFE00231846D0
:108A50000837BD4680BD00BF3C170020028000F0F3
:108A6000018000F040170020078000F080B582B040
:108A700000AF7860124B1B7883F00103DBB2002B50
:108A800001D0104B17E07B68072B01D90E4B12E089
:108A90000E4A7B681B0113440C331B7883F00103DF
:108AA000DBB2002B01D00A4B05E07B6801211846A0
:108AB000FDF768FE002318460837BD4680BD00BF9D
:108AC0003C170020028000F0018000F040170020D9
:108AD000078000F080B582B000AF78603960184B35
:108AE0001B7883F00103DBB2002B01D0154B23E090
:108AF0007B68072B02D83B68002B01D1124B1BE08F
:108B0000124A7B681B0113440C331B7883F001036A
:108B1000DBB2002B01D00E4B0EE07B681846FFF74E
:108B20007BFE0346002B03D03B6801221A7002E053
:108B30003B6800221A70002318460837BD4680BDE6
:108B40003C170020028000F0018000F04017002058
:108B5000078000F080B582B000AF78603960154BB7
:108B60001B7883F00103DBB2002B01D0124B1DE018
:108B70007B68072B02D83B68002B01D10F4B15E017
:108B80000F4A7B681B0113440C331B7883F00103ED
:108B9000DBB2002B01D00B4B08E07B681846FDF7D9
:108BA000D5FE03461A463B681A600023184608376C
:108BB000BD4680BD3C170020028000F0018000F01F
:108BC00040170020078000F080B586B000AF344B1E
:108BD0001B6DFB60324B5B6DFA681340FB60FB68FA
:108BE000002B00DAFEE700237B6101233B614FE0AD
:108BF000FA683B691340002B44D0294B03F501531D
:108C000010333A691A607B691B01264A1344BB6022
:108C1000BB681B68002B35D0BB689B685A1CBB68BF
:108C20009A60BB681B68BA689168BA6852687869CC
:108C300098470346002B14BF01230023DBB283F0C7
:108C40000103DBB2FB71FB7903F00103FB71BB682D
:108C50005B7B012B16D1FB79002B13D0124A7B6969
:108C60005B01134403F1080213796FF3410313719D
:108C70000D4A7B695B01134403F1180213796FF30A
:108C8000410313717B6901337B613B695B003B618D
:108C90007B69072BACD900BF1837BD4680BD00BF2C
:108CA0000000044040170020C017002090B58BB092
:108CB00000AFBA607B600346FB730B46BB737A4B15
:108CC0001B7883F00103DBB2002B01D0774BE7E088
:108CD000BB68072B0FD8BB6B002B0CD0FB6B002B9A
:108CE00009D0BB6CB3F5006F05DCFB7B012B04D115
:108CF0003B6C002B01D16E4BD2E0BB681B016D4A6F
:108D000013447B627B6A1B7B83F00103DBB2002B85
:108D100001D0694BC4E007F1100300221A605A60C9
:108D20009A60DA60BB685B01644A13443B62BB7BB8
:108D3000002B1DD13B6A1A460023136053609360D9
:108D4000D3603A6A937843F0100393703A6AD37809
:108D500043F03003D37097F8443083F00103DBB263
:108D6000002B22D03A6AD37843F00303D3701CE07F
:108D70003B6A1A460023136053609360D3603A6ADB
:108D8000937843F0100393703A6AD37843F0030367
:108D9000D37097F8443083F00103DBB2002B04D08A
:108DA0003A6AD37843F03003D3707B683B61BB6C85
:108DB0009BB2013B9BB2C3F30A0399B23A6A138890
:108DC00061F30E131380BA6B3B6A9A60FA6B3B6ACD
:108DD0005A6097F84C3003F00303D9B23A6AD3785B
:108DE00061F38303D370FB7B012B3AD13A6A137B87
:108DF00043F0010313733A6A137B43F002031373C6
:108E00003A6AD368042161F39F03D3602B4ABB689D
:108E10005B01134403F110023B6A14460FCB84E854
:108E20000F00264ABB685B01134403F11802536824
:108E30006FF0030161F39F0353603A6C1F49BB68F5
:108E40005B010B4414331A60BB7B012B09D1FA6B15
:108E50001A49BB685B010B4418331A603A6C3B6AD1
:108E60005A603B6D002B07D1FB7B002B04D13A6A83
:108E700093786FF3041393707B6A3A6D1A607B6A80
:108E80007A6D5A607B6A00229A607B6AFA7B5A7319
:108E9000BB6807F110013A6A1846FDF7C5FC0023CC
:108EA00018462C37BD4690BD3C170020028000F0CC
:108EB000018000F040170020078000F0C01700205C
:108EC00080B483B000AF0346FB7197F90730002BE5
:108ED0000BDBFB7903F01F02074997F907305B09A9
:108EE000012000FA02F241F8232000BF0C37BD46F2
:108EF0005DF8047B704700BF00E100E080B483B000
:108F000000AF0346FB7197F90730002B0CDBFB79B0
:108F100003F01F02074997F907305B09012000FAA7
:108F200002F2603341F8232000BF0C37BD465DF8E4
:108F3000047B704700E100E080B485B000AF78604A
:108F40007B68FB60FB6893FAA3F3BB60BB68B3FA72
:108F500083F3DBB218461437BD465DF8047B7047D7
:108F600080B483B000AF7860054B03F51053203315
:108F70007A681A6000BF0C37BD465DF8047B704705
:108F800000C0034080B483B000AF074BD3F8243453
:108F90007B60054BD3F820247B68134018460C37C0
:108FA000BD465DF8047B704700C0034080B500AF4C
:108FB0001920FFF7A3FF1920FFF782FF1A20FFF700
:108FC0009DFF1A20FFF77CFF00BF80BD80B584B0F5
:108FD00000AF03463960FB71FDF7FAF8F860FB79E2
:108FE00005493A6841F82320F868FDF705F900BF04
:108FF0001037BD4680BD00BFC018002080B584B0CA
:1090000000AF786019E07868FFF796FFF8600122FA
:10901000FB6802FA03F3DB431A467B6813407B606C
:10902000094AFB6852F82330BB60BB68002B04D0B0
:10903000FB68DAB2BB68104698477B68002BE2D128
:1090400000BF1037BD4680BDC018002080B582B07B
:1090500000AFFFF797FF024645F2555313407B6080
:109060007868FFF77DFF7868FFF7C8FF00BF083713
:10907000BD4680BD80B582B000AFFFF783FF0246DA
:109080004AF6AA2313407B607868FFF769FF786887
:10909000FFF7B4FF00BF0837BD4680BD80B483B082
:1090A00000AF786039607B6803F5015308333A6894
:1090B0001A6000BF0C37BD465DF8047B704780B472
:1090C00083B000AF786039607B681A683B6822FA29
:1090D00003F303F0010318460C37BD465DF8047B2B
:1090E000704780B582B000AF03463960FB71FB79F1
:1090F000002B07D0FB79012B04D0FB79022B01D088
:10910000FB79032BFA7913465B0013441B011433DC
:1091100003F1804303F5703339681846FFF7CFFF3A
:10912000034618460837BD4680BD000080B483B0B2
:1091300000AF03463960FB71FB79002B07D0FB7948
:10914000012B04D0FB79022B01D0FB79032B0122E8
:109150003B6802FA03F30949FA79184613465B00A3
:1091600013441B010B4403F500531033186000BF78
:109170000C37BD465DF8047B704700BF00C003405C
:1091800080B483B000AF03463960FB71FB79002BDC
:1091900007D0FB79012B04D0FB79022B01D0FB799E
:1091A000032B01223B6802FA03F30949FA791846B6
:1091B00013465B0013441B010B4403F5805310332B
:1091C000186000BF0C37BD465DF8047B704700BFD8
:1091D00000C0034080B584B002AF396011461A4622
:1091E0000346FB710B46BB7113467B71BA79F87964
:1091F0003B7C01937B79009313463A683968FDF70D
:1092000045F900BF0837BD4680BD80B483B000AFCC
:1092100003460A46FB711346BB7100BF0C37BD46BF
:109220005DF8047B704780B483B000AF78607B68E2
:109230005B6B5A1C7B685A6300BF0C37BD465DF8F8
:10924000047B704780B483B000AF78607B685B6B51
:109250005A1E7B685A6300BF0C37BD465DF8047B1D
:10926000704780B483B000AF78607B6800225A6397
:1092700000BF0C37BD465DF8047B704780B485B0F5
:1092800000AF78600023FB6011E00E4AFB6852F8E3
:10929000233093F821301A467B68934204D1094A5F
:1092A000FB6852F8233006E0FB680133FB60FB6883
:1092B000032BEAD9002318461437BD465DF8047B1A
:1092C000704700BF0419002080B582B000AF7860FD
:1092D0007B6893F83130022B0BD17B685A7F7B6817
:1092E00093F8213019461046FFF7FBFE0346DBB228
:1092F00000E0002318460837BD4680BD80B586B023
:1093000000AF0346FB71FB791846FFF7B7FF7861A2
:109310007B69002B3ED07B6993F83130022B39D129
:109320007869FFF7D1FF03461A467B691A767B6995
:109330005B7E022B2ED17B6993F82E30DBB2002BA3
:1093400028D10023FB737B699B6807F10F0211464C
:109350001846FFF7BFFB38617B691B7E002B04D0EA
:109360007B6993F82F30002B09D07B69002283F8AA
:109370002F207B699B681846FFF778FB0AE03B6962
:10938000002B07D1FB7B002B04D07B699B68184620
:10939000FFF738FB00BF1837BD4680BD80B584B0ED
:1093A00000AF78607B6893F83130022B33D17B6853
:1093B0005B7E002B09D17B689A7F7B6893F8223013
:1093C00019461046FFF7B2FE4DE07B685B7E012B2D
:1093D00009D17B689A7F7B6893F822301946104642
:1093E000FFF7CEFE3FE07B681B7E002B09D17B6838
:1093F0009A7F7B6893F8223019461046FFF796FE55
:1094000031E07B689A7F7B6893F8223019461046DA
:10941000FFF7B6FE27E07B6893F83130012B22D1AD
:109420007B681B7E002B0FD11123FB73786800F043
:10943000CBFE07F10F0301221946786800F064FEA5
:10944000786800F039FF0EE01323FB73786800F0B2
:10945000BBFE07F10F0301221946786800F054FEA5
:10946000786800F029FF002318461037BD4680BDFC
:1094700080B586B000AFF860B9607A60FCF7A8FEEE
:109480007861FB689B889AB2FB68DB889A4207D3B5
:109490007B6800221A607869FCF7AEFE1D4B35E050
:1094A000FB681B889BB21A4613469B0013449B0023
:1094B0000833FA6813441422B96818460FF01BF8F1
:1094C000FB681B889BB21A4613469B0013449B0003
:1094D0000833FA681A447B681A60FB681B889BB2E1
:1094E0000133FA68D28893FBF2F102FB01F29B1A76
:1094F0009AB2FB681A80FB689B889BB201339AB2D0
:10950000FB689A807869FCF777FE002318461837C5
:10951000BD4680BD0A7000F080B584B000AF7860B1
:109520003960FCF755FEF8607B689B889BB2002B86
:1095300007D13B6800221A60F868FCF75DFE164B05
:1095400025E07B685B889BB21A4613469B00134458
:109550009B0008337A681A443B681A607B685B8812
:109560009BB201337A68D28893FBF2F102FB01F2DD
:109570009B1A9AB27B685A807B689B889BB2013B9E
:109580009AB27B689A80F868FCF736FE002318468A
:109590001037BD4680BD00BF0B7000F080B584B0B1
:1095A00000AF78603960FCF713FEF8607B689B8839
:1095B0009BB2002B07D13B6800221A60F868FCF7C9
:1095C0001BFE0B4B10E07B685B889BB21A46134670
:1095D0009B0013449B0008337A681A443B681A6066
:1095E000F868FCF709FE002318461037BD4680BD19
:1095F0000B7000F080B483B000AF78607B681B68AC
:1096000004225A6100BF7B681B689B6903F0020358
:10961000002BF8D0074A7B681B795B01134403F5E4
:10962000AD530C3310221A6000BF0C37BD465DF8F5
:10963000047B704700C0034080B483B000AF786003
:10964000094A7B681B795B01134403F516532C33DD
:1096500010221A607B681B6808225A6100BF0C3711
:10966000BD465DF8047B704700C0034080B483B002
:1096700000AF78607B681B6801225A6100BF7B687D
:109680001B689B6903F00103002BF8D0074A7B6835
:109690001B795B01134403F5AD530C3304221A60AC
:1096A00000BF0C37BD465DF8047B704700C0034027
:1096B00080B483B000AF7860094A7B681B795B0196
:1096C000134403F516532C3304221A607B681B687D
:1096D00002225A6100BF0C37BD465DF8047B70471B
:1096E00000C0034090B58BB006AF786039600023AE
:1096F000FB607B68012283F82C207B6893F8323072
:10970000002B08D17B681B682433FB60124B1B784D
:10971000002B08D004E07B68002283F82C2017E09F
:109720007868FFF780FD7B68D8687B6859693B687B
:109730001A683B685B681C467B680493074B03937D
:1097400000230293019401230093FB68FFF737F98C
:109750001437BD4690BD00BF24100020D1970000F3
:1097600090B58BB006AF786039600023FB607B68F2
:10977000012283F82D207B6893F83230002B1DD115
:109780007B681B683C33FB607868FFF74CFD7B68A7
:1097900098687B6819693B681A683B685B681C4677
:1097A0007B680493094B03930023029301940123E4
:1097B00000931346FA68FFF7DFF804E07B680022A5
:1097C00083F82D2000BF1437BD4690BD2D990000B1
:1097D00090B589B000AFF860B9607A607B68FB61D2
:1097E000FB695B6A07F1100211461846FFF7D6FEC7
:1097F000B8614A4B1B78002B02D0F869FFF722FDB5
:10980000BB69474A934201D1012382E0FB6993F887
:109810003230002B15D1FB691B689B6C03F400737D
:10982000002B0ED03B693F4A1A613B6900229A60C7
:10983000FB691B6803F5015308334FF400721A608B
:1098400020E0FB6993F83230002B15D1FB691B68CF
:109850009B6C03F48073002B0ED03B69324A1A6173
:109860003B6900229A60FB691B6803F501530833CA
:109870004FF480721A6005E03B6900221A613B696F
:1098800000229A60FCF7A4FC78613B69DB68002B3E
:109890000DD03B69DC683B6919693B6918683B6915
:1098A0005A683B699B68D31A0246F869A047FB696E
:1098B0005B6A07F1100211461846FFF72DFEFB699F
:1098C0005B6A9B889BB2002B0DD0FB695B6A07F13A
:1098D000100211461846FFF761FE3B691946F86908
:1098E000FFF700FF11E0FB6901221A76F869FFF724
:1098F00055FDFB69002283F82C20FB6993F8313079
:10990000032B02D0F869FFF7D3FE7869FCF774FCEB
:10991000012318462437BD4690BD00BF2410002007
:109920000B7000F00D7000F00C7000F090B589B075
:1099300000AFF860B9607A607B68FB61FB699B6A85
:1099400007F1100211461846FFF728FEB861F869C2
:10995000FFF778FCBB69214A934201D1012339E02A
:109960003B6900221A613B6900229A60FCF730FCD7
:1099700078613B69DB68002B08D03B69DC683B6998
:109980001A683B695B680021F869A047FB699B6A1C
:1099900007F1100211461846FFF7BEFDFB699B6AEE
:1099A0009B889BB2002B0DD0FB699B6A07F11002CC
:1099B00011461846FFF7F2FD3B691946F869FFF7B3
:1099C000CFFE03E0FB69002283F82D207869FCF7C5
:1099D00013FC012318462437BD4690BD0B7000F0E0
:1099E00080B485B000AFF860B9607A60FB68002B86
:1099F00001D10A4B0CE0BB68002B06D07B68002B22
:109A000003D07B68B3F5006F01D9054B00E000235C
:109A100018461437BD465DF8047B7047027000F0AD
:109A2000037000F080B483B000AF786039603B68A9
:109A30001A7A7B68DA763B689A7A7B68DA773B68D1
:109A40005A7A7B681A773B68DA7A7B6883F8202039
:109A50003B685A7D7B685A773B689A7D7B6883F8C0
:109A600021203B68DA7D7B689A773B681A7E7B68A9
:109A700083F82220002318460C37BD465DF8047B8E
:109A8000704780B584B002AF78600B46FB70FB78FE
:109A9000002B52D07B68D87E7B68DB7F1946012380
:109AA0000422FCF753FD7B68187F7B6893F8203015
:109AB000194601230222FCF749FD7B6893F83130F7
:109AC000022B20D17B68587F7B6893F821301946A0
:109AD00000230122FCF73AFD7B68987F7B6893F8AE
