:1040000000100020ED410000E9410000E9410000FE
:1040100099630000E9410000E9410000E941000026
:10402000E9410000E9410000E9410000E9410000E8
:10403000E941000070830100E9410000E94100000E
:10404000E9410000E9410000E9410000E9410000C8
:10405000E9410000E9410000E9410000E9410000B8
:10406000E9410000E9410000156100009591000060
:10407000E9410000E9410000E9410000E941000098
:10408000E9410000E9410000E9410000E941000088
:10409000E9410000596B0000E9410000E9410000DE
:1040A000E9410000616C0000196C0000E94100006A
:1040B000E9410000E9410000E9410000016A010016
:1040C000A16901009D69010001610100FD69010014
:1040D000A5690100C5690100A969010055490100F0
:1040E0003D6A0100E9410000E9410000E9410000AA
:1040F000E94100007D640000E9410000E941000061
:10410000E9410000E9410000E9410000E941000007
:10411000E9410000E9410000E9410000E9410000F7
:10412000E9410000E9410000E9410000E9410000E7
:10413000E941000010B5054C237833B9044B13B1A5
:10414000044800E000BF0123237010BD8C1500203F
:1041500000000000C4AE010008B5034B1BB10349C9
:10416000034800E000BF08BD0000000090150020DB
:10417000C4AE0100154B002B08BF134B9D46A3F5A1
:10418000803A00218B460F461348144A121A12F047
:10419000B0FD0F4B002B00D098470E4B002B00D0EA
:1041A00098470020002104000D000D48002802D08F
:1041B0000C4800E000BF12F045FD2000290003F08C
:1041C000D1FC12F019FD00BF000008000010002013
:1041D00000000000000000008C15002004300020CA
:1041E0000000000000000000FEE700BF08B500F07E
:1041F0002DF8114B114A93420CD2181D0332121A9A
:1042000022F003020E49024451F8040B43F8040B58
:104210009342F9D10B4B0C4A93420AD20021181D4C
:104220000332121A22F00302024443F8041B9342A1
:10423000FBD1FFF79FFF00BF001000208C1500206E
:10424000CCAE01008C15002004300020044B054A40
:104250009A60D3F8882042F47002C3F8882070472F
:1042600000ED00E000400000014B1868704700BFFF
:1042700004100020014B1860704700BF041000209C
:10428000094B1B6F03F00703022B09D0032B04D04B
:10429000012B00D0FEE705487047054B18687047B2
:1042A000044B1868704700BF00800040002D3101AA
:1042B00008100020041000200D4B1B6F03F00703B3
:1042C000022B12D0032B0DD0012B00D0FEE7094B9F
:1042D0000749094A086FC0F301300130B3FBF0F021
:1042E00010607047054B1B68F2E7054B1B68EFE752
:1042F00000800040002D3101001000200810002037
:10430000041000200048704700B4C404014B186832
:10431000704700BF08100020104B114A1860136F3F
:1043200003F00703032B00D07047136F03F007035C
:10433000022B0FD0032B03D0012B00D0FEE709483E
:10434000074B094A1B6FC3F301330133B0FBF3F092
:1043500010607047054B1868F2E700BF0810002096
:1043600000800040002D31010010002004100020CA
:104370000020704700487047002D3101174B9868A6
:10438000C0F304400C2823D8DFE800F009222222E1
:104390002222181A1C221E200700114870470F4BBA
:1043A0009B6803F04073B3F1807F13D0B3F1007FBB
:1043B00012D00C4A002B08BF104670470A487047BD
:1043C0000A4870470A4870470A4870470A487047C9
:1043D0000020704709487047094870470040014A6B
:1043E000005A620200093D00405DC6000024F4004E
:1043F000C0EA210180BA8C010048E80180841E00D7
:1044000040420F004FF40040704700BF4FF47A70F5
:10441000704700BF014B1868704700BF0C100020A8
:1044200047F6FF739A425DD0032947D8F0B53B4C5D
:10443000CF0014F83130E119012B887854D04D6841
:10444000002D64D0B5F90060964239DAAB88FF2BB5
:104450003ED000232821C822921B92FBF1F23C445B
:10446000677813441BB27A1E9342A8BF1346DFF845
:10447000B0C0DA002A44D1889268013316FB0121CA
:104480001BB2DA00002901F5FA7405EB020E25DBF8
:10449000ACFB0414BB424FEA941403DABEF80410D8
:1044A000A142E7D205EBC30333F8043C9C4228BF8A
:1044B0001C46A04238BF2046C0B2F0BD0020704765
:1044C000B5F90260AB889642B8BF1646FF2BC0D143
:1044D000B5F90620B5F908100123BDE7BB42C8DBDA
:1044E0000024DFE7FF207047CC78231AE5D04D6821
:1044F00035F91310914204DC0EE035F91340944273
:1045000007DD013B99B20BB2002BF6D1F0BD284676
:10451000F0BD0844C0B2F0BD2046F0BDA815002093
:10452000D34D621003295BD82E4B13F8310003EBF7
:10453000C10101284B6842D0002B51D0B3F90200D1
:10454000824239DDF0B5CC78B3F90070944234D9A9
:104550009D884C78FF2D14BF04F1FF34023CE4B277
:1045600003F1040E9CB19B891FFA82FC63450ED3B4
:104570007146012304E00E8A0831664505D32B46B7
:10458000DDB2AC4203F10105F5D80EEBC30E4FF4DA
:104590007A7303FB02F3BEF90210DEF804209B1AC3
:1045A00001EBD17203EB620393FBF1F39F4204DB57
:1045B000984200DC18B2F0BD70473846F0BDC878AC
:1045C0008978904294BFC1EB0002C1EB0202401A0D
:1045D000D2B28242D8BF03EB4203B3F90000704766
:1045E00001487047A81500200080FFFF38B5084C2F
:1045F000084D20460CF0E0F90FCC0FC594E80F00F1
:1046000085E80F00BDE8384001200CF01DBA00BF5E
:10461000D0AD0100A815002000B583B00023012211
:1046200069464FF0FF30CDE900338DF802200CF0E1
:1046300097F903B05DF804FB70B586B0042600233B
:10464000022205250B4C0DEB06014FF0FF30CDE9A2
:104650000333019305938DF804208DF80D208DF818
:1046600013208DF80E608DF8145002940CF0BEFAF1
:1046700006B070BD006A180000F08EB870B588B042
:104680000D4614461E4600F087F860B9684600F0F3
:10469000B1F840B929466846224600F007F810B93B
:1046A000346008B070BD6FF03B00FAE72DE9F047C9
:1046B00084B04FF00008CDF80080002859D0002ABF
:1046C00052D0002955D032F00309044616460F4651
:1046D00002F0030A19D04FF0E06301220191036058
:1046E000C0E9018849F00053C0F81C8001A902927A
:1046F000039300F04FFF4946204600F057FF204645
:1047000000F04CF8054600283ED1BAF1000F2BD03E
:104710004FF0E0634FF00008012223601D4B01A918
:104720002046C4E90188C4F81C80CDF804D0029268
:10473000039300F02FFF0421204600F037FF2046AE
:1047400000F02CF80546C8B9009BBAF1010F07F834
:1047500009300AD007EB09011A0ABAF1030F4A70AF
:1047600003D11B0C8B7000E00025284604B0BDE887
:10477000F0872125284604B0BDE8F087324641463F
:10478000384612F0B6FAF0E74A464146384612F08B
:10479000B0FAEAE70400002000207047B8B108B57D
:1047A00000F00EFF4FF09842536CDB02FCD5506DC9
:1047B00010F470200AD0B0F5403F18D009D8B0F5F9
:1047C000803F12D0B0F5003F0DD0012008BD212060
:1047D0007047B0F5802F04D0B0F5E02FF5D121203F
:1047E00008BD4B2008BD2A2008BD482008BD2C204C
:1047F00008BD00BF30B108B52022002112F079FABF
:10480000002008BD2120704708B503F0EDF8BDE891
:10481000084000F003B800BF704700BF08B503218F
:1048200001230846042200F0B7FD002008BD00BFA8
:1048300008B5032100230846042200F0ADFD002046
:1048400008BD00BF08B503F0EDF803F04FF903F021
:104850004FF903F057F9BDE8084003F05FB900BF16
:1048600008B503F05DF903F05DF903F05DF9BDE80B
:10487000084003F05BB900BF30B46FF0040350246C
:104880000C4D0D4804E001333D2B82F800430DD060
:1048900013F0800FD9B200EB0302F4D001F00F0146
:1048A0000439013329443D2B0C76F1D1002030BC72
:1048B000704700BF00ED00E000E100E008B50248ED
:1048C00000F0B8FA002008BD00B4C404002070470E
:1048D00010B582B04FF040220024536F684643F079
:1048E0000103536700948DF8044000F0EDFC20466E
:1048F00002B010BDF0B587B04FF6FF770D4B0E4EEE
:104900001D8801ACBD4208BF8C250FCE0FC4336893
:10491000EDB224F8023B09481B0C23708DF80D50B2
:104920008DF80E50FFF7F8FC01A800F0D3FB002033
:1049300007B0F0BD0001E00F9082010000F04902D5
:10494000054A06491368184488428CBF4FF0FF336C
:1049500010601846704700BF101000200080012032
:1049600008B525286ED8DFE800F0B81B1F2A343FB1
:1049700056626F7A8DA113B06D1B626D6D6F1B2A2D
:10498000342A3F1B622AB0565656562A2A2A7A8D56
:10499000634BD3F8803003F00303022B40F0A9806F
:1049A000BDE80840FFF788BCFFF76AFC5C4BD3F812
:1049B0009030C3F304630133B0FBF3F008BDFFF79D
:1049C0007BFC574B1B6FC3F380230133B0FBF3F029
:1049D00008BDFFF771FC524B1B6FC3F380230133FB
:1049E000B0FBF3F0400808BD4D4AD2F8803103F027
:1049F0000303022B7FD0032B00F08180012B21D1F8
:104A0000D2F8203103F00703013B032B1AD8DFE86B
:104A100003F07E587276424BD3F8203103F007033F
:104A2000013B032B0ED8DFE803F0724C666A3C4B67
:104A3000D3F8403103F00303022B0CD0032B54D0E6
:104A4000012B4ED0002008BD354BD3F8603103F068
:104A50000303022BF2D1BDE80840FFF7DBBC304B6B
:104A6000D3F8003203F00703013B032BEAD801A27D
:104A700052F823F0E34A0000574A0000EB4A0000D6
:104A8000074B0000264BD3F8083203F00703013B25
:104A9000032BD7D801A252F823F000BFE34A00004D
:104AA000574A0000EB4A0000074B00001C4BD3F8AC
:104AB000003103F00303022BCDD0032B2BD0012BAD
:104AC000C0D1BDE80840FFF721BC154BD3F84032F8
:104AD00003F00303022BB1D1BDE7BDE80840FFF7A7
:104AE000CFBBBDE80840FFF78DBCBDE80840FFF72D
:104AF0008DBC032BA6D1BDE80840FFF73FBCBDE845
:104B00000840FFF737BCFFF7D7FB800A08BDBDE8B8
:104B10000840FFF7A9BBBDE80840FFF729BC00BF6C
:104B200000800040F8B5252800F29480DFE810F0FE
:104B3000A5009200920092009200B600C800DA0030
:104B4000EC00FE001001220134019300920092005B
:104B5000DA0092009200EC00920092009200920023
:104B6000B6009200DA0092009300C800C800C800A6
:104B7000C800920092009200FE001001002502265B
:104B80000C46FFF7BFFB41F671319C4A9C4FD3693D
:104B9000D1639168B84203F4803321F4401140F2AC
:104BA000248141F48011974F9160D7F818229649DB
:104BB00022F00202884288BF42F002029149C1F805
:104BC000182213B100228D4BDA63904A136F43F41D
:104BD00080631367136F23F0070333431367FFF7F3
:104BE0006BFB41F67132854B854ED969DA639A6861
:104BF000B04201F4803122F4401240F2EF8042F4DE
:104C00008012804E9A60D6F818327F4A23F0020351
:104C1000904288BF43F002037A4AC2F8183211B1B9
:104C20000022764BDA63FFF747FB774B774A9842CF
:104C30008CBF4FF480600020136F23F4806318430F
:104C400010673DB9032C05D142F22803012102F57A
:104C50008042D150F8BD0739C9B202298CBF00216A
:104C60006B4B6A4A98BF53F82110D2F8403223F0B8
:104C700003030B43C2F84032F8BD8B1E042B00F235
:104C8000AA8001A252F823F0CB4D0000B74D0000DE
:104C90007D4B0000D74D0000D14D00000239C9B254
:104CA0000B298CBF00215B4B584A98BF53F8211049
:104CB000D2F8803123F003030B43C2F88031F8BDF2
:104CC0000239C9B203298CBF0021534B4F4A98BF08
:104CD00053F82110D2F8203123F007030B43C2F818
:104CE0002031F8BD0739C9B202298CBF00214B4BD6
:104CF000464A98BF53F82110D2F8403123F00303FD
:104D00000B43C2F84031F8BD0739C9B202298CBF44
:104D10000021434B3D4A98BF53F82110D2F860312F
:104D200023F003030B43C2F86031F8BD0739C9B261
:104D300005298CBF00213B4B344A98BF53F8211002
:104D4000D2F8003223F007030B43C2F80032F8BD5B
:104D50000739C9B205298CBF0021334B2B4A98BFB4
:104D600053F82110D2F8083223F007030B43C2F89E
:104D70000832F8BD0339C9B204298CBF00212B4B7E
:104D8000224A98BF53F82110D2F8003123F00303D0
:104D90000B43C2F80031F8BD05292DD00B290CBFFB
:104DA00002210021194AD2F8803023F003030B437B
:104DB000C2F88030F8BD41F2280201201C4B0326C6
:104DC0009D6A9850C5F34005DAE600250126D7E62E
:104DD00000250426D4E600252E46D1E609489A602F
:104DE000D0F8183223F0020316E706489160D0F895
:104DF000182222F00202E1E60321D3E7000003407B
:104E0000C017530200C0074080F0FA020080004043
:104E1000E4820100A4820100D4820100E482010046
:104E2000E4820100F0820100F082010008830100A9
:104E300000C0004070B5934B0546984200F01681C3
:104E40002CD9914B984200F0168113D98F4B984280
:104E500000F0BC8003F5740303F51053984200F092
:104E6000FF808B4B98422BD18A4BD3F8904024F093
:104E7000407426E0884B984200F0AE80874B984201
:104E800000F0D280A3F53703A3F5D853984217D189
:104E9000804BD3F8804024F0407412E0804B98425D
:104EA00000F0D48040F2CB807E4B984200F09A8094
:104EB0007D4B984200F0CF807C4B984200F0BA8046
:104EC00000247B4B5968012900F09180794B1B6FBE
:104ED00003F00703022B28D1FFF714FA41F67132D1
:104EE000754B764ED969DA639A68B04201F4803125
:104EF00022F4401240F2918042F48012704E9A6087
:104F0000D6F818326F4A23F00203904288BF43F06C
:104F100002036B4AC2F8183211B10022664BDA6301
:104F2000644A136F43F480631367674B9D4266D0F6
:104F3000664B9D4201D144F08074654AD36813F0FA
:104F4000060FFBD191689460936804F4F81403F49D
:104F5000F8139C4256D09160564B1B6F03F0070329
:104F6000022B00D070BDFFF7A7F941F67132524B0A
:104F7000524CD969DA639A68A04201F4803122F474
:104F8000401243D942F480124D4C9A60D4F8183242
:104F90004C4A23F00203904288BF43F00203484A80
:104FA000C2F8183211B10022434BDA630120FFF737
:104FB000D7FC444B3F4A98428CBF4FF4806000209E
:104FC000136F23F480631843106770BD314BD3F81F
:104FD000944024F0407474E72E4BD3F8844024F0BE
:104FE00040746EE72B4B1C6F24F0407469E742F26B
:104FF00004001A46195093699B07FCD166E744F0F8
:1050000000749AE72846FFF735F9A5E72C489A601F
:10501000D0F8183223F00203C1E729489A60D0F88B
:10502000183223F0020374E71A4BD3F8884024F0B7
:10503000407446E7174B5C6E24F0407441E7224B06
:10504000984203D0214B98427FF43AAF114B9C6DAC
:1050500024F0407435E70F4B5C6F24F0407430E768
:105060000C4BD3F8984024F040742AE7094B9C6F0E
:1050700024F0407425E7074BD3F88C4024F04074AB
:105080001FE700BFC0EA2101006CDC020090D003E2
:10509000007E56030080E00F0048E80180D54302FF
:1050A00000093D00405DC6000024F400C0CF6A0046
:1050B00000C001400080004000000340C0175302C0
:1050C00000C0074080F0FA0240420F0080841E00BA
:1050D00000000140474B1B6F03F00703032B54D024
:1050E000F0B4454A45F60E0741F22805022642F281
:1050F000280101241346C2F88070565154509A6D0D
:10510000D203FCD4427801788479120542EA016224
:10511000C1782243047942EA0142417942EA0432E9
:1051200042EA81121A619A69C17AC47902F0004296
:105130000A43017A42EA8462447A42EA0162817A4D
:1051400042EA044242EA01229A611A6A867B057B9E
:10515000477B22F00D027601AD00017C447CAFB1AB
:1051600042F008023A432A431A629A6A22F0330252
:105170002243324342EA41019962837C1BB11E4BB8
:105180001E4AC3F88020F0BC704770472A431A6259
:105190009A6AC57B22F0330242F00102324342EAAE
:1051A00005129A62144D164AAB6D32EA0303FBD125
:1051B00041F228030226104AEE50936D5B00FCD4A6
:1051C00041F218054FF000461369877823F4700305
:1051D00043EA07531361565119B942F228030221D9
:1051E000D150002CC9D142F228030121024AD150EA
:1051F000C3E700BF0080004000C00040F1A7FFFFF0
:1052000003000140EFF3108072B6704700B962B638
:10521000704700BFEFF31180302383F3118870478C
:1052200080F31188704700BFEFF31083DA0732D4A0
:1052300010B4214A430952F82330C1B201F01F04CF
:10524000E340DB0723D5002827DB104490F8000358
:105250000209EFF3118313B1B2EB131F17D21749F1
:105260004868C0F3080098B11038C0B243B2002BB0
:105270001ADB03F1604303F5614393F8000300096F
:10528000824234BF002001205DF8044B70470120AA
:105290005DF8044B704701207047094B01F00F0186
:1052A0000B44187E0209D4E700F00F03043B0B44C3
:1052B000187E0009E4E700BF00E100E000ED00E037
:1052C000FCEC00E0704700BF4FF04022D36E017944
:1052D00023F030030B43D366704700BF2DE9F84F2E
:1052E000072A154699469DF828709DF82C601FD90D
:1052F0000121224B224A234CB9F1000F0CBF9946E1
:1053000091462148A3F6FC73002F18BF1C461033AA
:1053100001FA05F5002E0CBF0146194642F2204362
:105320001A48C9F800502560C5500D60BDE8F88FD7
:1053300082464FF003080C464FEA820BFFF762FFEC
:10534000134A0AFA0BF3116808FA0BF84B4003EA08
:1053500008034B401360FFF759FFFFF753FF0D4B56
:1053600004F003041A6804FA0BF4544004EA080435
:1053700054401C60FFF74AFFBAE700BF10E4034047
:1053800010D4034014E4034024E4034000C003406D
:1053900000C4034008C40340F0B4A2BB4400251875
:1053A0002D0107294FF00F0C05F180451BD805F59D
:1053B00070356E688F000CFA07FC26EA0C0602FABC
:1053C00007F73E436E6062B9012202FA01F15BBB4E
:1053D00042F210030444240104F1804404F57034C3
:1053E000E150F0BC704701F1804605F57035083E8C
:1053F000EF68B6000CFA06FC27EA0C0702FA06F67C
:105400003E43EE60DFE701268E4053B942F21007BB
:10541000440025182D0105F1804505F57035EE5144
:10542000BDE741F21007F3E741F21003D2E700BFF6
:1054300010B4064C064B0122002914BF1946214620
:1054400002FA00F008605DF8044B70474010044019
:10545000402004402DE9F0434FF0010800254FF4AF
:1054600000144FF0FF0E4FF0004C42F250064FF088
:10547000FF37037890F801908178C27818060C4BBA
:1054800041EA0941C3F80480120198609961094911
:10549000D2B2C3F828E09D631D64C3F854C09F5185
:1054A000C1F8804181F815230C60BDE8F08300BF8E
:1054B0000000044000E100E0F8B50C464FF0010E9A
:1054C00042F25007CB7A897A267B1B05256843EA8E
:1054D00001431E4943EA46531D4E94F80DC041F85E
:1054E000205000EB4001C0B206EB011122F0030294
:1054F0000EFA00F5C1F860C0CB650A67F551FFF7F9
:1055000089FE736D227A2B43736512B1336C2B4382
:105510003364637A1BB10E4A936B2B43936342F25D
:10552000180141F218062379A27942EA0342084B96
:105530005A506779E279074942EA07429A510D6069
:105540009D64BDE8F840FFF76BBE00BF004004401B
:105550000000044034200440F8B501250446C3B2DD
:105560009D40FFF757FE0A4B04EB44041F6D5E6B32
:1055700003EB04135C6EFFF753FE354206D1C4F310
:105580000A1008B93D4200D10130F8BD0020F8BD35
:105590000000044083680BB905E05B685A68012A83
:1055A000FBD1596070478160704700BFC369032B0E
:1055B00004D800EB83020133D160C361704700BFA0
:1055C000C16904291FD830B44FF098431A6CD20235
:1055D000FCD50A1D92001A658268D0E900541D604E
:1055E0001C601A6069B1C26801291A6009D0026999
:1055F00002291A6005D0426904291A6004BF826931
:105600001A6030BC7047704741F270034FF40032AB
:1056100003F140231A6070474FF04023D3F8940001
:10562000704700BF41F6713042F20C020121024B7B
:10563000D8639950704700BF0000034010B441F692
:10564000713442F20C0101200022034BDC635850FC
:105650005DF8044BDA6370470000034030B4CB7848
:105660004A780C785B0143EA82030D7900EB400233
:105670002343920043EA051302F19042012C136385
:1056800003D18A78024B43F8202030BC704700BF1A
:10569000D08003404FF090435A689AB9002834D024
:1056A0005B688BB90121194A4FF09043116001E00A
:1056B0009A6A12B15A68002AFAD14FF09043012237
:1056C000DA6070475B683BB14FF0904301E09A6A43
:1056D00012B15A68002AFAD10028E3D14FF0904362
:1056E00001E09A6A12B15A68002AFAD14FF090424A
:1056F00002211346D16001E09A6A12B15A68002A69
:10570000FAD10122024B1A6070477047041000481A
:1057100004200048F0B44FF090435A682ABB01219E
:105720008378C278002B037814BF02250025002A55
:1057300014BF04260026002B4FF0904214BF0C46E5
:10574000022443790779DB00407843EA07130343D7
:105750002B430848084D3343296093600160D460AF
:10576000F0BC70479A6A002AD9D05A68002AF9D149
:10577000D5E700BF0410004804200048054B5B69D2
:10578000C3F3851103F03F021B0B8170427003705D
:10579000704700BF00C0074010B40122CB4341F264
:1057A0000404934003F00A0302514361416111B9BB
:1057B00042F20403C2505DF8044B7047F8B540F65E
:1057C000AA62044641F204074FF0010C002341F2A3
:1057D000050642F2480044F807C06261694A0D4676
:1057E00069499442A360E365E6602361E361E36491
:1057F0002150A36507D002F58042944203D002F500
:105800008042944202D1236500236365012342F262
:10581000040041F20401AA7C235063501AB1A3682A
:1058200043F08043A360EB7C9BB1564B2A7D9C42A6
:1058300000F09580554B9C4200F09E80544B9C425A
:1058400004BFA3F52033C3F8A421E36D43F0800324
:10585000E3656B7B298AEA890B4368681343E3603D
:10586000AF682E7B00286FD0202E72D073D9402EC7
:1058700049D0602E13D1042202FB07F2530803EB38
:105880004010B0FBF2F0A268424B22F06002A2602E
:10589000A268203803EAC0001643A660E0616B7D71
:1058A0001BB1A36843F48033A360AB7DEA7D297EFE
:1058B0001B07120502F4E00203F0E04313438A1EC3
:1058C000012AA3652F4B20D99C424FD003F580437A
:1058D0009C424DD003F580439C420CBF02234FF005
:1058E000FF3342F2AC5202205B0103F1804303F527
:1058F00070330129985020D141F25C030422E25018
:105900002B786361F8BD0622B6E79C4232D003F5DE
:1059100080439C4228D003F580439C420CBF022365
:105920004FF0FF3341F2AC5202205B0103F18043A0
:1059300003F5703303299850DED042F25C03042251
:10594000E2502B786361F8BD0320FFF709F8202EA1
:105950008CD1082290E7002EA1D110228CE7A3F56C
:105960000033C3F8842170E70123DBE70023B8E7A5
:105970000123B6E70023D5E7A3F51033C3F894213C
:1059800063E700BF00800540FFFF010000C0054045
:1059900000000640F8FF7F0083695B06FCD5C16309
:1059A000704700BF70B5FFF735FC144D06462C78E4
:1059B000D4B9134B1349144A1C800C60146000F0D6
:1059C00007FB012000F072FB00F0BEFB0F4B1860DC
:1059D00078B1024623460E4840F2E73112F070FAE1
:1059E00001220C4B2A7018603046FFF719FC00208A
:1059F00070BD3046FFF714FC232070BDC815002091
:105A0000D6150020E0150020CC150020DC15002064
:105A100018FCFFFFD01500202DE9F84F9DF82890C5
:105A2000BDF82C8060B34B4E1F460D46924604468F
:105A3000FFF7F0FB336823B19C421CD09B68002B1E
:105A4000FAD14FF0000BFFF7EBFB84F804902760CE
:105A5000C4F80CA0A4F80680C4F808B0C4F810B0CC
:105A60008DB96561BAF1000F3CD020463946D04768
:105A70002846BDE8F88FFFF7D3FB0320BDE8F88F79
:105A80002220BDE8F88FFFF7C5FB074600F0D8FAE3
:105A9000D6F800C0DFF8C4E0BCF1000F2BD0DEF870
:105AA0000030DCF81420C31A93421ED9801ACEF8B5
:105AB0000000CCF814B065616346002000E00B469E
:105AC0005A69AA4201D9002A36D19968AD1A65618E
:105AD00018460029F3D19C60A160644536D0384651
:105AE000FFF79EFB0020BDE8F88FD31ACCF81430E6
:105AF000CEF80000DFE7034665613460C4F808C0F3
:105B0000CEF800001D44022000F0D0FA284600F034
:105B10009FFA002110480A463368017006E09B682E
:105B2000002BDCD059690A44012AD8D8D9888907C2
:105B3000F5D501230370D2E720B18460A360521B26
:105B40005A61CAE73460A360A446F8E76569DEF8E5
:105B50000030D7E7E0150020D4150020CC15002038
:105B6000002853D0F8B50446FFF754FB064600F072
:105B700067FA334F05463968002949D031484A69E8
:105B80000368EB1A934213D90023AD1A05604B61E9
:105B90008C4218BF0A4603D148E09C420CD01A46FA
:105BA0009368002BF9D13046FFF73AFB0220F8BD8D
:105BB000D31A4B610560EBE7A3689360A36803B356
:105BC0008C4658696269104458618C4227D1BCF1F7
:105BD000000F27D0DCF8143002201D4400F066FAD4
:105BE000284600F035FA00210A4617483B68017044
:105BF000D988890720D49B681BB159690A44012AB6
:105C0000F6D93046FFF70CFB0020F8BD2220704784
:105C10000C4B18603046FFF703FB0220C7E7BCF1CE
:105C2000000FEED1022000F04DFAEAE7A3683B60D6
:105C30009C46002BC5D1C8E701230370E1E700BFF4
:105C4000E0150020CC150020D415002038B5FFF752
:105C5000E1FA054600F0F4F904462846FFF7E0FAB9
:105C6000204638BD70B5FFF7D5FA064600F0E8F9D2
:105C7000094B05461C880120A4B200F03BFA18B17C
:105C800000F0DEF9054601343046FFF7C9FA00227C
:105C9000214642EA050070BDD61500200A4B1B685C
:105CA00083420ED310B50C4608494FF47A72096846
:105CB0000023A0FB010112F003F901302060002055
:105CC00010BD2120704700BFD0150020DC1500203A
:105CD0002DE9F84923A5D5E900458D4208BF844246
:105CE00039D34B014401241A43EAD06565EB010521
:105CF000A600AB00801943EA94735941CE00C3005B
:105D000046EA50761846164B1B685BB91446314676
:105D10001A46002312F0D4F80025C4E900012846F1
:105D2000BDE8F8895D1E1D40F0D1B3FA83F3C3F1DD
:105D30001F03C3F12007D84006FA07F7A3F120019B
:105D4000384326FA01F1084326FA03F3C2E90003B7
:105D50002846BDE8F88921252846BDE8F88900BF16
:105D6000DC150020EFA7C64B378941002DE9F84F1D
:105D7000C607044600F1B380A00701D4BDE8F88F40
:105D800000F05EF9DFF844920746D9F800508B4ED8
:105D9000451BFFF73FFA33688346002B00F0FA807B
:105DA0005A699542C0F0FD804FF00008C9F80070B4
:105DB00029461C4600E05A698A4209D8187994F8A5
:105DC00004C0891A844588BF1C469B68002BF2D109
:105DD0005846FFF725FA0023D4F814B06361FFF7A3
:105DE00019FA326842B1A24203D1A8E0A34247D0D7
:105DF0001A469368002BF9D1FFF712FA2369002B9A
:105E00004CD1E36813B121682046984700F018F997
:105E10005F44ED1B82460544FFF7FCF93368834677
:105E200008F10108002B00F094805A695746AA42F5
:105E3000BCD9B8F1010F00F0BB800020604A10709F
:105E40005A69551B5D6102205544C9F800A000F055
:105E50002DF9284600F0FCF800210A46594833681D
:105E60000170D988890700F192809B681BB159693C
:105E70000A44012AF5D95846BDE8F84FFFF7D0B9D2
:105E8000A3689360A1680029B6D04B696269134486
:105E90004B61FFF7C5F92369002BB2D0FFF7BAF9C0
:105EA0002269336884466261002B4BD04FF0000EAC
:105EB00000E003465969914201D900295ED19868F2
:105EC000521A62619E460028F3D19C60A06010B116
:105ED00043699A1A42616046FFF7A2F991E73A4A8C
:105EE000364E138801339BB2138000F0A9F8326854
:105EF000002A49D0354955690B68C31AAB4224D9E9
:105F00000023401B08605361C518022000F0CEF842
:105F1000284600F09DF800222A483368027008E005
:105F20009B68002B3FF428AF59690A44012A3FF6C9
:105F300023AFD9888D07F3D5012303701CE7A1682F
:105F40003160A0E73460A360C5E7EB1A53610860D5
:105F5000DAE7B8F1010F1DD1E288022A1DD0984678
:105F6000174A82F80080002B7FF46AAF022000F00D
:105F7000A9F85846BDE8F84FFFF752B91846BEF1E8
:105F8000000F13D13460A1E7104B1860F4E6012331
:105F9000037070E70A4A1370E8E7094B83F8008042
:105FA000E4E700240648BA4604704AE773468CE7E3
:105FB000E288022A7FF441AFD2E700BFE01500205B
:105FC000D8150020D4150020D6150020CC150020AF
:105FD00010B584B00024184B03F1080293E80300C5
:105FE0000290ADF80C1092E80300009002A88DF822
:105FF00004108DF808408DF80C40FFF78BFB04A9C6
:1060000001F8104D0120FFF729FB4FF0904142F2BB
:1060100014031F248A690B4422F01F028A610120A5
:106020001C60FFF737FB4FF48062044BC3F88021FC
:106030001A6004B010BD00BF1C83010000E100E045
:106040004FF09042936A1B07FCD4106A704700BF60
:106050004FF09042936A1907FCD4136A116C52698D
:10606000120702D4CA1A022A1AD9C21A012A98BFE0
:10607000981CB0F1FF3F28BF01304FF090431864E7
:106080009A6942F008029A61074B1A783AB14FF0C8
:1060900090410020CA6B42F00202CA631870704738
:1060A0009942F1D1E1E700BF1410002082074FF0C0
:1060B000904200F00103916948BF43F008030B438D
:1060C00093617047830700F001020AD54FF09041B9
:1060D0000120074B42F008021870CB6B23F003033A
:1060E000CB634FF090418B6923EA02038B617047C9
:1060F000141000204FF0904301285B6906D002285D
:1061000002D1C3F3C00070470020704703F00100C4
:10611000704700BF10B5FFF77DF84FF0904304467D
:106120005B691A07074A03F0010003F00D0348BF3B
:1061300040F002001360FFF719FE2046BDE8104052
:10614000FFF76EB8142000481C20FEF709BC00BF02
:106150002DE9F0411B4D2B7823B1DFF8788098F8BA
:1061600000300BB9BDE8F08100F036F8164B1E7810
:10617000032E25D8DFE806F01E1C1A028427134BD5
:106180001C6854B163681A68174215D05B68012116
:10619000304698472468002CF4D1002301210C4A92
:1061A000297088F800301370BDE8F0812427E6E7F5
:1061B0000C27E4E70627E2E72468002CE2D1ECE7AD
:1061C0000427DCE7E4150020E5150020E815002091
:1061D000E7150020E615002008B5FFF773F80A4A16
:1061E0000A49136F096823F007030B430849136733
:1061F0000B782BB142F22803012102F58042D150E5
:10620000BDE80840FEF758B800800040982E0020F6
:10621000EC15002070B4BFF34F8FBFF36F8F2A4986
:106220002A4B4A6A2A4822F480324A625968294A2B
:1062300021F00101904259602CD0196B264821F0C1
:10624000FF0141F0A001196322F01F020168203A0A
:10625000B2F1005F01F101042CD2204B1B4A23F064
:106260001F031F4D43F003039160D3601561046069
:10627000BFF34F8FBFF36F8F0521144B124A596044
:10628000536A43F480335362BFF34F8FBFF36F8F72
:1062900070BC70471A6B104922F0FF0242F0A00256
:1062A0001A630A680F4D104C501C9A60DD601C6127
:1062B0000860DDE70B4E8D1C42F00102996021461B
:1062C000DE602C461A61C8E700ED00E090ED00E0CA
:1062D0008415002020120020F0150020A3150020B6
:1062E000E1FFFF3F030000200100004030B4BFF396
:1062F0004F8FBFF36F8F1C4D1C4B6C6A1F2A24F409
:1063000080346C625C6824F001045C6018D91A6BFC
:1063100020F01F0422F47F4242F480721A63144A70
:10632000C3061068114B18BF203421F01F0141F043
:10633000030144F00304451C9860DC60196115609A
:10634000BFF34F8FBFF36F8F0521084B064A59608B
:10635000536A43F480335362BFF34F8FBFF36F8FA1
:10636000002030BC704700BF00ED00E090ED00E081
:10637000F0150020BFF34F8F0549064BCA6802F4A1
:10638000E0621343CB60BFF34F8F00BFFDE700BF58
:1063900000ED00E00400FA0508B5FFF7EBFF08BDCB
:1063A00000F04EB8704700BF2DE9F8431C4C23782D
:1063B000002B33D0FFF74AFC1A4B4FF0000E1B683E
:1063C000DFF870C0C01A0ABF0121014608469CF8D8
:1063D0000050DFF86490144F6A1CD2B2A9FB023857
:1063E000124E57F825304FEAD8085B1A316808EB8F
:1063F0008808CB1A03F10901A9FB0191A2EB48021D
:106400008CF80020DFF834C0094AC90847F8250095
:106410003360CCF8001084F800E01060BDE8F88329
:10642000F81500202C16002000160020FC15002076
:10643000F415002028160020CDCCCCCC301600203E
:1064400070B4202242F2740642F270054FF40050FC
:1064500041F274040649074B81F82D23064A9A51EC
:106460005A51C1F8840148601A5170BC704700BF8E
:1064700000E100E000C00040010000A02DE9F04F65
:1064800083B0A34B1C6F9E6A9D6AE00706F002066C
:1064900005F0010552D542F2700101279D4A5F5077
:1064A00092F80080B8F1000F00F00E8100209A49A8
:1064B00010700A78BA4200F20F8142F2280C41F2C1
:1064C000280102201A4643F80C705850936DD903E6
:1064D000FCD49249536B096823F470630B43904FCB
:1064E00090489169536300683B6821F47F0103433E
:1064F00021F47F410B4393618B488C4B11691B68DE
:10650000006821F47F6121F00F0103430B43136105
:1065100087499369096823F0FF030B439361002EB9
:1065200040F0EA8042F228030221D150002D00F011
:10653000E88041F228030121754AD15014F000523D
:1065400000F0848042F270014FF00108704B7248F5
:106550005A5001786F4F41440170596B6F4887F86A
:10656000008001F47067076098696D4F00F47F4008
:1065700038609F69DFF8ACC107F47F07CCF8007082
:10658000019741F2280E4FF0004742F2280A4FF0DF
:1065900002091A46D3F818C0DFF894B15FFA8CFCF0
:1065A000CBF800C0D3F810C0DFF880B10CF47C6CDD
:1065B000CBF800C0D3F810C0DFF86CB10CF03F0C82
:1065C000CBF800C043F80A8043F80E9043F80E70F1
:1065D000019F936DDB03FCD442F228034FF0004C83
:1065E00021F4706141F40071B0F5C84F516342F875
:1065F00003C030D9464A4F499369096823F47F03A1
:1066000023F47F4343EA012343EA01439361404A71
:1066100049491369096823F47F63880823F00F034D
:10662000034343EA80131361936923F0FF030B4391
:106630009361002E3CD142F228030221D150002D5B
:106640003CD041F228030121314AD150002C06DB15
:1066500003B0BDE8F08FB7F5C80FD8D9CAE742F24A
:1066600070014FF00040354A294B12785850002AEB
:10667000EED042F22804012741F2280102201A46F6
:106680001F515850936DDB03FCD441F218034FF0B7
:106690000041D1502EBB42F228030221D1502DBB24
:1066A00042F2280301211A4AD15003B0BDE8F08F0D
:1066B00041F228030221D150002DC2D142F2280319
:1066C0000121134AD150C1E7FFF76EFEFFF740FDED
:1066D000114B83F8008031E7FFF764FE174B1F7002
:1066E0002CE741F228030221D150D8E741F22803D8
:1066F0000121074AD150ABE741F228030221D150D2
:1067000014E742F228030121014AD15016E700BFE5
:1067100000C0004048160020491600204C160020FA
:1067200040160020441600203C1600203816002099
:10673000341600201C100020181000204A160020DB
:106740001F4B1B78FBB100B370B50546FEF762FD29
:106750001C4B1A7BE2B11A7F2AB393F82C2022B388
:1067600093F83C201AB393F84C2012B393F85C20B2
:106770000AB393F86C2052B193F87C20EAB1FEF78B
:106780004FFD114870BD11487047114870470622EF
:10679000002401262A60120199180E739C50FEF7FE
:1067A0003FFD204670BD0122F2E70222F0E70322FE
:1067B000EEE70422ECE70522EAE70722E8E700BF5C
:1067C000D017002050160020048000F0028000F056
:1067D000018000F010B582B00023164A12680192C1
:1067E0008DF80430FEF716FD134B1C78E4B9012236
:1067F0001A70FEF715FD0422104B0DEB02001C73FE
:106800001C7783F82C4083F83C4083F84C4083F895
:106810005C4083F86C4083F87C408DF80720FEF7DD
:1068200019FE204602B010BDFEF7FAFC044802B083
:1068300010BD00BF2C830100D0170020501600208F
:10684000038000F02DE9F04F85B0374C9DF838807B
:1068500024789DF840E0002C59D0072853D8002A0E
:1068600051D0002B4FD00F9CB4F5006F4BDC2F4F55
:106870004FEA001C07EB0C04247B002C4BD00025B6
:106880002B4C4FEA401944F8095004EB090696F8DE
:1068900002B096F803A04BF0100B4AF0300AC6E99C
:1068A0000155F56086F802B086F803A0CDE90155E0
:1068B0000395B8F1000F04D15FFA8AF545F003059E
:1068C000F5700F9D34F80980013D65F30E1824F82A
:1068D00009804C44E578C4E90132119B6EF38305CD
:1068E0000091E570CBB1002447F80C30129B67444F
:1068F00032466946C7E901347C73FEF7DDFD204668
:1069000005B0BDE8F08F0B4805B0BDE8F08F0A4830
:1069100005B0BDE8F08F0948F6E71A46A37862F3A0
:106920000413A3701346DEE7D01700205016002092
:10693000D0160020018000F0028000F0078000F0F7
:106940002DE9F04F85B0374C9DF8388024789DF8BC
:1069500040E0002C59D0072853D8002A51D0002BF2
:106960004FD00F9CB4F5006F4BDC2F4F4FEA001C4B
:1069700007EB0C04247B002C4BD000252B4C4FEA5A
:10698000401944F8095004EB090696F802B096F84D
:1069900003A04BF0100B4AF0030AC6E90155F5605D
:1069A00086F802B086F803A0CDE901550395B8F149
:1069B000000F04D15FFA8AF545F03005F5700F9DA0
:1069C00034F80980013D65F30E1824F809804C4421
:1069D000E578C4E90132119B6EF383050091E570FF
:1069E000CBB1002447F80C30129B6744324669460D
:1069F000C7E901347C73FEF75FFD204605B0BDE8B2
:106A0000F08F0B4805B0BDE8F08F0A4805B0BDE82F
:106A1000F08F0948F6E71A46A37862F30413A370CF
:106A20001346DEE7D017002050160020D0160020B5
:106A3000018000F0028000F0078000F00A4A12781E
:106A400072B108B5072809D8084A02EB00131B7B6E
:106A500043B10021FEF7ECFC002008BD044808BD4E
:106A600004487047044808BDD01700205016002085
:106A7000018000F0028000F0078000F00A4A1278DE
:106A800072B108B5072809D8084A02EB00131B7B2E
:106A900043B10121FEF7CCFC002008BD044808BD2D
:106AA00004487047044808BDD01700205016002045
:106AB000018000F0028000F0078000F00D4B1B7891
:106AC000A3B1072810D879B10B4B03EB00131B7B44
:106AD00073B10122094B02FA00F0DB6A18401ABFB9
:106AE00000200A70087070470548704705487047D5
:106AF00005487047D01700205016002000000440C1
:106B0000018000F0028000F0078000F00D4B1A7841
:106B100092B107280DD861B10B4A02EB00131B7B21
:106B20006BB110B50C46FEF717FD00232060184628
:106B300010BD064B18467047054B18467047054B6D
:106B400018467047D017002050160020018000F032
:106B5000028000F0078000F02DE9F8431C4B1F6D08
:106B60005B6D1F4033D4012600251A4CDFF8689076
:106B7000DFF8688006E00135082D4FEA460604F18B
:106B8000100422D03742F6D02368C9F80060002BE9
:106B9000F1D0D4E901210131A16028469847637BF7
:106BA000012BE8D10028E6D108EB4513197B1A7FA9
:106BB000013560F3410160F34102082D19731A7722
:106BC0004FEA460604F11004DCD1BDE8F883FEE785
:106BD000000004405016002050200440D016002031
:106BE0004FF000714FF08062034BC3F880111960C1
:106BF000C3F880211A60704700E100E038B5044610
:106C00000D46FEF707FB034B43F82450BDE8384020
:106C1000FEF706BBD417002070B545F2555142F27D
:106C200020420D4BD3F82444D3F8200404400C40F8
:106C30009C507CB10126094D94FAA4F0B0FA80F082
:106C400055F8203006FA00F224EA020403B198470E
:106C5000002CF1D170BD00BF00C00340D41700204C
:106C600070B54AF6AA2142F220420D4BD3F82444D3
:106C7000D3F8200404400C409C507CB10126094DFF
:106C800094FAA4F0B0FA80F055F8203006FA00F239
:106C900024EA020403B19847002CF1D170BD00BF73
:106CA00000C00340D417002010B582B0254A1468F4
:106CB00094F82130984210D0546894F821309842CA
:106CC0000BD0946894F82130984206D0D46894F898
:106CD0002130984201D002B010BD94F83120022A30
:106CE000F9D1627F184902EB4202120111440A688D
:106CF000617E22FA03F303F0010302292376EAD12D
:106D000094F82E3003F0FF02002BE4D102A901F821
:106D1000012DA068FFF7D2FE237E63B194F82F30D7
:106D20004BB90028D7D19DF80730002BD3D0A068ED
:106D3000FFF784FECFE70023A06884F82F30FFF729
:106D40009DFEC8E71418002014C003402DE9F0414F
:106D500086B0946A1546FEF75DFAA3889BB2002BB5
:106D60003DD000276688FEF75BFAB6B26B6B06EB88
:106D7000860604EB8604013B6B63A7612761FEF77F
:106D800049FAD4F814800646B8F1000F04D0D4E9CB
:106D9000022339462846C047AC6AFEF73BFAA3886F
:106DA0009BB26BB163886388E1885A1C92FBF1F354
:106DB00001FB13239BB26380A388013B9BB2A3809A
:106DC000FEF72EFAAC6AA3889BB28BB985F82D30FA
:106DD0003046FEF725FA012006B0BDE8F081FEF747
:106DE0001FFA01206B6B013B6B6306B0BDE8F081BD
:106DF000FEF710FAA788BFB237B1638803EB8303AD
:106E000004EB830404F108070124FEF709FA95F85E
:106E1000322085F82D401AB1002385F82D30D7E7B0
:106E200008493B68CDE90315029278686F6B2A68C0
:106E3000296927440190A8683C3200946F63FFF7EA
:106E400001FDC5E74D6D0000F8B5037E0446002B3B
:106E50004ED190F82E30002B00F0A18094F82E3007
:106E600015200133DBB284F82E30FEF7DDF905463C
:106E7000A26A1DB1A3E094F82E301BB993889BB28F
:106E8000002BF8D1206894F83220856915F00205AE
:106E90007FD10423436183699F07FCD541F2AC573E
:106EA0004FF0100C012623795B0103F1804101F5BD
:106EB000703141F807C084F8306052B91121FEF7F3
:106EC0006BFD206883699E06FCD5002D52D1237985
:106ED0005B0142F2AC511025082203F1804303F517
:106EE00070335D50426194F82E30002B46D1F8BDCE
:106EF00090F82E30002B5AD094F82E301520013304
:106F0000DBB284F82E30FEF78FF90546A26A1DB178
:106F100062E094F82E301BB993889BB2002BF8D115
:106F2000206894F83220856915F002051DD10423EC
:106F3000436183699907FCD541F2AC574FF0100CBF
:106F4000012623795B0103F1804101F5703141F89D
:106F500007C084F83060002ABBD11321FEF71CFD66
:106F6000206883699A06FCD5AFE7012384F83030A6
:106F7000002AF2D094F82E30002BB8D094F82E309E
:106F8000012B50D094F82E30013BDBB284F82E3028
:106F9000F8BD012384F83030002AEBD18EE790F859
:106FA0003130022B31D0A068FFF748FD56E790F84A
:106FB0003130022B1BD0A068FFF740FD9CE793887F
:106FC0009BB2002B3FF45EAF94F82E30002B7FF481
:106FD00059AFFFF7C1FD4BE793889BB2002B9FD0C1
:106FE00094F82E30002B9BD1FFF7B6FD8EE7437F40
:106FF000174A03EB43031B011A44136890F821203E
:10700000D340D8073FF578AFD5E7437F104A03EB6D
:1070100043031B011A44136890F82120D340DB0777
:107020003FF51CAFBFE794F83130022B03D0A068C6
:10703000FFF724FDA6E7637F054A03EB43031B012B
:107040001A44136894F82120D340DB079AD4EEE762
:1070500014C003402DE9F04186B0556A1446FEF78E
:10706000D9F8AB889BB2002B00F09A806E88FEF7AF
:10707000D7F8636B94F83220013BB6B26363002A01
:107080004FD00022B700BB1905EB83039A611A6148
:10709000FEF7C0F83E4405EB86056E69804636B1C2
:1070A000D5E902212B692046CB1AA969B047656A48
:1070B000FEF7B0F8AB889BB26BB16B886B88E98840
:1070C0005A1C92FBF1F301FB13239BB26B80AB883C
:1070D000013B9BB2AB80FEF7A3F8656AAB889BB21D
:1070E000002B42D0FEF796F8AE88B6B236B16B8868
:1070F00003EB830305EB830505F108060125FEF785
:107100008FF894F8323084F82C50002B6BD0002389
:1071100084F82C304046FEF783F8012006B0BDE825
:10712000F08121688B6C13F400730DD042F248009B
:107130004FF4007CB700BB1905EB83031A61344A96
:107140009A6141F800C0A3E78A6CD20599D542F252
:1071500048004FF4807CB700BA1905EB8202136136
:107160002C4B936141F800C092E7012294F8313032
:107170002276022B23D0012B1BD00022032B84F874
:107180002C20C7D042F2AC5004250221237922687A
:107190005B0103F1804303F570331D505161B9E782
:1071A000FEF73EF80120636B013B636306B0BDE868
:1071B000F0812046FFF748FE94F83130DDE794F87F
:1071C0002230617E9A40A37FF9B141F2100103EBB6
:1071D00043031B0103F1804303F570335A5000232E
:1071E00084F82C30CEE70C493268CDE903140293C1
:1071F000606B77682368616946190197E0682433FA
:1072000000956663FFF79CFB84E742F21001DEE71E
:107210000D7000F00C7000F0557000002DE9F04387
:107220008BB00446BF4E03AD0F460FCE0FC596E898
:10723000070085E807000CB3002F00F0D98000217B
:10724000382220460FF055FD0023B74963630B78C1
:107250003E46C3B1B54A13689C421FD051688C4268
:107260001CD09068844219D0D568AC4216D09BB12E
:10727000002900F0298170B103236DB1AC4C204688
:107280000BB0BDE8F0830120A84A0870C2E90033C2
:10729000C2E90233E2E7022342F823400023327DB1
:1072A000306884F8323084F831202060A14B327B82
:1072B0009842227100F0AA809F4B984200F09D8076
:1072C0009E4B984240F0948023234FF4C02284F8D0
:1072D00023309B4BC4E90432D6E9072300254FF045
:1072E0000509D6F80480B6F80EE0B6F810C0B77CF1
:1072F0006262158055809580F27C03A984F82C5039
:10730000A3621D805D809D8084F82D5084F82F50ED
:10731000CDF81480ADF81CE0ADF81AC08DF81870E7
:107320008DF81E208DF80C508DF81990FEF746FA56
:107330001421327B834B307A03EB4217C7F8AC152C
:10734000B17A2E3240EA014103EB42135960727A5E
:10735000F37A96F815C042EA0343C7F8BC35B17A10
:1073600096F816E0F37D96F80B80377E2277E1776A
:1073700084F821E0E07684F81DC0A377042201237D
:1073800084F8208084F82270FEF706F80123022298
:1073900094F82010207FFDF7FFFF94F83130022B86
:1073A0006BD0032B00F08180FDF734FF357D07465D
:1073B000032D00F08B80022D31D042F248034FF0B4
:1073C000FF323068C2500421FEF7E6F94FF4406204
:1073D00033685A61FFF7FEF9002104F10800FFF756
:1073E000AFF900283DD03846FDF71AFF564C46E766
:1073F000564C20460BB0BDE8F08322234FF4A02268
:1074000084F82330524BC4E9043265E721234FF45A
:10741000802284F823304F4BC4E904325CE74E49A4
:1074200094F82100FFF7EAFBFFF7DAFB002394F85A
:1074300031206576022AA376237600F08F80012A18
:1074400002D12046FFF700FD3068317D42F248034B
:107450004FF0FF320329C250B5D10521FEF79CF948
:10746000B4E7014604F10C00FFF76AF90446384618
:10747000002CB9D1FDF7D4FE01E72B4694F821107A
:10748000607F0122FDF788FF2B4694F82210A07F31
:107490000422FDF781FF012394F82120607F11462B
:1074A000CDE90033FDF71AFF7EE72B4694F8211053
:1074B000607F0122FDF770FF2B46042294F8221012
:1074C000A07FFDF769FF6FE70123E5E641F2AC50CD
:1074D0004FF0020941F25C024FF0040841F2B85E3D
:1074E00041F2B45C42F248014FF0FF35337B5B015F
:1074F00003F1804303F5703343F80090306840F89F
:10750000028096F81880F27D42EA084243F80E2085
:1075100096F816E0727D42EA0E4243F80C20455080
:107520009BE700BF308301002418002014180020BE
:10753000027000F00080054000C0054000000640D9
:107540000200060000C003400E7000F0037000F05F
:107550000200050002000400A96C00003023012293
:1075600042F21001A07F03FB00F394F8220003F124
:107570008043824003F570335A503068317D65E7AF
:107580002DE9F04383B0054600206C6A0F46A188C0
:10759000904689B29946019051B900212B68C9F8EB
:1075A0000010C8F800109869396003B0BDE8F08396
:1075B000FDF730FEA3889BB2CBB16688FDF730FEA5
:1075C00001A9E868FFF7A2FAB6B206EB860604EB5B
:1075D0008604E368019A9B1AC8F80030C9F80020B5
:1075E000A3683B602B68986903B0BDE8F083FDF7A2
:1075F00017FE01A9E868FFF789FACEE7002864D0F2
:10760000002964D0F0B58DB0541EB4F5006F55D28A
:1076100005464E486C6ACDE907120992CDE90A3059
:10762000FDF7F8FDA388E28806469A4249D92088EA
:10763000142200EB800004EB800007A908300FF053
:1076400034FB27882388E1885A1C92FBF1F301FB65
:1076500013239BB22380A388304601339BB2A380BF
:10766000FDF7DEFD95F82C30BEB293BB01222B68EE
:107670005A619A69D207FCD541F2AC510420012726
:107680002A79520102F1804202F57032505095F889
:10769000321085F82C70F9B1002385F82C3095F85C
:1076A0003130032B15D00024022B2C762BD0012B4C
:1076B0000FD12846FFF7C8FB204600E024480DB054
:1076C000F0BDFDF7ADFD2348F9E72348704720489A
:1076D000704700200DB0F0BD6A6B06EB8606DFF840
:1076E0007CC0D01904EB8604A2686E696863E86800
:1076F000CDE903C50291E46824333146CDE9007435
:10770000FFF71EF9CBE7012295F82230687E9A40F8
:10771000AB7F78B101280CBF41F2100142F2100199
:1077200003EB43031B0103F1804303F57033204651
:107730005A50C4E742F2100103EB43031B0103F16B
:10774000804303F570335A50B9E700BF017000F071
:10775000037000F00A7000F0027000F05570000035
:1077600000286BD000296BD02DE9F0418CB0541E5D
:10777000B4F5006F46D204680992A56907914149A2
:107780000892AA07CDE90A310ED404236361A369E4
:107790009B07FCD541F2AC52102103795B0103F148
:1077A000804303F570339950846A0546FDF732FD36
:1077B000A388E28806469A4244D92088142200EB26
:1077C000800004EB800007A908300FF06EFA2788CC
:1077D0002388E1885A1C92FBF1F301FB13239BB22F
:1077E0002380A388304601339BB2A380FDF718FDA8
:1077F00095F82D30BFB203F0FF083BB100200CB06C
:10780000BDE8F08120480CB0BDE8F081FDF702FD35
:10781000AB6A06469B889BB25BB14FF0010C95F8B2
:10782000322085F82DC09AB185F82D80012385F886
:1078300030303046FDF7F4FC0020E4E71348704791
:1078400011487047FDF7ECFC11480CB0BDE8F08121
:107850006B6B07EB8707DFF83CE003EB0C0104EBF5
:107860008704A3682F686963A8682969CDE903E5DF
:107870000292E46807F13C02CDE900C4FEF7E2FFA2
:10788000D4E700BF017000F0037000F0027000F058
:107890000A7000F04D6D000008B5FDF7B3FC014B18
:1078A000186008BDF42E0020014B1868FDF7AEBC2F
:1078B000F42E00200A4601390144FEF717BD00BF2F
:1078C000704700BF70B59400224605460E4610F082
:1078D000D7FC431C0DD050B92246314628460FF044
:1078E000D5F9054B00280CBF0020184670BD034891
:1078F00070BD034870BD00BF10E000F024E000F050
:1079000021E000F010B582B0044601A8FDF736FF73
:107910004FF4807101220020064B61809B689DF826
:1079200006100A3303F01F0302FA03F32180636099
:1079300002B010BD0080E00FFDF780BE08B5FDF776
:1079400071FE002008BD00BF10B5044610F090FC89
:10795000431C1BD0C0B901200E4B9B680A3303F0B7
:107960001F03984083080DD02268013210D1221FD6
:10797000204602EB830303E050F8042F013207D1C5
:107980009842F9D1002010BD034810BD034810BD36
:10799000034810BD0080E00F24E000F021E000F07B
:1079A0000EE000F008B50B460143890706D00146FA
:1079B000920018460FF079F9002008BD002AFBD08C
:1079C000191F50F8043B013A41F8043FF9D1002057
:1079D00008BD00BF024A034B1168186808F0ACB933
:1079E0002410002020100020FCF722BF08B504213D
:1079F0000020FDF797F808210720FDF793F80821EC
:107A00000846FDF78FF808211C20FDF78BF80821A8
:107A10002420FDF787F808212520FDF783F80020B2
:107A200008BD00BF30B583B001A8FDF7A7FE264B07
:107A30009B6DDB0315D42549254A0B6823F4FF030E
:107A400023F4FE4343F4BC1343F4A0630B601368B8
:107A500023F4704343F440431360136843F4E0633A
:107A600013609DF80530012B1CD01A4AD2F88030E3
:107A700043F00303C2F88030FCF7FEFEFCF7CCFEB7
:107A8000FCF71CFFFEF78CFCFCF734FFFCF71EFF35
:107A9000FFF7ACFFFCF71CFFFCF7B6FEFFF79AFF01
:107AA00003B030BD9DF80430002BDED14FF00055FF
:107AB000094C0A480A490B4A0B4B2D682468006898
:107AC000096812681B68D0E700C0004034C000405D
:107AD00030C00040008000400040002000800020B6
:107AE00000C00020000001200040012000F028B864
:107AF00008B5FDF757FFFCF7BFFDBDE80840FEF7EE
:107B000089BB00BF08B5FCF771FDFCF795FDFCF7DC
:107B100083FDBDE8084001F0DFBA00BF00F008B8FF
:107B2000704700BF704700BF704700BF704700BF7D
:107B300008B500F021F8BDE8084000F033B800BFF8
:107B400010B5054C05492068FFF768FB23680BB1A9
:107B5000034A136010BD00BF6810002044100020CD
:107B6000681E002008B5FCF76DFE00F021F8FCF758
:107B700077FE00F01FF8FAE708B501F0FBFD054BB2
:107B8000186000B108BD044B044A4A2104480FF0B4
:107B900015F800BF6C1E0020C8830100B0830100EF
:107BA000D4830100014B186807F080BB6C1E0020D5
:107BB000704700BF10B5044C206801F0A3FE206898
:107BC000BDE8104001F094BA6C1E002001F0A0BA8C
:107BD00008B5034B034A4F2103480EF0EFFF00BFE7
:107BE00064840100348401007C8401001822002197
:107BF00001480FF07EB800BF781E002000B583B0AA
:107C0000FEF730F86A46FEF763F818B9009803B03B
:107C10005DF804FBFFF7DCFF30B585B015460C4678
:107C20001948FDF79DFF194B2C441C60FEF71AF80C
:107C300002AAFEF74DF8C8B901250298144B201A84
:107C400000281D700EDD02A9FEF728F80346A8B92A
:107C5000CDE9000502990F4A0B48FDF7DDFE38B962
:107C600005B030BD01F054FA05B030BDFFF7B0FFEC
:107C7000094B0A4A70210A480EF0A0FF064B074A3A
:107C80006C2107480EF09AFF781E0020701E00201D
:107C9000741E0020CD7B0000648401004C84010030
:107CA0007C84010008B50348FDF75AFF0022024B0F
:107CB0001A7008BD781E0020741E002070B582B0B6
:107CC0000C4C23780BB902B070BD0B4B05461E68F7
:107CD000FDF7C8FF6A46FDF7FBFF034640B9009A6F
:107CE000B61A002EEFDC2846237001F09FFFEAE76A
:107CF000FFF76EFF741E0020701E0020D8B1F0B593
:107D000083B00024A1B106460D46274603E0019B3F
:107D10001C44AC420CD22A1B92B201AB3119002098
:107D20000197FCF7ABFC0028F1D0012003B0F0BDB7
:107D3000002003B0F0BD0720704700BF08B5FDF775
:107D40006BFC034B1860BDE80840FDF75DBC00BF4D
:107D5000901E0020BFF34F8F0549064BCA6802F4FE
:107D6000E0621343CB60BFF34F8F00BFFDE700BF5E
:107D700000ED00E00400FA050E4B1B68D9070FD494
:107D80005A060FD413F0180F10D199070CD49A0685
:107D90000ED440F2847213420CBF072006207047B5
:107DA000002070470220704701207047082070476C
:107DB00003207047901E0020704700BF08B5034B9A
:107DC000034A40F2A67103480EF0F8FED486010083
:107DD00098860100E886010030B583B0184D194B34
:107DE000194C2A6893E803000090ADF8041020684D
:107DF0006AB11146002208F06BFD2B79834218D13D
:107E00002068694608F0C2FD60B903B030BD08F0D3
:107E100061FF0028F4D00D4B0D4A40F202210D48BD
:107E20000EF0CCFE094B0A4A40F2062109480EF03A
:107E3000C5FE094B064A40F2F71106480EF0BEFE99
:107E4000981E0020FC840100D82F002078880100B3
:107E500094850100E88601004C8801002DE9F04F6F
:107E60008BB01D460023144602F40012134306464D
:107E700040F0A580002304F4000213437BD10022CC
:107E800005F0010313434AD1002304F000621343B9
:107E900040F0FC81002304F00852134340F0F681C7
:107EA000002304F00802134340F0E180002304F0B3
:107EB0008072134340F0C480002304F088421343CF
:107EC00040F0B280002304F08052134340F0A080C1
:107ED000002304F00202134304D0BC4F3B8819076F
:107EE00000F12682002205F02003134340F0BA81FE
:107EF000002205F08003134340F04E81002205F478
:107F00008073134340F03981002504F0010454EAE2
:107F1000050316D101F0FCF80BB0BDE8F08FAB4FB4
:107F20003B889A07BCD50F22A94B1A70FDF772F94E
:107F30003B8823F020031B041B0C3B80FDF770F9EA
:107F4000ACE1304608F055FE0446304608F036FAFB
:107F500014F5007F00F01B82002CB8BF033444F3FB
:107F6000870402229B499C4B0C701A7001F0D0F8D8
:107F70000BB0BDE8F08F954F3B88980790D5FDF783
:107F800049F93B88DFF8748223F002031B041B0CC1
:107F90003B80FDF745F998F80030002B00F0BE81DA
:107FA0008E4B1B681B78990640F1B881FDF732F9BA
:107FB0003B8843F008033B80FDF732F970E7884BBC
:107FC0001B78002B00F07C8105AF394608F0B5FE28
:107FD000A0B99DF81C30032B00F00482022B7FF423
:107FE00049AFBDF8140001F08FF90028FFF642AF49
:107FF000304608F0A0FE002800F0688102283FF417
:1080000039AF784B784A40F2077178480EF0D6FDC8
:10801000FDF700F96D4A138823F004031B041B0CC1
:108020001380FDF7FDF853E7FDF7F4F8674A13886E
:1080300023F004031B041B0C1380FDF7F1F841E748
:10804000FDF7E8F8614A6A4F138823F004031B0424
:108050001B0C1380FDF7E4F83B78002B3FF42CAFAA
:10806000644B186808F0AAF900233B7024E73046F7
:1080700008F09FFD5F4F014605AA386808F08AFDA9
:10808000814600283FF412AF9DF81430072B7FF48F
:108090000DAF014601AA386808F083FD00287FF47F
:1080A00005AFBDF816300799581C0A7880B2824295
:1080B0007FF4FCAEDA1E7B2A3FF6F8AEBDF818203E
:1080C000002A3FF4F3AE013A92B2013B01F1010CF8
:1080D000ADF81820ADF81630CDF81CC0002A40F0DD
:1080E0008A81089B93F800A09DF80D30002B00F0CA
:1080F000858105287FF4DAAE0AF00703022B7FF4AE
:10810000D5AEDFF8FCB06146DBF8008040460EF0EB
:10811000CCFD089941B1BDF81800BDF81620121A1F
:1081200092B240440EF0C1FD0523DFF8D0804946ED
:108130003868ABF8043008F03EFD98F800306BB1B9
:10814000DFF89890D9F800301A78900606D5DBF859
:1081500000209B7892789A4200F0708198F8003065
:108160003BB11E4B1B681B7803F00703032B3FF446
:108170009DAE386808F022F998E600223046114694
:1081800008F092FC00283FF4BFAE164B1A4A40F6A6
:10819000720116480EF012FD304608F0E3F80B2885
:1081A00000F09481031FDBB2022B30D9032829D0C1
:1081B000022800F011810A287FF4A0AE064B7F2030
:1081C0000222044908701A7098E600BF961E00202B
:1081D00099210020C9200020CA200020A0210020D1
:1081E000CB200020788801007C860100E886010011
:1081F000941E0020D82F0020C48601009821002062
:10820000D0200020B54B1B78002B00F0DF80B44F4E
:108210003B885A0777D43B889B077FF56FAE3B8836
:1082200098077FF56BAE0F22AE4B1A70FCF7F2FF8A
:108230003B8823F020031B041B0C3B80FCF7F0FF62
:10824000FCF7E8FF3B8823F002031B041B0C3B8078
:10825000FCF7E6FFA44B186808F0B0F800229F4B2B
:108260001A704BE69E4F3B881B0700F186803B88C7
:1082700059077FF53DAEFCF7CDFF3B8823F00403A3
:108280001B041B0C3B80FCF7CBFF31E6944F3B8873
:108290009B077FF505AE0B22924B1A70FCF7BAFFD5
:1082A0003B8823F002031B041B0C3B80FCF7B8FF48
:1082B0008D4B186808F082F80022884B1A70EFE5A1
:1082C00008F039FD00287FF499AE05AF864B39469A
:1082D000186808F063FCBDF81830002B3FF4CAADF5
:1082E000079ABDF81610013B9BB201320139ADF877
:1082F00018300792ADF8161003B9089A137863F096
:108300007F031370B6E5FCF785FF3B8823F0040379
:108310001B041B0C3B80FCF783FF7CE7724B186847
:1083200008F04CF800236F4A137088F80030B7E566
:108330006A4B1A784AB36D4A12681278920624D5AD
:108340003A88110740F1E2800E214FF00008654A9B
:10835000117083F80080FCF75DFF3B8823F0080371
:108360001B041B0C3B80FCF75BFF5F4B186808F09D
:1083700025F85F4B83F80080B4E5584B1A7822B19A
:108380005A4A12681278900603D4FFF717FD7F242B
:10839000E7E53A88120740F1B9800E214FF0000856
:1083A000504A117083F80080FCF734FF3B8823F0BB
:1083B00008031B041B0C3B80FCF732FF4A4B186878
:1083C00007F0FCFF4A4B83F8008050E7494B1A78CE
:1083D000012A7FF493ADF2E6404B1B78002B3FF46B
:1083E0008DAD14E7384601F09BF80028BFF600AECB
:1083F0009DF81C30F2E591F801A075E63E4B1B7824
:1084000013B905283FF452AD1AF0200A0CD1DFF859
:10841000E08098F80030002B3FF448AD386807F052
:10842000CDFF88F800A041E5FCF7F4FE2C4A138844
:1084300043F004031380FCF7F3FE37E59DF80A30A0
:10844000002B3FF433AD062301A93868ADF808309E
:1084500008F0ABFB034600287FF428AD9DF80D2003
:108460009DF90EE09DF80FC00198002A5FD1234BC3
:10847000D97DC3E9020262F3000183F815E083F8B5
:1084800016C0D9750023174A88F800301370FCF71E
:10849000C1FE134A138823F008031B041B0C13802E
:1084A000FCF7BEFED9F8003098F8001058781A781A
:1084B0000AF0100342EA002200293FF44FAE02F016
:1084C0000702032A29D098F8003052E60C4B0D4AD7
:1084D00040F2BF710C480EF071FB00BF98210020E4
:1084E000961E002099210020D82F0020A0210020D6
:1084F000941E0020CA200020CC200020F82000205C
:1085000044850100AC860100E88601000B4B0C4A53
:1085100040F2A7710B480EF051FB13B101220A4B38
:108520001A7098F80030002B7FF4C0AC21E68BF86D
:1085300015E08BF816C0CBE90203A3E71C85010008
:1085400098860100E8860100941E002000000000CB
:10855000F0B583B05E4C218811F0010301D003B067
:10856000F0BD41F60B215B4D5B4E5C4AB180284665
:1085700019463360C5E901332A6007F0D9FE074682
:10858000002870D04FF0011108F0D6FA002871D100
:108590005349384608F06AFB0246002871D105F5B8
:1085A000D2718023384608F0D4FA802870D146A3CF
:1085B000D3E900234B4DCDE9002338464FF0FF327D
:1085C0004FF0FF332F6008F0C1F9002867D1FFF7A3
:1085D00003FCFCF71FFE238843F001032380FCF714
:1085E0001FFE0121286807F0D1FE044600285DD156
:1085F0003D4B3E493E4A19603E49908011603279B8
:1086000098803D493D4B0B2A988019601AD87379A0
:108610000A2B17D93A4B1E60FBF7E8FF2146286862
:1086200008F0D0F9C0B908222868114608F09BF973
:10863000002842D13349344A344B08701070187006
:1086400003B0F0BD00252E4C314B324A40F26F2171
:10865000314825600EF0B2FA304B314A40F20F211A
:108660002D480EF0ABFA2F4B2F4A4FF4E7712A48F2
:108670000EF0A4FA294B2C4A4FF4EB7126480EF069
:108680009DFA264B284A40F2D91123480EF096FA5B
:10869000264B254A4FF4F5711F480EF08FFA1F4BF9
:1086A000234A4FF4BC711C480EF088FA1B4B194A40
:1086B00040F25F2118480EF081FA1E4B154A40F235
:1086C000762115480EF07AFA0B00A07F1101000008
:1086D000961E0020A01E0020981E00205D7E000037
:1086E000B0880100D82F0020F82000201821002099
:1086F000D0200020F0200020C0210020A021002058
:10870000C4200020CA2000209921002098210020A8
:10871000AC870100C0850100E8860100788801006F
:10872000A885010068870100848501007887010021
:1087300074850100C887010070B483B0114800251A
:10874000846CC06C45EA04020346CDE900239DF821
:1087500007009DF806209DF805309DF804509DF80F
:10876000034008704A709DF802009DF801208B704C
:108770009DF80030CD700C7148718A71CB7103B0D7
:1087800070BC70470080E00F10B50C46084600F042
:10879000B5FD074B21461868002208F0A1FA00B980
:1087A00010BD044B044A4FF4427104480EF006FA1F
:1087B000D82F002078880100D0850100E8860100CC
:1087C00008B5074B0022186808F09AFA00B908BDEE
:1087D000044B054A40F21D3104480EF0EFF900BF8A
:1087E000D82F002078880100E4850100E886010088
:1087F00008B5074B0022186808F07AFA00B908BDDE
:10880000044B054A40F2293104480EF0D7F900BF65
:10881000D82F00207888010004860100E886010036
:10882000034B1A780AB901221A700020704700BF62
:1088300097210020034B1A780AB100221A700020F9
:10884000704700BF9721002038B50C4C2378032BCC
:1088500012D08BB10A4D286807F0A9FD012804D079
:1088600001220021286807F0A4FD286807F0A6FD72
:1088700001230020237038BD0D2038BD9721002032
:10888000D82F00202DE9F04385B03B4E3378002BE4
:108890004CD03A4C23798B4244D863798B4241D3F4
:1088A000DFF8F890DFF8F880D9F800300D46A342E1
:1088B000D8F800003ED00122002107F07AFD304BAD
:1088C000226893E803000190ADF80810002A37D021
:1088D0001146D8F80000002207F0FAFF23798342FE
:1088E00042D101AF3946D8F8000008F04FF800280F
:1088F00033D1D8F80000C9F800400023FF243A46DD
:1089000029460193C7E901338DF8044007F07EFD45
:1089100090B902211B4A1C4B317095719D7105B0B5
:10892000BDE8F083072005B0BDE8F0830D2005B059
:10893000BDE8F08301AFE0E7012005B0BDE8F083BA
:10894000D8F8000008F0C6F90028CAD00F4B104A2A
:1089500040F202210F480EF031F90C4B0C4A40F264
:1089600006210C480EF02AF90B4B094A40F2F71188
:1089700008480EF023F900BF97210020981E002020
:10898000FC840100F8200020D0200020788801001D
:1089900094850100E88601004C880100C420002075
:1089A000D82F00202DE9F0438BB0414E3388980733
:1089B0006FD5DFF82091D9F80020002A70D001236C
:1089C00092880AAD3B4CDFF8108105F8192D04AFF1
:1089D00094E8070087E8070029461A46D8F80000FF
:1089E000358808F0B2F89DF80F20D9F80030023A27
:1089F000196892B20023D8F800000C3407AD08F0D3
:108A0000A4F894E80700D9F800C085E80700DCF86E
:108A10000020338812789906C2F3401214D5264BF1
:108A20009CF8184093F800E09CF806103B4600952F
:108A3000D8F800008DF813E08DF8124007F0D6FC4E
:108A400058B90BB0BDE8F0832B469CF80610D8F857
:108A5000000007F0BBFC0028F3D033889B0713D538
:108A60000B22164B1A70FCF7D5FB338823F0020358
:108A70001B041B0C3380FCF7D3FBD8F8000007F075
:108A80009DFC00220E4B1A7000F042FB0BB0BDE8BB
:108A9000F0830C4B0C4A4FF467710C480EF08EF8C3
:108AA0000B4B094A40F29D3108480EF087F800BF91
:108AB000961E0020048501006C11002099210020E1
:108AC00098210020CC88010034860100E88601004E
:108AD000F488010040220020D82F00202DE9F04129
:108AE000354C2378002B52D0032B50D0334D8B794B
:108AF0002A799A4248D86A799A4245D3DFF8E080C9
:108B00000E46D8F800300746AB4209D02C4B012264
:108B10001868002107F04DFCFFF75EF9C8F8005017
:108B2000284B1A7802F0FF00002A3ED103220121CF
:108B30002270B47E244D254AC4F340042870166088
:108B40001970FCF767FB2CBB214C238823F0200312
:108B50001B041B0C2380FCF763FBFCF75BFB8046CC
:108B6000FCF758FB238843F002032380FCF758FBF3
:108B7000FFF718FF4046FCF753FB2B7803F0FF0488
:108B80006BB10020BDE8F0810720BDE8F0810D2029
:108B9000BDE8F0810E4C238843F02003DAE7384625
:108BA000314602F0EFF82046EFE70A4B0A4A40F25E
:108BB00085310A480EF002F897210020981E002007
:108BC000D82F002098210020992100204022002049
:108BD000961E00209888010020860100E88601008A
:108BE000C420002000487047A02100202DE9F0415A
:108BF00084B02A4C237893B903F0FF010123284F56
:108C0000DFF8B0C0274E284D1A4638682370B67971
:108C10008CF8001007F0CDFB2B79B34203D97F20ED
:108C200004B0BDE8F0816B79B342F8D3DFF88880F7
:108C3000D8F80030AB4203D0FFF7CEF8C8F80050A8
:108C4000FF231022194D8DF804303146386801ABEE
:108C50000392029507F0EAFB28B17F210223144A10
:108C600011702370DBE707F0C8FF054605E007F049
:108C7000C4FF401BB0F5967F02D22378012BF6D0BB
:108C80002378022B0ABF0A4B7F2018784FF000038D
:108C900008BF40B2237004B0BDE8F081CA200020B4
:108CA000D82F0020F8200020981E002020A10700C7
:108CB000C9200020C8200020C42000200B207047BD
:108CC000014B1878704700BFCC20002008B5074A38
:108CD000074B1068197008F01BF800B908BD054B68
:108CE000054A40F26A4105480DF068FFD82F002080
:108CF000CC2000207888010044860100E88601002D
:108D0000014B1970704700BFCB20002071B110B526
:108D1000074B0C46186807F07BFE064AC31782FB18
:108D20000020C3EBA0002070002010BD072070477A
:108D3000D82F00206766666608B5084B01EB8101F5
:108D40004900186807F03EFE00B908BD044B054A0B
:108D500040F28D4104480DF031FF00BFD82F0020B4
:108D60007888010060860100E886010021B1034B8C
:108D700000201B780B707047072070476C11002093
:108D8000014B0020197070476C1100206FF06300D8
:108D9000704700BF2DE9F04385B0234D2B78002BA1
:108DA0003ED1174601220E46DFF8908003F0FF0007
:108DB0001E4C1F4B0146D8F800001A702A7007F0AD
:108DC000F8FA2379B34203D9072005B0BDE8F08350
:108DD0006379B342F8D3DFF86890D9F80030A34242
:108DE00003D0FEF7F9FFC9F800404FF47A72FF2371
:108DF00002FB07F20F4C8DF804303146D8F8000022
:108E000001AB0392029407F011FB0028DDD07F2113
:108E100002230120084A11702B7005B0BDE8F083D1
:108E2000052005B0BDE8F083CA200020981E002070
:108E3000C820002020A10700C9200020D82F002032
:108E4000C42000202DE9F04F8BB00746FCF7E2F973
:108E5000964C064605AA2068022107F09BFE18B131
:108E60009DF81430072B39D03046FCF7D9F9904BD8
:108E70001A78032A06D08F4B1B78012B1FD00BB01A
:108E8000BDE8F08F8C4A1278002AF4D102228B4977
:108E90001A700A688A4B12781878920603D51A78E5
:108EA000002A00F0A8801B7800228449384601F08F
:108EB00071FF00F02DF97F4B1B78012BDFD1814B27
:108EC0001A78022ADBD100217F4A197011783846BE
:108ED00049B201F06BFF00F01BF9D0E705460146EF
:108EE00001AA206807F05DFE48B9BDF81690079901
:108EF00009F1010808781FFA88F8404507D029468B
:108F0000206807F058FE3046FCF78AF9AFE7A9F170
:108F100003037B2BF3D8BDF81830002BEFD06B4A3E
:108F2000013B92F800C001319AB209F1FF33ADF86C
:108F300018200791ADF81630BCF1000F05D19DF84F
:108F40000D30002BDBD10528D9D0DFF884A1DAF869
:108F500000B058460DF0A9FE089941B1BDF81800BF
:108F6000BDF81620121A92B258440DF09EFEDAF89F
:108F70000030AAF8048093F80080294608F07F02A8
:108F80001A70206807F017FE00283AD19DF80A30C1
:108F9000002B3FF469AF09F1020901A92068ADF87F
:108FA000089007F002FE034600287FF45DAF9DF8AD
:108FB0000D20002A4ED19AF817304FEAD81868F3DE
:108FC00000039DF80E10CAF80C208AF817309DF89F
:108FD0000F20019B30468AF815108AF81620CAF82F
:108FE0000830FCF71DF900223949384601F0C2FE6D
:108FF00000F08EF83BE71B78364A384601F0CAFE8F
:1090000057E79DF80A3020681BB9294607F0D3FDC1
:109010002AE709F1020901A9ADF8089007F0C5FD9A
:10902000034600287FF46BAF9DF80D2002B3294A58
:109030009DF80EC0D3602068019B9DF80F40294623
:1090400082F815C09475936007F0B5FD3046FCF7C3
:10905000E7F8C8E71F4A9DF80E409DF80F10D3604F
:10906000019B3046547591759360FCF7D9F8BAE7C7
:109070009AF817304FEAD81868F30003CAF80C20A2
:109080008AF817309DF80F20019B20689DF80E404C
:1090900029468AF815408AF81620CAF8083007F0E1
:1090A0008AFD3046FCF7BCF89DE700BFD82F0020B2
:1090B00097210020C820002098210020A021002016
:1090C00099210020CA200020C9200020CC200020A7
:1090D000F8200020D020002008B507F023F9FFF782
:1090E00037FAFEF783FDBDE80840FEF727BE00BF54
:1090F00010B50446054B186000F09AF82046FFF7BB
:10910000A1FE2046BDE81040FEF7D8BDDC2F0020B0
:10911000704700BF0022024B1A80FFF7F9BF00BF63
:10912000D02300202DE9F8431E46174DDFF860805C
:10913000B5F8803098F80010B5F882400746641AF8
:10914000344404F07F049C42914613D0B5F8820069
:10915000721A284449440DF0A8FD0021B5F8822078
:1091600098F8003088F80010D21A324402F07F02DA
:10917000A5F88220324649463846044BFEF73EFAAF
:10918000BDE8F843FFF7C4BF482300202591000045
:1091900044220020FFF7BCBFF8B500240F4E104D4D
:1091A000104F3346286880220F49A7F88040A7F85F
:1091B0008240FEF723FA3346286880220B49FEF7E7
:1091C0001DFA4FF400610A4B0A4AC3F88011196076
:1091D000D36C204643F00403D364F8BD259100000E
:1091E000681000204823002048220020C8220020C8
:1091F00000E100E00080054010B5094B1C680CB18F
:10920000052010BD0A46014606481960064B02803B
:1092100002881868054BFEF7A3FA204610BD00BF70
:10922000CC230020D02300206810002015910000DE
:1092300070B584B0FBF7EEFF2B4B2C4D02AA06460F
:1092400001A9186803ABFEF79BF92B78029A284C0A
:10925000934234D33046FBF7E3FFB4F88250B4F8BE
:109260008030ADB29D421CD3B4F880309D420AD00C
:10927000B4F88000B4F880102044691A89B206F06E
:109280006FF8A4F880501B4A13681BB11A4B1B8857
:109290009BB20BB104B070BD136006F04FF804B080
:1092A00070BDB4F88000B4F880102044C1F1800192
:1092B00089B206F055F80023A4F88030D4E701996C
:1092C000B4F88200D21A194420440DF0EEFCB4F830
:1092D0008230029A297813445B1A03F07F03A4F8C2
:1092E00082302A70B6E700BF6810002044220020B8
:1092F00048230020CC230020D0230020014B1880DD
:10930000704700BFD22300202D4B2E4A1B881188A6
:10931000184480B281421DD0938883421FD01389A4
:10932000834221D09389834223D0138A834225D05C
:10933000938A834227D0138B834229D0938B834215
:109340002BD0138C83422DD0938C834230D04FF09E
:10935000FF3070479378002BDED000207047937960
:10936000002BDCD001207047937A002BDAD002204A
:109370007047937B002BD8D003207047937C002B41
:10938000D6D004207047937D002BD4D005207047A1
:10939000937E002BD2D006207047937F002BD0D035
:1093A0000720704792F82230002BCDD0082070475C
:1093B00092F82630002B0CBF4FF0FF300920704789
:1093C000D2230020FC2300201B4B9A78B2B19A795B
:1093D0000AB39A7A0AB39A7B0AB39A7C0AB39A7D43
:1093E0000AB39A7E0AB39A7F0AB393F8222022B175
:1093F00093F82620EAB103207047082230B40125F3
:109400000E4803EB82040088A570014423F8221063
:10941000002030BC70470122F0E70222EEE7032271
:10942000ECE70422EAE70522E8E70622E6E707225E
:10943000E4E70922E2E700BFFC230020D22300205A
:10944000314A324B12881888114489B288421CD0A4
:109450009A888A4228D01A898A422AD09A898A42CE
:109460002CD01A8A8A422ED09A8A8A4230D01A8BFD
:109470008A4232D09A8B8A4234D01A8C8A4236D0B1
:109480009A8C8A4239D00A2070479A78002ADFD015
:10949000002110B4002203EB81041046A27023F8CF
:1094A00021205DF8044B70479A79002AD3D001211E
:1094B000EFE79A7A002AD1D00221EAE79A7B002AC4
:1094C000CFD00321E5E79A7C002ACDD00421E0E744
:1094D0009A7D002ACBD00521DBE79A7E002AC9D0ED
:1094E0000621D6E79A7F002AC7D00721D1E793F853
:1094F0002220002AC4D00821CBE793F82620002A96
:10950000C1D00921C5E700BFD2230020FC230020E1
:109510002822002101480DF0ECBB00BFFC230020F5
:1095200010B4344B418802881B880A448488134451
:10953000C188314A14FA83F311FA83F311889BB27C
:1095400099421FD09188994221D01189994223D004
:109550009189994225D0118A994227D0918A9942BE
:1095600029D0118B99422BD0918B99422DD0118CFF
:1095700099422FD0918C994232D04FF0FF305DF854
:10958000044B704791780029DCD00020F7E79179EF
:109590000029DAD00120F2E7917A0029D8D0022000
:1095A000EDE7917B0029D6D00320E8E7917C0029E4
:1095B000D4D00420E3E7917D0029D2D00520DEE756
:1095C000917E0029D0D00620D9E7917F0029CED006
:1095D0000720D4E792F822100029CBD00820CEE74C
:1095E00092F826305DF8044B002B14BF09204FF091
:1095F000FF307047D2230020D423002070B41F4BCB
:109600009C78ACB19A7942B39A7A42B39A7B42B3CE
:109610009A7C42B39A7D42B39A7E52B39A7F52B3F8
:1096200093F822201AB393F8262003209AB909242C
:10963000134A4E88088812883044012502440020CD
:109640008E88C98816FA82F211FA82F203EB84013D
:1096500023F824208D7070BC70470124E8E70224B1
:10966000E6E70324E4E70424E2E70524E0E708242E
:10967000DEE70624DCE70724DAE700BFD423002076
:10968000D2230020354B48880A881B8802448888EA
:109690001344C988324A10FA83F311FA83F311880C
:1096A0009BB299421CD09188994228D01189994245
:1096B0002AD0918999422CD0118A99422ED0918A30
:1096C000994230D0118B994232D0918B994234D04B
:1096D000118C994236D0918C994239D00A2070472A
:1096E00091780029DFD0002110B4002302EB81041F
:1096F0001846A37022F821305DF8044B7047917929
:109700000029D3D00121EFE7917A0029D1D002219D
:10971000EAE7917B0029CFD00321E5E7917C00297E
:10972000CDD00421E0E7917D0029CBD00521DBE7F6
:10973000917E0029C9D00621D6E7917F0029C7D0A4
:109740000721D1E792F822100029C4D00821CBE7E5
:1097500092F82630002BC1D00921C5E7D223002082
:10976000D42300202822002101480DF0C2BA00BFF6
:10977000D423002000F0D4B80120704700F0EEB8E8
:109780000048704708890100103000F0AFBA00BFF0
:109790004069003018BF0120704700BF103000F052
:1097A000D5BA00BF0148FFF78BBA00BF28240020BC
:1097B00008B5436923B10348FFF788FA002008BDC4
:1097C0000D2008BD28240020436913B10248FFF78B
:1097D0003BB80D20704700BF28240020103000F057
:1097E000BFBA00BF406B7047103000F0C9BA00BF6D
:1097F000203000F0F3BE00BF103000F0DBBA00BF35
:1098000008B5436923B10348FFF77AFA002008BD81
:109810000D2008BD28240020436913B10248FFF73A
:10982000D3BD0D20704700BF28240020436963B1D9
:1098300000B583B00122684600F03EFE6946044848
:10984000FFF7DCFE03B05DF804FB0D20704700BF9E
:1098500028240020436913B10248FFF7F1BD0D2011
:10986000704700BF28240020436963B100B583B06E
:109870000122684600F020FE69460448FFF702FF17
:1098800003B05DF804FB0D20704700BF28240020C2
:1098900008B5436923B10348FFF73AFE002008BD2D
:1098A0000D2008BD2824002008B5436923B10348D2
:1098B000FFF758FF002008BD0D2008BD2824002018
:1098C000103000F093BA00BF103000F0A1BA00BF12
:1098D00001F080BA007C7047103000F025BA00BF5C
:1098E000408A7047103000F011BA00BF2630704730
:1098F000103000F021BA00BF808C7047FEF71CBF0B
:109900000120704710B50446FFF736FF00B910BDBF
:10991000201DBDE8104000F07DB800BF704700BFBB
:1099200038B50B4C94F888507DB9201D00F06EF8C6
:1099300004F10C00A56000F013F8214604F11000BA
:1099400000F0C2F9012384F88830014838BD00BF17
:10995000282400200048704728240020FEF7FAB988
:1099600030B583B04FF6FF720F4D2B88934206D06F
:1099700004462BB1204601332B8003B030BDFEE7F7
:1099800004210DEB0100FEF7B9F930B9019A2AB9AB
:10999000012206492B880A60ECE7FEE76FF00043DE
:1099A0009A4208BF0122F4E7B8240020BC2400201A
:1099B000094B1B8873B148F24E3308490A68A2FB71
:1099C000032313EB520244BF22F0004201320A602B
:1099D00010467047FEE700BFB8240020BC240020DA
:1099E0000021C0E9002170474268034602B1704778
:1099F0000548426822B1516859605360436070471E
:109A000043605B60FFF78ABF2824002000220260C9
:109A1000704700BF70B500250468056094B16368A5
:109A20009C4208D0D3E90021184661605D609047F0
:109A300063689C42F6D10022236862602046BDE83C
:109A40007040184770BD00BFF8B50D460446FEF7DC
:109A5000D5F8002D00DAFEE705446560FEF7CEF884
:109A6000A6680746B442294D0CD0AB689C4227D06B
:109A70003BB19A682AB1944244D013469A68002AAE
:109A8000F9D1A460AE6876B330460022D4F804C0A1
:109A9000ACEB0701C90F4368A3EB070EB1EBDE7F08
:109AA00012BF0B46ACEB0303DB0F23B983680246FE
:109AB00013B11846EFE7B2B19368A3609460F8BDA4
:109AC000AE6066B1FEF79AF872680146831A002B01
:109AD000B4BF121A00220D48FEF79EF8D1E72846BF
