:1040000000100020ED410000E9410000E9410000FE
:1040100081660000E9410000E9410000E94100003B
:10402000E9410000E9410000E9410000E9410000E8
:10403000E941000064770100E9410000E941000026
:10404000E9410000E9410000E9410000E9410000C8
:10405000E9410000E9410000E9410000E9410000B8
:10406000E9410000E9410000096400004D950000AD
:10407000E9410000E9410000E9410000E941000098
:10408000E9410000E9410000E9410000E941000088
:10409000E9410000796D0000E9410000E9410000BC
:1040A000E9410000856E0000656E0000E9410000F6
:1040B000E9410000E9410000E94100008D5C010098
:1040C000315C01002D5C0100F5540100895C0100A8
:1040D000355C01004D5C0100395C0100D93D0100F7
:1040E000CD5C0100E9410000E9410000E941000028
:1040F000E9410000B5690000E9410000E941000024
:10410000E9410000E9410000E9410000E941000007
:10411000E9410000E9410000E9410000E9410000F7
:10412000E9410000E9410000E9410000E9410000E7
:10413000E941000010B5054C237833B9044B13B1A5
:10414000044800E000BF0123237010BD3415002097
:1041500000000000D0A8010008B5034B1BB10349C3
:10416000034800E000BF08BD000000003815002033
:10417000D0A80100154B002B08BF134B9D46A3F59B
:10418000803A00218B460F461348144A121A11F048
:1041900011FF0F4B002B00D098470E4B002B00D087
:1041A00098470020002104000D000D48002802D08F
:1041B0000C4800E000BF11F091FE2000290003F040
:1041C0005FFC11F065FE00BF000008000010002039
:1041D000000000000000000034150020A43E002074
:1041E0000000000000000000FEE7000008B500F03D
:1041F0001FF80A4A0A4B0B498B4206D300210A4B8F
:104200000A4A934206D3FFF7B5FF52F8040F43F86A
:10421000040BF1E743F8041BF3E700BFD4A8010047
:10422000001000203415002034150020A43E00208A
:10423000044B054A9A60D3F8882042F47002C3F810
:104240008820704700ED00E000400000014B186836
:10425000704700BF04100020014B1860704700BF7A
:1042600004100020084B1B6F03F00703022B04D03F
:10427000032B05D0012B05D0FEE7044B18687047CF
:10428000034BFBE703487047008000400410002008
:1042900008100020002D310108B5FFF7E3FF054BA2
:1042A0001B6FC3F301330133B0FBF3F0024B186013
:1042B00008BD00BF0080004000100020004870478B
:1042C00000B4C404014B1868704700BF08100020F8
:1042D000054B1860054B1B6F03F00703032B01D13F
:1042E000FFF7DABF704700BF0810002000800040D1
:1042F0000020704700487047002D3101174B986827
:10430000C0F304400C2826D8DFE800F00925252555
:104310002525071B1D251F212300114870479B6879
:1043200003F04073B3F1807F07D0B3F1007F06D074
:104330000C4A002B08BF104670470B4870470B48CB
:1043400070470B4870470B4870470B4870470B4845
:1043500070470B4870470020704700BF0040014A7B
:10436000405DC60000093D0080841E0040420F00F1
:104370000024F400C0EA210180BA8C010048E80161
:10438000005A62024FF4004070474FF47A70704751
:10439000014B1868704700BF0C10002038B5044668
:1043A000054D0BF045F80FCC0FC594E80F0085E8DC
:1043B0000F00002038BD00BF50150020F0B547F6B3
:1043C000FF739A425ED003295ED8304BCE0013F8BB
:1043D000311098190129857819460DD1C3785B1BD6
:1043E00023B1416831F91310914202DCE818C0B2E0
:1043F000F0BD013B1BB2F3E740680028F8D0B0F9EC
:104400000030934204DBB0F902309342B8BF134648
:104410008288FF2A19BFC8242827B0F90640B0F9BE
:104420000870A4EB03040CBF0122002294FBF7F4F4
:1044300014448A19567824B2721EA242A8BF22469A
:104440004FF47A7700EBC201CC888968013213FB04
:10445000041112B221EAE17101F5FA71B242B1FB25
:10446000F7F104DA00EBC204A4888C42EAD200EB34
:10447000C20232F8040C884228BF0846A84238BF5E
:104480002846B4E7FF20B3E70020B1E7501500202D
:10449000F0B5032952D82A4800EBC10310F83110B7
:1044A0005C6801290FD1D9789B78914294BFC3EB06
:1044B0000102C3EB0202C91AD2B28A42C8BF00226B
:1044C00034F91200F0BD002C38D09978914202D313
:1044D000B4F90200F6E7D978B4F900009142F1D9B5
:1044E000A1885B78FF294FF0000114BF03F1FF336F
:1044F000023BDBB2251D97B2CEB2B3424FEAC106F2
:1045000006D905EB060CBCF808C00131BC45F3D256
:104510004FF47A735A43A9194B68B1F90250D21A71
:10452000022395FBF3F31A4492FBF5F29042C9DBA8
:10453000B4F902009042C5DC10B2C3E70148C1E7FC
:10454000501500200080FFFF08B50448FFF726FF44
:10455000BDE8084001200AF0B7BF00BFD0A60100A7
:1045600007B50023CDE90033012369464FF0FF3042
:104570008DF802300AF030FF03B05DF804FB000054
:104580007FB51422002101A811F014FD02230B4A6B
:104590008DF80430029204228DF80D308DF813301E
:1045A00005230DEB02014FF0FF308DF80E208DF842
:1045B00014300BF065F807B05DF804FB006A1800D2
:1045C0002422002111F0F6BC18B12422002111F0A0
:1045D000F1BC704770B515460E46242200210446F2
:1045E00011F0E8FC25F04003802B02D0B5F5807F68
:1045F00008D12046EA0840F8045B314611F0B6FCC9
:10460000002070BD6FF07100FBE700002DE9F04164
:1046100092B004681F4624F04003802B054688466C
:10462000164602D0B4F5807F47D11C2200210BA88A
:1046300011F0C0FC224B23490122B8F1010F18BF31
:1046400019462B1D0193E4081F4B0A9144F00054B6
:1046500001A90AA80292039404960592069307976B
:104660000892099301F0D9F904A90AA801F0D5F933
:1046700007A90AA801F0DBF929680AA8C90801F00E
:10468000E0F910210AA801F0DCF900F085F80446F1
:1046900078B90AA801F0DEF94FF098435A6CD202BB
:1046A000FCD55D6D00F086F805F47025002D18BF6F
:1046B0002C46204612B0BDE8F0816FF07104F8E797
:1046C00000010104000100041000002013B5164A87
:1046D000D2F8803243F00103C2F88032134B5B689A
:1046E000C3F3080343B14FF08842D36B13F0430F79
:1046F000FBD1012002B010BD4FF08843D86B10F001
:104700004300FBD10A490C6844B902AB43F8044D9D
:104710000422204600F014F82046EBE7631C43F027
:1047200000430B60E6E700BF0080004000ED00E0C2
:1047300070150020014B00205B68704700ED00E021
:1047400070B588B00E4614461D4600F0A1F818B1A9
:104750006FF0920008B070BD684600F0E0F80028E5
:10476000F6D122463146684600F026F80028EFD1FF
:104770002C60EFE708B500F08BF8FFF7A7FFBDE866
:104780000840FFF7D7BF08B5FFF7DAFF002814BFCE
:104790006FF03B00002008BD08B500F079F830B993
:1047A00000F0A6F8003018BF0120404208BD4FF0CD
:1047B000FF30FBE700F09EB82DE9FF4700230E46CF
:1047C00017460093044600285BD00AB1002958D050
:1047D00037F0030807F0030A25D04FF000094FF027
:1047E000E063C4E900390123019601A90293204640
:1047F00048F00053C4F80890C4F81C90039301F0EB
:1048000016F94146204601F01CF9204600F074F8E4
:10481000054640B142464946304611F0CBFB28469A
:1048200004B0BDE8F0874FF00009BAF1000F2AD0BC
:104830004FF0E063C4E900390123CDF804D00293BE
:10484000124B01A92046C4F80890C4F81C900393A9
:1048500001F0EDF80421204601F0F3F8204600F0C5
:104860004BF8054608B13A46D5E703460099464459
:10487000DA00013321FA02F29A4506F8012BF7D14A
:10488000CDE72125CBE75546C9E700BF040000204E
:1048900000207047B0F5802F24D00ED8B0F5803FAF
:1048A0001CD002D818B301207047B0F5003F17D0D4
:1048B000B0F5403FF7D12C207047B0F5202F13D032
:1048C00004D8B0F5E02FEED121207047B0F5302F9D
:1048D0000CD0B0F57F0FE6D1062070474820704716
:1048E0002A2070474B2070471020704711207047D6
:1048F000002070470020704708B570B101F0AAF899
:104900004FF098435A6CD202FCD5586D10F47020C9
:1049100004D0BDE80840FFF7BDBF212008BD08B5A1
:1049200028B12022002111F045FB002008BD2120E4
:10493000FCE708B502F0E0FFBDE8084000F001B870
:10494000704708B5032101230846042200F0FCFE4D
:10495000002008BD08B5032100230846042200F00A
:10496000F3FE002008BD08B502F0E4FF03F046F8AE
:1049700003F04BF803F052F8BDE8084003F059B8D3
:1049800008B503F058F803F057F803F056F8BDE8FF
:10499000084003F053B8000010B56FF00402502136
:1049A0000A480B4C12F0800FD3B21BBF03F00F0369
:1049B000043BA3181B1802F101020CBF83F800137B
:1049C00019763D2AEED1002010BD00BF00ED00E0B9
:1049D00000E100E008B5024800F008FD002008BD35
:1049E00000B4C4040020704713B54FF040220024E7
:1049F000536F684643F00103536700948DF80440F9
:104A000000F03FFE204602B010BD000070B586B039
:104A100001AA1546184B03F1100614461868596888
:104A2000083303C4B3422246F7D119889B7821800A
:104A3000A370124BD3F84C21120314D4D3F8504175
:104A4000E4B28DF80E4000F0B7FD204480F308007A
:104A50008DF80D000A48FFF73BFC284600F016FDD4
:104A6000002006B070BD4FF6FF70064B1C888442D4
:104A700008BF8C24E5E700BFB87601000080E00F96
:104A800000F049020001E00F054A06491368184486
:104A900088428CBF4FF0FF3310601846704700BF4C
:104AA00010100020008001202F4B984245D017D8CD
:104AB0002E4B984238D007D82D4B984234D02D4BEE
:104AC000984231D0002070472B4B98422FD02B4B6F
:104AD00098422FD02A4B9842F4D12A4B586E7047F7
:104AE000294B984234D00FD8284B984228D0284BD5
:104AF000984229D0A3F53703A3F5D8539842E1D1C2
:104B0000204BD3F880007047224B984224D003F505
:104B1000740303F51053984222D01F4B9842D1D111
:104B2000184BD3F890007047164B986D7047154B93
:104B3000186F7047134B586F7047124B986F704740
:104B4000104BD3F8840070470E4BD3F888007047A1
:104B50000C4BD3F88C0070470A4BD3F89400704785
:104B6000084BD3F898007047C0EA210100093D00C6
:104B700040420F0080841E00405DC6000024F40007
:104B8000C0CF6A000080E00F006CDC020048E80142
:104B900080D543020090D003007E560338B5124BF7
:104BA0000546D3F820310C4603F00703013B032BE5
:104BB00017D8DFE803F0020A0E12FFF747FB0423C1
:104BC00005B1286004B1237038BDFFF77BFB0323D8
:104BD000F6E7FFF793FB0523F2E7FFF78BFB0223D2
:104BE000EEE700231846EBE70080004037B50C469F
:104BF0000021114B0191D3F88031054603F00303E6
:104C0000022B0ED0032B11D0012B03D101A8FFF7EB
:104C1000C5FF0D210DB1019B2B6004B1217003B0C4
:104C200030BDFFF76BFB05210190F3E7FFF762FB57
:104C300002210190EEE700BF0080004038B5104B24
:104C40000546D3F840310C4603F00303022B0BD08A
:104C5000032B0DD0012B0FD1FFF794FB082305B1D7
:104C6000286004B1237038BDFFF792FB0723F6E7F5
:104C7000FFF78BFB0923F2E700231846EFE700BF9D
:104C80000080004038B5104B0546D3F860310C4623
:104C900003F00303022B0BD0032B0DD0012B0FD1FC
:104CA000FFF770FB082305B1286004B1237038BDFD
:104CB000FFF76EFB0723F6E7FFF767FB0923F2E731
:104CC00000231846EFE700BF0080004038B5134BC3
:104CD0000546D3F800320C4603F00703013B032BD3
:104CE00018D8DFE803F0020A0E12FFF74BFB082387
:104CF00005B1286004B1237038BDFFF749FB0723D5
:104D0000F6E7FFF742FB0923F2E7FFF7C5FA0C23AA
:104D1000800AEDE700231846EAE700BF0080004064
:104D200038B5134B0546D3F808320C4603F0070399
:104D3000013B032B18D8DFE803F0020A0E12FFF73D
:104D400021FB082305B1286004B1237038BDFFF7AB
:104D50001FFB0723F6E7FFF718FB0923F2E7FFF72E
:104D60009BFA0C23800AEDE700231846EAE700BF10
:104D70000080004038B5104B0546D3F840320C4651
:104D800003F00303022B0BD0032B0DD0012B0FD10B
:104D9000FFF7F8FA082305B1286004B1237038BD85
:104DA000FFF7F6FA0723F6E7FFF7EFFA0923F2E732
:104DB00000231846EFE700BF0080004038B5104BD5
:104DC0000546D3F800310C4603F00303022B0BD049
:104DD000032B0DD0012B0FD1FFF774FA032305B17C
:104DE000286004B1237038BDFFF7D2FA0723F6E735
:104DF000FFF77EFA0623F2E701230020EFE700BF6A
:104E00000080004010B541F671320F4B0F4CD9694C
:104E1000DA639A68A04222F4401288BF42F48012FA
:104E20009A600B4A0B4CD2F81832A04223F00203CE
:104E300088BF43F0020301F48031C2F8183211B187
:104E40000022014BDA6310BD00000340C01753027B
:104E500000C0074080F0FA0208B5FFF72FFABDE85E
:104E60000840FFF7CFBF000002280CD007D8012868
:104E700014D10B4B186FC0F3013001307047032879
:104E800007D00F28F4E7064BD3F89000C0F3046076
:104E9000F3E7034B186FC0F38020EEE70020ECE748
:104EA000008000401FB500230293252817D8DFE8B3
:104EB00000F0131A1D262B353A50555A5F64697756
:104EC000161A3F1616551A262B26351A5026773AEB
:104ED0003A3A3A2626265A5FFFF7C4F9029002981A
:104EE00005B05DF804FBFFF7D7F9F7E7FFF7BAF96C
:104EF00002460220FFF7B8FFB2FBF0F0EEE7FFF743
:104F0000CBF902460320F5E7FFF7C6F90246032076
:104F1000FFF7AAFFB2FBF0F04008DFE7002102A88C
:104F2000FFF764FEDBE7002102A8FFF737FED6E7B4
:104F300003931E4B1B685B0705D5FFF7ADF9039084
:104F4000039B0293CBE70DF1070103A8FFF776FE61
:104F5000F6E7002102A8FFF771FEC0E7002102A8D2
:104F6000FFF790FEBBE7002102A8FFF7AFFEB6E710
:104F7000002102A8FFF7D4FEB1E7002102A8FFF745
:104F80001DFFACE70A4BD3F8803003F00303022B7C
:104F9000A9D0032B01D00020A0E7FFF7AFF99DE7D0
:104FA000002102A8FFF7E6FE99E700BF10E000E04D
:104FB0000080004002280AD002D8012804D070479F
:104FC00003280FD00F2815D1084600F02BB80A4A45
:104FD0000139D2F8903023F0F85343EA0161C2F866
:104FE00090107047044A0139136F23F4806343EA39
:104FF00081211167704700BF00800040022103201B
:10500000FFF7D8BF08B50120FFF74CFFBDE8084007
:10501000034988428CBF022101210320FFF7CABF48
:1050200080F0FA0210B50446FFF716FFFFF7E6FF1F
:10503000074A013C106F20F4405040EA04301067EA
:10504000FFF72AF9FFF7DEFEBDE81040FFF7DABFF1
:105050000080004007B500238DF80230252822D8B3
:10506000DFE800F013212121212C324B51575D63E1
:10507000697C212138212151212121212C214B2101
:105080007C32323232212121575D374B1B6F03F0C6
:105090000703013B032B06D8DFE803F00E020A0CDE
:1050A00004238DF802309DF8020003B05DF804FB84
:1050B0000323F6E70623F4E70223F2E70DF10201EA
:1050C0000020FFF793FDEEE70DF102010020FFF74E
:1050D00065FDE8E70193254B1B685B0707D5FFF7E4
:1050E000DBF80B238DF803309DF80330D9E70DF181
:1050F000030101A8FFF7A2FDF6E70DF10201002070
:10510000FFF79CFDCFE70DF102010020FFF7BAFD8C
:10511000C9E70DF102010020FFF7D8FDC3E70DF14B
:1051200002010020FFF7FCFDBDE70DF102010020A8
:10513000FFF744FEB7E70C4BD3F8803003F00303CE
:10514000022B03D0032B05D00023AAE7FFF7A4F816
:105150000B23A6E7FFF7D2F80523A2E70DF1020122
:105160000020FFF707FE9EE70080004010E000E00F
:1051700070B50C46252849D8DFE810F02600480015
:105180004800480048005C006D00A900BA00CB0050
:10519000DC00ED00FE000F01480048007E004800E2
:1051A0004800BA0048004800480048005C00480039
:1051B000A90048000F016D006D006D006D004800F2
:1051C00048004800CB00DC008B1E042B2FD8DFE802
:1051D00003F02B1E032E280000250226FFF73CFEBD
:1051E000FFF70CFF754A136F23F007033343136770
:1051F000FFF752F8FFF706FEFFF704FF35B9032C5F
:1052000004D142F2280301216D4AD15070BD41F210
:10521000280201216A4B03269D6A9950C5F3400577
:10522000DCE700250426D9E700250126D6E700257E
:105230002E46D3E78C1EE4B20B2C8CBF0021614BB1
:105240005E4A98BF195DD2F8803123F003030B4307
:10525000C2F88031DAE78C1EE4B2032C8CBF002147
:10526000594B564A98BF195DD2F8203123F00703F5
:105270000B43C2F82031C9E7CC1F072CC6D801A3C5
:1052800053F824F0A5520000A5520000A5520000DA
:105290000D520000BB5200000D5200000D520000E4
:1052A000A5520000494A536A43F001035362484A39
:1052B000136823F004031360A8E7444A536A23F0F9
:1052C00001035362424A136843F00403F3E7CC1F1F
:1052D000E4B2022C8CBF00213E4B384A98BF195DC6
:1052E000D2F8403123F003030B43C2F840318DE77D
:1052F000CC1FE4B2022C8CBF0021374B2F4A98BF41
:10530000195DD2F8603123F003030B43C2F860311A
:105310007CE7CC1FE4B2052C8CBF00212F4B274A21
:1053200098BF195DD2F8003223F007030B43C2F88F
:1053300000326BE7CC1FE4B2052C8CBF0021284B58
:105340001E4A98BF195DD2F8083223F007030B43B9
:10535000C2F808325AE7CC1EE4B2042C8CBF0021FC
:10536000204B164A98BF195DD2F8003123F0030391
:105370000B43C2F8003149E705290CD00B290CBFBB
:10538000022100210D4AD2F8803023F003030B43A1
:10539000C2F880303AE70321F4E7CC1FE4B2022CD4
:1053A0008CBF0021104B054A98BF195DD2F84032DE
:1053B00023F003030B43C2F8403227E7008000408C
:1053C00000C00040CB760100D776010000C0074046
:1053D00010E000E0DB760100DB760100DE76010004
:1053E000DE760100E4760100DB76010038B5054683
:1053F000FFF75AFB214B04465A68012A05D142F2B5
:1054000004015A509A699207FCD10020FFF722FE4E
:10541000042803D1FFF720FDFFF7F0FD184B24F01F
:1054200040709D4220D0174B9D4220D0164BDA6829
:1054300012F0060FFBD1996898609A6800F4F81092
:1054400002F4F812904215D12846FEF705FF00201D
:10545000FFF700FE04280FD1FEF71EFFFFF7D2FC76
:10546000BDE83840FFF7CEBD40F00070DEE740F009
:105470008070DBE79960EAE738BD00BF00C00140FB
:1054800040420F0080841E000000014070B50446B9
:105490000020FFF7DFFD03287DD045F60E03434AC9
:1054A0000221C2F8803041F22803D15042F2280391
:1054B0000121D150916D11F48031FBD163782078B6
:1054C0001B0543EA0063A079657C0343E07843EA67
:1054D0000043207943EA0033607943EA8013136183
:1054E0009369E07A03F000430343E07943EA806381
:1054F000207A43EA0063607A43EA0043A07A43EAF1
:1055000000239361637B126A002B18BF0821207B64
:1055100022F00D0243EA020343EA800341EA030159
:10552000A27B224B4FEA42161962207C34D1996A41
:10553000E27B21F0330141F00101314341EA0211E4
:10554000996219461A4A9E6D32EA0606FBD141F26B
:10555000280202269E508B6D5B00FCD40B69A2785A
:1055600023F4700343EA02530B614FF0004241F20F
:105570001803CA5018B942F228030222CA5025B9AA
:1055800042F228030121094AD150A37C1BB1074BE9
:10559000084AC3F8802070BD9A6A22F033022A4379
:1055A000324342EA40029A62EFE700BF00C0004087
:1055B00003000140F1A7FFFF014B93F90000704782
:1055C00074150020EFF3108072B6704700B962B610
:1055D0007047EFF31180302383F31188704780F315
:1055E00011887047054A410900F01F0352F8210055
:1055F000D840C04300F00100704700BF00E100E068
:1056000010B50446EFF31083DB0733D4FFF7EAFF4E
:1056100000282ED1002CABBF04F16044164B04F5DA
:10562000614404F00F04ACBF94F800231A5D120922
:10563000EFF3118313B1B2EB131F1BD20F4C63684E
:10564000C3F30803ABB1103BDBB259B20029B5BFBD
:1056500003F00F0301F16043043B03F56143B6BF60
:105660001B1993F80003187E0009824234BF002002
:10567000012010BD0120FCE714ED00E000ED00E08A
:1056800070474FF04022D36E017923F030030B4373
:10569000D36670472DE9F843072A05460C4617469E
:1056A00098461ED803264FEA8209FFF78BFF1F4B4F
:1056B00005FA09F51A6806FA09F6554035405540CD
:1056C0001D60FFF783FFFFF77DFF194B04F0030414
:1056D0001A6804FA09F45440344054401C60FFF73F
:1056E00075FF144B144A9DF82010B8F1000F14BF39
:1056F00098469046012202FA07F7104A043300291F
:1057000008BF1346C8F800701F6042F220430C4ADD
:105710009DF82410D7500B4B02F51052243200296B
:1057200008BF13461F60BDE8F88300BF00C40340F4
:1057300008C4034010D4034010E4034014E40340C1
:1057400000C0034024D40340F0B54AB10125302401
:105750001D4E8D4004FB00640BB341F21006A551B1
:1057600030244443072904F1804404F5703419D8E7
:105770000F2765688E00B74025EA070502FA06F68E
:105780003543656052B9012202FA01F130220E4C14
:1057900002FB0040A3B141F21003C150F0BD42F240
:1057A0001006DCE70F2701F18045083DE668AD00F3
:1057B000AF4026EA070602FA05F53543E560E1E762
:1057C00042F21003E9E700BF00C00340054B064A60
:1057D00000290CBF19461146012303FA00F00860A6
:1057E000704700BF401004404020044030B50478AA
:1057F00045788178C27801200F4B41EA05412406A3
:1058000058609C609961FF21996200219963196435
:105810004FF000414FF0FF30596542F250015850AF
:105820004FF4001005491301DBB2C1F8800181F883
:105830001533086030BD00BF0000044000E100E007
:105840002DE9F04101260C464FF0300EC3B29E40C8
:10585000CB7A204D4FEA035823688F7A94F80DC015
:10586000097B45F82030A5F580450EFB005048EA3D
:10587000074343EA4153C0F860C0C36542F2500396
:1058800022F003020267EE50FFF7A3FE6B6D334375
:105890006B65237A13B12B6C33432B64637A13B19A
:1058A000AB6B3343AB6342F218012379A27942EA2E
:1058B0000342094B5A506179E27942EA014241F2CE
:1058C00018015A50054A16609E64BDE8F041FFF782
:1058D00086BE00BF00400440000004403420044065
:1058E000F8B50125C3B29D400446FFF772FE302291
:1058F000094B02FB04341E6D5F6B646EFFF76FFE95
:105900003D4206D1C4F30A1008B9354200D1013036
:10591000F8BD0020FCE700BF000004400138252846
:105920009ABF024B185C0020704700BFE976010067
:10593000242805D823280CD2012817D00846704700
:105940002628FBD80429F9D8DFE801F0150E130C3E
:105950000A000429F2D8DFE801F00C05030E070065
:105960000221EBE70121E9E70421E7E70129E5D07E
:10597000E4D20021E2E70321E0E7000030B5002394
:1059800000280CBF0C25042547F60774084958B9B0
:105990009A1D51F82220224022B101339D42F6D1B6
:1059A0004FF0FF33184630BD03F11202F1E700BF9C
:1059B0000080034038B5C2F30625044602F0070212
:1059C00041B942F440220B4B42EA0522063443F827
:1059D000242038BD11462846FFF7AAFF0146284675
:1059E000FFF79CFF034B41EA0020123443F82400E8
:1059F000EFE700BF008003400A4392B20021FFF7A7
:105A0000D9BF3AB122F0030202F1804202F56032BE
:105A100009B9106070470002FBE7436813B94160A1
:105A200070475B685A68012AFBD1596070478368E8
:105A300013B9816070475B685A68012AFBD15960CD
:105A40007047C369032B9FBF00EB83020133D16012
:105A5000C3617047C369042B15D84FF09842116C8D
:105A6000C902FCD504339B0013650168103B11602B
:105A700041680C30116050F8041C034411604FF071
:105A80009842984200D1704750F8041B1160F8E723
:105A90004FF40032014B1A60704700BF7050004055
:105AA0004FF04023D3F894007047000041F6713264
:105AB000034B0121DA6342F20C029950704700BF98
:105AC0000000034041F67132044B0121DA6342F2D7
:105AD0000C0299500022DA63704700BF00000340B7
:105AE0004FF090435A6812B19A6A002AFAD170476F
:105AF00010B5CB784A780C785B0143EA82030A79C7
:105B0000234343EA02130C22424302F190421363FF
:105B1000012C02BF8A78024B43F8202010BD00BF41
:105B2000D080034008B54FF090435A6802B960B185
:105B30005B680BB1FFF7D4FF4FF0904130B101200B
:105B4000074B1860FFF7CCFFC86008BDFFF7C8FF20
:105B50000223CB60FFF7C4FF0122024B1A60F4E777
:105B6000041000480420004870B54FF090435B6873
:105B70000BB1FFF7B5FF0121104B0679196083784F
:105B80004578002BC37814BF02240024002B14BFD7
:105B9000042200224379DB0043EA06132B4323430C
:105BA00013434FF090429360054B19600378002B2C
:105BB00014BF0B460223D36070BD00BF0420004811
:105BC00004100048054B5B69C3F38512827003F033
:105BD0003F021B0B42700370704700BF00C00740BC
:105BE0000D4B984208D1A3F50033C3F88411C36D5F
:105BF00043F08003C3657047084B984204D1A3F576
:105C00001033C3F89411F2E7054B984204BFA3F593
:105C10002033C3F8A411EAE70080054000C0054026
:105C20000000064070B5054616461C4619B903200B
:105C3000FFF738F90146202C08D001D8E4B170BD37
:105C4000402C17D0602CFAD1042300E008237343C2
:105C50005A0802EB4112B2FBF3F2084B203A03EA76
:105C6000C202AB6823F06003AB60AB681C43AC605E
:105C7000EA61E4E70623EAE71023E8E7F8FF7F009C
:105C8000012241F20403C250CB43934003F00A03C4
:105C90004361416111B942F20403C25070470000F0
:105CA00041F204030122C25040F6AA6341F2050208
:105CB000436100238360C365C26042F24802104919
:105CC0000361C361C36481500E4A8365904206D06C
:105CD0000D49884203D001F5804188420BD19042A2
:105CE000036506D0084B984203D003F580439842E1
:105CF00001D10023436542F204030122C2507047E0
:105D0000FFFF01000080054000C0054038B50D468A
:105D10000446FFF7C5FF41F204030122C250AB7CE9
:105D20001BB1836843F080438360EB7C1BB1297D0A
:105D30002046FFF755FF2A8A6B7B20461343EA89EA
:105D40001343E360D5E901122B7BFFF76BFF6B7DFB
:105D50001BB1A36843F48033A360AB7DEA7D1B07CE
:105D6000120502F4E00203F0E043297E1343A36529
:105D70008B1E012B1E4A1F4B21D894421BD002F5CB
:105D80008042944219D002F5804294420CBF022214
:105D90004FF0FF3203EB4213022041F2AC520329D1
:105DA00098500CBF41F25C0342F25C030422E250C3
:105DB0002B78636138BD0022ECE70122EAE79442C8
:105DC00011D00D4A944210D002F5804294420CBF8B
:105DD00002224FF0FF3203EB4213022042F2AC5298
:105DE00001299850DDE70022F5E70122F3E700BF23
:105DF0000080054000C0034000C0054083695B0689
:105E0000FCD5C1637047000030B5104A416113688A
:105E10001546ABB91060836011E0091B9C684161B5
:105E20001A467CB123465C698C42F6D9002CF4D02A
:105E300052B19060836013B15A69511A596130BDF3
:105E40000022F0E72346F4E72860F3E78C150020F2
:105E500010B500F071FA094B094A196831B114689C
:105E60004B69041BA34203D31B1B4B61106003E06F
:105E7000C01A002310604B6110BD00BF8C150020BC
:105E80007815002038B50F4B0F4D1C682B68022089
:105E90005B691C4400F084FA204600F055FA0023A8
:105EA0000A492A680B70D088800702D501230B703D
:105EB00038BD9268002AFBD050690344012BF2D907
:105EC000F6E700BF781500208C1500208015002013
:105ED00070B59DF81450164605710025049A85602A
:105EE000BDF818500446C5800260C0E903360D466F
:105EF00029B961610BB11146984796B13546FFF754
:105F000068FB0646FFF7A4FF29462046FFF77CFF03
:105F1000054B1B68A34201D1FFF7B4FF3046FFF7E2
:105F20005EFB002070BD00BF8C15002000210C4AD4
:105F300013687BB183420AD1836879B18B6083682F
:105F40001BB15A6941690A445A61002070471946D9
:105F50009B68EEE70028EFD0022070471360EEE761
:105F60008C15002070B5FFF734FB144E05463478CD
:105F7000FCB9134B1C60134B1C60134B1C8000F0CE
:105F8000A1F9012000F00CFA00F058FA0F4B02467C
:105F9000186020B92846FFF722FB232070BD234656
:105FA0000B4840F2E73111F09DF90A4B18600123CC
:105FB00033702846FFF713FB0020EFE7751500202C
:105FC0008C150020781500208215002088150020EF
:105FD00018FCFFFF7C1500202DE9F0410546F8B1C3
:105FE000FFF7F7FA0F4F0646FFF732FF2846D7F8BC
:105FF0000080FFF79BFF044628B13046FFF7EFFA19
:106000002046BDE8F081A8453B6803D123B1FFF7E6
:1060100039FFF2E7002BF0D1022000F0CDF9ECE7D8
:106020002224EDE78C15002038B50C46054698B1C2
:1060300091B100230B70FFF7CCFA0121074B1B68CD
:106040000BB122781AB1FFF7CAFA002038BD9D4281
:106050000CBF21709B68F3E72220F7E78C15002026
:10606000F0B587B01F4600230D4616468DF8173051
:106070000446A0B10DF11701FFF7D6FF9DF81720D8
:106080007AB9BDF83430294602939DF83030204665
:10609000CDE900733346FFF71BFF07B0F0BD2220A8
:1060A000FBE70320F9E738B5FFF793FA054600F060
:1060B00043F904462846FFF792FA204638BD00000F
:1060C00070B5FFF786FA064600F036F9094B05462B
:1060D0001C880120A4B200F087F918B100F02CF957
:1060E000054601343046FFF77AFA0022214642EA9B
:1060F000050070BD8215002010B50A4B0C461B68C8
:1061000083420CD3084B4FF47A7219680023A0FB2A
:10611000010111F0E7F801302060002010BD2120BE
:10612000FCE700BF7C15002088150020000000005F
:10613000F8B516461BA3D3E900238B4208BF824261
:106140002AD3174B1A683AB34FF47A73A0FB03456E
:1061500003FB0155531E13EA020014D1B2FA82F276
:10616000C2F11F02C2F12007A2F1200124FA02F3BA
:1061700005FA07F73B4325FA01F10B4325FA02F232
:10618000C6E90032F8BD00232046294611F0AAF8DE
:10619000C6E900010020F5E72120F3E7AFF3008016
:1061A00088150020EFA7C64B378941002DE9F84F2D
:1061B000C20704460BD53F4A138801339BB21380B4
:1061C000FFF746FE3C4B1B680BB1FFF75BFEA307D6
:1061D0006DD500F0B1F8394F00263D688046451B6B
:1061E000FFF7F7F9B24683463246334B1C6814B1C9
:1061F0006369AB4217D90021314B012E197004D1CC
:106200001AB1D288022A08BF1E70002C4BD06369D5
:10621000C7F800805D1B6561FFF734FE5846BDE896
:10622000F84FFFF7DCB923462A46C7F800805969C2
:10623000914209D8187994F804C0521A844588BF4D
:106240001C469B68002BF2D15846FFF7C8F9D4F8DA
:1062500014B0C4F814A0FFF7BCF981462046FFF73C
:1062600065FE4846FFF7BBF923694BB1FFF7B1F96B
:10627000814621692046FFF7C7FD4846FFF7AFF981
:10628000E36813B121682046984700F055F8D844D8
:10629000A5EB080581460544FFF79BF901368346C7
:1062A0002246C846A1E7022000F086F8B6E7BDE81E
:1062B000F88F00BF821500208C1500207815002073
:1062C000841500201FB50024184B18689A88029086
:1062D00053F8060FADF80C201B79009002A88DF83A
:1062E00004308DF808408DF80C40FFF73DFC6946FE
:1062F00001208DF80040FFF7FBFB4FF090431F217A
:106300009A6922F01F029A61094A11609A6A12F092
:106310000802FBD11A620120FFF704FC4FF48062EF
:10632000044BC3F880211A6004B010BD0F77010040
:106330001420004800E100E04FF090439A6A1207F1
:10634000FCD4186A704700004FF09042936A190716
:10635000FCD4136A116C5269120704D4CA1A032AB6
:1063600001D899420ED1C21A022A98BFD81CB0F1A6
:10637000FF3F38BF01384FF0904318649A6942F0EC
:1063800008029A61054A13783BB14FF09041CB6BFC
:1063900043F00203CB6300231370704714100020F6
:1063A00082074FF0904200F00103916948BF43F02B
:1063B00008030B4393617047830700F001020AD57D
:1063C0000121084B42F0080219704FF09041CB6B4D
:1063D00023F00303CB634FF090418B6923EA020360
:1063E0008B617047141000204FF0904301285B69C7
:1063F00004D0022805D1C3F3C000704703F00100A8
:10640000704700207047000010B5FFF7E2F84FF02A
:10641000904304465B691A07074A03F0010003F042
:106420000D0348BF40F002001360FFF7BFFE204697
:10643000BDE81040FFF7D3B8142000481C20FEF739
:1064400031BD0000F8B5032998BF124B06460F4630
:1064500094BF5C5C0024032805D8DFE800F0020844
:106460000B0E44F002040C4B1D684DB9F8BD44F00E
:106470000804F8E744F02004F5E744F08004F2E76C
:106480006B681A68144203D05B68394630469847F7
:106490002D68EAE71A7701009415002038B50B4DF6
:1064A0002B788BB10A4C237873B100F019F8094BA3
:1064B00001211878FFF7C6FF002201230649227048
:1064C0000A70064A2B70137038BD00BF901500206B
:1064D000921500209815002093150020911500209A
:1064E00008B5FFF7CDF80A4A0A49136F096823F087
:1064F00007030B431367084B1B782BB142F22803A9
:10650000012102F58042D150BDE80840FDF7C4BE2C
:1065100000800040543D002099150020BFF34F8FAC
:10652000BFF36F8F054A536A23F480335362D2F866
:10653000943023F00103C2F89430704700ED00E07E
:1065400070B5FFF7EBFF1E4C1E481F4B844208BF7F
:106550004FF08042196B1CBF20F01F02203A21F03F
:10656000FF0141F0A001B2F1005F196309D3174D9B
:10657000174E296842F0010299600131DE601A610C
:10658000296084420CD01148124A016822F01F028F
:1065900042F003029960DA600F4A01311A6101602A
:1065A000BFF34F8FBFF36F8F05225A600B4A536AB8
:1065B00043F480335362BFF34F8FBFF36F8F70BDCF
:1065C0002C1500209013002090ED00E09C15002079
:1065D000030000204B150020E1FFFF3F00ED00E02D
:1065E00010B51446FFF79AFF1F2C194B1ED91A6BD2
:1065F000C40622F47F4242F4807218BF20F01F00CC
:10660000144C1A6318BF2030CA0618BF21F01F01AE
:10661000226820F01F0021F01F019A6040F0030063
:1066200041F003010132D86019612260BFF34F8F3E
:10663000BFF36F8F05225A60074A536A43F48033D1
:106640005362BFF34F8FBFF36F8F002010BD00BFA9
:1066500090ED00E09C15002000ED00E0BFF34F8FAF
:106660000549064BCA6802F4E0621343CB60BFF3EE
:106670004F8F00BFFDE700BF00ED00E00400FA050A
:1066800008B5FFF7EBFF08BD00F03AB8704700000F
:10669000F8B5144C23781BB3FFF705FD124B134DCF
:1066A0001B68134EC01A08BF0120124B124F18600E
:1066B0002B7856F8232046F82300111A3A680F4821
:1066C000521A0A213A600932B2FBF1F20133DBB20D
:1066D0000260B3FBF1F201FB12332B700023237035
:1066E000F8BD00BFA4150020D8150020D415002047
:1066F000AC150020A0150020A8150020DC150020F6
:10670000202342F274000949094A81F82D33094BCC
:106710001A5042F270001A504FF40050C1F8840130
:10672000486041F274015A50704700BF00E100E038
:10673000010000A000C000402DE9F843914B1E6FFE
:106740009D6A9C6AF10705F0020504F0010452D528
:1067500042F2700201279F508B4ADFF8488292F87C
:106760000090B9F1000F00F0F9800021117098F845
:106770000020BA4200F2ED8042F2280202219F502E
:1067800041F2280299509A6DD203FCD47F495A6B8A
:10679000096822F470620A435A637D487D4A996908
:1067A0000068126821F47F01024321F47F410A430B
:1067B0009A617948794A19691268006821F47F6101
:1067C00021F00F0102430A431A6175499A69096869
:1067D00022F0FF020A439A610222002D40F0B380AA
:1067E00042F228015A50674B0122002C00F0AE8083
:1067F00041F228015A5016F000517CD042F270024A
:106800004FF0010C5F4B624F995066495E4ADFF8CA
:1068100090E182F800C00A7862440A705A6B5B49C2
:1068200002F47060086098695A4900F47F4008607B
:10683000996901F47F0139609F69FFB2CEF8007059
:106840001F69DFF858E107F47C67CEF800701F6914
:10685000DFF844E107F03F07CEF8007042F2280766
:1068600043F807C041F228074FF0020C43F807C075
:106870004FF0004C43F807C09F6DFF03FCD442F279
:1068800028074FF0004C22F4706242F40072B0F519
:10689000C84F43F807C05A6302D8B1F5C80F0CD9E6
:1068A000384A41499369096823F47F0323F47F43FD
:1068B00043EA012343EA01439361324B3B491A699E
:1068C000096822F47F62880822F00F02024342EA3C
:1068D00080121A619A6922F0FF020A439A61022229
:1068E000002D42D142F228015A500122002C3FD003
:1068F00041F228015A50002E23DA42F270024FF082
:106900000041204B99502A4A1278D2B142F2280213
:106910000121995041F22802022199509A6DD20327
:10692000FCD441F218024FF000419950022215BBED
:1069300042F228015A50134B0122FCB141F22801C6
:106940005A50BDE8F88341F228014BE742F2280192
:1069500050E7FFF79BFE164B1F704CE7FFF798FEC2
:10696000FFF79CFD88F8009045E741F22801BBE75E
:1069700042F22801BEE741F22801DBE742F228019A
:10698000DEE700BF00C00040F4150020F81500202D
:10699000F0150020EC150020E8150020E41500207B
:1069A000E0150020F51500201C1000201810002014
:1069B000F6150020FFF7C0BE2DE9F04F85B09B46CD
:1069C000574B06461B7889461546109F9DF844A0F4
:1069D000DDF85080002B00F09280072A00F29180B1
:1069E0000E9B002B00F08D800F9B002B00F0898008
:1069F000129BB3F5006F00F38480012801D1002FB2
:106A00007FD0484B03EB05131B7B002B7BD0464C00
:106A10001022002168460FF0CDFA04EB4514102235
:106A2000B9F1000F5CD1494620460FF0C3FAA378B4
:106A300043F01003A370E37843F03003E370BAF13E
:106A4000000F03D1DBB243F00303E37036496A0160
:106A5000129B885A013B63F30E100E9B01EB020C54
:106A60008852CCF808300F9B9DF84C10CCF80430BD
:106A70009CF80330012E61F38303CDF800B08CF84D
:106A8000033042D113230CF1100ECCF80C309CE8EB
:106A90000F008EE80F006FF00301DCF81C20B9F145
:106AA000010F61F39F02CCF81C20CCF8147004D1C4
:106AB0000F9BCCF80470CCF81830002719492A0134
:106AC0008B1841F80280159A28465A609F605E73C1
:106AD00022466946FEF7B4FE384605B0BDE8F08FA1
:106AE000002120460FF066FA1023A3700323E37001
:106AF000BAF1000FAAD1DBB243F03003A5E70B488F
:106B0000EBE70B48E9E70B48E7E7B8F1000FD4D112
:106B10009CF8023068F304138CF80230CDE700BF14
:106B20007C170020FC1500207C160020028000F05D
:106B3000018000F0078000F038B5104B05461B7847
:106B4000BBB1C0B1FEF745FD00230D4901EB0312B7
:106B5000147B3CB92B60012314601373FEF73FFDD7
:106B6000204638BD0133082BF0D1FEF738FD05482B
:106B7000F7E70548F5E70548F3E700BF7C17002075
:106B8000FC150020048000F0028000F0018000F07D
:106B900013B5164B1868002301908DF80430FEF7EA
:106BA00018FD134B1C7824B1FEF719FD114802B0F3
:106BB00010BD01221A70FEF712FD0F4B1C731C77DB
:106BC00083F82C4083F83C4083F84C4083F85C40C9
:106BD00083F86C4083F87C4004230DEB03008DF8B0
:106BE0000730FEF703FE2046E1E700BF1E770100F5
:106BF0007C170020038000F0FC15002010B588B041
:106C00000E9C009207940D9C024606949DF830401D
:106C100005940B9C04949DF8284003940024CDE92E
:106C2000013420460B462146FFF7C6FE08B010BDD2
:106C300010B588B00E9C009207940D9C02460694F5
:106C40009DF8304005940B9C04949DF828400394D3
:106C50000024CDE9013420460B460121FFF7ACFEAC
:106C600008B010BD08B50A4B1B785BB107280BD8DC
:106C7000084B03EB00131B7B43B10021FEF7A6FD7D
:106C8000002008BD0448FCE70448FAE70448F8E798
:106C90007C170020FC150020028000F0018000F02D
:106CA000078000F008B50A4B1B785BB107280BD8AA
:106CB000084B03EB00131B7B43B10121FEF786FD5C
:106CC000002008BD0448FCE70448FAE70448F8E758
:106CD0007C170020FC150020028000F0018000F0ED
:106CE000078000F00D4B1B7893B1072812D889B1AB
:106CF0000B4B03EB00131B7B73B10A4BDA6A0123C6
:106D000003FA00F010401ABF00200B7008707047A3
:106D10000548704705487047054870477C170020B4
:106D2000FC15002000000440028000F0018000F00B
:106D3000078000F010B50B4B0C461B7863B1072899
:106D40000CD859B1084B03EB00131B7B43B1FEF782
:106D5000C7FD2060002010BD0448FCE70448FAE7A6
:106D60000448F8E77C170020FC150020028000F0A2
:106D7000018000F0078000F02DE9F843174B1F6DEC
:106D80005B6D1F4000D5FEE701260025144CDFF89F
:106D90005480DFF85490374217D02368C8F8006059
:106DA0009BB1A16862680131A16028469847637B66
:106DB000012B0AD148B909EB4513197B1A7F60F3FF
:106DC000410160F3410219731A770135082D4FEA2A
:106DD000460604F11004DED1BDE8F883000004404B
:106DE000FC150020502004407C16002070B50125C1
:106DF0000446084E04B970BD94FAA4F0B0FA80F0CD
:106E000005FA00F324EA030456F82030002BF1D0F1
:106E10009847EFE78017002008B51920FEF7E2FB3E
:106E200028B14FF00072074BC3F880211A601A2076
:106E3000FEF7D8FB28B14FF08062024BC3F88021E7
:106E40001A6008BD00E100E038B504460D46FEF7C3
:106E5000C0FB034B43F82450BDE83840FEF7BFBBEE
:106E600080170020064BD3F82404D3F820241040C8
:106E700042F2204200F055309850FFF7B7BF00BFF4
:106E800000C00340064BD3F82404D3F8202410405C
:106E900042F2204200F0AA309850FFF7A7BF00BF8F
:106EA00000C00340042203685A619A699207FCD526
:106EB00041F2AC52102103795B0103F1804303F5E9
:106EC000703399507047012203685A619A69D2075A
:106ED000FCD541F2AC52042103795B0103F18043FC
:106EE00003F570339950704738B141B1013AB2F5AA
:106EF000006F044838BF00207047034870470148BE
:106F0000704700BF037000F0027000F038B504460F
:106F10000D46FEF75EFBA28892B222B92A60FEF708
:106F20005EFB064838BD1422638802FB0343083326
:106F30002B60FEF754FB0020F4E700BF0B7000F05D
:106F400038B504460D46FEF744FBA3889BB223B92F
:106F50002B60FEF744FB0C4838BD14226388E1889F
:106F600002FB034308332B6063885A1C92FBF1F346
:106F700001FB13239BB26380A388013B9BB2A380D8
:106F8000FEF72DFB0020E7E70B7000F02DE9F04144
:106F9000044617468846FEF71CFBA388E288054690
:106FA0009A4206D800233B60FEF719FB1148BDE862
:106FB000F08114262088324606FB00404146083006
:106FC0000EF0D4FF2288238806FB0242E1880832B3
:106FD0003A605A1C92FBF1F301FB13239BB223800E
:106FE000A388284601339BB2A380FEF7F8FA00205D
:106FF000DDE700BF0A7000F090F83130022B0BD1B2
:107000003022437F90F821005A43044B9B5823FAC7
:1070100000F000F0010070470020704714C00340EA
:1070200013B500231C4A52F8234094F821108142E2
:107030000ED00133042BF6D102B010BD0028FBD1D5
:107040009DF80730002BF7D0A068FFF70BFEF3E7A1
:1070500094F83130022BEFD12046FFF7CDFF637E4D
:107060002076022BE8D194F82E3003F0FF02002B9B
:10707000E2D102A901F8012DA068FFF733FE237EBB
:107080001BB194F82F30002BD8D00023A06884F8CF
:107090002F30FFF707FECFE70018002030B587B08C
:1070A000012490F8325080F82C4095B9426B036867
:1070B00022444263094A0490CDE902524A682433CB
:1070C000CDE900420A684169C068FFF7B1FD07B029
:1070D00030BD002380F82C30F9E700BF797600003E
:1070E00030B587B0012490F8325080F82D4095B922
:1070F000436B026823444363094B0490CDE9025378
:107100004B683C32CDE900430B6801698068FFF7AA
:1071100075FD07B030BD002380F82D30F9E700BFC2
:1071200025710000F7B5144601A9906AFFF7EEFE3D
:10713000636B013B6363154B984220D00025019B94
:107140001D619D60FEF745FA019A0746D66826B193
:10715000D2E9002329462046B04701A9A06AFFF7DB
:10716000EFFEA06A83889BB263B101A9FFF7CEFE50
:1071700001992046FFF7B4FF3846FEF730FA0120A8
:1071800003B0F0BD84F82D30F6E700BF0B7000F0BF
:107190002DE9F341984600230546406A0E4684884F
:1071A0001746A4B2CDE900333CB16946FFF7AEFE05
:1071B00001A90446E868FFF7BDFD009969B164B90B
:1071C0004868019BC01A3860C8F800300B6833600B
:1071D0002B68986902B0BDE8F0810021C8F8001062
:1071E00039603160F4E72DE9F04104460F46154659
:1071F000FFF77AFE064678BB1520FEF701FA8046B7
:10720000A26A93889BB213B194F82E303BB32368E3
:107210009B6913F0020802D12046FFF743FE0123C9
:1072200084F8303094F8323033B93D44AF422068AE
:107230001BD183699B06FCD5B8F1000F0CD142F23B
:10724000AC52102123795B0103F1804303F57033C5
:107250009950082223685A613046BDE8F081B8F1A0
:10726000000FCED0FFF788FDCAE717F8011BFEF725
:10727000C5FDDBE710B5044680B190F82E302BB980
:10728000FFF7BAFE10B9A068FFF7ECFC002094F8F5
:107290002E300133DBB284F82E3010BD0048FCE7FD
:1072A000027000F010B50446A0B190F82E309BB1EA
:1072B00090F82E30012B05D1FFF79EFE10B9A06883
:1072C000FFF7F0FC002094F82E30013BDBB284F88D
:1072D0002E3010BD0148FCE70148FAE7027000F0CB
:1072E000057000F037B590F831500446022D1ED1DC
:1072F000012190F82220457E837F01FA02F230209E
:10730000154925B900FB031342F2100105E0012DD8
:1073100007D100FB031341F210015A50002003B0C3
:1073200030BD247E00FB0313002CF4D1ECE7012DCB
:10733000F4D1037E73B911238DF80730FFF79AFF5C
:107340002A460DF107012046FFF74DFF2046FFF7C3
:10735000A9FFE3E71323EFE700C00340F0B58BB0CC
:107360000446A14F03AE0D460FCF0FC697E80700A6
:1073700086E807001CB99D4C20460BB0F0BD0DB946
:107380009B4CF9E73822002120460EF013FE002323
:10739000984963630A78984B2AB9C3E90022C3E984
:1073A000022201220A70002253F822108C420AD0D5
:1073B0000132042AF8D1002253F82210002940F0AB
:1073C000CD8043F822402B7D286884F8313000239B
:1073D000206084F832302B7B2371884B984240F038
:1073E000C280212384F82330854B23614FF480230E
:1073F00000266361D5E90723626216805680968075
:1074000084F82C60A3621E805E809E806B6803A956
:107410000593EB8984F82D60ADF81C302B8A84F835
:107420002F60ADF81A30AB7C8DF80C608DF81830F9
:10743000EB7C8DF81E3005238DF81930FEF766FCC5
:1074400014212A7B6F4B287A03EB4217C7F8AC153F
:10745000A97A2E3240EA014C03EB4213C3F804C070
:107460006A7AEB7A42EA034CC7F8BCC5E17784F844
:1074700020306B7DE07622776377AB7D042284F841
:107480002130EB7DA3772B7E84F822300123FEF799
:107490005BF90123022294F82010207FFEF754F9B3
:1074A00094F83130022B75D13346012294F8211023
:1074B000607FFEF749F93346042294F82210A07F3A
:1074C000FEF742F9012394F82120607F1146CDE9AF
:1074D0000033FEF7DFF8FEF77CF82E7D0746032E1B
:1074E00069D141F2AC5202212B7B04205B0103F1F4
:1074F000804303F57033995041F25C02296888504B
:10750000297EEA7D42EA014241F2B8515A50A97DF2
:107510006A7D42EA014241F2B4515A504FF0FF32C3
:1075200042F248032868C2502B7D032B0CBF052173
:107530000421FEF7A5FB4FF440622B685A61FFF768
:1075400027FB002104F10800FFF7F6FA01460028A6
:1075500042D02D4C3846FEF742F80DE70132042A9E
:107560007FF42AAF07E7294B984207D1222384F8FA
:107570002330274B23614FF4A02339E7254B984252
:107580007FF4FEAE232384F82330234B23614FF492
:10759000C0232DE7032B9ED1334694F82110607F42
:1075A0000122FEF7D1F83346042294F82210A07F7E
:1075B000FEF7CAF88FE7022EB0D194F821001749E0
:1075C000FFF742FCFFF728FC00236676A3762376BC
:1075D0002046FFF787FEA1E704F10C00FFF7ACFAA5
:1075E00004460028B6D0B4E724770100027000F00A
:1075F000037000F0101800200018002000800540E3
:107600000200040000C003400E7000F000C00540FE
:107610000200050000000640020006002170000084
:10762000F0B587B004461646FFF75EFC0546E8B99C
:107630000493104BCDE901166A4601A9606A0396CE
:107640000593FFF7A3FC054680B994F82C306BB97D
:107650002046FFF738FC0099FFF720FD94F8313001
:10766000032B03D025762046FFF73CFE284607B0C3
:10767000F0BD00BF017000F073B5144601A9506A57
:10768000FFF744FC636B013B63632F4B984230D0A0
:1076900094F83200019B002839D12268916C11F4D2
:1076A000007129D029499860196142F248034FF4CA
:1076B0000071D150FDF78DFF01990646CD6835B1B7
:1076C0004A688B682046D31A0A680969A84701A945
:1076D000606AFFF735FC606A8588ADB2DDB101A94B
:1076E000FFF714FC01992046FFF7D8FC3046FDF760
:1076F00076FF012002B070BD906CC00507D514481C
:10770000996018614FF4807142F24803D1E700227A
:107710001A619A60CEE7012320462376FFF7E2FD47
:1077200094F8313084F82C50032BDFD042F2AC5265
:10773000042123795B0103F1804303F570339950F1
:10774000022223685A61D1E70B7000F00D7000F03F
:107750000C7000F0F0B587B004461646FFF7C4FB86
:10776000054638BB0493154B039605932368CDE972
:1077700001169B699B0702D42046FFF793FB6A46DC
:1077800001A9A06AFFF702FC054698B994F82D30CC
:1077900083B9FDF71EFFA36A06469B889BB233B1EF
:1077A00000992046FFF79CFC012384F830303046D6
:1077B000FDF715FF284607B0F0BD00BF017000F0CF
:1077C00008B5FDF7FFFE014B186008BD583D0020CD
:1077D000014B1868FDF7FABE583D00200A460139F2
:1077E0000144FEF7FDBE704770B594002246054681
:1077F0000E460FF059FF431C02D018B1064800E0B6
:10780000064870BD2246314628460EF0A0FB0028EF
:10781000034808BF0020F4E724E000F021E000F076
:1078200010E000F013B5044601A8FEF7CBF99DF86F
:107830000630012223804FF4807300206380054BC3
:107840009B680A3303F01F0302FA03F3636002B07C
:1078500010BD00BF0080E00FFEF734B908B5FEF799
:1078600025F9002008BD10B5044644EA010313F0D1
:107870000303084609D1934201D1002010BD54F8FA
:10788000231040F823100133F5E7920021460EF053
:107890006DFBF2E710B504460FF0FEFE431C02D06C
:1078A00018B10C4800E00C4810BD0C4B20469B68FA
:1078B0000A3303F01F020123934023F00303234400
:1078C000984201D10020EFE750F8042B0132F7D0A5
:1078D0000348E9E724E000F021E000F00080E00F39
:1078E0000EE000F0024B1968024B186806F05ABE11
:1078F0002410002020100020FDF72CB808B504212A
:107900000020FDF735FC08210720FDF731FC082198
:107910000846FDF72DFC08211C20FDF729FC082155
:107920002420FDF725FC08212520FDF721FC00205F
:1079300008BD000007B501A8FEF744F9274B9B6D71
:10794000DB0318D4264A136823F4FF0323F4FE4311
:1079500043F4BC1343F4A063136052F8043C23F4D3
:10796000704343F4404342F8043C52F8043C43F46F
:10797000E06342F8043C9DF80530012B0FD19DF8DF
:10798000043063B94FF000531B68164B1B68164B4D
:107990001B68164B1B68164B1B68164B1B68164A58
:1079A000D2F8803043F00303C2F88030FCF7F4FFD4
:1079B000FCF7C6FFFDF70EF8FEF766FEFDF726F8AA
:1079C000FDF710F8FFF79AFFFDF70EF8FCF7B1FF8F
:1079D000FFF788FF03B05DF804FB00BF00C0004064
:1079E00034C00040004000200080002000C0002083
:1079F00000000120004001200080004008B5FFF792
:107A00000BFABDE8084000F02BB808B5FEF7AAFA5B
:107A1000FCF7B0FEBDE80840FEF792BD08B5FCF7E4
:107A200093FDFCF7ADFDFCF79BFDBDE8084001F0C0
:107A30002FBD00F004B8704770477047704708B515
:107A400000F028F8BDE8084000F03AB818B1034B40
:107A50001860002070472520704700BF541E00208A
:107A600010B5054C05492068FFF778FC2068BDE893
:107A70001040FFF7EBBF00BF68100020441000204B
:107A800008B5FCF770FF00F021F8FCF779FF00F073
:107A90001FF8FAE708B501F0C8FF054B186028B9D0
:107AA000044B054A522105480EF0D4F908BD00BF29
:107AB000581E0020BA770100A4770100C4770100A6
:107AC000014B186801F0EABD581E00207047000005
:107AD00010B5044C206802F06AF82068BDE8104038
:107AE00001F0E2BC581E002001F0EEBC01F0ECBC3D
:107AF00008B51822002104480EF05CFABDE80840E1
:107B0000012007F0F5B800BF681E002007B5FEF79A
:107B1000D7FA6A46FEF70CFB28B1054B054A5E21F1
:107B200005480EF097F9009803B05DF804FB00BF1C
:107B30008978010023780100A078010030B585B074
:107B40000C4615461448FEF747FA144B2C441C60AB
:107B5000FFF7DCFF201A0124114B00281C7003DC06
:107B600001F0B2FC05B030BD03A9FEF7C5FA03462B
:107B700028B17B210B4B0C4A0C480EF06BF9CDE978
:107B800000040B4A03990448FEF76AFA0028E9D07A
:107B9000044B054A7F21EFE7681E0020601E00208D
:107BA0005C1E0020897801003A780100A07801006D
:107BB000E97A000008B50348FEF70EFA0022024BEE
:107BC0001A7008BD681E00205C1E002007F06ABD08
:107BD00070B50C4616460F4D3444286807F0BAF8C5
:107BE0000D4B1C6007F05EFD0122211A0B4B002992
:107BF0001A7003DCBDE8704001F066BC084B2868D1
:107C000007F09AF828B1074B074AEE2107480EF013
:107C100021F970BD983E0020641E00205D1E0020EA
:107C2000ED7A00006A78010052780100A078010026
:107C300008B5044B186807F08DF80022024B1A7043
:107C400008BD00BF983E00205D1E00202DE9F041D8
:107C50000446FDF7BEFC1A4B80461E78A6B90026E6
:107C6000184B1D78DDB900254046FDF7B8FC2EB154
:107C700000F034F8F0B1204602F0BDFAF5B120462C
:107C8000BDE8F04102F0ECB80F4B1D68FFF73EFF76
:107C9000281A0028E3DC2046FFF78CFFE0E70B4BB7
:107CA0001F6807F0FFFC381A0028DCDC2046FFF7CD
:107CB000BFFFD9E7204602F0A9F8DFE7BDE8F08171
:107CC0005C1E00205D1E0020601E0020641E00203F
:107CD000014B1870704700BF801E0020014B1878C0
:107CE000704700BF801E0020704770477047F7B58F
:107CF0000D460646A0B100242746A54201D8002023
:107D000009E02A1B01AB92B2311900200197FCF760
:107D10003AFD10B1012003B0F0BD019B1C44ECE71B
:107D20000720F8E708B5FDF7BBFE034B1860BDE878
:107D30000840FDF7ADBE00BF841E0020BFF34F8F8B
:107D40000549064BCA6802F4E0621343CB60BFF3F7
:107D50004F8F00BFFDE700BF00ED00E00400FA0513
:107D60000E4B1B68D9070FD45A060FD413F0180F07
:107D70000ED199070ED49A060ED440F284721342A3
:107D80000CBF072006207047002070470220704774
:107D9000082070470120704703207047841E002090
:107DA00070470000054B1B7803F0FF0023B1044B24
:107DB0001B681878C0F34010704700BF10220020E5
:107DC00018220020064B074A1B6812781B7802F025
:107DD000FF0022B103F00700C31E5842584170470C
:107DE0001822002010220020054B1A79824205D863
:107DF0005A7982422CBF18460020704700207047F5
:107E0000A41E002083884BB18268013B013282604E
:107E100042888380013A42800020704701207047E9
:107E200038B50C468A88896805460EF09FF8E168E7
:107E300041B1A0886288121A92B22844BDE8384045
:107E40000EF094B838BD000073B50546244B254CA0
:107E500018689B880090ADF804302B68206826468F
:107E60002BB3972107F0C0FE024630B140F2432108
:107E70001D4B1E4A1E480DF0EDFF2968206807F0D3
:107E800061FA2B79834204D01A4B184A40F24621FA
:107E9000F0E701220423114620688DF8003007F036
:107EA000EDFE60B1104B114A4FF41371E2E707F099
:107EB0009FFE20B10C4B0D4A40F25621DAE7032217
:107EC0003068114607F0C5FE6946306807F09AFA37
:107ED00020B1054B054A40F26521CBE702B070BDE9
:107EE00020790100983E00206A7801008A7901001B
:107EF000FF7B01007F7C010038B50D460446FDF78D
:107F000068FB064B1A882DB114431C80BDE838402D
:107F1000FDF765BB22EA0404F7E700BF8A1E0020D4
:107F200070B590F90A60C57A0468407A30B10022D1
:107F30000C4B5E759D759C60DA6070BD0A4BC3E9A1
:107F40000240D87D5E7561F34100014662F3000195
:107F5000064A9D751278D9751A75054A12681A6114
:107F6000EBE700BF3821002068210020A11E00207F
:107F70008C1E002038B51D460B4B14460A460146A0
:107F8000186807F050FB08B1002038BD6088A3686E
:107F9000421C92B22A801B789342F5D103387B2889
:107FA0008CBF00200120F0E7983E00200021042033
:107FB000FFF7A2BF10B5FFF7F5FE30B940F65D013F
:107FC0000F4B104A10480DF045FF104B1B881B0744
:107FD00004D40F4B0B4A40F65E01F3E70E22002457
:107FE0000C4B21461A700C4B08201C70FFF784FFC5
:107FF0000A4B186806F074FE094B1C7010BD00BFD8
:10800000E67A0100AD7A0100FF7B01008A1E0020A4
:10801000F87A01001122002010220020983E002052
:10802000881E00202DE9F04385B01B4C884623783C
:10803000914603F0FF0123BB0122184B184F187023
:108040003868227006F047FE5FFA88F0FFF7CCFE32
:108050000646C0B1134D2B68834202D0FFF7F4FEF1
:108060002E60FF238DF804300F4B4A46CDE90239CC
:10807000414601AB386806F0CFFE30B905B0BDE827
:10808000F0830520FAE70720F8E77F22074B01205D
:108090001A7002232370F1E7EE200020EC2000206C
:1080A000983E0020E820002020A10700ED200020BD
:1080B00008B50E4B1B889B0713D501280C4B11D11B
:1080C0000F22002120201A70FFF716FF0021022046
:1080D000FFF712FF074B186806F002FE0022064B5E
:1080E0001A7008BD0B221A70F0E700BF8A1E00202C
:1080F00011220020983E0020102200202DE9F04F90
:10810000B1B0CDE90023002302F400121343074667
:1081100000F01F82CE4B18A9186807F081FABDF84D
:108120006230022B40F2F981272B0AD92723BDF8B0
:108130006420ADF86230262A82BFADF86430002397
:108140001B9318A922A8FFF76BFE9DF8895005F034
:108150000703052B40F0E8822C074ABF9DF88A30C0
:10816000ABB245EA03234FEAA3154FEAE31101F04E
:10817000100105F4027545EA01054FEA632101F09B
:10818000200145F0050545EA01054FEAA30101F488
:10819000A07145EA01054FEA831101F4406145EA07
:1081A0000105AC4958BF022201EA032345EA030551
:1081B000ADB248BF032215F44C4309D005F4484141
:1081C000B1F5084F04D0B3F5484F01D085F0400514
:1081D00005F44053B3F5005F40F09F81AB12691284
:1081E00001F0060103F038030B43C5F380110B4384
:1081F000994931F813104FF6FF73994200F08D81C1
:1082000015F4807308BF30A8059302BF531C1218E1
:1082100012F8384C01F00F0808BFDAB2BDF86260FE
:1082200008EB020318BF0024B34200F37681B8F1D3
:10823000000F00F07F8230A8104410F8380C531C57
:10824000834630A850FA83F313F8383C0232D2B296
:108250000293C1F303138DF81C3013449E42C0F205
:108260005C814FF0000C5FFA8CF3581C5FFA80FEC3
:108270009DF81C0013447045DBB282460CF1010CE2
:1082800080F05C82C1F3032909EB03029642C0F23D
:108290004481B9F1000F0DD030A8184410F8380C03
:1082A0005A1C039030A850FA82F212F8382C02338C
:1082B000DBB20492090B8DF8281019448E42C0F2EB
:1082C0002C810020C1B24A1C9DF82860D2B219440A
:1082D0009642C9B200F1010080F0568215F00806FE
:1082E00013D030AB0B4413F8383C03F01803102BB9
:1082F00000F05282182B0CBF08260026063622AB4F
:108300003246194410A80DF031FE05F4A4722B1169
:1083100042F4005242F0020203F4406313434D4A18
:1083200002EA05151D434D4BADB21B787BB19DF89C
:10833000283063B1082B40F031820DF1290001F0A3
:1083400005FBC043C0F3C03008B145F010052B0A4F
:108350008DF88A30059B8DF88950002B40F02782DC
:108360008DF88B400424AB126A1202F0060203F06F
:1083700038031343C5F380121343374A32F81310FE
:108380004FF6FF73994200F0C880080713D0B9F187
:10839000000F00F00E8230AA9DF80C002244631CEE
:1083A00002F8380C30AA023452FA83F39DF81020F8
:1083B000E4B203F8382C11F0F00F0ED000209DF835
:1083C00028E0C3B201305FFA80FC5A1CE645234422
:1083D000D2B2DBB280F0FE811C4611F4706F11D076
:1083E000B8F1000F00F0FF8130AA2244631C02F8AC
:1083F00038BC30AA023452FA83F39DF80820E4B264
:1084000003F8382C11F4704F40F0108215F0080872
:1084100007D022AB1819324610A90DF0A7FD34443D
:10842000E4B20B4B1DAA0221186807F0F5F80028EA
:1084300073D00DF11A031DAA14A9FFF79BFD0028A4
:108440006BD01DA8FFF7DEFC002866D108E000BF56
:10845000983E002000C0FFFFA87C0100F72000200C
:108460009DF82820002A58D0082A40F0E2810DF11A
:1084700029010DA80DF07AFD02230DF118098DF8E0
:108480003C309DF95A204B469DF85B100DA801F039
:108490004FF9AF4B02461E68002808BF4FF0000995
:1084A0002EB10290AB4801F0B1F90646029AB9F13B
:1084B000000F06D02AB14946A64801F0BFF906448C
:1084C000F6B2A54B15F0180F1E70994613D01F9BDE
:1084D000BDF87810209A002908BF1346B8F1000FA4
:1084E00003D01A7842F004021A70EA0642BF1A78E2
:1084F00062F07F021A7022AB3246964918190DF0CD
:1085000035FD99F8002022A92244D2B2531C3846E6
:108510008DF8883007F0DFFBD8B1904B1B78002B2B
:1085200000F0978122A9384607F0D2FB002840F0DE
:10853000AB819DF89030032B00F085819DF8903041
:10854000022B06D1BDF8880001F0A6F9002880F2C0
:108550008081DDE90023002302F08072134300F0E4
:10856000A4817F4B1B889D070DD500210220FFF7BA
:10857000C3FCFFF717FC0446002800F08D810121A1
:108580000820FFF7B9FCDDE90023002302F0080210
:1085900013436FD0384607F04EF8724D014622AAB9
:1085A000286807F039F88046002863D09DF88830A5
:1085B000072B5FD118AB22AA1DA9FFF7DBFC00280F
:1085C00058D022A8FFF71EFC002853D1BDF88C30EC
:1085D000002B40F08781259B1C789DF87D30002B77
:1085E00000F08281BDF86030052B43D104F0070311
:1085F000022B3FD15C4E22A93068FFF711FCBDF879
:10860000603041462868B38007F017F8FFF7CAFBCF
:1086100050B3564B32681B6892789B789A4223D1AC
:108620009DF87A3033B3BDF860301DA90133286856
:10863000ADF8783006F0FBFF0646D8B90246014691
:108640001DA8FFF76DFC4A4B31461E70494B0820B0
:108650001E7004F01004FFF74FFCFFF7B3FB18B1D6
:1086600014B10122444B1A70FFF7ACFB10B9286813
:1086700006F036FBDDE90023002302F0007213430D
:108680000CD03D4C00210420FFF736FC23782BB1A1
:10869000344B186806F024FB00232370DDE9002327
:1086A000002302F00842134301D0FFF77FFCDDE90D
:1086B0000023002302F00052134301D0FFF776FCA1
:1086C000DDE90023002302F00202134305D0244B0E
:1086D0001B881C0701D5FFF76DFCDDE90023002294
:1086E00003F0400313430AD01D4C2288100701D524
:1086F000FFF760FC2388590701D5FFF757FCDDE938
:108700000023002203F48073134300F02C813846C9
:1087100006F0BAFA0B2840F0018140F67601174BBB
:10872000174A18480DF096FB9DF88A30032245EA57
:1087300003254DE5CDF80880C3468AE530A870448E
:108740000DF1C00E734413F8383C00F8A43C8AE5E0
:10875000E0200020901E0020A01E0020F720002016
:108760008A1E0020983E0020382100201822002078
:108770001022002011220020881E002040790100D4
:10878000C07A0100FF7B010030AE314411F8381C83
:10879000324402F8981C95E50426AFE59DF82A00BE
:1087A0009DF8293043EA002001F076F8C9E503245A
:1087B000D9E5B8F1000F3FF4B0AE30AA2244631CF3
:1087C00002F838BC023430AA52FA83F3E4B29DF8BE
:1087D0000820EEE50DF1C00C624412F8982C6344B9
:1087E00003F8382CEDE5B9F1000F3FF496AE30AA4E
:1087F0009DF80C002244631C02F8380C023430AAA5
:1088000052FA83F3E4B29DF81020F9E530AA195C1E
:10881000624402F8381CE2180133D9B28A455FFA83
:1088200082FCF3D253462344DCB2EFE5002307A8D1
:10883000F1E79DF82A209DF8293043EA0223ADF89C
:108840003430012319E622A801F080F80028FFF651
:1088500075AE384607F03AFAB0B95F4B22A91868EE
:1088600006F0DEFE22A8FFF7CDFA00287FF471AEF5
:10887000259A249BBDF88C10002908BF13461A784E
:1088800062F07F021A7064E602283FF462AE534B36
:10889000534A40F2C17144E74F4B186806F020FA82
:1088A000504B1C70504B1C706DE6DDE9002300221C
:1088B00003F00203134303D00120FFF7F9FB62E644
:1088C000DDE90023002302F08052134301D002208F
:1088D000F3E7DDE90023002302F0884213433FF46D
:1088E00052AEF4E7249B77E6404B1B7823B9BDF8E2
:1088F0006030052B3FF4BEAE14F0200404D00121FB
:108900000420FFF7F9FAB5E6394E3378002B3FF42F
:10891000B1AE286806F0E4F93470ABE6031FDBB2B1
:10892000022B14D903280DD12F4B1B787BB9314B67
:108930001B78012B17D17F222F4B1A7002222D4B4F
:108940001A7010E0022844D1274B1B785BB12B4CE6
:108950002288520701D5FFF729FB23889B0702D500
:108960000120FFF7A5FBDDE90023002203F40073DB
:1089700013430AD000223846114606F0D5FD20B137
:10898000164B1F4A40F62911CBE6DDE900AB4FF04C
:10899000000B0AF0010A5AEA0B0315D0384606F01C
:1089A00072FE0446384606F09BF914F5007F1ABFA4
:1089B000042394FBF3F47F244FF002020E4B18BF04
:1089C00064B21C700B4B1A7000F07EFD31B0BDE834
:1089D000F08F0A28AEE700BF983E00206A780100B9
:1089E000927A010011220020102200203021002064
:1089F000881E0020EE200020ED2000208A1E00208E
:108A0000D77A01000000000073B5614B198811F09E
:108A1000010140F0B5805F4D5F4B604EC5E900310C
:108A200041F60B232846A9603160B38006F00EF9A9
:108A3000044630B94FF40771594B5A4A5A480DF061
:108A400009FA4FF0011106F0B8FD20B1574B554A15
:108A50004FF40971F2E70221204606F03DFA20B1F9
:108A6000524B504A40F22721E8E75149204607F08F
:108A70007DF820B14D4B4B4A40F22A21DEE701211F
:108A8000204607F0FDF820B1484B464A40F22F211E
:108A9000D4E70121204607F006F9024620B1434BF6
:108AA000404A40F23221C9E7802305F5DA712046B9
:108AB00006F090FD802804D03E4B3A4A40F2362121
:108AC000BCE73D4D30A3D3E900232C602046CDE91F
:108AD00000234FF0FF324FF0FF3306F073FC2C46BB
:108AE00020B1324B354A4FF4E371A7E73046FFF728
:108AF000ABF901210846FFF7FFF90121286806F0CC
:108B0000D7F820B1294B2E4A40F2C12196E7002523
:108B10002C4B2D4A9D801A602C4B2D4A9D801A604B
:108B20002C4B2D4A6FF063009D801A6000F0D8FD39
:108B30000B20FFF759F9294B186020B9284B204A20
:108B400040F2CE217AE7FBF7FFFC2946206806F0C9
:108B500075FC20B1154B234A40F26E216EE70822C6
:108B60002068114606F03BFC20B11F4B144A40F22E
:108B7000D52163E71D4B18701D4B18701D4B1870E5
:108B800002B070BDAFF300800B0020FF2202000096
:108B90008A1E0020AC1E0020FD800000A41E0020C4
:108BA0001E7B01007C790100FF7B01006A780100D7
:108BB000787D01002D7B0100983E00206F79010037
:108BC000B379010068210020902100203821002085
:108BD000602100201822002040220020E8200020F0
:108BE000607B01009E7901007B7B0100EE2000206C
:108BF00011220020102200202DE917480A4B4FF0C7
:108C0000000B986CDC6C4BEA00022346CDE9002394
:108C10004B1E02AA073112F8010D03F8010F8B4217
:108C2000F9D103B0BDE810880080E00F10B50C4604
:108C3000084600F02BFE074B00222146186806F07C
:108C4000DDFF30B1044B054A40F2363104480DF0E7
:108C500001F910BD983E00206A780100C279010038
:108C6000FF7B010010B500230A48CA1D12F8014914
:108C70001C540133082BF9D1074B0022186806F069
:108C8000CDFF30B1054B064A4FF4527105480DF047
:108C9000E1F810BDEF200020983E00206A78010026
:108CA000D6790100FF7B010008B5074B0022186848
:108CB00006F0ACFF30B1054B054A40F2553105488E
:108CC0000DF0C8F808BD00BF983E00206A7801008A
:108CD000F4790100FF7B0100034B1A780AB90122E5
:108CE0001A700020704700BF0F220020034B1A7833
:108CF0000AB100221A700020704700BF0F22002026
:108D000038B50C4D2A78032A12D08AB10A4C206853
:108D100005F0DFFF012804D001220021206805F0C2
:108D2000DAFF206805F0DCFF012300202B7038BD3E
:108D30000D20FCE70F220020983E00202DE9FF4186
:108D40001A4B0C461A7898465AB30846FFF74CF867
:108D5000054640B3164F174E3B68834208D00122A8
:108D60000021306805F0B7FF2846FFF76DF83D6039
:108D70000023CDE901330393FF2301AA2146306884
:108D80008DF8043006F038F818B1012004B0BDE8C1
:108D9000F081022388F80030074B9C71074B9C71CF
:108DA000F4E70D20F2E70720F0E700BF0F220020D4
:108DB000E8200020983E0020682100203821002073
:108DC0002DE9F0478CB0DFF81491B9F800309A071C
:108DD00006D440F2F331394B394A3A480DF03AF8AB
:108DE000394F3B6823B9394B354A4FF47D71F4E76D
:108DF000374C9B8806AE94E8070086E807000CA96C
:108E000001F8213D0123334DB9F8002028681A46A6
:108E100006F0DCFB9DF80F203968023A002392B27D
:108E2000096828680DF124080C3406F0CFFB94E89B
:108E3000070088E8070039680B6893F800A0B9F8C4
:108E40000030CAF3401A9B0631D50B7E0C698DF8B1
:108E50001A30214B1B788DF81B30FCB14869044453
:108E600006F020FC201A07D100F02EFB0220FFF7AD
:108E70001FF900F029FB0EE00123ADF814303B6828
:108E8000049099795246CDE9006804AB286805F052
:108E900089FF0028EAD10CB0BDE8F0878979334614
:108EA000CDF800805246286805F06CFFF1E7434694
:108EB00052468979286805F055FFEAE7A47D01004C
:108EC000377A0100FF7B0100C0220020CA7D01002B
:108ED00028790100983E00206C1100208A1E002095
:108EE0002DE9F0476C4A064613780D46904613B9B3
:108EF0000D20BDE8F087032BFAD08879FEF774FFC8
:108F00000446002800F0C680644F3B68834209D0C5
:108F1000634B01221868002105F0DDFE2046FEF7B4
:108F200093FF3C605F4B1A7802F0FF0132B140F2D0
:108F3000B1315D4B5D4A5E480CF08CFF032288F82E
:108F4000002001225B4F5C4C397095F820102020E6
:108F5000C1F340011A702560FEF7CEFFD4F80080FF
:108F6000B8F1000F04D1554B554A40F2D331E2E736
:108F7000DFF868A1DAF80090B9F1000F23D098F873
:108F80002030DA071FD4FEF721FE4FF0A00CDAF8EC
:108F900000104C4B0CFB01F11A68B2FBF1F301FB22
:108FA0001323B0FBF1F202FB11000B44181AB0FBC3
:108FB000F1F201FB1200B0FBFCF21FFA89F192B250
:108FC000404600F0FBFB2468204600F0F9FB002837
:108FD0004CD0204600F0F9FB002847D094F8203010
:108FE00013F0080842D1204600F0DEFB98B120467D
:108FF00000F0FCFB814600283FF47AAF324B1B782F
:109000005A1E90420CD0984208D0013398427FF407
:109010006FAF022305E02C4B93F80090012300E092
:1090200043462A4A02EB0313A36094F82030DB077F
:1090300018D4204600F0B8FBDFF8A48030B1244BF0
:10904000D8F8002083F80090224B1A604946204649
:1090500000F0D8FBD8F8001020464B1CC8F80030B0
:1090600000F0D2FB1C49204600F0A6FBFCF7B1FA49
:10907000044601210220FEF73FFFFFF7A1FE204634
:10908000FCF7ADFA3B781BB92946304602F0CFF821
:1090900000202EE707202CE70F220020E8200020E8
:1090A000983E002010220020617D01000F7A01000F
:1090B000FF7B010011220020C0220020CA7D010098
:1090C000237A0100E4200020F82000200021002065
:1090D000A11E00208C1E0020EF200020E020002098
:1090E000FC200020004870471822002070B5114B6A
:1090F000102299790020FEF795FFC8B906F0D2FA40
:109100000D4D06462C462B78012B05D106F0CAFAE8
:10911000801BB0F5967FF6D32378022B0ABF074B4E
:109120007F2018784FF0000308BF40B2237070BD55
:109130007F20FCE768210020EE200020ED200020A9
:109140007B207047014B1878704700BF302100200A
:1091500008B5074B1970074B186806F067FD30B16A
:10916000054B064A40F2D54105480CF073FE08BD98
:1091700030210020983E00206A780100477A0100E3
:10918000FF7B0100014B1970704700BFF7200020E2
:1091900010B50C4649B1064B186806F079F90A2358
:1091A00090FBF3F02070002010BD0720FCE700BF0B
:1091B000983E002008B5084B01EB81014900186872
:1091C00006F03CF930B1054B054A4FF49F61054864
:1091D0000CF040FE08BD00BF983E00206A780100F8
:1091E000617A0100FF7B010021B1034B00201B7855
:1091F0000B707047072070476C110020014B002056
:10920000197070476C1100206FF0630070474FF4C5
:109210007A7301205A43FEF705BF00002DE9F041A3
:109220009046DDE906541E460BB105B134B9104B2A
:10923000104A40F2475110480CF00CFEFCF7C9F9F7
:1092400007460E4B314610220D4883F800800CF083
:109250008DFE294610220B480CF088FE2146102274
:1092600009480CF083FE3846BDE8F041FCF7B7B979
:10927000287D01007D7A0100FF7B0100F82000209D
:1092800000210020102100202021002010B50C46D4
:10929000FCF79FF9024B1C60BDE81040FCF79FB93A
:1092A000FC200020014B1960704700BFE420002023
:1092B0002DE9F0478AB00746FCF78BF9644E8146EA
:1092C00005AA0221306806F0A7F90546002800F03B
:1092D0009C809DF81430072B40F097806B4605AAC0
:1092E00001A9FEF747FE044600284DD005A8FEF769
:1092F00089FD002840F0A680564B1A784AB99DF89F
:109300000D30002B40F09E80BDF80020052A00F0B3
:109310009980DFF8488105A9D8F80000FEF780FDA4
:10932000BDF800300DF102013068A8F80430D8F81B
:1093300000A005F02FFEBDF80230294688F806305F
:109340009AF8008008F07B038AF80030306806F055
:1093500074F99DF80A30002808BF0025002B6FD053
:10936000BDF8003001A901333068ADF8083006F0CF
:109370005EF9002864D14FEAD812C8F3800101A831
:10938000FEF7CEFD002D5FD02946306806F055F976
:109390004846FCF724F96CB100232F4C2370FEF7EC
:1093A0009DFC22782D49002831D0384601F059FF24
:1093B00000F08AF82A4B1A78032A11D1294A127828
:1093C00072B9294C227802221A70FEF787FC2346D4
:1093D00008B322782549384601F046FF00F074F8BA
:1093E000234B1B78012B0DD1224B1A78022A09D16D
:1093F00000221A70204B3846197849B201F02AFF32
:1094000000F062F80AB0BDE8F0870024C0E73846F3
:1094100001F006FFCCE715490A681278920601D5DB
:10942000227832B100221B781049384601F006FF3D
:10943000D4E72378114AF8E74846FCF7D0F8B9E7B3
:10944000002DF9D000249FE74846FCF7C8F8A3E7B1
:10945000983E002030210020652100206821002056
:109460000F220020102200201122002018220020AC
:10947000EC200020EE200020ED20002038210020EC
:109480000078B0FA80F040097047012303707047FC
:1094900008B505F075FBFFF7B7FAFEF729FBBDE845
:1094A0000840FEF73FBC000010B50446054B1860AD
:1094B00000F08EF82046FFF7FBFE2046BDE8104086
:1094C000FEF7C4BB9C3E0020704700000122024B07
:1094D0001A70FFF7F9BF00BF4A2400202DE9F041C0
:1094E0001D46174CDFF86080164698F80010B4F857
:1094F0008020B4F8823007465B1A2B4403F07F03C8
:10950000934213D0B4F882006A1A204431440CF01C
:109510002DFDB4F8823098F800209B1A2B4403F0FC
:109520007F03A4F88230002388F800302A463146B1
:109530003846044BFEF774F8BDE8F041FFF7C4BFAE
:10954000C6230020DD940000C4220020FFF7BCBF2A
:1095500070B500240F4B104E104DA3F880408022B0
:10956000A3F882400E4933462868FEF759F833467F
:1095700080220C492868FEF753F84FF400620A4B2A
:109580002046C3F880211A60084AD36C43F00403D4
:10959000D36470BDC6230020DD9400006810002055
:1095A000C52200204523002000E100E000800540A6
:1095B00008B50A4601460448044B0068FEF7CAF89D
:1095C000003018BF012008BD68100020CD940000B5
:1095D0007FB5FBF7FEFF06462748284D03AB02AADE
:1095E00001A90068FDF7D4FD2B78029A244C934220
:1095F00012D2B4F882000199D21A194420440CF016
:10960000B5FCB4F88230029A297813445B1A03F04F
:109610007F03A4F882302A703046FBF7E0FFB4F8ED
:109620008250B4F88030ADB29D420CD2B4F88000C4
:10963000B4F880102044C1F1800189B200F02AF80A
:109640000023A4F88030B4F880309D420AD0B4F8EA
:109650008000B4F880102044691A89B200F01AF82A
:10966000A4F88050074B1A781AB100221A7000F043
:1096700013F804B070BD00BF68100020C4220020A1
:10968000C62300204A24002010B50C46FFF790FFA7
:10969000204610BD04F034BA04F029BA10B50446CF
:1096A000FFF756FF2046BDE81040014904F084B999
:1096B0008996000038B5084DD5E88F3F13F00104B6
:1096C00008D12846FFF7DCFE20B1044B28461C6079
:1096D000FFF7DBFE014838BD4C2400205424002055
:1096E000014B1870704700BF5024002038B5054664
:1096F000D0B1037A012B09D1FFF7DCFF04689CB1DC
:10970000E2882B889A4210D02468F8E7022B0BD10C
:10971000FFF7D0FF04683CB108222946A0180CF0DE
:1097200016FC10B12468F6E70024204638BD00007E
:109730002DE9F041884617461E46FFF7D7FF05463C
:1097400050B35EB30479C4F3400414B1012486F825
:1097500000802B795A070FD5124B394693F9000038
:1097600001F0A6FD822300B2C0EB002090FBF3F0D5
:10977000012C305514D001242B791B0709D58221E7
:1097800007F18202C2EB022292FBF1F2631C325516
:10979000DCB22046BDE8F0810446FAE73446F8E73B
:1097A0000224F6E7502400200368187800F0070030
:1097B000831E58425841704701F0D2B801F0C6B834
:1097C00003681878C0F3C000704707B50DF10701B2
:1097D00000F0A5FF40B99DF80700A0F1080358422A
:1097E000584103B05DF804FB0020FAE707B50023F9
:1097F00002A901F8013D00F0C6FF9DF8070003B083
:109800005DF804FB00F0D5BF00F0A9BF08B528B98A
:10981000074B084AE72108480CF01CFB038823F497
:10982000FF4343F45063038004230370062008BD04
:109830005A7E0100DB7D0100957E010070B5131D8D
:109840001446DBB228B90E4B0E4AF5210E480CF037
:1098500001FB058803F07F0325F4FF4505800370B5
:109860009B238370B823C370EA23037100234371E1
:1098700011B106300CF07AFBA01DC0B270BD00BF64
:109880005A7E01000D7E0100957E0100014B18807B
:10989000704700BF5824002030B50B4B0B4C1B8881
:1098A0001844002382B234F8235018B295424FEA8C
:1098B000830102D12144897821B901330A2BF2D1E5
:1098C0004FF0FF3030BD00BF58240020822400201C
:1098D00030B50E4C0022204604EB8205AD7813B261
:1098E00025B101320A2AF7D14FF0FF339BB2092B81
:1098F0000AD8074A12881144012220F8231000EBED
:10990000830300209A7030BD0320FCE782240020EE
:109910005824002008B50846FFF7BEFF83B2092B84
:109920009BBF0020044A0A2002EB83019CBF887081
:1099300022F8230008BD00BF822400202822002135
:1099400001480CF037BB00BF8224002030B50F4B1C
:10995000028841881B880A44134482880C4C12FAFE
:1099600083F3C28812FA83F300229BB234F82250A8
:1099700010B29D424FEA820102D12144897821B977
:1099800001320A2AF2D14FF0FF3030BD58240020B6
:109990005A24002030B5134C0023204604EB8305E5
:1099A000AD781AB225B101330A2BF7D14FF0FF324F
:1099B00092B2092A13D80C4B0C884D881B882C4472
:1099C00023448C88C98814FA83F311FA83F320F8AE
:1099D0002230012300EB82020020937030BD03206F
:1099E000FCE700BF5A2400205824002008B5084690
:1099F000FFF7ACFF83B2092B9BBF0020044A0A206B
:109A000002EB83019CBF887022F8230008BD00BFD1
:109A10005A2400202822002101480CF0CBBA00BFB4
:109A20005A240020A83000F0C1BC00F0E7B80120A3
:109A3000704700F0F3B8000000487047217F010034
:109A4000143000F001BD8069003018BF012070475C
:109A5000143000F025BD00000148FFF773BB00BFC4
:109A6000B024002008B5836923B10348FFF770FBD9
:109A7000002008BD0D20FCE7B0240020836913B14D
:109A80000248FFF73DB90D20704700BFB024002009
:109A9000143000F00FBD90F82500033802288CBF69
:109AA000002001207047806B7047143000F018BD13
:109AB000243001F031B8143000F02CBD08B58369B2
:109AC00023B10348FFF75EFB002008BD0D20FCE733
:109AD000B0240020836913B10248FFF7F9BE0D20BE
