:1040000000100020E9410000454200004542000048
:10401000A58C0000454200004542000045420000DA
:104020004542000045420000454200004542000074
:104030004542000058ED01004542000045420000A5
:104040004542000045420000454200004542000054
:104050004542000045420000454200004542000044
:104060004542000045420000A3870000F9E400003B
:104070004542000045420000454200004542000024
:104080004542000045420000454200004542000014
:1040900045420000019600004542000045420000F4
:1040A00045420000C39A00009D9A0000454200006E
:1040B000454200004542000045420000B5B2010003
:1040C00059B2010055B201001DAB0100B1B20100AF
:1040D0005DB2010075B2010061B2010001940100FE
:1040E000F5B2010045420000454200004542000093
:1040F00045420000AD8E00004542000045420000F0
:104100004542000045420000454200004542000093
:104110004542000045420000454200004542000083
:104120004542000045420000454200004542000073
:104130004542000010B5054C237833B9044B13B148
:10414000044800E000BF0123237010BD801600204A
:1041500000000000841F020008B5034B1BB1034997
:10416000034800E000BF08BD0000000084160020E6
:10417000841F0200154B002B08BF134B9D46A3F56F
:10418000803A00218B460F461348144A121A17F042
:104190002AFA0F4B002B00D098470E4B002B00D073
:1041A00098470020002104000D000D48002802D08F
:1041B0000C4800E000BF17F0A5F92000290007F027
:1041C0008BF817F079F900BF0000080000100020FC
:1041D000000000000000000080160020F43F0020D6
:1041E000000000000000000080B582B000AF00F0C9
:1041F0002DF80F4B7B600F4B3B6007E07A68131D77
:104200007B603B68191D396012681A603B680A4A76
:104210009342F3D3094B3B6004E03B681A1D3A60BC
:1042200000221A603B68064A9342F6D3FFF7A2FFCA
:104230008C1F020000100020801600208016002035
:10424000F43F002080B400AFFEE7000080B400AF70
:10425000074B084A9A60064BD3F88830044A43F467
:104260007003C2F8883000BFBD465DF8047B70471C
:1042700000ED00E00040000080B400AF034B1B687D
:104280001846BD465DF8047B704700BF081000204B
:1042900080B483B000AF7860044A7B68136000BFCD
:1042A0000C37BD465DF8047B704700BF0810002046
:1042B00080B582B000AF00237B600E4B1B6F03F014
:1042C0000703022B04D0032B06D0012B08D00AE0F1
:1042D000FFF7D2FF786007E0074B1B687B6003E0C5
:1042E000064B7B6000E0FEE77B6818460837BD465A
:1042F00080BD00BF0080004000100020002D310173
:1043000080B582B000AFFFF7D3FF7860094B1B6F19
:104310001B0B03F003033B603B6801337A68B2FB7D
:10432000F3F37B60044A7B6813607B6818460837A8
:10433000BD4680BD008000400C10002080B400AF5E
:10434000024B1846BD465DF8047B704700B4C404B8
:1043500080B400AF034B1B681846BD465DF8047B74
:10436000704700BF0010002080B582B000AF7860B9
:10437000074A7B681360074B1B6F03F00703032B8F
:1043800001D1FFF7BDFF00BF0837BD4680BD00BFAC
:10439000001000200080004080B400AF00231846C9
:1043A000BD465DF8047B704780B400AF024B1846F1
:1043B000BD465DF8047B7047002D310180B483B0A9
:1043C00000AF00237B602C4B9B681B0C03F01F038A
:1043D0000C2B48D801A252F823F000BF1144000072
:1043E0006744000067440000674400006744000021
:1043F0006744000043440000494400004F4400006B
:1044000067440000554400005B4400006144000024
:10441000194B9B6803F04073B3F1807F07D0B3F171
:10442000007F07D0002B08D1144B7B6008E0144BB1
:104430007B6005E0134B7B6002E000237B6000BFE4
:1044400012E0114B7B600FE0104B7B600CE0104BD7
:104450007B6009E00F4B7B6006E00F4B7B6003E065
:104460000E4B7B6000E000BF7B6818460C37BD46F2
:104470005DF8047B704700BF0040014A00093D0021
:1044800080841E0040420F00405DC6000024F400FE
:10449000C0EA210180BA8C010048E801005A62029A
:1044A00080B400AF4FF400431846BD465DF8047B6E
:1044B000704780B400AF4FF47A731846BD465DF87C
:1044C000047B704780B400AF034B1B681846BD46A1
:1044D0005DF8047B704700BF04100020B0B582B0C7
:1044E00000AF7860786810F0B9FA074A7B68144624
:1044F0001D460FCD0FC495E80F0084E80F00002380
:1045000018460837BD46B0BD9C16002080B48DB05B
:1045100000AF78600B46FB7013463B8000237B8521
:10452000B7F9003047F6FF72934201D1FF23E7E06D
:10453000FB78032B01D90023E2E0FB78DB00734A10
:1045400013443B623B6A9B78FB770023BB61FA7F95
:10455000BB699342B8BF13467B613B6A1B78012B52
:1045600025D13B6ADB789AB27B699BB2D31A9BB2A6
:104570007B8505E0B7F92A309BB2013B9BB27B8576
:10458000B7F92A30002B0BD03B6A5A68B7F92A30AA
:104590005B001344B3F90030B7F900209A42E9DB1D
:1045A0007B8DDAB27B69DBB21344DBB2A8E03B6AF5
:1045B0005B683B613B69002B01D10023A0E03B69B4
:1045C000B3F90030B7F900209A4203DD3B691B883C
:1045D0003B8009E03B69B3F90230B7F900209A4209
:1045E00002DA3B695B883B80C8233B852823FB8438
:1045F0003B699B88FF2B09D17B8D01339BB27B8567
:104600003B69DB883B853B699B68FB84B7F92820C5
:10461000B7F90030D21AB7F9263092FBF3F39AB209
:104620007B8D13449BB27B853B6A5B789BB2013BDD
:104630009BB21BB2B7F92A209A4205DD3B6A5B7830
:104640009BB2013B9BB27B85B7F92A30DB003A690C
:1046500013440433FB60FB685A68FB68B3F902300B
:104660001946B7F9003003FB01F31344002B02DABB
:104670000023FB620BE0FB685A68FB68B3F9023069
:104680001946B7F9003003FB01F31344FB62FB6AE0
:1046900003F5FA731E4AA2FB03239B09FB62B7F9D9
:1046A0002A309BB201339BB27B85B7F92A303A6A34
:1046B0005278934209DAB7F92A303A69DB00134499
:1046C0009B881A46FB6A9342BED9B7F92A30013B50
:1046D0003A69DB0013449B881A46FB6A934207D968
:1046E000B7F92A30013B3A69DB0013449B88FB622F
:1046F000FA6A7B699A4201D27B69FB62FB6ADBB290
:1047000018463437BD465DF8047B70479C16002080
:10471000D34D621080B48BB000AF78600B46FB7055
:104720001346BB70FB78032B01D9614BBAE0FB78D1
:10473000DB00604A13443B623B6A1B78012B28D1A3
:104740003B6ADB78BA789A4202D93B6ADB78BB7065
:104750003B6A9B78FB740023FB60FA7CFB68934206
:10476000B8BF1346DBB2BA78D31ABB70BA783B6ACB
:10477000DB7819463B6A9B78CB1A9A4201DD00230D
:10478000BB703B6A5A68BB785B001344B3F90030D6
:1047900088E03B6A5B68FB61FB69002B01D1444BFD
:1047A00080E0FB690433BB61BB69002B01D1404B46
:1047B00078E03B6A9B78BA789A4203D8FB69B3F9F0
:1047C00002306FE03B6ADB78BA789A4203D3FB6928
:1047D000B3F9003066E03B6A5B78013B87F826302E
:1047E000BB691B88FF2B04D197F82630013B87F863
:1047F0002630002387F827300FE097F82730013361
:10480000DB00BA6913441A88BB789BB29A420BD377
:1048100097F82730013387F8273097F8272097F843
:1048200026309A42E9D300E000BFBB784FF47A7299
:1048300002FB03F297F82730DB00B9690B445B6891
:10484000D31A7B6197F82730DB00BA691344B3F9B8
:104850000230DA0F13445B101BB21A467B69134413
:1048600097F82720D200B9690A44B2F9022093FBD5
:10487000F2F37B61FB69B3F900301A467B6993421E
:1048800003DDFB69B3F900300CE0FB69B3F90230DA
:104890001A467B69934203DAFB69B3F9023001E0FF
:1048A0007B691BB218462C37BD465DF8047B704708
:1048B0000080FFFF9C16002080B500AF0348FFF783
:1048C0000DFE012010F016F900BF80BD681C02002B
:1048D00080B582B000AF3B4600221A605A600123C7
:1048E000BB703B4619464FF0FF3010F08BF800BF0D
:1048F0000837BD4680BD000080B586B000AF3B1DC7
:1049000000221A605A609A60DA601A6102233B71D1
:10491000094BBB6002237B730423BB730223FB742C
:1049200005233B753B1D19464FF0FF3010F0BEF9D3
:1049300000BF1837BD4680BD006A180080B400AFC4
:104940004FF098435B6C03F48013002B14BF0123DA
:104950000023DBB21846BD465DF8047B704780B586
:1049600000AF00BFFFF7EAFF034683F00103DBB2AD
:10497000002BF7D100BF80BD80B500AFFFF7EFFF80
:104980004FF098435B6D03F47023184680BD80B5EB
:1049900082B000AF786024220021786816F023FEF0
:1049A00000BF0837BD4680BD80B582B000AF7860DB
:1049B0007B68002B05D024220021786816F013FEB6
:1049C00000E000BF0837BD4680BD80B584B000AFB1
:1049D000F860B9607A6024220021F86816F003FEBE
:1049E0007B68802B09D07B68C02B06D07B68B3F531
:1049F000807F02D06FF071030BE0FB687A681A6069
:104A0000FB68181D7B68DB081A46B96816F0C7FDFD
:104A1000002318461037BD4680BD000080B598B011
:104A200000AFF860B9607A603B60FB681B68802B60
:104A30000BD0FB681B68C02B07D0FB681B68B3F565
:104A4000807F02D06FF0710363E007F1380320220A
:104A50000021184616F0C7FDBB68012B01D12F4B72
:104A600000E02F4BBB63FB680433FB6201233B6315
:104A7000FB681B68DB0843F000537B637B683B6289
:104A800001237B62274BBB623B687B610123BB61D7
:104A9000244BFB6107F12C0207F13803114618463D
:104AA00002F0E4FB07F1200207F138031146184633
:104AB00002F0DCFB07F1140207F138031146184637
:104AC00002F0F5FBFB681B68DA0807F138031146B2
:104AD000184602F00DFC07F138031021184602F0C9
:104AE00007FC00F0E6F8F865FB6D002B01D0FB6DCC
:104AF0000FE007F13803184602F017FCFFF73CFF00
:104B0000B86500F0F0F8BB6D002B01D1002300E088
:104B1000BB6D18466037BD4680BD00BF0001000474
:104B2000000101041000002080B582B000AF0C4BE2
:104B30001B68002B09D100233B603B460422084937
:104B4000002000F07EF8786006E0054B1B6801331A
:104B500043F00043024A136000BF0837BD4680BDE2
:104B6000BC16002080B500AF124BD3F88032114A3A
:104B700043F00103C2F880320F4B5B68C3F30803B4
:104B8000002B09D000BF4FF08843DB6B03F04303D9
:104B9000002BF8D101230AE000BF4FF08843DB6B04
:104BA00003F04303002BF8D1FFF7BEFF00231846A4
:104BB00080BD00BF0080004000ED00E080B400AF89
:104BC000064B5B68C3F30803002B01D0002300E011
:104BD00000231846BD465DF8047B704700ED00E0F9
:104BE00080B58EB000AFF860B9607A6000F049F926
:104BF00078637B6B002B02D06FF092031DE007F10E
:104C00001403184600F0D4F978637B6B002B02D0B4
:104C10006FF0920311E007F11403BA68F9681846BF
:104C200000F068F878637B6B002B04D17B68BA686E
:104C30001A60002301E06FF0920318463837BD4632
:104C400080BD80B584B000AFF860B9607A603B6029
:104C50003A687968B868FFF7C3FF0346184610370B
:104C6000BD4680BD80B582B000AF00F00AF9786023
:104C7000FFF778FFFFF7A2FF00BF0837BD4680BDF2
:104C800080B586B000AFF860B9607A603B603B6881
:104C90007A68B968F868FFF7D4FF78617B69002B00
:104CA00001D1002301E06FF03B0318461837BD46E1
:104CB00080BD80B582B000AF00F0E3F878607B681B
:104CC000002B02D04FF0FF3309E000F035F9786097
:104CD0007B68002B02D04FF0FF3300E00023184622
:104CE0000837BD4680BD80B500AF00F031F90346FE
:104CF000184680BD80B590B000AFF860B9607A60AA
:104D00000023BB62FB68002B05D07B68002B04D01E
:104D1000BB68002B01D1212384E0FB68BB637B6867
:104D200003F003037B637B6823F003037B607B68F2
:104D3000002B2CD0FB684FF0E0621A60FB68002269
:104D40005A60FB6800229A60FB680022DA61BB6847
:104D5000FB6101233B627B6843F000537B6207F1F8
:104D60001C031946B86B02F0A2FA7968B86B02F01E
:104D7000BFFAF86800F0F4F838633B6B002B06D0FC
:104D80007A680021B86816F02EFC3B6B4AE07B6B1A
:104D9000002B46D0FB684FF0E0621A60FB680022EF
:104DA0005A60FB6800229A60FB680022DA6107F112
:104DB00028033B6101237B611C4BBB6107F110039E
:104DC0001946B86B02F073FA0421B86B02F090FA3E
:104DD000F86800F0C5F838633B6B002B09D07A689F
:104DE0007B6B13441A460021B86816F0FCFB3B6B42
:104DF00018E0BA687B681344FB620023FB630CE095
:104E0000BA6AFB6BDB0022FA03F1FA6AFB6B13440C
:104E1000CAB21A70FB6B0133FB63FA6B7B6B9A426D
:104E2000EED3002318464037BD4680BD0400002065
:104E300080B400AF4FF098435B6C03F48013002BF9
:104E400014BF01230023DBB21846BD465DF8047B86
:104E5000704780B500AF00BFFFF7EAFF034683F05D
:104E60000103DBB2002BF7D100BF80BD80B500AFDE
:104E7000FFF7EFFF4FF098435B6D03F47023184684
:104E800080BD80B483B000AF00237B607B68184690
:104E90000C37BD465DF8047B704780B483B000AF2B
:104EA00078607B68B3F5A02F33D0B3F5A02F12D86C
:104EB000B3F5003F27D0B3F5003F05D8002B1ED037
:104EC000B3F5803F1DD030E0B3F5403F1DD0B3F5C2
:104ED000802F1CD029E0B3F5202F22D0B3F5202F4E
:104EE00006D8B3F5C02F16D0B3F5E02F15D01CE0CF
:104EF000B3F5302F17D0B3F57F0F10D015E0002396
:104F000014E0482312E02A2310E02C230EE04B2368
:104F10000CE001230AE0012308E0212306E0062338
:104F200004E0102302E0112300E0012318460C37AF
:104F3000BD465DF8047B704780B483B000AF0023AA
:104F40007B607B6818460C37BD465DF8047B704774
:104F500080B400AF00231846BD465DF8047B70475F
:104F600080B584B000AF78607B68002B01D121232D
:104F70001AE0FFF7E1FFF860FB68002B01D0FB6847
:104F800012E07B68184602F0D0F9FFF76FFFB860B7
:104F9000FFF7DEFFF860BB68002B01D1FB6803E080
:104FA000B868FFF77AFF034618461037BD4680BD44
:104FB000B0B58AB000AF786007F108032022002165
:104FC000184616F010FB7B68002B01D121230AE064
:104FD0007B681D4607F108040FCC0FC594E80F004D
:104FE00085E80F00002318462837BD46B0BD80B4C1
:104FF00083B000AF03460A46FB711346BB7100BF86
:105000000C37BD465DF8047B704780B500AF0121C9
:105010001520FFF7ECFF06F059F800F00AF800BF82
:1050200080BD80B500AF01211520FFF7E0FF00BF74
:1050300080BD80B500AF012304220321032001F0CD
:10504000BDFC0023184680BD80B500AF00230422BC
:105050000321032001F0B2FC0023184680BD80B577
:1050600000AF06F0ABF806F0C3F806F0C9F806F09A
:10507000D1F806F0DBF800BF80BD80B500AF06F0C8
:10508000DBF806F0E0F806F0E5F806F0EAF800BF15
:1050900080BD000080B483B000AF03463960FB716F
:1050A00097F90730002B0ADB3B68DAB20C4997F915
:1050B00007301201D2B20B4483F800230AE03B68A8
:1050C000DAB20849FB7903F00F03043B1201D2B2B4
:1050D0000B441A7600BF0C37BD465DF8047B704761
:1050E00000E100E000ED00E080B582B000AFFB23FE
:1050F000FB710BE097F9073005211846FFF7CAFF4F
:1051000097F90730DBB20133DBB2FB7197F9073057
:105110003C2BEFDD002318460837BD4680BD00005C
:1051200080B500AF024800F0C1FD0023184680BDE5
:1051300000B4C40480B400AF00231846BD465DF837
:10514000047B704780B582B000AF4FF040235B6FA7
:105150004FF0402243F0010353673B4600221A60A0
:105160001A7100233B713B46184601F016FB0023E1
:1051700018460837BD4680BDB0B586B000AF2B4B92
:105180003C461D460FCD0FC42B681A4622800234C0
:105190001B0C237000237B734FF0FF337B61244B88
:1051A000D3F84C3103F40023002B04D1204BD3F867
:1051B0005031DBB27B617B69B3F1FF3F08D11D4BFE
:1051C0001B884FF6FF72934202D01A4B1B887B61FB
:1051D0007B69B3F1FF3F01D18C237B617B69B3F124
:1051E000FF3F16D07B69DBB2BB7200F0C1FE024606
:1051F0007B6913447B617B69002B02DA00237B61AE
:1052000004E07B69FF2B01DDFF237B617B69DBB25F
:105210007B720948FFF7A8F83B46184600F0C2FD2C
:10522000002318461837BD46B0BD00BFF0EC0100A2
:105230000080E00F0001E00F00F0490280B485B06B
:1052400000AF78600C4B1A687B6813440B4A93429A
:1052500002D94FF0FF3309E0074B1B68FB60064B98
:105260001A687B681344044A1360FB6818461437B5
:10527000BD465DF8047B70471010002000800120BF
:1052800080B500AFFFF73CF80346184680BD00002C
:1052900090B585B000AF0346FB710023FB60FB793E
:1052A000252B00F2C18001A252F823F045530000E3
:1052B0004F530000595300006F5300008553000006
:1052C0009D530000AB530000C7530000D5530000AE
:1052D000E3530000F1530000FF5300000D540000A1
:1052E0001B540000295400004F530000B953000024
:1052F0002954000029540000D55300004F530000EA
:105300006F530000855300006F5300009D53000051
:105310004F530000C75300006F5300001B540000A0
:10532000AB530000AB530000AB530000AB53000085
:105330006F5300006F5300006F530000E3530000F1
:10534000F1530000FEF7B4FF0346FB606DE0FEF78B
:10535000D7FF0346FB6068E0FEF7AAFF0446022081
:1053600000F0E4F80346B4FBF3F3FB605DE0FEF706
:10537000C7FF0446032000F0D9F80346B4FBF3F35B
:10538000FB6052E0FEF7BCFF0446032000F0CEF8BD
:105390000346B4FBF3F35B08FB6046E007F10C0344
:1053A0000021184601F01CF83FE007F10C03002132
:1053B000184600F043FE38E007F10C0300211846C0
:1053C00000F0BEFE31E007F10C030021184600F0AA
:1053D0007DFE2AE007F10C030021184600F0DEFEF6
:1053E00023E007F10C030021184601F09DF81CE0B2
:1053F00007F10C030021184600F04EF815E007F104
:105400000C030021184600F0D5FD0EE007F10C0357
:105410000021184600F00EF807E007F10C03002108
:10542000184601F03BF800E000BFFB68184614374F
:10543000BD4690BD80B584B000AF78603960002370
:10544000FB60144BD3F8803003F00303022B02D02F
:10545000032B06D00BE0FEF753FFF8600B23FB7223
:1054600008E0FEF7ABFFF8600523FB7202E00023C3
:10547000FB7200BF7B68002B02D07B68FA681A6061
:105480003B68002B02D03B68FA7A1A7000BF1037D5
:10549000BD4680BD0080004080B584B000AF78601C
:1054A00039600023FB60204BD3F8083203F0070378
:1054B000013B032B24D801A252F823F0CD54000065
:1054C000D9540000E5540000F1540000FEF7E8FF55
:1054D000F8600823FB7216E0FEF7F4FFF86007237C
:1054E000FB7210E0FEF7E5FFF8600923FB720AE0AB
:1054F000FEF706FF03469B0AFB600C23FB7202E0EB
:105500000023FB7200BF7B68002B02D07B68FA6827
:105510001A603B68002B02D03B68FA7A1A7000BF11
:105520001037BD4680BD00BF0080004080B485B00C
:1055300000AF0346FB710023FB60FB79013B0E2BA0
:1055400036D801A252F823F085550000935500008B
:10555000A3550000B1550000B1550000B155000041
:10556000B1550000B1550000B1550000B155000023
:10557000B1550000B1550000B1550000B155000013
:10558000855500000F4B1B6F1B0B03F00303FB60E3
:105590000FE00C4BD3F890301B0E03F01F03FB60A1
:1055A00007E0084B1B6F9B0A03F00103FB6000E060
:1055B00000BFFB68013318461437BD465DF8047B15
:1055C000704700BF0080004080B582B000AF034646
:1055D0003960FB71FB79013B0E2B66D801A252F8B2
:1055E00023F000BF215600006356000089560000DA
:1055F000AB560000AB560000AB560000AB560000A7
:10560000AB560000AB560000AB560000AB56000096
:10561000AB560000AB560000AB5600002156000010
:105620003B68012B04D03B68022B01D03B68042B64
:1056300000BF00F06DFF00F011FF1E4B1B6F23F445
:1056400040523B68013B1B031A4913430B67FFF7AA
:1056500017FE03460021184600F096FC00F006FFF6
:1056600024E03B68002B02D03B68202B00BF114B8D
:10567000D3F8903023F0F8523B68013B1B060D49EC
:105680001343C1F8903011E03B68012B01D03B6817
:10569000022B00BF074B1B6F23F480623B68013B6A
:1056A0009B02044913430B6700E000BF00BF0837AB
:1056B000BD4680BD0080004080B584B000AF034689
:1056C000FB710023FB73FB79252B00F2B78001A24D
:1056D00052F823F06D5700003D5800003D5800007F
:1056E0003D5800003D580000B1570000BF57000072
:1056F000DB570000E9570000F7570000055800008D
:1057000013580000215800002F5800003D58000099
:105710003D580000CD5700003D5800003D580000A6
:10572000E95700003D5800003D5800003D5800007A
:105730003D580000B15700003D580000DB57000005
:105740003D5800002F580000BF570000BF57000011
:10575000BF570000BF5700003D5800003D580000F3
:105760003D580000F757000005580000364B1B6FEE
:1057700003F00703013B032B16D801A252F823F0D4
:10578000A357000091570000975700009D57000055
:105790000423FB730BE00323FB7308E00623FB7376
:1057A00005E00223FB7302E00023FB7300BF46E029
:1057B00007F10F031946002000F012FE3FE007F149
:1057C0000F031946002000F039FC38E007F10F0301
:1057D0001946002000F0B4FC31E007F10F03194630
:1057E000002000F073FC2AE007F10F0319460020A7
:1057F00000F0D4FC23E007F10F031946002000F06D
:1058000093FE1CE007F10F0319460020FFF744FE4A
:1058100015E007F10F031946002000F0CBFB0EE066
:1058200007F10F0319460020FFF704FE07E007F118
:105830000F031946002000F031FE00E000BFFB7BA3
:1058400018461037BD4680BD0080004080B584B04A
:1058500000AF03460A46FB711346BB710023FB6091
:105860000023FB72FB79252B00F2188201A252F86B
:1058700023F000BF0D5900009D5C00009D5C0000FE
:105880009D5C00009D5C0000B9590000F1590000CA
:10589000A95A0000E15A0000195B0000715B00008A
:1058A000C95B0000375C0000655C00009D5C000087
:1058B0009D5C0000415A00009D5C00009D5C000062
:1058C000E15A00009D5C00009D5C00009D5C0000B2
:1058D0009D5C0000B95900009D5C0000A95A0000C1
:1058E0009D5C0000655C0000F1590000F15900006A
:1058F000F1590000F15900009D5C00009D5C000022
:105900009D5C0000195B0000715B0000BB79023BED
:10591000042B28D801A252F823F000BF61590000DF
:105920003759000031590000675900005B590000E9
:105930000223FB6018E00323FB60B34B9B6A03F078
:105940000203002B14BF01230023FB72AE4B03F5AF
:105950008153083301221A6006E00423FB6003E050
:105960000123FB6000E000BF00F0D2FD00F076FDF7
:10597000A64B1B6F23F00702A449FB6813430B6778
:10598000FFF77EFC03460021184600F0FDFA00F008
:105990006DFDFB7A83F00103DBB2002B0AD0BB79EB
:1059A000032B00D007E0984B03F500532833012266
:1059B0001A6000E000BF72E1BB79052B07D00D2B08
:1059C00002D0022B06D008E00123FB6005E0022391
:1059D000FB6002E00323FB6000BF8C4BD3F88031F7
:1059E00023F003028949FB681343C1F8803156E173
:1059F000BB79023B032B17D801A252F823F000BF5A
:105A0000235A0000175A0000115A00001D5A0000C6
:105A10000123FB6009E00223FB6006E00323FB6037
:105A200003E00423FB6000E000BF784BD3F8203193
:105A300023F007027549FB681343C1F820312EE1BA
:105A4000BB79073B072B2DD801A252F823F000BFEA
:105A5000715A0000715A0000715A0000A55A0000E6
:105A60008B5A0000A55A0000A55A0000715A000088
:105A7000674B5B6A664A43F001035362654B1B68E0
:105A8000644A23F0040313600DE0614B5B6A604AD3
:105A900023F0010353625F4B1B685E4A43F004032B
:105AA000136000E000BFFAE0BB79082B04D0092B9B
:105AB00008D0072B03D008E00123FB6005E0022398
:105AC000FB6002E00323FB6000BF504BD3F8403182
:105AD00023F003024D49FB681343C1F84031DEE077
:105AE000BB79082B04D0092B08D0072B03D008E082
:105AF0000123FB6005E00223FB6002E00323FB605F
:105B000000BF424BD3F8603123F003023F49FB68EA
:105B10001343C1F86031C2E0BB79073B052B1BD8AA
:105B200001A252F823F000BF475B0000415B000078
:105B30004D5B0000595B0000595B0000535B0000A7
:105B40000123FB6009E00223FB6006E00323FB6006
:105B500003E00423FB6000E000BF2C4BD3F80032CD
:105B600023F007022949FB681343C1F8003296E08D
:105B7000BB79073B052B1BD801A252F823F000BFCD
:105B80009F5B0000995B0000A55B0000B15B00001B
:105B9000B15B0000AB5B00000123FB6009E0022366
:105BA000FB6006E00323FB6003E00423FB6000E0EE
:105BB00000BF164BD3F8083223F007021349FB68E5
:105BC0001343C1F808326AE0BB79013B062B26D8A3
:105BD00001A252F823F000BF195C00001F5C000016
:105BE000F55B00001F5C00001F5C0000015C000012
:105BF000FB5B00000123FB6012E00223FB600FE06F
:105C00000323FB600CE000BF00C0004000800040A8
:105C100000C0074010E000E00023FB6000E000BF90
:105C2000214BD3F8003123F003021F49FB681343D3
:105C3000C1F8003133E0BB79052B05D00B2B00D028
:105C400005E00223FB6002E00323FB6000BF164B6C
:105C5000D3F8803023F003021349FB681343C1F8E3
:105C600080301CE0BB79082B04D0092B08D0072B0F
:105C700003D008E00123FB6005E00223FB6002E0A3
:105C80000323FB6000BF084BD3F8403223F003022C
:105C90000549FB681343C1F8403200E000BF00BF74
:105CA0001037BD4680BD00BF0080004080B588B081
:105CB00000AF7860786800F0F5FAF861FB69002BB6
:105CC00003D0FB69B3F1FF3F00BF324B5B68012B90
:105CD0000CD1304B03F50053043301221A6000BF8E
:105CE0002C4B9B6903F00303002BF9D10020FFF735
:105CF000E3FC0346042B03D100F00AFC00F0AEFBEA
:105D0000FB6923F04073FB617B68234A934203D015
:105D1000224A934205D009E0FB6943F00073FB611E
:105D200004E0FB6943F08073FB6100BF00BF1C4BC4
:105D3000DB6803F00603002BF9D1194B9B68BB61AC
:105D4000174AFB699360FB6903F4F8137B61144BFA
:105D50009B6803F4F8133B617A693B699A4203D16B
:105D60007868FEF795FA02E00D4ABB69936000205F
:105D7000FFF7A2FC0346042B08D1FFF781FAF86075
:105D80000021F86800F000F900F070FB00BF203738
:105D9000BD4680BD00C0014040420F0080841E000F
:105DA0000000014080B582B000AF78600020FFF7AE
:105DB00083FC0346032B00F0D1806A4B45F60E02AC
:105DC000C3F88020674B03F58153083302221A6021
:105DD000644B03F50053283301221A6000BF614B66
:105DE0009B6D03F48033002BF9D17B681B781A0676
:105DF0007B685B781B051A437B68DB781B041A43BE
:105E00007B681B791B031A437B685B799B011343F7
:105E10007A6892791A43534B1A61524B9B6903F08B
:105E200000437A68D279920613437A68127A12068E
:105E300013437A68527A120413437A68927A1202F0
:105E400013437A68D27A1146464A0B439361454B15
:105E50001B6A23F00D037A68527B002A01D10022CD
:105E600000E0082213437A68127B920013437A6899
:105E7000527B11463B4A0B4313627B685B7B002BD2
:105E800051D1384B9B6A23F033037A68927B5201DD
:105E900013437A68D27B12011343324A43F0010361
:105EA000936200BF2F4B9A6D2F4B13402E4A9342A3
:105EB000F8D12C4B03F58153083302221A6000BF3E
:105EC000284B9B6D03F08043002BF9D1254B1B69B8
:105ED00023F470037A68927812051146214A0B4325
:105EE0001361204B03F5805318334FF000421A60C2
:105EF0007B681B7C83F00103DBB2002B05D0194BC0
:105F000003F50053283302221A607B685B7C83F020
:105F10000103DBB2002B18D0124B03F500532833DA
:105F200001221A6011E00F4B9B6A23F033037A6859
:105F3000927B520113437A68127C520013437A68B1
:105F4000527C1146074A0B4393627B689B7C002B73
:105F500005D0044B054AC3F8802000E000BF083795
:105F6000BD4680BD00C0004003000140F1A7FFFF17
:105F700080B400AF034B93F900301846BD465DF87E
:105F8000047B7047C016002080B582B000AF7860F7
:105F900039603B68002B04DD0121786800F038F996
:105FA00003E00021786800F033F900BF0837BD46F0
:105FB00080BD000080B584B000AF786039600023F8
:105FC000FB601D4BD3F8003103F00303032B20D8F3
:105FD00001A252F823F000BF0D600000E95F00004D
:105FE000F55F000001600000FEF7B2F9F8600323DE
:105FF000FB7211E0FEF766FAF8600723FB720BE014
:10600000FEF7CAF9F8600623FB7205E00123FB7274
:1060100002E00023FB7200BF7B68002B02D07B688C
:10602000FA681A603B68002B02D03B68FA7A1A7053
:1060300000BF1037BD4680BD0080004080B584B0F1
:1060400000AF786039600023FB601F4BD3F820312C
:1060500003F00703013B032B22D801A252F823F0DF
:10606000716000007D6000008960000095600000A4
:10607000FEF702F9F8600423FB7214E0FEF768F9FA
:10608000F8600323FB720EE0FEF798F9F860052331
:10609000FB7208E0FEF788F9F8600223FB7202E069
:1060A0000023FB7200BF7B68002B02D07B68FA687C
:1060B0001A603B68002B02D03B68FA7A1A7000BF66
:1060C0001037BD4680BD00BF0080004080B584B061
:1060D00000AF786039600023FB60184BD3F8403183
:1060E00003F00303022B09D0032B0DD0012B11D198
:1060F000FEF7D6F9F8600823FB720EE0FEF7E2F92E
:10610000F8600723FB7208E0FEF7D3F9F860092373
:10611000FB7202E00023FB7200BF7B68002B02D001
:106120007B68FA681A603B68002B02D03B68FA7AF9
:106130001A7000BF1037BD4680BD00BF0080004010
:1061400080B584B000AF786039600023FB60124BEB
:106150001B6803F00403002B06D0FEF7D1F80346BA
:10616000FB600B23FB7207E007F10B0207F10C0346
:1061700011461846FFF7AAFF7B68002B02D0FA6889
:106180007B681A603B68002B02D0FA7A3B681A7071
:1061900000BF1037BD4680BD10E000E080B584B080
:1061A00000AF786039600023FB60184BD3F8603192
:1061B00003F00303022B09D0032B0DD0012B11D1C7
:1061C000FEF76EF9F8600823FB720EE0FEF77AF92D
:1061D000F8600723FB7208E0FEF76BF9F86009230B
:1061E000FB7202E00023FB7200BF7B68002B02D031
:1061F0007B68FA681A603B68002B02D03B68FA7A29
:106200001A7000BF1037BD4680BD00BF008000403F
:1062100080B485B000AF786039601E4BDB6903F451
:106220008033B3F5803F0CBF01230023FB72194B71
:1062300041F67132DA63174B9B6823F44013FB601D
:106240007B68154A934203D9FB6843F48013FB60D3
:10625000104AFB689360114BD3F8183223F0020305
:10626000FB607B680E4A934203D9FB6843F002034C
:10627000FB600A4AFB68C2F81832FB7A002B02D096
:10628000044B0022DA6300BF1437BD465DF8047B7F
:10629000704700BF00000340C017530200C0074012
:1062A00080F0FA0280B485B000AF78600023FB6014
:1062B0007B683C4A934245D03A4A934218D83A4ABE
:1062C00093422FD0384A934208D8384A934229D073
:1062D000374A934226D0002B5BD05BE0354A93428D
:1062E00028D0354A934229D0344A93421ED051E0F7
:1062F000334A934239D0324A934209D8314A9342C1
:1063000029D0314A93422BD0304A93421ED041E0EB
:106310002F4A934233D02F4A934235D02E4A93428C
:1063200028D037E02D4B9B6DFB6033E02B4B5B6E31
:10633000FB602FE0294B1B6FFB602BE0274B5B6F53
:10634000FB6027E0254B9B6FFB6023E0234BD3F8DA
:106350008030FB601EE0214BD3F88430FB6019E0F5
:106360001E4BD3F88830FB6014E01C4BD3F88C3004
:10637000FB600FE0194BD3F89030FB600AE0174B3D
:10638000D3F89430FB6005E0144BD3F89830FB60F1
:1063900000E000BFFB6818461437BD465DF8047B7B
:1063A000704700BFC0EA210100093D0040420F00D4
:1063B00080841E00405DC6000024F400C0CF6A0047
:1063C000006CDC020048E80180D5430280BA8C01F1
:1063D0000090D00300B4C404007E56030080E00F98
:1063E00080B584B000AF786039600023BB601A4B81
:1063F000D3F8803103F00303022B0CD0032B11D010
:10640000012B16D107F1080300211846FFF716FEED
:106410000D23FB7310E0FDF7D1FF0346BB6005239E
:10642000FB7309E0FDF7C0FF0346BB600223FB736B
:1064300002E00023FB7300BF7B68002B02D0BA6828
:106440007B681A603B68002B02D03B68FA7B1A70AD
:1064500000BF1037BD4680BD0080004080B500AF52
:1064600002210320FFF7B0F800BF80BD80B582B0E5
:1064700000AF02237B600120FEF70AFF0246064BB5
:106480009A4201D801237B6079680320FFF79CF8CA
:1064900000BF0837BD4680BD80F0FA0280B584B0E9
:1064A00000AF786039600023FB60184BD3F84032AE
:1064B00003F00303022B09D0032B0DD0012B11D1C4
:1064C000FDF7EEFFF8600823FB720EE0FDF7FAFF20
:1064D000F8600723FB7208E0FDF7EBFFF860092383
:1064E000FB7202E00023FB7200BF7B68002B02D02E
:1064F0007B68FA681A603B68002B02D03B68FA7A26
:106500001A7000BF1037BD4680BD00BF008000403C
:1065100080B500AFFDF712FF034600211846FFF7D4
:1065200077FE00BF80BD000080B584B000AF78600A
:1065300039600023FB60204BD3F8003203F00703DF
:10654000013B032B24D801A252F823F05D65000023
:10655000696500007565000081650000FDF7A0FF1A
:10656000F8600823FB7216E0FDF7ACFFF860072324
:10657000FB7210E0FDF79DFFF8600923FB720AE053
:10658000FDF7BEFE03469B0AFB600C23FB7202E094
:106590000023FB7200BF7B68002B02D07B68FA6887
:1065A0001A603B68002B02D03B68FA7A1A7000BF71
:1065B0001037BD4680BD00BF0080004080B483B06E
:1065C00000AF0346FB7197F90730002B09DB0D4A3A
:1065D00097F90730134493F80033DBB21B09DBB2A1
:1065E00009E0094AFB7903F00F03043B13441B7EC7
:1065F000DBB21B09DBB218460C37BD465DF8047BE5
:10660000704700BF00E100E000ED00E080B483B01F
:1066100000AFEFF310833B603B687B6072B67B6832
:1066200018460C37BD465DF8047B704780B483B0D4
:1066300000AF78607B68002B00D162B600BF0C37DA
:10664000BD465DF8047B704780B485B000AFEFF3C2
:1066500011837B607B68FB603023BB60BB6883F386
:106660001188FB6818461437BD465DF8047B7047F7
:1066700080B485B000AF78607B68FB60FB6883F313
:10668000118800BF1437BD465DF8047B70470000D9
:1066900080B588B000AF0346FB7197F9073013F15E
:1066A0000C0F03DB97F907303C2B00BFEFF310838F
:1066B0003B613B6903F00103002B01D0012335E06E
:1066C00097F90730184600F037F80346002B01D041
:1066D00001232BE097F907301846FFF76FFFF861A9
:1066E000EFF31183FB60FB68BB61BB69002B06D035
:1066F000BB691B09FA699A4201D3012316E00D4BCD
:106700005B68C3F308037B617B69002B0DD07B6959
:10671000DBB2103BDBB25BB21846FFF74FFF02461D
:10672000FB69934201D3012300E000231846203780
:10673000BD4680BD00ED00E080B485B000AF0346EB
:10674000FB7197F90730002B03DB97F907303C2BDF
:1067500000BF0D4BFB6097F907305A09FB6853F8EF
:106760002220FB7903F01F0322FA03F303F0010355
:10677000002B0CBF01230023DBB218461437BD46A3
:106780005DF8047B704700BF00E100E080B400AF1B
:1067900000BFBD465DF8047B704780B483B000AF96
:1067A00078604FF04023DB6E23F030037A68127973
:1067B00011464FF040220B43D36600BF0C37BD4655
:1067C0005DF8047B704780B487B000AFF860B960B3
:1067D0007A607B68002B04D0FB6803F580537B61F3
:1067E00003E0FB6803F500537B617B690121BA6814
:1067F00001FA02F21A6000BF1C37BD465DF8047B47
:10680000704780B586B000AFF860B9607A60FFF776
:10681000FDFE7861FB681A68BB68DB431A40796843
:10682000BB680B401A43FB681A607869FFF7FEFEED
:1068300000BF1837BD4680BD80B483B000AF78601C
:10684000054B03F5105320337A681A6000BF0C37EC
:10685000BD465DF8047B704700C0034080B483B040
:1068600000AF03463960FB71FB79002B07D0FB7941
:10687000012B04D0FB79022B01D0FB79032B0A48B2
:10688000FA7901213B68994013465B0013441B01D0
:10689000034403F500531033196000BF0C37BD46A5
:1068A0005DF8047B704700BF00C0034080B483B034
:1068B00000AF03463960FB71FB79002B07D0FB79F1
:1068C000012B04D0FB79022B01D0FB79032B0A4862
:1068D000FA7901213B68994013465B0013441B0180
:1068E000034403F580531033196000BF0C37BD46D5
:1068F0005DF8047B704700BF00C0034080B584B0E2
:1069000000AFB9607A601A460346FB731346BB7347
:10691000FB7B002B07D0FB7B012B04D0FB7B022BE6
:1069200001D0FB7B032B7B68072B0DD87B689B007A
:10693000032202FA03F1FA7B7B689B0002FA03F35D
:106940001A461948FFF75DFF7B68072B0FD87B6855
:106950009B00032202FA03F1BB6803F003027B6889
:106960009B0002FA03F31A461048FFF74AFFBB7B6D
:106970001A4679680E48FFF726FF3B7E1A4679686B
:106980000C48FFF720FF01227B6802FA03F3184648
:10699000FFF752FF3B7F1A4679680748FFF713FF5E
:1069A00000BF1037BD4680BD00C4034008C403408B
:1069B00010C4034014C4034024C4034080B584B011
:1069C00000AFB9607B600346FB731346BB73FB7B70
:1069D000002B07D0FB7B012B04D0FB7B022B01D0CB
:1069E000FB7B032BBB7B002B0DD07B68002B05D0E2
:1069F000FB7BB9681846FFF759FF04E0FB7BB968D9
:106A00001846FFF72BFFBB68072B20D82D49FA7BD0
:106A100013465B0013441B010B4404331A68BB6824
:106A20009B000F2101FA03F3DB431340B97BBA68E3
:106A3000920001FA02F211462248FA7B19431346EA
:106A40005B0013441B0103440433196025E01D4916
:106A5000FA7B13465B0013441B010B440C331A688A
:106A6000BB6803F18043083B9B000F2101FA03F34D
:106A7000DB4302EA0301BA7BBB6803F18043083BB6
:106A80009B0002FA03F30F48FA7B194313465B009D
:106A900013441B0103440C331960BB7B002B0DD145
:106AA0007B68002B05D0FB7BB9681846FFF7FEFE1C
:106AB00004E0FB7BB9681846FFF7D0FE00BF103733
:106AC000BD4680BD00C0034080B483B000AF034624
:106AD000FB7197F90730002B0BDBFB7903F01F02EA
:106AE000074997F907305B09012000FA02F241F8E3
:106AF000232000BF0C37BD465DF8047B704700BF04
:106B000000E100E080B483B000AF0346FB7197F969
:106B10000730002B0CDBFB7903F01F02074997F9C4
:106B200007305B09012000FA02F2603341F82320AC
:106B300000BF0C37BD465DF8047B704700E100E004
:106B400080B483B000AF03463960FB7197F907301A
:106B5000002B0ADB3B68DAB20C4997F907301201C7
:106B6000D2B20B4483F800230AE03B68DAB208494A
:106B7000FB7903F00F03043B1201D2B20B441A76E7
:106B800000BF0C37BD465DF8047B704700E100E0B4
:106B900000ED00E080B487B000AFF860B9607A60C3
:106BA0007B68002B04D0FB6803F580537B6103E016
:106BB000FB6803F500537B617B690121BA6801FA28
:106BC00002F21A6000BF1C37BD465DF8047B7047B7
:106BD00080B485B000AF786039607B6803F50053FE
:106BE000FB60FB683A681A6000BF1437BD465DF869
:106BF000047B704780B483B000AF03460A46FB7144
:106C00001346BB7100BF0C37BD465DF8047B70476F
:106C100080B582B000AF78600B46FB707968FB7876
:106C200083F00103DBB21A460348FFF7B3FF00BF4E
:106C30000837BD4680BD00BF4000044080B584B029
:106C400000AF786001211920FFF7D4FF1B4B012210
:106C50005A607B681B781B06FB60184AFB689360D0
:106C60007B685B781B047A6892781146134A0B4361
:106C70009361124BFF229A62104B00229A630F4BD2
:106C800000221A640D4B4FF000425A650B4B03F57E
:106C9000015310334FF0FF321A601520FFF732FF17
:106CA0007B68DB7819461520FFF74AFF1520FFF7B0
:106CB0000BFF00BF1037BD4680BD00BF0000044081
:106CC00080B586B000AFF860B9607A60FB68DBB26F
:106CD0001A46012393407B613E49BB681A68FB68F2
:106CE00041F82320BB685B7B3B491846FA68134692
:106CF0005B0013441B010B4460331860BB689B7A34
:106D00001A04BB68DB7A1B051A43BB681B7B5B0557
:106D1000314842EA0301FA6813465B0013441B0141
:106D200003445C3319607B682B4823F00301FA6845
:106D300013465B0013441B01034470331960264B58
:106D400003F5015310337A691A60FFF77DFC38614F
:106D5000214B5A6D20497B6913434B65BB681B7AF5
:106D6000002B05D01C4B1A6C1B497B6913430B6429
:106D7000BB685B7A002B05D0174B9A6B16497B6971
:106D800013438B63BB681B791B04BA689279134366
:106D9000114903F0FF1201F5005318331A60BB6864
:106DA0005B791B04BA68D27913430B4903F0FF12D5
:106DB00001F5805318331A6079690848FFF708FF16
:106DC000054A7B6993643869FFF752FC00BF1837A6
:106DD000BD4680BD00400440000004403400044033
:106DE00080B588B000AF78607B68DBB21A460123BB
:106DF0009340FB61FFF728FCB861184B1B6D7B616A
:106E0000164B5B6B3B6115497A6813465B00134474
:106E10001B010B4464331B68FB60B869FFF728FC57
:106E20007A69FB6913407B613A69FB6913403B61F6
:106E3000FB681B09C3F30A03FB603B69002B05D108
:106E4000FB68002B04D17B69002B01D0002301E0FB
:106E5000FB68013318462037BD4680BD0000044062
:106E600080B485B000AF78600B46FB70FB78002BD8
:106E70000AD10E4A7B68063352F823309AB247F69D
:106E800007731340FB8109E0084A7B68123352F80C
:106E900023309AB247F607731340FB81FB891846EB
:106EA0001437BD465DF8047B704700BF0080034087
:106EB00080B485B000AF78600023FB607B68262B30
:106EC00062D801A252F823F0656F00006B6F0000DA
:106ED000896F0000896F0000896F0000896F0000D2
:106EE000896F0000896F0000896F0000896F0000C2
:106EF000896F0000896F0000896F0000896F0000B2
:106F0000896F0000896F0000896F0000896F0000A1
:106F1000896F0000896F0000896F0000896F000091
:106F2000896F0000896F0000896F0000896F000081
:106F3000896F0000896F0000896F0000896F000071
:106F4000896F0000896F0000896F0000896F000061
:106F5000896F0000716F0000776F00007D6F000087
:106F6000836F00000023FB600FE00323FB600CE055
:106F70000123FB6009E00223FB6006E00423FB60C1
:106F800003E00523FB6000E000BFFB6818461437F0
:106F9000BD465DF8047B704780B485B000AF786073
:106FA00039603B68FB607B68013B252B00F2A580C4
:106FB00001A252F823F000BFD7700000FB70000060
:106FC000FB700000FB700000FB700000FB70000015
:106FD000FB700000FB700000FB700000FB70000005
:106FE000FB700000FB700000FB700000FB700000F5
:106FF000FB700000FB700000FB700000FB700000E5
:10700000FB700000FB700000FB700000FB700000D4
:10701000FB700000FB700000FB700000FB700000C4
:10702000FB700000FB700000FB700000FB700000B4
:10703000FB700000FB700000FB700000FB700000A4
:1070400051700000517000009370000093700000B8
:107050003B68042B1BD801A252F823F0717000008A
:10706000777000007D700000837000008970000060
:107070000023FB600CE00123FB6009E00223FB60BE
:1070800006E00323FB6003E00423FB6000E000BF95
:1070900034E03B68042B1CD801A252F823F000BF57
:1070A000B5700000BB700000C1700000C770000028
:1070B000CD7000000323FB600CE00423FB6009E0BB
:1070C0000023FB6006E00123FB6003E00223FB607A
:1070D00000E000BF12E03B68012B07D0012B02D378
:1070E000022B06D008E00023FB6005E00123FB60D3
:1070F00002E00223FB6000BF00E000BFFB6818460F
:107100001437BD465DF8047B704700BF80B584B07E
:1071100000AFF860B9607A60BB689AB27B689BB2D6
:1071200013439BB21A460021F86800F031F800BF03
:107130001037BD4680BD80B586B000AF0346FB71F9
:107140004FF0FF337B61FB79002B02D10C233B61B5
:1071500001E004233B610023FB6010E0FB68FA7947
:1071600011461846FFF77CFE03467B817B89002B86
:1071700002D1FB687B6106E0FB680133FB60FA68C3
:107180003B699A42EADB7B6918461837BD4680BDE9
:1071900080B584B000AF78600B46FB7013463B802F
:1071A0003B881B0A03F07F03FB603B8803F0070367
:1071B000BB60FB78002B0BD1FB681A02BB68134342
:1071C0000E4943F440227B68063341F8232011E046
:1071D000B968F868FFF7E0FEB860F868FFF768FE86
:1071E000F860FB681A020549BB681A437B681233D2
:1071F00041F8232000BF1037BD4680BD008003400A
:1072000080B485B000AF78600B46FB7013463B80BE
:107210000E4BFB603B88BB60BB6823F00303FA683E
:107220001344FB603B88002B0AD0FB78002B03D172
:10723000FB687A681A6003E07B681A02FB681A60D0
:1072400000BF1437BD465DF8047B704700800340E3
:1072500080B483B000AF78604FF098427B681360D1
:1072600000BF0C37BD465DF8047B704780B485B025
:1072700000AF786039607B685B68002B03D17B6866
:107280003A685A600DE07B685B68FB6002E0FB686F
:107290005B68FB60FB685B68012BF8D1FB683A68B0
:1072A0005A6000BF1437BD465DF8047B704780B458
:1072B00085B000AF786039607B689B68002B03D194
:1072C0007B683A689A600DE07B689B68FB6002E02F
:1072D000FB685B68FB60FB685B68012BF8D1FB68AF
:1072E0003A685A6000BF1437BD465DF8047B7047AA
:1072F00080B483B000AF786039607B68DB69032BB2
:107300000DD87B68DB697A6802339B0013443A68C6
:107310005A607B68DB695A1C7B68DA6100E000BF59
:107320000C37BD465DF8047B704780B584B000AF74
:1073300078607B68DB69042B33D800BF4FF098433B
:107340001B6C03F48013002BF8D07B68DB690433DB
:107350004FF098429B0013657B681B681846FFF747
:1073600077FF7B685B681846FFF772FF7B689B6856
:107370001846FFF76DFF0023FB600BE07A68FB689F
:1073800002339B0013445B681846FFF761FFFB68FC
:107390000133FB607B68DB69FA689A42EED300BF79
:1073A00000E000BF1037BD4680BD80B400AF4FF095
:1073B000402303F5835310334FF400321A6000BFAB
:1073C000BD465DF8047B704780B400AF4FF04023AA
:1073D000D3F894301846BD465DF8047B7047000032
:1073E00080B400AF074B41F67132DA63054B03F509
:1073F00000530C3301221A6000BFBD465DF8047BC8
:10740000704700BF0000034080B400AF084B41F656
:107410007132DA63064B03F500530C3301221A6014
:10742000034B0022DA6300BFBD465DF8047B704762
:107430000000034080B400AF00BF4FF090435B6892
:10744000002B04D04FF090439B6A002BF5D100BF76
:10745000BD465DF8047B704780B500AFFFF7EAFFDB
:107460004FF090430122DA6000BF80BD80B500AFCD
:10747000FFF7E0FF4FF090430222DA6000BF80BDCB
:1074800080B485B000AF786039603B681B781A46DD
:107490003B685B789B001A433B68DB785B011A43CF
:1074A0003B681B791B014FF0904042EA03017A6868
:1074B00013465B0013449B000344303319603B6860
:1074C0001B78012B09D1084BFB603B6899787B68DE
:1074D0009B00FA6813440A461A6000BF1437BD4681
:1074E0005DF8047B704700BFD080034080B582B058
:1074F00000AF0346FB714FF090435B68002B05D152
:10750000FB7983F00103DBB2002B1FD14FF09043D6
:107510005B68002B01D0FFF78DFFFB79002B09D0B2
:107520004FF0904303F58053043301221A60FFF7B4
:1075300093FF0CE0FFF79AFFFFF77CFF4FF09043BB
:1075400003F50053043301221A6000E000BF08373E
:10755000BD4680BD80B582B000AF78604FF09043EB
:107560005B68002B01D0FFF765FF4FF0904303F5F8
:107570000053043301221A607B685B78002B01D032
:10758000012200E000227B689B78002B01D00223BF
:1075900000E0002313437A68D278002A01D0042245
:1075A00000E000221A437B681B791B011A437B68A9
:1075B0005B79DB004FF0904113438B604FF09043B9
:1075C00003F58053043301221A607B681B78002B7B
:1075D00001D0012300E002234FF09042D36000BFAE
:1075E0000837BD4680BD000080B485B000AF78602C
:1075F0000E4B5B69FB60FB689B09DBB203F03F034A
:10760000DAB27B689A70FB68DBB203F03F03DAB250
:107610007B685A70FB681B0BDAB27B681A7000BF7C
:107620001437BD465DF8047B704700BF00C00740BB
:1076300080B483B000AF78600B46FB707B68124A61
:10764000934204D1114AFB78C2F8843110E07B6880
:107650000F4A934204D10D4AFB78C2F8943107E0F7
:107660007B680C4A934203D1084AFB78C2F8A431E4
:107670007B68DB6D43F080027B68DA6500BF0C3706
:10768000BD465DF8047B70470080054000800340E4
:1076900000C005400000064080B586B000AFF8602D
:1076A000B9607A60FB7000237B61BB68002B03D15B
:1076B0000320FDF7EDFDB860FB78202B0CD0202BCC
:1076C00002DC002B05D010E0402B08D0602B09D045
:1076D0000BE010237B6108E008237B6105E00623B3
:1076E0007B6102E004237B6100BF7B69002B29D012
:1076F000BB685A017B69796801FB03F35B0813449B
:107700003B617B697A6802FB03F33A69B2FBF3F3EE
:107710003B613B69203B3B613B69DB003B613A6974
:107720000A4B13403B61FB689B6823F06002FB68D7
:107730009A60FB689A68FB781A43FB689A60FB685A
:107740003A69DA6100BF1837BD4680BDF8FF7F0097
:1077500080B485B000AF78600B46FB707B68174A39
:10776000934206D07B68164A934202D07B68154A42
:10777000934200BF7B6803F58053043301221A60F3
:10778000FB78DB43FB60FB6803F00503FB60FB68F1
:107790005A007B685A61FA787B685A61FB78002B43
:1077A00005D17B6803F50053043301221A6000BF42
:1077B0001437BD465DF8047B704700BF008005406C
:1077C00000C005400000064080B582B000AF786080
:1077D00039607B68584A934206D07B68574A934287
:1077E00002D07B68564A934200BF786800F0ACF83C
:1077F0007B6803F58053043301221A603B689B7C4D
:10780000002B05D07B689B6843F080427B689A60C0
:107810003B68DB7C002B05D03B681B7D19467868F4
:10782000FFF706FF3B685B7B1A463B681B8A1343E6
:107830003A68D2891A437B68DA603B6859683B68CA
:107840009A683B681B7B7868FFF726FF3B685B7D87
:10785000002B05D07B689B6843F480327B689A607C
:107860003B689B7D1B0703F0E0423B68DB7D1B050B
:1078700003F4E0031A437B689A653B681B7E022B86
:1078800003D03B681B7E032B1CD12E4A7B682A4900
:107890008B420ED07B6829498B4208D07B682849EF
:1078A0008B4201D1022305E04FF0FF3302E00123B8
:1078B00000E000235B01134403F5AD530C330222B7
:1078C0001A601BE01F4A7B681B498B420ED07B6805
:1078D0001A498B4208D07B6819498B4201D1022397
:1078E00005E04FF0FF3302E0012300E000235B01DD
:1078F000134403F516532C3302221A603B681B7E97
:10790000012B03D03B681B7E032B06D17B6803F55C
:1079100082531C3304221A6005E07B6803F501538F
:107920001C3304221A603B681B781A467B685A6134
:1079300000BF0837BD4680BD0080054000C005403F
:107940000000064000C0034080B483B000AF786000
:107950007B682D4A934206D07B682C4A934202D022
:107960007B682B4A934200BF7B6803F58053043346
:1079700001221A607B6840F6AA625A617B68002285
:107980009A607B680022DA657B6841F20502DA6062
:107990007B6800221A617B680022DA617B68002222
:1079A000DA647B6803F5015308331A4A1A607B686E
:1079B00000229A657B68144A934207D07B68134A79
:1079C000934203D07B68124A934202D17B68002223
:1079D0001A657B680C4A934207D07B680B4A934236
:1079E00003D07B680A4A934202D17B6800225A6521
:1079F0007B6803F50053043301221A6000BF0C3783
:107A0000BD465DF8047B70470080054000C005401E
:107A100000000640FFFF010080B483B000AF786033
:107A20000B46FB7000BF7B689B6903F04003002B93
:107A3000F9D0FA787B68DA6300BF0C37BD465DF891
:107A4000047B704790B583B000AFFEF7FDFD786012
:107A50001E4B1B7883F00103DBB2002B2ED01C4B96
:107A600000221A601B4B00221A601B4B00221A8056
:107A700000F07EFD012000F01FFE00F0C0FE024677
:107A8000164B1A60154B1B68002B04D17868FEF763
:107A9000EFFD232316E0114B1B684FF000041A463C
:107AA00023460F4840F2E73116F03AFF03460C46F2
:107AB0001A460C4B1A60054B01221A707868FEF7C3
:107AC000D7FD002318460C37BD4690BDD0160020C8
:107AD000C8160020CC160020C2160020C4160020B4
:107AE00018FCFFFFD416002080B58AB004AFF86000
:107AF000B9607A603B600023FB75FB68002B01D105
:107B0000222318E007F117031946F86800F056F829
:107B1000FB7D002B01D003230DE0BB8C029397F873
:107B2000203001933B6800937B680022B968F868B5
:107B300000F062FB034618461837BD4680BD0000C2
:107B400080B586B000AF78600023FB757B68002BA2
:107B500001D122232CE0FEF777FD386100F014FB01
:107B6000154B1B687A689A4201D10123FB7578682E
:107B700000F0B2FAF860FB68002B04D03869FEF719
:107B800077FDFB6814E0FB7D002B06D00A4B1B68D9
:107B9000002B02D000F0DEFA06E0074B1B68002B3A
:107BA00002D1022000F0A8FD3869FEF761FD002334
:107BB00018461837BD4680BDC816002080B584B071
:107BC00000AF786039607B68002B02D03B68002BE7
:107BD00001D1222322E03B6800221A70FEF734FD17
:107BE000B860104B1B68FB600AE0FA687B689A4239
:107BF00003D13B6801221A7002E0FB689B68FB60BE
:107C0000FB68002B06D03B681B7883F00103DBB2D6
:107C1000002BEAD1B868FEF72BFD00231846103779
:107C2000BD4680BDC816002080B582B000AFFEF70B
:107C30000BFD786000F0E0FC38607868FEF718FD16
:107C40003B6818460837BD4680BD00002DE99048C6
:107C500084B000AFFEF7F8FC786000F0CDFCF8606F
:107C6000154B1B889BB2BB60012000F073FD0346DF
:107C7000002B05D000F0C0FCF860BB680133BB608E
:107C80007868FEF7F5FCBB6819464FF000024FF02C
:107C9000000B4FF0000C8C464FF0000BFA681146B9
:107CA0004FF000024BEA01034CEA02041846214659
:107CB0001037BD46BDE89088C2160020B0B582B02E
:107CC00000AF78603960144B1B687A689A421DD8FF
:107CD0007B6819464FF00002104B1B684FF0000400
:107CE00003FB02F501FB04F00544A1FB03016B1843
:107CF00019464FF47A724FF0000316F011FE034656
:107D00000C465A1C3B681A60002300E021231846E9
:107D10000837BD46B0BD00BFD4160020C4160020F1
:107D20002DE9F04385B000AFC7E902017A60D7E9D9
:107D300002344EA2D2E90012A24208BF9942C0F01A
:107D40008B80494B1B68002B00F08680464B1B68DC
:107D5000184600F0DFFA0346002B44D0D7E9028929
:107D600043464C464FF000014FF00002620142EAE8
:107D7000D36259010B461446B3EB080364EB0904C4
:107D80004FF000014FF00002A20042EA9372990006
:107D90000B46144613EB080344EB09044FF00001B3
:107DA0004FF00002E20042EA5372D9000B4614463B
:107DB0009846A1462C4B1B68184600F09BFA0346D8
:107DC000C3F12001A3F1200228FA03F509FA01F119
:107DD0000D4329FA02F2154329FA03F67B68C3E939
:107DE0000056002339E0D7E902562B4634464FF0BF
:107DF00000014FF00002620142EAD36259010B46D2
:107E000014465B1B64EB06044FF000014FF00002C8
:107E1000A20042EA937299000B4614465B1944EBA8
:107E200006044FF000014FF00002E20042EA5372F4
:107E3000D9000B461446184621460B4B1B684FF0E1
:107E400000041A46234616F06BFD03460C467A687A
:107E5000C2E90034002300E0212318461437BD4650
:107E6000BDE8F083AFF30080C4160020EFA7C64B37
:107E70003789410080B58AB000AF0346FB71FB79BA
:107E800003F00103002B0ED0604B1B889BB2013323
:107E90009AB25E4B1A8000F077F95D4B1B68002B9D
:107EA00001D000F057F9FB7903F00203002B00F03A
:107EB000A88000233B6200F09FFBF8610023BB61B8
:107EC00000237B61534B1B68FA69D31A3B62FEF7B0
:107ED000BBFB786263E03B6A3B614D4B1B68FB6018
:107EE0004B4B1B68BB614B4AFB6913600FE0BB69DE
:107EF0001A79FB681B799A4201D9FB68BB61FB6860
:107F00005B693A69D31A3B61FB689B68FB60FB685D
:107F1000002B04D0FB685B693A699A42E7D2786A21
:107F2000FEF7A6FBBB695B693A6AD31A3B62BB6981
:107F300000225A61FEF788FB7862B86900F0CCF83D
:107F4000786AFEF795FBBB691B69002B0BD0FEF727
:107F50007BFB7862BB691B691946B86900F05EF863
:107F6000786AFEF785FBBB69DB68002B06D0BB692E
:107F7000DB68BA6912681146B86998477B690133B2
:107F80007B6100F039FBB860BA68FB69D31A3A6AC2
:107F900013443B62BB68FB61FEF756FB78621C4BE7
:107FA0001B68002B05D01A4B1B685B693A6A9A4222
:107FB00091D2194B00221A707B69012B09D1BB6940
:107FC000002B06D0BB69DB88022B02D1124B0122A9
:107FD0001A700F4B1B68002B0DD00D4B1B68596995
:107FE0000B4B1B683A6A8A1A5A610A4AFB6913608A
:107FF00000F0B0F802E0022000F07EFB786AFEF7A5
:1080000037FB00BF2837BD4680BD00BFC216002029
:10801000C8160020CC160020D816002080B487B0E7
:1080200000AF786039603B687B617B687A695A6130
:10803000284B1B68002B40D000233B61254B1B685D
:10804000FB600CE0FB685B697A69D31A7B617B6833
:108050007A695A61FB683B61FB689B68FB60FB685F
:10806000002B13D0FB685B697A699A42EAD2FB68FD
:108070005B69002BE6D0FB685B697A699A4205D19F
:108080007B681A79FB681B799A42DBD83B69002B25
:1080900003D03B697A689A6002E00E4A7B681360FD
:1080A0007B68FA689A60FB68002B0CD0FB685A6901
:1080B0007B69D21AFB685A6105E0064A7B68136047
:1080C0007B6800229A6000BF1C37BD465DF8047BC8
:1080D000704700BFC816002080B485B000AF78603C
:1080E0000023FB601A4B1B68BB6004E0BB68FB60AD
:1080F000BB689B68BB60BB68002B03D0BA687B6819
:108100009A42F3D1BA687B689A4201D0022319E0FF
:10811000FB68002B04D07B689A68FB689A6003E0D8
:108120007B689B680A4A13607B689B68002B08D0B9
:108130007B689B6859697B685A697B689B680A44BD
:108140005A61002318461437BD465DF8047B70471A
:10815000C816002080B582B000AF094B1B685A6971
:10816000084B1B6813447B60022000F0A5FA786876
:1081700000F052FA00F08EF800BF0837BD4680BD0F
:10818000C8160020CC16002080B582B000AF00F0E9
:1081900033FA7860164B1B68002B22D0154B1B68F6
:1081A0007A68D31A3B60124B1B685B693A689A4243
:1081B0000BD80F4B1B6859690D4B1B683A688A1A1C
:1081C0005A610C4A7B6813600EE0094B1B685B69BF
:1081D0007A68D31A074A1360054B1B6800225A615C
:1081E00002E0044A7B68136000BF0837BD4680BDCB
:1081F000C8160020CC16002080B586B000AFF8600D
:10820000B9607A603B60FB6897F824201A71FB68BC
:108210003A6A1A60FB6800229A60FB687A681A6101
:10822000FB683A68DA60FB683A8DDA80BB68002B3D
:1082300015D1FB6800225A61FB68DB68002B06D071
:10824000FB68DB68FA6812681146F86898477B6833
:10825000002B02D07B68BB6001E0002313E0FEF737
:10826000F3F97861FFF790FFB968F868FFF7D6FE79
:10827000074B1B68FA689A4201D1FFF76BFF7869D8
:10828000FEF7F6F9002318461837BD4680BD00BF3B
:10829000C816002080B483B000AF144B1B687B600D
:1082A00000233B60124B00221A7014E07B68DB88CD
:1082B00003F00203002B03D00D4B01221A700FE0D4
:1082C0007B689B687B607B68002B08D07B685B6960
:1082D0003A6813443B603B68012BE7D900E000BFDC
:1082E00000BF0C37BD465DF8047B7047C816002000
:1082F000D116002080B483B000AF78607B68B3FAF9
:1083000083F3DBB2C3F11F0318460C37BD465DF89B
:10831000047B704780B483B000AF78607B68002B2B
:1083200007D07B685A1E7B681340002B01D10123C4
:1083300000E0002318460C37BD465DF8047B70470B
:1083400080B483B000AF0346FB7197F90730002B70
:108350000BDBFB7903F01F02074997F907305B0934
:10836000012000FA02F241F8232000BF0C37BD467D
:108370005DF8047B704700BF00E100E080B483B08B
:1083800000AF0346FB7197F90730002B0CDBFB793C
:1083900003F01F02074997F907305B09012000FA33
:1083A00002F2603341F8232000BF0C37BD465DF870
:1083B000047B704700E100E080B483B000AF7860D8
:1083C0004FF090417A6813465B0013449B000B44C6
:1083D00034331B6818460C37BD465DF8047B704784
:1083E00080B483B000AF786039604FF090417A6814
:1083F00013465B0013449B000B4434333A681A6005
:1084000000BF0C37BD465DF8047B704780B582B075
:1084100000AF78607868FFF7CFFF0346184608374B
:10842000BD4680BD80B582B000AF786039603968E4
:108430007868FFF7D5FF00BF0837BD4680BD80B420
:1084400000AF00BF4FF090439B6A03F00803002B7E
:10845000F8D14FF090431B6A1846BD465DF8047B87
:10846000704780B483B000AF786000BF4FF0904396
:108470009B6A03F00803002BF8D14FF090427B6811
:10848000136200BF0C37BD465DF8047B704780B4B3
:1084900083B000AF78604FF0904303F5005314337E
:1084A0007A681A6000BF0C37BD465DF8047B7047E0
:1084B00080B483B000AF78604FF090439A697B68D6
:1084C000DB434FF0904113408B6100BF0C37BD463A
:1084D0005DF8047B704780B483B000AF78604FF0E4
:1084E00090439A694FF090417B6813438B6100BFC2
:1084F0000C37BD465DF8047B704780B400AF4FF089
:1085000090435B691846BD465DF8047B704780B4B4
:1085100083B000AF786001227B6802FA03F318464B
:108520000C37BD465DF8047B704780B483B000AF64
:1085300003460A46FB711346BB7100BF0C37BD46AC
:108540005DF8047B704780B584B000AF78607B68CD
:108550000133B3FA83F3DBB2C3F11F03FB60F868A6
:10856000FFF7D5FFFB6818461037BD4680BD0000F9
:1085700080B584B000AF1E4A07F1080392E80300FB
:108580001860043319801B4A3B4692E803001860C8
:108590000433197001211C20FFF7C7FF00233B7231
:1085A0000020FFF7D0FF0346DBB23B7307F108035F
:1085B0001846FEF7CFFF00233B703B4619460120CB
:1085C000FEF75EFF1F20FFF773FF1F20FFF75FFF1F
:1085D0000020FFF746FF0120FEF788FF0A20FFF783
:1085E000CDFE0A20FFF7ACFE00BF1037BD4680BDB0
:1085F00004ED01000CED010080B500AFFFF71FFF97
:108600000346184680BD80B500AF0120FFF7FEFE8F
:108610000346184680BD000080B586B000AF786084
:10862000FFF7EAFF3861FFF7EEFFF8607B687B61D8
:10863000FFF763FF034603F00803002B0AD13969F3
:10864000F86800F0EAF80346032B03D8FA683B69A0
:108650009A421BD13969786900F0DFF80346022B92
:1086600002D83B6903337B617B69B3F1FF3F2CBFC9
:108670000122002252429B1A7B617B69013B194611
:108680000120FFF7CFFE022000F016F8094B1B78FF
:10869000002B0AD04FF09043DB6B4FF0904243F039
:1086A0000203D363034B00221A7000BF1837BD4684
:1086B00080BD00BF1410002080B584B000AF034619
:1086C000FB710023FB60FB7903F00103002B03D057
:1086D000FB6843F00103FB60FB7903F00203002B0E
:1086E00003D0FB6843F00803FB60F868FFF7F3FE74
:1086F00000BF1037BD4680BD80B584B000AF0346D3
:10870000FB710023FB60FB7903F00103002B03D016
:10871000FB6843F00103FB60FB7903F00203002BCD
:108720000ED0FB6843F00803FB60094B01221A706E
:108730004FF09043DB6B4FF0904223F00303D36381
:10874000F868FFF7B5FE00BF1037BD4680BD00BF1B
:108750001410002080B584B000AF0346FB710023E5
:10876000FB73FFF7CAFEB860FB79012B0BD0022B1D
:1087700000D011E0BB6803F00803002B14BF0123F5
:108780000023FB7308E0BB6803F00103002B14BF58
:1087900001230023FB7300BFFB7B18461037BD4647
:1087A00080BD80B584B000AF0023FB73FDF74CFFA4
:1087B000B860FFF7A2FE78607B6803F00103002B2E
:1087C00003D0FB7B43F00103FB737B6803F00803DA
:1087D000002B03D0FB7B43F00203FB737B6803F0A9
:1087E0000D031846FFF753FEFB7B1846FFF742FBCD
:1087F000B868FDF73DFF00BF1037BD4680BD98B596
:1088000000AF1C20FCF744FD04460020FFF79BFE50
:10881000034624FA03F3184698BD80B483B000AF32
:10882000786039607A683B68D31A18460C37BD46C1
:108830005DF8047B7047000080B584B000AF03464C
:108840000A46FB711346BB710023BB60BB79032B47
:1088500016D801A252F823F0698800006F88000042
:10886000758800007B8800000123BB6008E00423BA
:10887000BB6005E01023BB6002E04023BB6000BF8B
:10888000FB79032B1ED801A252F823F09D8800002B
:10889000A7880000B1880000BB880000BB6843F0D7
:1088A0000203BB600EE0BB6843F00803BB6009E055
:1088B000BB6843F02003BB6004E0BB6843F0800367
:1088C000BB6000BF0D4B1B68FB6010E0FB685B6882
:1088D0001A68BB681340002B06D0FB685B685B68B6
:1088E000B979FA7910469847FB681B68FB60FB680A
:1088F000002BEBD100BF1037BD4680BDE016002035
:1089000080B500AF0E4B1B78002B17D00D4B1B789A
:10891000002B13D000F024F80B4B1B7801211846D4
:10892000FFF78AFF064B01221A70064B00221A70CD
:10893000064B00221A70064B01221A7000BF80BD40
:10894000D9160020DB160020DA160020DC160020E5
:10895000E416002080B500AFFBF7D2FC00BF80BD5D
:1089600080B500AFFDF712FF0B4B1B6F23F0070222
:108970000A4B1B68084913430B67094B1B78002BF4
:1089800005D0084B03F50053283301221A60FFF786
:10899000E1FF00BF80BD00BF00800040A43E00207A
:1089A000E516002000C0004080B400AFBFF34F8F39
:1089B000054BDB6803F4E0620349044B1343CB60CF
:1089C000BFF34F8F00BFFDE700ED00E00400FA05A4
:1089D00080B483B000AF7860BFF34F8FBFF36F8F69
:1089E000084A7B6843F001035360074B5B6A064A01
:1089F00043F48033536200BF0C37BD465DF8047BFF
:108A0000704700BF90ED00E000ED00E080B400AFE3
:108A1000BFF34F8FBFF36F8F084B5B6A074A23F496
:108A200080335362064B5B68054A23F001035360B1
:108A300000BFBD465DF8047B704700BF00ED00E05D
:108A400090ED00E080B487B000AF78600B46FB701B
:108A50001346BB70FB789B08FB75FB7803F00303A0
:108A6000DB003B61FF223B6902FA03F3FB60FB7D05
:108A7000012B16D8FA7D7B680C3253F82220FB6854
:108A8000DB4302EA0301BA783B6902FA03F31A46B0
:108A9000FB681340FA7D19437B680C3243F82210BF
:108AA00000E000BF1C37BD465DF8047B7047000046
:108AB00080B582B000AF03460A46FB711346BB7116
:108AC000BA79FB7919460348FFF7BCFF00BF0837A6
:108AD000BD4680BD90ED00E080B485B000AFF86089
:108AE000B9607A603B60FB68BA689A60FB687A6834
:108AF000DA60FB683A681A6100BF1437BD465DF85A
:108B0000047B704780B584B000AFF860B9607A60CC
:108B10007B68BA68F9680348FFF7DEFF00BF1037CB
:108B2000BD4680BD90ED00E080B584B000AF00236D
:108B3000FB600023BB60FFF769FF4FF00053FB6051
:108B40002A4A2B4B9A4204D0294B23F01F03203B87
:108B500001E04FF08043BB60A0210020FFF7A8FF99
:108B6000FA68BB689A4215D8FB6823F01F0343F0EC
:108B700003037B601F4B1868BB6823F01F0343F09F
:108B800001031A467968FFF7BDFF1A4B1B680133D2
:108B9000184A1360154A164B9A421CD0134B1F33C8
:108BA00023F01F03FB60144BBB60FB6823F01F0323
:108BB00043F003037B600F4B1868BB6823F01F036F
:108BC00043F001031A467968FFF79CFF094B1B68C5
:108BD0000133084A13600420FFF7FAFEBFF34F8FFA
:108BE000BFF36F8F00BF1037BD4680BD78160020E1
:108BF00098130020E8160020E0FFFF3F80B588B002
:108C000000AFF860B9607A600023FB610023BB61AC
:108C1000FFF7FCFE7B681F2B30D901210120FFF7F5
:108C200047FFFB6803F01F03002B04D0FB6823F011
:108C30001F03203300E0FB68FB61BB6803F01F03E8
:108C4000002B03D0BB6823F01F0300E0BB68BB61AF
:108C5000FB6923F01F0343F003037B610D4B18688E
:108C6000BB6923F01F0343F003031A467969FFF73A
:108C700049FF084B1B680133064A13600420FFF7C5
:108C8000A7FEBFF34F8FBFF36F8F00231846203727
:108C9000BD4680BDE816002080B500AFFFF784FE1A
:108CA00000BF80BD80B500AFFFF7F6FF00BF80BDFD
:108CB00080B500AF00F0D6F800BF80BD80B400AF33
:108CC00000BFBD465DF8047B7047000080B500AF73
:108CD000294B1B7883F00103DBB2002B49D1FEF74F
:108CE000A3FF0246254B1B68D31A254A1360244B69
:108CF0001B68002B02D0224B1B6800E00123204A96
:108D00001360204B1B68204A127811461F4A52F804
:108D1000212011461A4A12688A1A9B1A194A1360AE
:108D2000194B1B781946164B1B68184A42F821301C
:108D3000144B1B680933164AA2FB0323DB08154AB0
:108D40001360114B1B780133DAB20F4B1A700E4BC4
:108D50001A780F4BA3FB0213D9080B469B000B4458
:108D60005B00D31ADAB2084B1A70034B00221A7058
:108D700000E000BF80BD00BF28170020241700209E
:108D8000F0160020201700201C170020F4160020E9
:108D9000CDCCCCCCEC16002080B483B000AF034621
:108DA000FB7197F90730002B0BDBFB7903F01F02F7
:108DB000074997F907305B09012000FA02F241F8F0
:108DC000232000BF0C37BD465DF8047B704700BF11
:108DD00000E100E080B483B000AF0346FB7197F977
:108DE0000730002B0CDBFB7903F01F02074997F9D2
:108DF00007305B09012000FA02F2603341F82320BA
:108E000000BF0C37BD465DF8047B704700E100E011
:108E100080B483B000AF03463960FB7197F9073027
:108E2000002B0ADB3B68DAB20C4997F907301201D4
:108E3000D2B20B4483F800230AE03B68DAB2084957
:108E4000FB7903F00F03043B1201D2B20B441A76F4
:108E500000BF0C37BD465DF8047B704700E100E0C1
:108E600000ED00E080B500AF02212D20FFF7D0FF1C
:108E70000C4B03F5015334330B4A1A60094B03F5CD
:108E800001533033084A1A602D20FFF7A3FF2D202D
:108E9000FFF782FF034B03F583531433024A1A6032
:108EA00000BF80BD00C00040010000A080B500AF41
:108EB00000F002F800BF80BD80B582B000AFA24BC9
:108EC0001B6F7B60A04B9B6A03F00203002B14BF57
:108ED00001230023FB709C4B9B6A03F00103002BD2
:108EE00014BF01230023BB707B6803F00103002B38
:108EF00000F0858094497B6803F0010201F501537D
:108F000030331A60914B1B78002B71D08F4B0022AD
:108F10001A708F4B1B78012B64D88B4B03F50053D1
:108F2000283301221A60884B03F58153083302224B
:108F30001A6000BF844B9B6D03F48033002BF9D182
:108F4000814B5B6B23F47062824B1B687E49134339
:108F50004B637D4B9B6923F47F0323F47F437E4A5D
:108F600012681A437D4B1B68774913438B61764B1C
:108F70001B6923F47F6323F00F03794A12681A43B5
:108F8000784B1B68704913430B616F4B9B6923F04F
:108F9000FF02754B1B686C4913438B61FB7883F0B0
:108FA0000103DBB2002B06D0674B03F500532833D7
:108FB00002221A6005E0644B03F581530833022254
:108FC0001A60BB78002B06D05F4B03F58153083342
:108FD00001221A6013E05C4B03F500532833012291
:108FE0001A600CE0FFF76AFE604B01221A7006E07F
:108FF000FFF76CFEFFF784FC554B00221A707B686C
:1090000003F00053002B00F0CF804F497B6803F042
:10901000005201F5015330331A604C4B01221A7093
:109020004B4B1B780133DAB2494B1A70464B5B6BE2
:1090300003F47063474A1360434B9B6903F47F4317
:10904000454A1360404B9B6903F47F03434A136016
:109050003D4B9B69DBB2444A13603B4B1B6903F4F5
:109060007C633F4A1360384B1B6903F03F033D4A62
:109070001360354B03F50053283301221A60324B3D
:1090800003F58153083302221A602F4B03F58153F5
:1090900008334FF000421A6000BF2B4B9B6D03F466
:1090A0008033002BF9D1284B03F5005328334FF0C0
:1090B00000421A60244B5B6B23F470622C4B1B68DC
:1090C000214913434B63244B1B681B0A642B04D8B0
:1090D000224B1B681B0C642B0FD91B4B9B6923F481
:1090E0007F0323F47F43234A126812021A43214B61
:1090F0001B681B04144913438B61134B1B6923F436
:109100007F6323F00F031C4A126892081A431A4B1C
:109110001B689B089B010C4913430B610A4B9B691D
:1091200023F0FF02144B1B68074913438B61FB7844
:1091300083F00103DBB2002B20D0034B03F5005377
:10914000283302221A601FE000C0004029170020C7
:109150002A1700202C170020301700203417002079
:109160003C17002040170020381700202B17002044
:10917000181000201C10002020100020324B03F596
:109180008153083302221A60BB78002B06D02E4B85
:1091900003F58153083301221A6005E02A4B03F5D9
:1091A0000053283301221A607B68002B48DA2649D5
:1091B0007B6803F0004201F5015330331A60234B02
:1091C0001B78002B3CD0204B03F5005328330122A1
:1091D0001A601D4B03F58153083302221A6000BF49
:1091E000194B9B6D03F48033002BF9D1164B03F51B
:1091F000805318334FF000421A60FB7883F001036C
:10920000DBB2002B06D0104B03F5005328330222AB
:109210001A6005E00C4B03F58153083302221A60F3
:10922000BB78002B06D0084B03F58153083301228D
:109230001A6005E0044B03F50053283301221A603D
:1092400000BF0837BD4680BD00C000402B1700207E
:1092500080B483B000AF78607B68002B02DB7B6852
:109260001F2B01DD00230BE0084BDB6A01217A682C
:1092700001FA02F21340002B14BF01230023DBB2DA
:1092800018460C37BD465DF8047B7047000004406B
:1092900080B584B000AF78603960214B1B7883F0D3
:1092A0000103DBB2002B01D01E4B34E07B68002BA6
:1092B00001D11D4B2FE0FDF7C7F9B8600023FB601B
:1092C00022E01A4AFB681B0113440C331B7883F01D
:1092D0000103DBB2002B14D0FA687B681A60134AD2
:1092E000FB681B0113440C3301221A700F4AFB6800
:1092F0001B01134400221A60B868FDF7B9F9002376
:1093000009E0FB680133FB60FB68072BD9DDB86817
:10931000FDF7AEF9064B18461037BD4680BD00BFBD
:1093200044170020028000F0018000F04817002060
:10933000048000F080B584B000AF194B1B687B60DF
:1093400000233B71FDF780F9B860164B1B78002BAA
:1093500004D0B868FDF78CF9134B1CE0114B0122C7
:109360001A70B868FDF784F90023FB6009E00F4A22
:10937000FB681B0113440C3300221A70FB68013395
:10938000FB60FB68072BF2DD0423FB713B1D1846D5
:10939000FDF754FC002318461037BD4680BD00BFC2
:1093A00014ED010044170020038000F0481700204E
:1093B00080B58CB008AFF860B9607A603B60BB6A7A
:1093C00007937B6A069397F820300593FB69049313
:1093D0003B7E0393002302933B6801937B680093D9
:1093E000BB68FA680021002000F07CF903461846AB
:1093F0001037BD4680BD80B58CB008AFF860B9604D
:109400007A603B60BB6A07937B6A069397F82030CB
:109410000593FB6904933B7E0393002302933B680F
:1094200001937B680093BB68FA680121002000F07B
:1094300059F9034618461037BD4680BD80B582B045
:1094400000AF7860124B1B7883F00103DBB2002B76
:1094500001D0104B17E07B68072B01D90E4B12E0AF
:109460000E4A7B681B0113440C331B7883F0010305
:10947000DBB2002B01D00A4B05E07B6800211846C7
:10948000FDF7C6FB002318460837BD4680BD00BF68
:1094900044170020028000F0018000F048170020EF
:1094A000078000F080B582B000AF7860124B1B7867
:1094B00083F00103DBB2002B01D0104B17E07B6877
:1094C000072B01D90E4B12E00E4A7B681B01134497
:1094D0000C331B7883F00103DBB2002B01D00A4B65
:1094E00005E07B6801211846FDF792FB0023184632
:1094F0000837BD4680BD00BF44170020028000F041
:10950000018000F048170020078000F080B582B08D
:1095100000AF78603960184B1B7883F00103DBB231
:10952000002B01D0154B23E07B68072B02D83B684A
:10953000002B01D1124B1BE0124A7B681B01134424
:109540000C331B7883F00103DBB2002B01D00E4BF0
:109550000EE07B681846FFF77BFE0346002B03D026
:109560003B6801221A7002E03B6800221A70002357
:1095700018460837BD4680BD44170020028000F021
:10958000018000F048170020078000F080B582B00D
:1095900000AF78603960154B1B7883F00103DBB2B4
:1095A000002B01D0124B1DE07B68072B02D83B68D3
:1095B000002B01D10F4B15E00F4A7B681B011344B0
:1095C0000C331B7883F00103DBB2002B01D00B4B73
:1095D00008E07B681846FDF703FC03461A463B6823
:1095E0001A60002318460837BD4680BD4417002086
:1095F000028000F0018000F048170020078000F092
:1096000080B586B000AF344B1B6DFB60324B5B6D99
:10961000FA681340FB60FB68002B00DAFEE70023CA
:109620007B6101233B614FE0FA683B691340002BEB
:1096300044D0294B03F5015310333A691A607B6912
:109640001B01264A1344BB60BB681B68002B35D046
:10965000BB689B685A1CBB689A60BB681B68BA6889
:109660009168BA685268786998470346002B14BF1E
:1096700001230023DBB283F00103DBB2FB71FB7932
:1096800003F00103FB71BB685B7B012B16D1FB79F7
:10969000002B13D0124A7B695B01134403F10802CB
:1096A00013796FF3410313710D4A7B695B01134416
:1096B00003F1180213796FF3410313717B690133CE
:1096C0007B613B695B003B617B69072BACD900BFC9
:1096D0001837BD4680BD00BF000004404817002079
:1096E000C817002090B58BB000AFBA607B6003460E
:1096F000FB730B46BB737A4B1B7883F00103DBB221
:10970000002B01D0774BE7E0BB68072B0FD8BB6B72
:10971000002B0CD0FB6B002B09D0BB6CB3F5006F9A
:1097200005DCFB7B012B04D13B6C002B01D16E4B84
:10973000D2E0BB681B016D4A13447B627B6A1B7BD2
:1097400083F00103DBB2002B01D0694BC4E007F1C9
:10975000100300221A605A609A60DA60BB685B01ED
:10976000644A13443B62BB7B002B1DD13B6A1A4603
:109770000023136053609360D3603A6A937843F098
:10978000100393703A6AD37843F03003D37097F89C
:10979000443083F00103DBB2002B22D03A6AD37845
:1097A00043F00303D3701CE03B6A1A4600231360A6
:1097B00053609360D3603A6A937843F010039370D8
:1097C0003A6AD37843F00303D37097F8443083F0B8
:1097D0000103DBB2002B04D03A6AD37843F03003A4
:1097E000D3707B683B61BB6C9BB2013B9BB2C3F304
:1097F0000A0399B23A6A138861F30E131380BA6BA5
:109800003B6A9A60FA6B3B6A5A6097F84C3003F0F7
:109810000303D9B23A6AD37861F38303D370FB7B35
:10982000012B3AD13A6A137B43F0010313733A6A6E
:10983000137B43F0020313733A6AD368042161F384
:109840009F03D3602B4ABB685B01134403F11002F2
:109850003B6A14460FCB84E80F00264ABB685B01C5
:10986000134403F1180253686FF0030161F39F037F
:1098700053603A6C1F49BB685B010B4414331A6098
:10988000BB7B012B09D1FA6B1A49BB685B010B4406
:1098900018331A603A6C3B6A5A603B6D002B07D153
:1098A000FB7B002B04D13A6A93786FF30413937017
:1098B0007B6A3A6D1A607B6A7A6D5A607B6A002215
:1098C0009A607B6AFA7B5A73BB6807F110013A6AA7
:1098D0001846FDF7F5F9002318462C37BD4690BD14
:1098E00044170020028000F0018000F0481700209B
:1098F000078000F0C817002080B483B000AF034693
:10990000FB7197F90730002B0BDBFB7903F01F028B
:10991000074997F907305B09012000FA02F241F884
:10992000232000BF0C37BD465DF8047B704700BFA5
:1099300000E100E080B483B000AF0346FB7197F90B
:109940000730002B0CDBFB7903F01F02074997F966
:1099500007305B09012000FA02F2603341F823204E
:1099600000BF0C37BD465DF8047B704700E100E0A6
:1099700080B485B000AF78607B68FB60FB6893FAC9
:10998000A3F3BB60BB68B3FA83F3DBB218461437AA
:10999000BD465DF8047B704780B483B000AF78604B
:1099A000054B03F5105320337A681A6000BF0C375B
:1099B000BD465DF8047B704700C0034080B483B0AF
:1099C00000AF074BD3F824347B60054BD3F8202439
:1099D0007B68134018460C37BD465DF8047B704722
:1099E00000C0034080B500AF1920FCF7A5FE034678
:1099F000002B05D01920FFF79DFF1920FFF77CFFF2
:109A00001A20FCF799FE0346002B05D01A20FFF719
:109A100091FF1A20FFF770FF00BF80BD80B584B0B2
:109A200000AF03463960FB71FCF70EFEF860FB796E
:109A300005493A6841F82320F868FCF719FE00BF91
:109A40001037BD4680BD00BFC818002080B584B067
:109A500000AF786018E07868FFF78AFFF8600122AD
:109A6000FB6802FA03F3DB437A6813407B600A4A1F
:109A7000FB6852F82330BB60BB68002B04D0FB6846
:109A8000DAB2BB68104698477B68002BE3D100BF71
:109A90001037BD4680BD00BFC818002080B582B019
:109AA00000AFFFF78BFF034603F055337B60786808
:109AB000FFF772FF7868FFF7C9FF00BF0837BD46A0
:109AC00080BD80B582B000AFFFF778FF034603F09A
:109AD000AA337B607868FFF75FFF7868FFF7B6FF0F
