:1040000000100020054400000144000001440000AD
:10401000916B0000014400000144000001440000D5
:10402000014400000144000001440000014400007C
:10403000014400000144000001440000014400006C
:10404000014400000144000001440000014400005C
:10405000014400000144000001440000014400004C
:10406000014400000144000081710000CD7C00008B
:10407000014400000144000001440000014400002C
:10408000014400000144000001440000014400001C
:10409000014400007949000001440000014400008F
:1040A00001440000794A0000514A00000144000028
:1040B000014400000144000001440000911001008F
:1040C000311001002D100100910701008D10010039
:1040D00035100100551001003910010001F60000F3
:1040E000CD10010001440000014400000144000023
:1040F00001440000014400000144000001440000AC
:10410000014400000144000001440000014400009B
:10411000014400000144000001440000014400008B
:10412000014400000144000001440000014400007B
:104130000144000010B5054C237833B9044B13B18A
:10414000044800E000BF0123237010BDB01300201D
:10415000000000002438010008B5034B1BB10349DF
:10416000034800E000BF08BD00000000B4130020B9
:1041700024380100154B002B08BF134B9D46A3F5B7
:10418000803A00218B460F461348144A121A0DF04C
:104190002AFA0F4B002B00D098470E4B002B00D073
:1041A00098470020002104000D000D48002802D08F
:1041B0000C4800E000BF0DF0BFF92000290000F01E
:1041C0003DF80DF093F900BF00000800001000203A
:1041D0000000000000000000B01300208028002034
:1041E000000000000000000008B503F0B1FF054B1F
:1041F000186028B9044B054A4E2105480DF058F9BE
:1042000008BD00BFCC1300208628010070280100E3
:1042100090280100014B186807F03CB8CC1300202F
:104220007047000010B5044C206804F04AF820687C
:10423000BDE8104003F0F8BCCC13002008B502F034
:10424000BCFFFFF7EDFF02F0C5FFFFF7EBFFFAE75A
:1042500000F0C5B808B50421002001F089FC072151
:10426000084601F085FC0721082001F081FC0721A8
:104270001C2001F07DFC0721242001F079FC07219E
:10428000252001F075FC002008BD000007B501A83D
:1042900002F01AF9264B9B6DDB0318D4254A1368EC
:1042A00023F4FF0323F4FE4343F4BC1343F4A0635D
:1042B000136052F8043C23F4704343F4404342F843
:1042C000043C52F8043C43F4E06342F8043C9DF89B
:1042D0000530012B0FD19DF8043063B94FF0005326
:1042E0001B68154B1B68154B1B68154B1B68154B42
:1042F0001B68154B1B68154AD2F8803043F0030346
:10430000C2F8803002F074FB00F079F802F020FB74
:1043100002F026FB02F052FBFFF79CFF02F007FBC6
:1043200000F066F800F0BCFB03B05DF804FB00BFD2
:1043300000C0004034C00040004000200080002049
:1043400000C000200000012000400120008000404B
:1043500000F02CB808B502F0CDFC03F02BFEBDE850
:10436000084002F075BB08B502F0A6FA02F0B0FAF8
:1043700002F0CEFABDE8084003F04CBC00F004B8EF
:10438000704770477047704708B5FFF72DFFBDE8CD
:104390000840FFF73FBF000018B1034B1860002032
:1043A00070472520704700BFD013002010B5054C82
:1043B0000549206800F06EFE2068BDE81040FFF758
:1043C000EBBF00BF2410002000100020032108B51F
:1043D00008460123042201F0C1FE002008BD03218C
:1043E00008B508460023042201F0B8FE002008BDED
:1043F00008B5FFF72DFFBDE80840FFF7E7BF70479E
:10440000FEE7000008B500F013F8064A064B07491E
:104410008B4201D3FFF7AEFE52F8040F43F8040BB2
:10442000F6E700BF2838010000100020B01300207C
:10443000044B054A9A60D3F8882042F47002C3F80E
:104440008820704700ED00E000400000014B186834
:10445000704700BF2C110020014B1860704700BF4F
:104460002C110020084B1B6F03F00703022B04D014
:10447000032B05D0012B05D0FEE7044B18687047CD
:10448000034BFBE703487047008000402C110020DD
:1044900030110020002D310108B5FFF7E3FF054B77
:1044A0001B6FC3F301330133B0FBF3F0024B186011
:1044B00008BD00BF00800040281100200048704760
:1044C00000B4C404014B1868704700BF30110020CD
:1044D000054B1860054B1B6F03F00703032B01D13D
:1044E000FFF7DABF704700BF3011002000800040A6
:1044F0000020704700487047002D3101174B986825
:10450000C0F304400C2826D8DFE800F00925252553
:104510002525071B1D251F212300114870479B6877
:1045200003F04073B3F1807F07D0B3F1007F06D072
:104530000C4A002B08BF104670470B4870470B48C9
:1045400070470B4870470B4870470B4870470B4843
:1045500070470B4870470020704700BF0040014A79
:10456000405DC60000093D0080841E0040420F00EF
:104570000024F400C0EA210180BA8C010048E8015F
:10458000005A62024FF4004070474FF47A7070474F
:10459000014B1868704700BF34110020054A0649D6
:1045A0001368184488428CBF4FF0FF3310601846E0
:1045B000704700BF38110020008001202DE9F04F26
:1045C0009B46584B85B01B78064689461546109F7A
:1045D0009DF844A0DDF85080002B00F09280072A5F
:1045E00000F291800E9B002B00F08D800F9B002B22
:1045F00000F08980129BB3F5006F00F384800128DE
:1046000001D1002F7FD0484B03EB05131B7B002B00
:104610007BD0464C1022002168460CF0E4FF04EBEE
:1046200045141022B9F1000F5CD1494620460CF028
:10463000DAFFA37843F01003A370E37843F030036C
:10464000E370BAF1000F03D1DBB243F00303E37070
:1046500036496A01129B885A013B63F30E100E9B88
:1046600001EB020C8852CCF808300F9B9DF84C10DF
:10467000CCF804309CF80330012E61F38303CDF8AD
:1046800000B08CF8033042D113230CF1100ECCF89B
:104690000C309CE80F008EE80F006FF00301DCF88F
:1046A0001C20B9F1010F61F39F02CCF81C20CCF85B
:1046B000147004D10F9BCCF80470CCF8183000278C
:1046C00019492A018B1841F80280159A28465A6028
:1046D0009F605E732246694601F0BCFD384605B016
:1046E000BDE8F08F002120460CF07DFF1023A37061
:1046F0000323E370BAF1000FAAD1DBB243F0300319
:10470000A5E70B48EBE70B48E9E70B48E7E7B8F10B
:10471000000FD4D19CF8023068F304138CF80230F7
:10472000CDE700BF54150020D413002054140020FE
:10473000028000F0018000F0078000F038B5104BD7
:1047400005461B78BBB1C0B101F04DFC00230D49FB
:1047500001EB0312147B3CB92B600123146013732B
:1047600001F047FC204638BD0133082BF0D101F0A1
:1047700040FC0548F7E70548F5E70548F3E700BFC3
:1047800054150020D4130020048000F0028000F0B3
:10479000018000F0154B13B51868002301908DF8C7
:1047A000043001F020FC124B1C7824B101F021FCF4
:1047B000104802B010BD01221A7001F01AFC0E4B15
:1047C00001A81C731C7783F82C4083F83C4083F8C5
:1047D0004C4083F85C4083F86C4083F87C400823AD
:1047E0008DF8073001F00CFD2046E2E79928010022
:1047F00054150020038000F0D413002010B588B0B9
:104800000E9C009207940D9C024606949DF8304041
:1048100005940B9C04949DF8284003940024CDE952
:10482000013420460B462146FFF7C8FE08B010BDF4
:1048300010B588B00E9C009207940D9C0246069419
:104840009DF8304005940B9C04949DF828400394F7
:104850000024CDE9013420460B460121FFF7AEFECE
:1048600008B010BD08B50A4B1B785BB107280BD800
:10487000084B03EB00131B7B43B1002101F0B0FC9C
:10488000002008BD0448FCE70448FAE70448F8E7BC
:1048900054150020D4130020028000F0018000F0A5
:1048A000078000F008B50A4B1B785BB107280BD8CE
:1048B000084B03EB00131B7B43B1012101F090FC7B
:1048C000002008BD0448FCE70448FAE70448F8E77C
:1048D00054150020D4130020028000F0018000F065
:1048E000078000F00D4B1B7893B1072812D889B1CF
:1048F0000B4B03EB00131B7B73B10A4BDA6A0123EA
:1049000003FA00F010401ABF00200B7008707047C7
:104910000548704705487047054870475415002002
:10492000D413002000000440028000F0018000F059
:10493000078000F00B4B10B51B780C4663B10728BD
:104940000CD859B1084B03EB00131B7B43B101F0AA
:10495000D1FC2060002010BD0448FCE70448FAE7C1
:104960000448F8E754150020D4130020028000F01A
:10497000018000F0078000F02DE9F843174B1F6D10
:104980005B6D1F4000D5FEE701260025144CDFF8C3
:104990005480DFF85490374217D02368C8F800607D
:1049A0009BB1A16862680131A16028469847637B8A
:1049B000012B0AD148B909EB4513197B1A7F60F323
:1049C000410160F3410219731A770135082D4FEA4E
:1049D000460604F11004DED1BDE8F883000004406F
:1049E000D4130020502004405414002070B5044615
:1049F0000125084E04B970BD94FAA4F0B0FA80F015
:104A000005FA00F324EA030456F82030002BF1D015
:104A10009847EFE7581500204FF00072044BC3F899
:104A200080211A604FF08062C3F880211A607047BD
:104A300000E100E038B504460D4601F0D4FA034B1E
:104A400043F82450BDE8384001F0D3BA581500208F
:104A5000084BD3F82404D3F82024104042F220421B
:104A600020F42A5020F02A004004400C9850FFF710
:104A7000BDBF00BF00C00340084BD3F82404D3F8E7
:104A80002024104042F2204220F4AA4020F0550099
:104A90000004000C9850FFF7A9BF00BF00C00340FE
:104AA000024B1968024B186807F0D8B94011002072
:104AB0003C1100207047000070B594002246054666
:104AC0000E460DF0C5FE431C02D018B1064800E0AA
:104AD000064870BD2246314628460CF051FD00289C
:104AE000034808BF0020F4E724E000F021E000F0D4
:104AF00010E000F013B5044601A801F0E5FC9DF8B4
:104B00000630012223804FF4807300206380054B20
:104B10009B680A3303F01F0302FA03F3636002B0D9
:104B200010BD00BF0080E00F01F00EBC08B501F021
:104B3000FFFB002008BD10B5044644EA010313F052
:104B40000303084609D1934201D1002010BD54F857
:104B5000231040F823100133F5E7920021460CF0B2
:104B60001EFDF2E710B504460DF07AFE431C02D09C
:104B700018B10C4800E00C4810BD0C4B20469B6857
:104B80000A3303F01F020123934023F0030323445D
:104B9000984201D10020EFE750F8042B0132F7D002
:104BA0000348E9E724E000F021E000F00080E00F96
:104BB0000EE000F008B501F00FFA014B186008BDD7
:104BC000F8270020014B186801F00ABAF8270020E6
:104BD0000A460139014401F08BBF042203685A617F
:104BE0009A699207FCD541F2AC52102103795B011E
:104BF00003F1804303F57033995070470122036835
:104C00005A619A69D207FCD541F2AC52042103796A
:104C10005B0103F1804303F5703399507047000046
:104C200038B141B1013AB2F5006F044838BF0020F5
:104C30007047034870470148704700BF037000F099
:104C4000027000F038B504460D4601F0CCF9A28898
:104C500092B222B92A6001F0CCF9064838BD14227C
:104C6000638802FB034308332B6001F0C2F9002084
:104C7000F4E700BF0B7000F038B504460D4601F0B4
:104C8000B2F9A3889BB223B92B6001F0B2F90C48AA
:104C900038BD14226388E18802FB034308332B608C
:104CA00063885A1C92FBF1F301FB13239BB26380D0
:104CB000A388013B9BB2A38001F09BF90020E7E7AA
:104CC0000B7000F02DE9F04104461746884601F0CC
:104CD0008AF9A388E28805469A4206D800233B60F9
:104CE00001F087F91148BDE8F0811426208832468A
:104CF00006FB0040414608300CF051FC2288238816
:104D000006FB0242E18808323A605A1C92FBF1F33A
:104D100001FB13239BB22380A388284601339BB257
:104D2000A38001F066F90020DDE700BF0A7000F003
:104D300090F83130022B0BD13022437F90F82100C4
:104D40005A43044B9B5823FA00F000F001007047CF
:104D50000020704714C00340002313B51C4A52F8CA
:104D6000234094F8211081420ED00133042BF6D158
:104D700002B010BD0028FBD19DF80730002BF7D002
:104D8000A068FFF76FFDF3E794F83130022BEFD105
:104D90002046FFF7CDFF637E2076022BE8D194F802
:104DA0002E3003F0FF02002BE2D102A901F8012D01
:104DB000A068FFF797FD237E1BB194F82F30002BDE
:104DC000D8D00023A06884F82F30FFF76BFDCFE721
:104DD000D81B002030B5012490F8325087B080F8FD
:104DE0002C4095B9426B036822444263094A0490FF
:104DF000CDE902524A682433CDE900420A6841698C
:104E0000C068FFF715FD07B030BD002380F82C30D7
:104E1000F9E700BFB153000030B5012490F83250DB
:104E200087B080F82D4095B9436B026823444363F3
:104E3000094B0490CDE902534B683C32CDE9004365
:104E40000B6801698068FFF7D9FC07B030BD00230B
:104E500080F82D30F9E700BF5D4E0000F7B514462D
:104E600001A9906AFFF7EEFE636B013B6363154B8C
:104E7000984220D00025019B1D619D6001F0B3F890
:104E8000019A0746D66826B1D2E900232946204672
:104E9000B04701A9A06AFFF7EFFEA06A83889BB222
:104EA00063B101A9FFF7CEFE01992046FFF7B4FFD9
:104EB000384601F09EF8012003B0F0BD84F82D3093
:104EC000F6E700BF0B7000F02DE9F3419846002390
:104ED0000546406A0E4684881746A4B2CDE90033E1
:104EE0003CB16946FFF7AEFE01A90446E868FFF74A
:104EF00021FD009969B164B94868019BC01A386006
:104F0000C8F800300B6833602B68986902B0BDE8C0
:104F1000F0810021C8F8001039603160F4E72DE914
:104F2000F04104460F461546FFF77AFE064678BB69
:104F3000152001F06FF88046A26A93889BB213B1E6
:104F400094F82E303BB323689B6913F0020802D11A
:104F50002046FFF742FE012384F8303094F83230C7
:104F600033B93D44AF4220681BD183699B06FCD511
:104F7000B8F1000F0CD142F2AC52102123795B0141
:104F800003F1804303F570339950082223685A6176
:104F90003046BDE8F081B8F1000FCED0FFF7ECFC51
:104FA000CAE717F8011B01F0ADFBDBE710B50446BB
:104FB00080B190F82E302BB9FFF7BAFE10B9A06877
:104FC000FFF750FC002094F82E300133DBB284F858
:104FD0002E3010BD0048FCE7027000F010B504460A
:104FE000A0B190F82E309BB190F82E30012B05D156
:104FF000FFF79EFE10B9A068FFF754FC002094F85C
:105000002E30013BDBB284F82E3010BD0148FCE7A6
:105010000148FAE7027000F0057000F037B590F82B
:1050200031500446022D1ED1012190F82220457EE8
:10503000837F01FA02F23020154925B900FB0313E2
:1050400042F2100105E0012D07D100FB031341F2EC
:1050500010015A50002003B030BD247E00FB031322
:10506000002CF4D1ECE7012DF4D1037E73B91123A8
:105070008DF80730FFF79AFF2A460DF10701204609
:10508000FFF74DFF2046FFF7A9FFE3E71323EFE704
:1050900000C00340F0B504468BB0A14F03AE0D46EF
:1050A0000FCF0FC697E8070086E807001CB99D4C94
:1050B00020460BB0F0BD0DB99B4CF9E7382200211A
:1050C00020460CF090FA0023984963630A78984BC5
:1050D0002AB9C3E90022C3E9022201220A70002290
:1050E00053F822108C420AD00132042AF8D100224F
:1050F00053F82210002940F0CD8043F822402B7D48
:10510000286884F831300023206084F832302B7B0B
:105110002371884B984240F0C280212384F82330C9
:10512000854B23614FF4802300266361D5E9072373
:10513000626216805680968084F82C60A3621E807E
:105140005E809E806B6803A90593EB8984F82D60CF
:10515000ADF81C302B8A84F82F60ADF81A30AB7C88
:105160008DF80C608DF81830EB7C8DF81E3005231F
:105170008DF8193001F04EFA14212A7B6F4B287AF2
:1051800003EB4217C7F8AC15A97A2E3240EA014C5E
:1051900003EB4213C3F804C06A7AEB7A42EA034C89
:1051A000C7F8BCC5E17784F820306B7DE0762277C4
:1051B0006377AB7D042284F82130EB7DA3772B7ECF
:1051C00084F82230012300F0C9FF0123022294F861
:1051D0002010207F00F0C2FF94F83130022B75D1EF
:1051E0003346012294F82110607F00F0B7FF334668
:1051F000042294F82210A07F00F0B0FF012394F85D
:105200002120607F1146CDE9003300F04DFF00F012
:10521000EAFE2E7D0746032E69D141F2AC520221EF
:105220002B7B04205B0103F1804303F5703399501D
:1052300041F25C0229688850297EEA7D42EA0142F7
:1052400041F2B8515A50A97D6A7D42EA014241F2C9
:10525000B4515A504FF0FF3242F248032868C2500E
:105260002B7D032B0CBF0521042101F08DF94FF498
:1052700040622B685A61FFF78DFA002104F10800A3
:10528000FFF75CFA0146002842D02D4C384600F06A
:10529000B0FE0DE70132042A7FF42AAF07E7294B5D
:1052A000984207D1222384F82330274B23614FF4FF
:1052B000A02339E7254B98427FF4FEAE232384F8E0
:1052C0002330234B23614FF4C0232DE7032B9ED1C2
:1052D000334694F82110607F012200F03FFF3346EF
:1052E000042294F82210A07F00F038FF8FE7022EEE
:1052F000B0D194F821001749FFF79CFBFFF78CFB16
:1053000000236676A37623762046FFF787FEA1E783
:1053100004F10C00FFF712FA04460028B6D0B4E7F7
:10532000C4280100027000F0037000F0E81B0020A8
:10533000D81B0020008005400200040000C003408C
:105340000E7000F000C0054002000500000006409D
:1053500002000600594D0000F0B587B0044616461D
:10536000FFF75EFC0546E8B90493104BCDE9011642
:105370006A4601A9606A03960593FFF7A3FC0546F8
:1053800080B994F82C306BB92046FFF737FC0099B0
:10539000FFF720FD94F83130032B03D0257620460B
:1053A000FFF73CFE284607B0F0BD00BF017000F0DB
:1053B00073B5144601A9506AFFF744FC636B013BC7
:1053C00063632F4B984230D094F83200019B002841
:1053D00039D12268916C11F4007129D02949986063
:1053E000196142F248034FF40071D15000F0FBFD07
:1053F00001990646CD6835B14A688B682046D31AB4
:105400000A680969A84701A9606AFFF735FC606A64
:105410008588ADB2DDB101A9FFF714FC01992046E2
:10542000FFF7D8FC304600F0E4FD012002B070BD6B
:10543000906CC00507D51448996018614FF48071CD
:1054400042F24803D1E700221A619A60CEE70123B5
:1054500020462376FFF7E2FD94F8313084F82C5093
:10546000032BDFD042F2AC52042123795B0103F11C
:10547000804303F570339950022223685A61D1E7C3
:105480000B7000F00D7000F00C7000F0F0B587B0FC
:1054900004461646FFF7C4FB054638BB0493154B7C
:1054A000039605932368CDE901169B699B0702D4F7
:1054B0002046FFF792FB6A4601A9A06AFFF702FCAB
:1054C000054698B994F82D3083B900F08CFDA36A95
:1054D00006469B889BB233B100992046FFF79CFC9F
:1054E000012384F83030304600F083FD284607B0B1
:1054F000F0BD00BF017000F02F4B984245D017D887
:105500002E4B984238D007D82D4B984234D02D4B93
:10551000984231D0002070472B4B98422FD02B4B14
:1055200098422FD02A4B9842F4D12A4B586E70479C
:10553000294B984234D00FD8284B984228D0284B7A
:10554000984229D0A3F53703A3F5D8539842E1D167
:10555000204BD3F880007047224B984224D003F5AB
:10556000740303F51053984222D01F4B9842D1D1B7
:10557000184BD3F890007047164B986D7047154B39
:10558000186F7047134B586F7047124B986F7047E6
:10559000104BD3F8840070470E4BD3F88800704747
:1055A0000C4BD3F88C0070470A4BD3F8940070472B
:1055B000084BD3F898007047C0EA210100093D006C
:1055C00040420F0080841E00405DC6000024F400AD
:1055D000C0CF6A000080E00F006CDC020048E801E8
:1055E00080D543020090D003007E560338B5124B9D
:1055F0000546D3F820310C4603F00703013B032B8B
:1056000017D8DFE803F0020A0E12FEF71FFF04238B
:1056100005B1286004B1237038BDFEF753FF0323A2
:10562000F6E7FEF76BFF0523F2E7FEF763FF0223C1
:10563000EEE700231846EBE70080004037B50C4644
:105640000021114B0191D3F88031054603F003038B
:10565000022B0ED0032B11D0012B03D101A8FFF791
:10566000C5FF0D210DB1019B2B6004B1217003B06A
:1056700030BDFEF743FF05210190F3E7FEF73AFF47
:1056800002210190EEE700BF0080004038B5104BCA
:105690000546D3F840310C4603F00303022B0BD030
:1056A000032B0DD0012B0FD1FEF76CFF082305B1A2
:1056B000286004B1237038BDFEF76AFF0723F6E7C0
:1056C000FEF763FF0923F2E700231846EFE700BF68
:1056D0000080004038B5104B0546D3F860310C46C9
:1056E00003F00303022B0BD0032B0DD0012B0FD1A2
:1056F000FEF748FF082305B1286004B1237038BDC8
:10570000FEF746FF0723F6E7FEF73FFF0923F2E720
:1057100000231846EFE700BF0080004038B5134B68
:105720000546D3F800320C4603F00703013B032B78
:1057300018D8DFE803F0020A0E12FEF723FF082351
:1057400005B1286004B1237038BDFEF721FF07239F
:10575000F6E7FEF71AFF0923F2E7FEF79DFE0C239A
:10576000800AEDE700231846EAE700BF008000400A
:1057700038B5134B0546D3F808320C4603F007033F
:10578000013B032B18D8DFE803F0020A0E12FEF7E4
:10579000F9FE082305B1286004B1237038BDFEF777
:1057A000F7FE0723F6E7FEF7F0FE0923F2E7FEF720
:1057B00073FE0C23800AEDE700231846EAE700BFDA
:1057C0000080004038B5104B0546D3F840320C46F7
:1057D00003F00303022B0BD0032B0DD0012B0FD1B1
:1057E000FEF7D0FE082305B1286004B1237038BD50
:1057F000FEF7CEFE0723F6E7FEF7C7FE0923F2E722
:1058000000231846EFE700BF0080004038B5104B7A
:105810000546D3F800310C4603F00303022B0BD0EE
:10582000032B0DD0012B0FD1FEF74CFE032305B146
:10583000286004B1237038BDFEF7AAFE0723F6E7FF
:10584000FEF756FE0623F2E701230020EFE700BF34
:105850000080004041F671320F4B10B5D969DA6310
:105860009A680E4C22F44012A04288BF42F4801283
:105870009A600B4A0B4CD2F81832A04223F0020374
:1058800088BF43F0020301F48031C2F8183211B12D
:105890000022014BDA6310BD00000340C017530221
:1058A00000C0074080F0FA0208B5FEF707FEBDE829
:1058B0000840FFF7CFBF000002280CD007D801280E
:1058C00014D10B4B186FC0F301300130704703281F
:1058D00007D00F28F4E7064BD3F89000C0F304601C
:1058E000F3E7034B186FC0F38020EEE70020ECE7EE
:1058F00000800040002307B50193252817D8DFE872
:1059000000F0131A1D262B353A3F44494E53586672
:10591000161A3F1616441A262B26351A3F26663AC3
:105920003A3A3A262626494EFEF79CFD0190019808
:1059300003B05DF804FBFEF7AFFDF7E7FEF792FD5D
:1059400002460220FFF7B8FFB2FBF0F0EEE7FEF7E9
:10595000A3FD02460320F5E7FEF79EFD0246032065
:10596000FFF7AAFFB2FBF0F04008DFE7002101A833
:10597000FFF764FEDBE7002101A8FFF737FED6E75B
:10598000002101A8FFF782FED1E7002101A8FFF75F
:10599000A1FECCE7002101A8FFF7C0FEC7E7002168
:1059A00001A8FFF7E5FEC2E7002101A8FFF72EFFDF
:1059B000BDE7094BD3F8803003F00303022BBAD0C4
:1059C000032B01D00020B1E7FEF798FDAEE70021E0
:1059D00001A8FFF7F7FEAAE70080004002280AD0DE
:1059E00002D8012804D0704703280FD00F2815D102
:1059F000084600F02BB80A4A0139D2F8903023F05B
:105A0000F85343EA0161C2F890107047044A013923
:105A1000136F23F4806343EA81211167704700BF4D
:105A20000080004002210320FFF7D8BF08B5012005
:105A3000FFF760FFBDE80840034988428CBF0221A0
:105A400001210320FFF7CABF80F0FA0210B5044617
:105A5000FFF72AFFFFF7E6FF074A013C106F20F42B
:105A6000405040EA04301067FEF716FDFFF7F2FEE3
:105A7000BDE81040FFF7DABF00800040002307B503
:105A80008DF80730252822D8DFE800F013212121E6
:105A9000212C32383E444A50566921213821213E7A
:105AA000212121212C213821693232323221212138
:105AB000444A2E4B1B6F03F00703013B032B06D810
:105AC000DFE803F00E020A0C04238DF807309DF87E
:105AD000070003B05DF804FB0323F6E70623F4E7B1
:105AE0000223F2E70DF107010020FFF7A7FDEEE723
:105AF0000DF107010020FFF779FDE8E70DF107013F
:105B00000020FFF7C3FDE2E70DF107010020FFF7DA
:105B1000E1FDDCE70DF107010020FFF7FFFDD6E70F
:105B20000DF107010020FFF723FED0E70DF107017B
:105B30000020FFF76BFECAE70C4BD3F8803003F070
:105B40000303022B03D0032B05D00023BDE7FEF790
:105B5000A3FC0B23B9E7FEF7D1FC0523B5E70DF154
:105B600007010020FFF72EFEB1E700BF00800040D4
:105B700070B50C46252849D8DFE810F0260048000B
:105B80004800480048005C006D007E008F00A000C7
:105B9000B100C200D300E400480048007E00480085
:105BA00048008F0048004800480048005C0048005A
:105BB0007E004800E4006D006D006D006D0048003F
:105BC00048004800A000B1008B1E042B2FD8DFE84E
:105BD00003F02B1E032E280000250226FFF764FE8B
:105BE000FFF720FF604A136F23F007033343136767
:105BF000FEF752FCFFF72EFEFFF718FF35B9032C16
:105C000004D142F228030121584AD15070BD41F21B
:105C100028020121554B03269D6A9950C5F3400582
:105C2000DCE700250426D9E700250126D6E7002574
:105C30002E46D3E78C1EE4B20B2C8CBF00214C4BBC
:105C4000494A98BF195DD2F8803123F003030B4312
:105C5000C2F88031DAE78C1EE4B2032C8CBF00213D
:105C6000444B414A98BF195DD2F8203123F0070315
:105C70000B43C2F82031C9E7CC1FE4B2022C8CBF21
:105C800000213D4B384A98BF195DD2F8403123F0CE
:105C900003030B43C2F84031B8E7CC1FE4B2022C37
:105CA0008CBF0021354B304A98BF195DD2F8603166
:105CB00023F003030B43C2F86031A7E7CC1FE4B223
:105CC000052C8CBF00212E4B274A98BF195DD2F8B6
:105CD000003223F007030B43C2F8003296E7CC1FD3
:105CE000E4B2052C8CBF0021264B1F4A98BF195DDA
:105CF000D2F8083223F007030B43C2F8083285E7D5
:105D0000CC1EE4B2042C8CBF00211F4B164A98BF56
:105D1000195DD2F8003123F003030B43C2F80031C0
:105D200074E705290CD00B290CBF022100210E4A73
:105D3000D2F8803023F003030B43C2F8803065E7CC
:105D40000321F4E7CC1FE4B2022C8CBF00210F4BDF
:105D5000054A98BF195DD2F8403223F003030B4384
:105D6000C2F8403252E700BF0080004000C000404F
:105D7000E0280100EC280100F0280100F0280100D3
:105D8000F3280100F3280100F9280100F0280100A0
:105D900038B50546FFF7B0FB214B04465A68012A87
:105DA00005D142F204015A509A699207FCD10020B1
:105DB000FFF764FE042803D1FFF776FDFFF732FEFC
:105DC000184B24F040709D4220D0174B9D4220D0AC
:105DD000164BDA6812F0060FFBD1996898609A6842
:105DE00000F4F81002F4F812904215D12846FEF79C
:105DF00033FB0020FFF742FE04280FD1FEF74CFBD7
:105E0000FFF728FDBDE83840FFF710BE40F00070F6
:105E1000DEE740F08070DBE79960EAE738BD00BF5D
:105E200000C0014040420F0080841E00000001407D
:105E300070B504460020FFF721FE03287DD045F60B
:105E40000E03434A0221C2F8803041F22803D150A8
:105E500042F228030121D150916D11F48031FBD120
:105E6000637820781B0543EA0063A079657C0343CF
:105E7000E07843EA0043207943EA0033607943EA5B
:105E8000801313619369E07A03F000430343E079E0
:105E900043EA8063207A43EA0063607A43EA00437E
:105EA000A07A43EA00239361637B126A002B18BF38
:105EB0000821207B22F00D0243EA020343EA80031B
:105EC00041EA0301A27B224B4FEA42161962207C71
:105ED00034D1996AE27B21F0330141F00101314371
:105EE00041EA0211996219461A4A9E6D32EA060683
:105EF000FBD141F2280202269E508B6D5B00FCD440
:105F00000B69A27823F4700343EA02530B614FF04C
:105F1000004241F21803CA5018B942F22803022283
:105F2000CA5025B942F228030121094AD150A37C65
:105F30001BB1074B084AC3F8802070BD9A6A22F053
:105F400033022A43324342EA40029A62EFE700BF3B
:105F500000C0004003000140F1A7FFFFF0B54FF47F
:105F6000D156194B41788478C278057802275E6251
:105F700041F204064F299F5142F204064FF00107F7
:105F800028BF4F219F511E69F603FCD441EA052129
:105F900059611201417942EA04220A43017942EA35
:105FA00041029A60C2798179120142EA4112417A32
:105FB0000A43017A42EA41025A60827A12B16FF4CE
:105FC000D1525A62F0BD00BF00000240014B188060
:105FD000704700BF60110020EFF3108072B6704769
:105FE00000B962B67047EFF31180302383F3118854
:105FF000704780F311887047054A410900F01F037C
:1060000052F82100D840C04300F00100704700BFA3
:1060100000E100E010B50446EFF31083DB0733D452
:10602000FFF7EAFF00282ED1002CABBF04F160443B
:10603000164B04F5614404F00F04ACBF94F8002340
:106040001A5D1209EFF3118313B1B2EB131F1BD2C8
:106050000F4C6368C3F30803ABB1103BDBB259B21A
:106060000029B5BF03F00F0301F16043043B03F5C2
:106070006143B6BF1B1993F80003187E00098242E2
:1060800034BF0020012010BD0120FCE714ED00E02A
:1060900000ED00E04FF04022D36E017923F0300391
:1060A0000B43D36670470000072A2DE9F8430546E5
:1060B0000C46174698461ED803264FEA8209FFF77A
:1060C0008BFF1F4B05FA09F51A6806FA09F65540C9
:1060D000354055401D60FFF783FFFFF77DFF194BEB
:1060E00004F003041A6804FA09F45440344054409C
:1060F0001C60FFF775FF144B144A9DF82010B8F18F
:10610000000F14BF98469046012202FA07F7104A82
:106110000433002908BF1346C8F800701F6042F21C
:1061200020430C4A9DF82410D7500B4B02F5105217
:106130002432002908BF13461F60BDE8F88300BF62
:1061400000C4034008C4034010D4034010E40340DB
:1061500014E4034000C0034024D40340F0B54AB126
:10616000012530241D4E8D4004FB00640BB341F229
:106170001006A55130244443072904F1804404F556
:10618000703419D80F2765688E00B74025EA0705D7
:1061900002FA06F63543656052B9012202FA01F1AE
:1061A00030220E4C02FB0040A3B141F21003C1505B
:1061B000F0BD42F21006DCE70F2701F18045083DF3
:1061C000E668AD00AF4026EA070602FA05F535435A
:1061D000E560E1E742F21003E9E700BF00C00340D9
:1061E000054B064A00290CBF19461146012303FA44
:1061F00000F00860704700BF401004404020044099
:1062000030B5047845788178C27801200F4B41EA97
:106210000541240658609C609961FF219962002124
:10622000996319644FF000414FF0FF30596542F215
:10623000500158504FF4001005491301DBB2C1F86A
:10624000800181F81533086030BD00BF00000440B4
:1062500000E100E02DE9F0410C4601264FF0300E40
:10626000C3B29E40204D23688F7A91F80B8094F83A
:106270000DC0097B45F82030A5F580450EFB005088
:106280004FEA085343EA074343EA4153C0F860C06A
:10629000C36542F2500322F003020267EE50FFF79B
:1062A000A2FE6B6D33436B65237A13B12B6C3343C2
:1062B0002B64637A13B1AB6B3343AB6342F21801C7
:1062C0002379A27942EA0342084B5A506179E27974
:1062D00042EA014241F218015A50054A16609E6492
:1062E000BDE8F041FFF785BE0040044000000440D7
:1062F00034200440F8B50125C3B29D400446FFF7A1
:1063000072FE3022094B02FB04341E6D5F6B646E1B
:10631000FFF76FFE3D4206D1C4F30A1008B93542BB
:1063200000D10130F8BD0020FCE700BF00000440B0
:1063300041F67132034B0121DA6342F20C029950AB
:10634000704700BF0000034041F67132044B012149
:10635000DA6342F20C0299500022DA63704700BF00
:10636000000003404FF40032014B1A60704700BF39
:10637000705000404FF04023D3F8940070474FF026
:1063800090435A6812B19A6A002AFAD17047000005
:10639000CB784A7810B55B010C7843EA82030A791E
:1063A000234343EA02130C22424302F19042136357
:1063B000012C02BF8A78024B43F8202010BD00BF99
:1063C000D080034008B54FF090435A6802B960B1DD
:1063D0005B680BB1FFF7D3FF4FF0904130B1012064
:1063E000074B1860FFF7CBFFC86008BDFFF7C7FF7A
:1063F0000223CB60FFF7C3FF0122024B1A60F4E7D0
:1064000004100048042000484FF090435B6870B5CA
:106410000BB1FFF7B4FF0121104B067919608378A7
:106420004578002BC37814BF02240024002B14BF2E
:10643000042200224379DB0043EA06132B43234363
:1064400013434FF090429360054B19600378002B83
:1064500014BF0B460223D36070BD00BF0420004868
:1064600004100048836813B9816070475B685A68FC
:10647000012AFBD159607047C369032B9FBF00EB12
:1064800083020133D160C3617047C369042B15D8FF
:106490004FF09842116CC902FCD504339B00136580
:1064A0000168103B116041680C30116050F8041C09
:1064B000034411604FF09842984200D1704750F861
:1064C000041B1160F8E70000054B5B69C3F38512FC
:1064D000827003F03F021B0B42700370704700BFD5
:1064E00000C007400D4B984208D1A3F50033C3F814
:1064F0008411C36D43F08003C3657047084B984215
:1065000004D1A3F51033C3F89411F2E7054B984278
:1065100004BFA3F52033C3F8A411EAE700800540C7
:1065200000C005400000064070B5054616461C46F2
:1065300019B90320FFF7DEF90146202C08D001D855
:10654000ECB170BD402C18D0602CFAD1042200E0D0
:10655000082206FB02F35A0802EB4112B2FBF3F2E7
:10656000084B203A03EAC202AB6823F06003AB6039
:10657000AB681C43AC60EA61E3E70622E9E710225E
:10658000E7E700BFF8FF7F00012241F20403C25099
:10659000CB43934003F00A034361416111B942F2D6
:1065A0000403C2507047000041F204030122C250AC
:1065B00040F6AA6341F20502436100238360C3658C
:1065C000C26042F2480210490361C361C364815052
:1065D0000E4A8365904206D00D49884203D001F5EA
:1065E000804188420BD19042036506D0084B984207
:1065F00003D003F58043984201D10023436542F262
:1066000004030122C2507047FFFF010000800540D3
:1066100000C0054038B50D460446FFF7C5FF41F2FE
:1066200004030122C250AB7C1BB1836843F080435A
:106630008360EB7C1BB1297D2046FFF753FF2A8A3C
:106640006B7B20461343EA891343E360D5E90112CB
:106650002B7BFFF769FF6B7D1BB1A36843F480338D
:10666000A360AB7DEA7D1B07120502F4E00203F094
:10667000E043297E1343A3658B1E012B1E4A1F4B4B
:1066800021D894421BD002F58042944219D002F5E1
:10669000804294420CBF02224FF0FF3203EB4213C0
:1066A000022041F2AC52032998500CBF41F25C0326
:1066B00042F25C030422E2502B78636138BD002271
:1066C000ECE70122EAE7944211D00D4A944210D03F
:1066D00002F5804294420CBF02224FF0FF3203EBDE
:1066E0004213022042F2AC5201299850DDE7002209
:1066F000F5E70122F3E700BF0080054000C003403A
:1067000000C0054083695B06FCD5C163704700008B
:1067100038B50446054D06F0E7F80FCC0FC594E8F0
:106720000F0085E80F00002038BD00BFEC1B0020E3
:1067300047F6FF739A42F0B55ED003295ED8304B1E
:10674000CE0013F8311098190129857819460DD11A
:10675000C3785B1B23B1416831F91310914202DC0D
:10676000E818C0B2F0BD013B1BB2F3E74068002857
:10677000F8D0B0F90030934204DBB0F90230934214
:10678000B8BF13468288FF2A19BFC8242827B0F94A
:106790000640B0F90870A4EB03040CBF01220022EC
:1067A00094FBF7F414448A19567824B2721EA2425C
:1067B000A8BF22464FF47A7700EBC201CC888968E3
:1067C000013213FB041112B221EAE17101F5FA71F1
:1067D000B242B1FBF7F104DA00EBC204A4888C42A8
:1067E000EAD200EBC20232F8040C884228BF084605
:1067F000A84238BF2846B4E7FF20B3E70020B1E73E
:10680000EC1B00200329F0B54DD8294800EBC10549
:1068100010F831106B6801290FD1A878E9789142FE
:1068200094BFC0EB0102C0EB0202091AD2B28A4245
:10683000C8BF002233F91200F0BDA3B3B3F90200C0
:106840008242F9DDE978B3F9004091422DD96978A7
:106850009D8897B2FF2D4FF0000514BF01F1FF3165
:106860000239C9B20433EEB2B1424FEAC50606D9C5
:1068700003EB060CBCF808C00135BC45F3D24FF45D
:106880007A714A433344B3F902505B68D21A022347
:1068900095FBF3F31A4492FBF5F2944205DB904228
:1068A000CADC10B2C8E70348C6E72046C4E700BF09
:1068B000EC1B00200080FFFF08B50448FFF728FF0D
:1068C000BDE80840012006F057B800BF883301003A
:1068D0007FB51422002101A80AF085FE02230B4A8D
:1068E0008DF80430029204228DF80D308DF81330AB
:1068F00005230DEB02014FF0FF308DF80E208DF8CF
:10690000143006F079F807B05DF804FB006A18004F
:10691000002307B5CDE90033012369464FF0FF306E
:106920008DF8023005F0BAFF03B05DF804FB4FF0BC
:10693000402213B50024536F684643F001035367A8
:1069400000948DF80440FFF7A5FB204602B010BD6F
:1069500008B50248FFF71CFA002008BD00B4C404C3
:1069600070B586B001AA1546114B03F11006144606
:1069700018685968083303C4B3422246F7D14FF66A
:10698000FF7219889B782180A3700A4B0A481B88E4
:10699000934208BF8C23DBB28DF80D308DF80E309A
:1069A000FDF796FD2846FFF743FA002006B070BDBC
:1069B000FE2801000001E00F00F049021FB50B4A5C
:1069C00001AB1068516803C31189927A19809A70DB
:1069D0003F2301A88DF80530FFF7C0FA6420FFF7C8
:1069E000F5FA002005B05DF804FB00BF1129010095
:1069F0006FF00402502110B50A480B4C12F0800FC2
:106A0000D3B21BBF03F00F03043BA3181B1802F102
:106A100001020CBF83F8001319763D2AEED1002045
:106A200010BD00BF00ED00E000E100E0BFF34F8FBC
:106A3000BFF36F8F054A536A23F480335362D2F851
:106A4000943023F00103C2F89430704700ED00E069
:106A500070B5FFF7EBFF1E4C1E481F4B844208BF6A
:106A60004FF08042196B1CBF20F01F02203A21F02A
:106A7000FF0141F0A001B2F1005F196309D3174D86
:106A8000174E296842F0010299600131DE601A61F7
:106A9000296084420CD01148124A016822F01F027A
:106AA00042F003029960DA600F4A01311A61016015
:106AB000BFF34F8FBFF36F8F05225A600B4A536AA3
:106AC00043F480335362BFF34F8FBFF36F8F70BDBA
:106AD000A81300200C12002090ED00E00C1C0020F8
:106AE00003000020C7130020E1FFFF3F00ED00E09E
:106AF00010B51446FFF79AFF1F2C194B1ED91A6BBD
:106B0000C40622F47F4242F4807218BF20F01F00B6
:106B1000144C1A6318BF2030CA0618BF21F01F0199
:106B2000226820F01F0021F01F019A6040F003004E
:106B300041F003010132D86019612260BFF34F8F29
:106B4000BFF36F8F05225A60074A536A43F48033BC
:106B50005362BFF34F8FBFF36F8F002010BD00BF94
:106B600090ED00E00C1C002000ED00E0BFF34F8F23
:106B70000549064BCA6802F4E0621343CB60BFF3D9
:106B80004F8F00BFFDE700BF00ED00E00400FA05F5
:106B900008B5FFF7EBFF08BD104A30B51368416137
:106BA0001546ABB91060836011E0091B9C68416118
:106BB0001A467CB123465C698C42F6D9002CF4D08D
:106BC00052B19060836013B15A69511A596130BD56
:106BD0000022F0E72346F4E72860F3E7281C0020B2
:106BE00010B500F065FA094B094A196831B113680C
:106BF000C41A4B69A34203D31B1B4B61106003E013
:106C0000C01A002310604B6110BD00BF281C00207B
:106C1000141C002038B50F4D02202B685C690E4B08
:106C20001B681C4400F078FA204600F049FA002363
:106C30000A492A680B70D088800702D501230B709F
:106C400038BD9268002AFBD050690344012BF2D969
:106C5000F6E700BF281C0020141C00201C1C00208C
:106C600070B59DF81450164605710025049A85608C
:106C7000BDF818500446C5800260C0E903360D46D1
:106C800029B961610BB11146984796B13546FFF7B6
:106C9000AAF90646FFF7A4FF29462046FFF77CFF26
:106CA000054B1B68A34201D1FFF7B4FF3046FFF745
:106CB000A0F9002070BD00BF281C002000210C4A54
:106CC00013687BB183420AD1836879B18B60836892
:106CD0001BB15A6941690A445A610020704719463C
:106CE0009B68EEE70028EFD0022070471360EEE7C4
:106CF000281C002070B5FFF776F9144E054634784D
:106D0000FCB9134B1C60134B1C60134B1C8000F030
:106D100095F9012000F000FA00F04CFA0F4B024602
:106D2000186020B92846FFF764F9232070BD234678
:106D30000B4840F2E7310AF031FA0A4B18600123A0
:106D400033702846FFF755F90020EFE7101C0020AC
:106D5000281C0020141C00201E1C0020241C0020C5
:106D600018FCFFFF181C00202DE9F0410546F8B182
:106D7000FFF739F90F4F0646FFF732FF2846D7F8DD
:106D80000080FFF79BFF044628B13046FFF731F93A
:106D90002046BDE8F081A8453B6803D123B1FFF749
:106DA00039FFF2E7002BF0D1022000F0C1F9ECE747
:106DB0002224EDE7281C002038B50C46054698B182
:106DC00091B100230B70FFF70EF90121074B1B68EF
:106DD0000BB122781AB1FFF70CF9002038BD9D42A3
:106DE0000CBF21709B68F3E72220F7E7281C0020E6
:106DF000F0B51F46002387B00D4616468DF81730B4
:106E00000446A0B10DF11701FFF7D6FF9DF817203A
:106E10007AB9BDF83430294602939DF830302046C7
:106E2000CDE900733346FFF71BFF07B0F0BD22200A
:106E3000FBE70320F9E7000070B5FFF7D4F806463A
:106E400000F036F9094B05461C880120A4B200F079
:106E500087F918B100F02CF9054601343046FFF7E8
:106E6000C8F80022214642EA050070BD1E1C002021
:106E70000A4B10B51B680C4683420CD3084B4FF4E9
:106E80007A7219680023A0FB01010AF087F901302A
:106E90002060002010BD2120FCE700BF181C00204E
:106EA000241C002000000000F8B516461BA3D3E9FF
:106EB00000238B4208BF82422AD3174B1A684FF433
:106EC0007A73A0FB034503FB0155C2B1531E13EABD
:106ED000020014D1B2FA82F2C2F11F02C2F12007FD
:106EE000A2F1200124FA02F305FA07F73B4325FA41
:106EF00001F10B4325FA02F2C6E90032F8BD002386
:106F0000204629460AF04AF9C6E900010020F5E7C3
:106F10002120F3E7AFF30080241C0020EFA7C64B2D
:106F200037894100C2072DE9F84F04460BD53F4A87
:106F3000138801339BB21380FFF752FE3C4B1B6852
:106F40000BB1FFF767FEA3076DD500F0B1F8394F1D
:106F500000263D688046451BFFF745F8B24683464C
:106F60003246334B1C6814B16369AB4214D9012E0D
:106F7000314B51D1D288022A4ED11E70002C4ED0F6
:106F80006369C7F800805D1B6561FFF743FE5846E3
:106F9000BDE8F84FFFF72DB823462A46C7F8008012
:106FA0005969914209D8187994F804C0521A844555
:106FB00088BF1C469B68002BF2D15846FFF719F892
:106FC000D4F814B0C4F814A0FFF70DF88146204699
:106FD000FFF774FE4846FFF70CF823694BB1FFF743
:106FE00002F8814621692046FFF7D6FD4846FFF7A3
:106FF00000F8E36813B121682046984700F058F87C
:10700000D844A5EB080581460544FEF7ECFF0136A0
:1070100083462246C846A4E700221A70AEE7022043
:1070200000F086F8B3E7BDE8F88F00BF1E1C002013
:10703000281C0020141C0020201C00201FB5002448
:10704000184B18689A88029053F8060FADF80C2078
:107050001B79009002A88DF804308DF808408DF857
:107060000C40FFF7D1F9694601208DF80040FFF789
:107070008FF94FF090431F219A6922F01F029A6105
:10708000094A11609A6A12F00802FBD11A620120C3
:10709000FFF798F94FF48062044BC3F880211A601F
:1070A00004B010BD1C2901001420004800E100E0DC
:1070B0004FF090439A6A1207FCD4186A7047000098
:1070C0004FF09042936A1907FCD4136A116C52690D
:1070D000120704D4CA1A022A01D899420ED1C21A40
:1070E000012A98BF981CB0F1FF3F28BF01304FF034
:1070F000904318649A6942F008029A61054A13782D
:107100003BB14FF09041CB6B43F00203CB630023C4
:10711000137070476211002082074FF0904200F018
:107120000103916948BF43F008030B439361704723
:10713000830700F001020AD50121084B42F0080242
:1071400019704FF09041CB6B23F00303CB634FF0EA
:1071500090418B6923EA02038B6170476211002022
:107160004FF0904301285B6904D0022805D1C3F396
:10717000C000704703F00100704700207047000016
:1071800010B5FEF730FF4FF0904304465B691A07D5
:10719000074A03F0010003F00D0348BF40F002006E
:1071A0001360FFF7BFFE2046BDE81040FEF721BF89
:1071B000142000481C20FEF79DBB08B5FDF766F8BB
:1071C000FDF7C6F8FDF7C6F8FDF7CDF8BDE80840B5
:1071D000FDF7D4B808B5FDF7D3F8FDF7D2F8FDF701
:1071E000D1F8BDE80840FDF7CEB800F02DBD000095
:1071F0001822002101480AF0F6B900BF341C002013
:1072000007B5FFF719FE6A46FFF74EFE28B1054B9A
:10721000054A4F2105480AF04BF9009803B05DF884
:1072200004FB00BF56290100272901006D29010038
:1072300030B50C46154685B01448FFF795FD144B44
:107240002C441C60FFF7DCFF201A0124114B00289E
:107250001C7003DC00F0F8FC05B030BD03A9FFF79B
:1072600007FE034628B16C210B4B0C4A0C480AF070
:107270001FF9CDE900040B4A03990448FFF7B8FD54
:107280000028E9D0044B054A7021EFE7341C0020A8
:107290002C1C0020301C0020562901003E29010032
:1072A0006D290100EB71000070B5094D06462B7881
:1072B0006BB1084B1C68FFF7A3FF201A002806DCFF
:1072C000002330462B70BDE8704001F037B970BD27
:1072D000301C00202C1C002008B50348FFF744FD9B
:1072E0000022024B1A7008BD341C0020301C002004
:1072F000FFF7F2BFF7B50D460646A0B100242746BA
:10730000A54201D8002009E02A1B01AB92B2311935
:107310000020019700F034FE10B1012003B0F0BD51
:10732000019B1C44ECE70720F8E7000008B5FFF7D5
:1073300021F8034B1860BDE80840FFF713B800BF01
:107340004C1C0020BFF34F8F0549064BCA6802F45E
:10735000E0621343CB60BFF34F8F00BFFDE700BF78
:1073600000ED00E00400FA050E4B1B68D9070FD4AE
:107370005A060FD413F0180F0ED199070ED49A069F
:107380000ED440F2847213420CBF072006207047CF
:107390000020704702207047082070470120704786
:1073A000032070474C1C002070470000054B1A79E1
:1073B000824205D85A7982422CBF18460020704775
:1073C00000207047541C002038B50C468A88896814
:1073D00005460AF0E4F8E16841B1A0886288121A13
:1073E00092B22844BDE838400AF0D9B838BD000050
:1073F00037B50546154B164C186829689B880090D0
:10740000ADF80430206861B1002205F033FA2B7921
:1074100083420ED040F2DF110E4B0F4A0F480AF0A4
:1074200047F805F0F1FA20B10D4B0B4A4FF4F47117
:10743000F4E76946206805F041FA20B1084B064A96
:107440004FF4F671EAE703B030BD00BFE429010054
:1074500054280020BF2A0100042A0100E82A010064
:107460005C2B010038B50D460446FEF7BCFD064B0B
:107470001A882DB114431C80BDE83840FEF7B9BD11
:1074800022EA0404F7E700BF501C0020427A70B5DE
:1074900090F90A60C57A046832B10022074B5E7524
:1074A0009D759C60DA6070BD054BC3E90242DA7DD0
:1074B0005E7561F300029D75DA75F4E7681C0020C3
:1074C000881C002038B51D460B4B14460A46014661
:1074D000186805F06EFA08B1002038BD6088A3680E
:1074E000421C92B22A801B789342F5D103387B2844
:1074F0008CBF00200120F0E7542800202DE9F04344
:107500001B4C8846237885B0914603F0FF0123BBCE
:107510000122184B184F18703868227004F09CFF35
:107520005FFA88F0FFF742FF0646C0B1134D2B68A3
:10753000834202D0FFF75CFF2E60FF238DF80430FA
:107540000F4B4A46CDE90239414601AB386804F099
:10755000BFFF30B905B0BDE8F0830520FAE707208A
:10756000F8E77F22074B01201A7002232370F1E70E
:10757000621C0020601C0020542800205C1C00209D
:1075800020A10700611C002008B50E4B1B889B073B
:1075900013D501280C4B11D10F22002120201A7085
:1075A000FFF760FF00210220FFF75CFF074B186820
:1075B00004F056FF0022064B1A7008BD0B221A7009
:1075C000F0E700BF501C0020AA1C00205428002017
:1075D000A91C00200B4B2DE91748986CDC6C4FF070
:1075E000000B23464BEA0002CDE900234B1E02AA02
:1075F000073112F8010D03F8010F8B42F9D103B0E6
:10760000BDE810880080E00F10B50C46084600F079
:10761000D3FC074B00222146186805F0FBF930B176
:10762000044B054A4FF43971044809F041FF10BD7D
:10763000542800205C2B0100182A0100E82A0100D0
:1076400008B5074B0022186805F0F4F930B1054B76
:10765000054A40F2FA21054809F02AFF08BD00BF9B
:10766000542800205C2B01002C2A0100E82A01008C
:1076700008B5074B0022186805F0D4F930B1054B66
:10768000054A40F20531054809F012FF08BD00BF68
:10769000542800205C2B01004A2A0100E82A01003E
:1076A000034B1A780AB901221A700020704700BFF4
:1076B000A81C0020034B1A780AB100221A7000207F
:1076C000704700BFA81C002038B50C4D2A78032A4B
:1076D00012D08AB10A4C206804F0BCFE012804D004
:1076E00001220021206804F0B7FE206804F0B8FEF3
:1076F000012300202B7038BD0D20FCE7A81C0020C2
:10770000542800202DE9FF411A4B0C461A78984660
:107710005AB30846FFF74AFE054640B3164F174EC8
:107720003B68834208D001220021306804F094FEB7
:107730002846FFF75DFE3D600023CDE9013303934A
:10774000FF2301AA214630688DF8043004F0B0FE12
:1077500018B1012004B0BDE8F081022388F80030A0
:10776000074B9C71074B9C71F4E70D20F2E7072053
:10777000F0E700BFA81C00205C1C0020542800205B
:10778000881C0020681C00202DE9F0412D4F8AB094
:107790003B889B0706D440F273312B4B2B4A2C4875
:1077A00009F086FEDFF8BC80D8F8003023B9294BF9
:1077B000264A4FF45D71F2E7274C9B8804AE94E8AB
:1077C000070086E807000AA901F8193D0123234DA7
:1077D0003A8828681A4605F0E4F89DF80F20D8F892
:1077E0000010023A002392B20968286805F0D9F81F
:1077F0000C3407AB94E8070083E80700D8F80000D2
:107800003988026811F0200F12788179C2F3401292
:1078100014D0007E8DF812001148007800938DF886
:1078200013003346286804F033FE20B10220FFF72E
:10783000ABFE00F009FA0AB0BDE8F081286804F058
:1078400017FEF2E7501C0020922B0100792A01005C
:10785000E82A0100B82B0100EC290100542800207F
:1078600063110020D01C00202DE9F843294E8046EA
:1078700033780D46002B46D0032B44D08879FFF790
:1078800095FD0446002840D0234F3B68834209D031
:10789000224B01221868002104F0DEFD2046FFF78C
:1078A000A7FD3C601E4B1A7802F0FF0432B11D4B5D
:1078B0001D4A4FF457711D4809F0FAFD03220127B4
:1078C00032701B4EA97E34701F701A4BC1F34001F9
:1078D00020201D60FFF7C6FDFEF785FB8146394677
:1078E0000220FFF7BFFDFFF74FFF4846FEF781FB81
:1078F000337803F0FF0653B94046294601F051FAA8
:107900003046BDE8F8830D20FBE70720F9E7204665
:10791000F7E700BFA81C00205C1C002054280020B2
:10792000A91C00207B2B0100652A0100E82A010028
:10793000AA1C0020D01C002000487047B01C00206A
:1079400070B5114B102299790020FFF7D7FDC8B907
:1079500005F055F80D4D06462C462B78012B05D128
:1079600005F04DF8801BB0F5967FF6D32378022BF7
:107970000ABF074B7F2018784FF0000308BF40B2C2
:10798000237070BD7F20FCE7881C0020621C002053
:10799000611C00200B207047014B1878704700BF16
:1079A000641C002008B5074B1970074B186805F0D8
:1079B00049F830B1054B064A40F23C41054809F010
:1079C00077FD08BD641C0020542800205C2B0100BA
:1079D000892A0100E82A0100014B1970704700BF95
:1079E000631C002010B50C4649B1064B186804F022
:1079F000A7FF0A2390FBF3F02070002010BD0720A2
:107A0000FCE700BF5428002008B5084B01EB8101BA
:107A10004900186804F06EFF30B1054B054A40F28A
:107A20005C41054809F044FD08BD00BF5428002012
:107A30005C2B0100A32A0100E82A010021B1034BBD
:107A400000201B780B7070470720704763110020DF
:107A5000014B002019707047631100206FF0630024
:107A600070474FF47A7301205A43FFF747BD000077
:107A70002DE9F0438BB00746FEF7B5FA5A4E804623
:107A800005AA0221306804F090FF0546002800F0A6
:107A900099809DF81430072B40F094800DF102037B
:107AA00005AA01A9FFF70EFD044600284AD0BDF83B
:107AB0001830002B00F09580013BADF81830BDF870
:107AC0001630079A013BADF81630484B0132079249
:107AD0001A7842B99DF80D30002B40F08280BDF835
:107AE0000220052A7DD0DFF8089105A9D9F8000009
:107AF000FFF76AFCBDF802302946A9F80430D9F82E
:107B0000003093F8009009F07F021A70306804F09A
:107B100058FF9DF80A30002808BF0025002B5ED0D2
:107B2000BDF8023001A901333068ADF8083004F027
:107B300044FF002853D14FEAD91101A8FFF7A6FC52
:107B4000002D44D02946306804F03BFF4046FEF744
:107B500050FA34B100222649384601F01BF900F0F2
:107B600073F8244A1378032B17D1234B1B78A3B93E
:107B7000224B19780221117021490A68127812F0FB
:107B8000200F1A4601D01878F0B1137800221C4952
:107B9000384601F00DF900F057F81A4B1B78012B0D
:107BA0000DD1194B1A78022A09D100221A70174BED
:107BB0003846197849B201F007F900F045F80BB0E2
:107BC000BDE8F0830024C1E71B78114AE0E7404696
:107BD000FEF70FFABEE74046FEF70BFAC1E7002DAD
:107BE000F9D00024AEE700BF54280020641C002018
:107BF000881C0020A81C0020A91C0020AA1C002012
:107C0000B01C0020601C0020621C0020611C0020B1
:107C1000681C002008B504F017FCFFF7E9FABDE87E
:107C20000840FFF783BB000010B50446054B186001
:107C300000F098F82046FFF71BFF2046BDE81040F3
:107C4000FFF732BB58280020704700000022024B8B
:107C50001A80FFF7F9BF00BF601E00202DE9F04138
:107C60001D46174CDFF86080164698F80010B4F8EF
:107C70008020B4F8823007465B1A2B4403F07F0360
:107C8000934213D0B4F882006A1A2044314409F0B8
:107C900086FCB4F8823098F800209B1A2B4403F03D
:107CA0007F03A4F88230002388F800302A4631464A
:107CB0003846044BFDF750FBBDE8F041FFF7C4BF69
:107CC000D61D00205D7C0000D41C0020FFF7BCBF47
:107CD00070B500240F4B104E104DA3F88040802249
:107CE000A3F882400E4933462868FDF735FB33463A
:107CF00080220C492868FDF72FFB4FF400620A4BE5
:107D00002046C3F880211A60084AD36C43F004036C
:107D1000D36470BDD61D00205D7C000024100020BF
:107D2000D51C0020551D002000E100E0008005402A
:107D3000084B10B51C685CB91860074B19800146E8
:107D400006481A880068064BFDF7A0FB204610BDC8
:107D50000520FCE75C1E0020601E0020241000208F
:107D60004D7C00007FB5FEF73EF906462848294DB8
:107D700003AB02AA01A90068FDF7A6F82B78029AC6
:107D8000254C934212D2B4F882000199D21A1944B8
:107D9000204409F004FCB4F88230029A2978134494
:107DA0005B1A03F07F03A4F882302A703046FEF796
:107DB00020F9B4F88250B4F88030ADB29D420CD2B4
:107DC000B4F88000B4F880102044C1F1800189B279
:107DD00003F0FCFA0023A4F88030B4F880309D4210
:107DE0000AD0B4F88000B4F880102044691A89B22F
:107DF00003F0ECFAA4F88050084A136833B1084B3A
:107E00001B889BB213B9136003F0D7FA04B070BD9E
:107E100024100020D41C0020D61D00205C1E002051
:107E2000601E002000207047B0F5403F17D007D8F3
:107E3000B0F5803F0FD0B0F5003F0ED088B9704745
:107E4000B0F5E02F0FD0B0F57F0F0ED0B0F5802F3A
:107E500007D14B207047482070472A2070472C20BC
:107E6000704701207047212070470620704708B5F1
:107E700070B1FEF70AFB4FF098435A6CD202FCD562
:107E8000586D10F4702004D0BDE80840FFF7CCBF57
:107E9000212008BD08B528B12022002109F0A3FB4C
:107EA000002008BD2120FCE72DE9FF4700230E46F6
:107EB00017460093044600285BD00AB1002958D029
:107EC00037F0030807F0030A25D04FF000094FF000
:107ED000E063C4E900390123019601A90293204619
:107EE00048F00053C4F80890C4F81C900393FEF7C0
:107EF000B9FA41462046FEF7BFFA2046FFF7B7FF22
:107F0000054640B142464946304609F06CFB2846DA
:107F100004B0BDE8F0874FF00009BAF1000F2AD095
:107F20004FF0E063C4E900390123CDF804D0029397
:107F3000124B01A92046C4F80890C4F81C90039382
:107F4000FEF790FA04212046FEF796FA2046FFF746
:107F50008EFF054608B13A46D5E7034600994644E8
:107F6000DA00013321FA02F29A4506F8012BF7D123
:107F7000CDE72125CBE75546C9E700BF0400002027
:107F800070B588B00E4614461D46FFF74BFF18B17A
:107F90006FF03B0008B070BD6846FFF77BFF00281C
:107FA000F6D1224631466846FFF77EFF0028EFD122
:107FB0002C60EFE7FFF736BF014B1880704700BF1A
:107FC000621E00200B4B30B51B880B4C184400235D
:107FD00082B234F8235018B295424FEA830102D19D
:107FE0002144897821B901330A2BF2D14FF0FF30B7
:107FF00030BD00BF621E00208C1E002030B50E4C2C
:108000000022204604EB8205AD7813B225B101327F
:108010000A2AF7D14FF0FF339BB2092B0AD8074A3F
:1080200012881144012220F8231000EB8303002062
:108030009A7030BD0320FCE78C1E0020621E0020D9
:1080400008B50846FFF7BEFF83B2092B9BBF00208F
:10805000044A0A2002EB83019CBF887022F82300A7
:1080600008BD00BF8C1E002028220021014809F015
:10807000BABA00BF8C1E002030B50F4B0288418871
:108080001B880A44134482880C4C12FA83F3C2887A
:1080900012FA83F300229BB234F8225010B29D42B0
:1080A0004FEA820102D12144897821B901320A2A9A
:1080B000F2D14FF0FF3030BD621E0020641E002060
:1080C00030B5134C0023204604EB8305AD781AB27B
:1080D00025B101330A2BF7D14FF0FF3292B2092AB2
:1080E00013D80C4B0C884D881B882C4423448C8857
:1080F000C98814FA83F311FA83F320F8223001239C
:1081000000EB82020020937030BD0320FCE700BF2B
:10811000641E0020621E002008B50846FFF7ACFF71
:1081200083B2092B9BBF0020044A0A2002EB830183
:108130009CBF887022F8230008BD00BF641E002089
:1081400028220021014809F04EBA00BF641E002019
:1081500000F0D8B80120704700F0E8B80048704738
:10816000C92B0100103000F009BA4069003018BF77
:1081700001207047103000F02DBA00000148FFF7D1
:108180000BBC00BFB81E002008B5436923B10348EB
:10819000FFF708FC002008BD0D20FCE7B81E0020FA
:1081A000436913B10248FFF78FBA0D20704700BF33
:1081B000B81E0020103000F017BA406B7047103026
:1081C00000F028BA203000F09BBB103000F03CBA21
:1081D00008B5436923B10348FFF7FEFB002008BD43
:1081E0000D20FCE7B81E0020436913B10248FFF7D9
:1081F00005BF0D20704700BFB81E002007B54369BA
:1082000053B16846012200F020FB69460348FFF79E
:1082100057FF03B05DF804FB0D20FAE7B81E0020FD
:10822000436913B10248FFF70BBF0D20704700BF31
:10823000B81E002007B5436953B16846012200F01B
:1082400004FB69460348FFF767FF03B05DF804FBD2
:108250000D20FAE7B81E002008B5436923B1034892
:10826000FFF702FF002008BD0D20FCE7B81E00202C
:1082700008B5436923B10348FFF762FF002008BD3A
:108280000D20FCE7B81E0020103000F0F9B91030C6
:1082900000F005BA00F0AABD007C7047103000F075
:1082A00088B9408A7047103000F076B926307047A0
:1082B000103000F085B9808C7047FFF78BB9012032
:1082C000704710B50446FFF745FF20B1201DBDE8FB
:1082D000104000F077B810BD704738B5044600254F
:1082E000043000F053F8A56004F10C0000F02AF807
:1082F000214604F1100000F031F984F8885020463E
:1083000038BD000010B5064C94F888302BB92046D3
:10831000FFF7E3FF012384F88830014810BD00BF58
:10832000B81E002000487047B81E0020FFF70AB8AA
:1083300031B16FF00043994208BF012101607047DD
:108340000121FBE737B54FF6FF720C4C0546238839
:10835000934200D1FEE753B904210DEB0100FEF773
:10836000C9FF00B1FEE701990548FFF7E1FF284684
:1083700023880133238003B030BD00BF481F002095
:108380004C1F002002600022426070470022026001
:1083900070470000036823B9016049600348FFF794
:1083A0009BBF5A684A60596001607047B81E002040
:1083B0004368014613B90248FFF7ECBF704700BF9E
:1083C000BC1E002038B50025046805604CB160680B
:1083D000844216BF43680024636045600368984781
:1083E000F4E738BD43684968981AC00F8A1AB0EBA1
:1083F000D27F04BF581AC00F7047000070B50568DF
:108400000C4625B9BDE870404B68084818478B6892
:1084100098476A680146831A002BB8BF121A23686E
:10842000A8BF0022BDE8704000481847B81E0020D1
:108430008B6870B5994206460C4607D00568A9427C
:1084400005D103601146FFF7D9FFA46070BD2B462C
:108450000022002BF9D09C4208D01A469B68F8E70E
:108460009368002BF1D09B689360EEE7002AF7D168
:10847000002DEAD0AB683360E7E700000146024A0E
:108480000248FFF7D5BF00BF102C0100C01E00201E
:108490002DE9F047936807460C46904698474246B8
:1084A000824621463846FFF7C3FFD7F800900026E2
:1084B0004D4645B1524629462046FFF793FF10B975
:1084C0002E46AD68F5E746B9C4F8089041463C60D1
:1084D0003846BDE8F047FFF791BFB368A360B460CA
:1084E000BDE8F0874160024A01460248FFF7D0BF6D
:1084F000102C0100C01E0020002A00DAFEE7114403
:10850000FFF7F0BF70B5046805460E467CB18B6876
:1085100098476368C01A002809DB2846324621467E
:10852000FFF786FF23682046BDE8704018473146B4
:108530002846BDE87040FFF761BF000010B5044653
:10854000FFF708FE30B104F108000349BDE8104010
:10855000FFF7D8BF10BD00BF102C01000B2310B5D2
:1085600003704FF6FF73438000230446C0E90133D4
:10857000C360103000F080F9204610BD38B50446C5
:108580000D46103019B100F0DFF910B138BD00F020
:10859000F1F965600020F9E738B5436804460D46F7
:1085A0002BB1103000F0B0F90020658038BD0D20EF
:1085B000FCE7436813B10170002070470D2070473D
:1085C00008B5436823B1103000F0AAF9002008BDB7
:1085D0000D20FCE708B5436823B1103000F09AF98C
:1085E000002008BD0D20FCE743681BB110F8101BEC
:1085F00000F0D4B90D20704710B4436823B11AB904
:1086000003485DF8044B18475DF8044B704700BF02
:10861000B81E002038B5436804460D462BB1103013
:1086200000F003FA00B9A56038BD0D20FCE700009A
:1086300038B5856804461DB10248A8470023A360E9
:1086400038BD00BFB81E002038B51D46436804463B
:108650002BB1103000F0FCF900B9E56038BD0D20F9
:10866000FCE7000010B5436804462BB1C3681BB19A
:10867000024898470023E36010BD00BFB81E0020E9
:1086800013B544684CB1059C10300194049C0094CF
:1086900000F036FA002002B010BD0D20FBE708B54F
:1086A000436823B1103000F02DFB002008BD0D20E1
:1086B000FCE7036858781B7843EA0020704700F411
:1086C0004053B3F5005F21D120F44E5020F03F001D
:1086D000B0F5004F07D008D8B0F5046F03D0B0F55F
:1086E000446F00D048B900207047B0F5404FFAD031
:1086F00005D848F240039842F5D0012070474CF26B
:1087000040039842EFD04CF64043F4E710F4406F3A
:1087100014BF01200020704710F440430DD04306E1
:108720000BD400F44053B3F5005F08D100F44C4083
:10873000B0F54C4018BF0120704700207047012061
:108740007047102804D018280CBF0820002070475C
:108750000420704708B50146FFF7B1FF002801F477
:1087600040630CBF03220522B3F5006F16D0B3F5AA
:10877000406F16D0E3B90846FFF7CEFF08B10232CA
:10878000D2B201F44041B1F5004F0CD0B1F5404FE9
:108790000CD0002918BFFF22104608BD0232D2B209
:1087A000E9E70832FBE70232D2B2F5E70832FBE72D
:1087B000FF22F1E708B58388042B05D9FFF779FF7D
:1087C000BDE80840FFF7C6BFFF2008BD8288022A27
:1087D00005D903681B781B0701D5FFF7EBBFFF2006
:1087E000704738B505460C46FFF7F0FFFF2817BF66
:1087F0002B6806201B5C00201CBF03F018032370AD
:1088000038BD38B505460C46FFF7E0FFFF281FBF0F
:1088100001302B68C0B21B580EBF06202360002019
:1088200038BD38B505460C46FFF7D0FFFF28024695
:1088300009D02B68185C00F01800FFF782FF134482
:1088400003445B792370002038BD10B40C4622B17C
:10885000012A07D05DF8044B704708225DF8044BED
:1088600008F09DBE01F10802013812F8013DA24254
:1088700000F8013FF9D1EDE7F8B51F4E0446304648
:108880000F46FFF787F84FF6FE73A38001230025FC
:10889000A3737F232070E373657065802561304684
:1088A000FFF74AF83946606104F1180000F030FA29
:1088B000124B2946C4E9173504F15C036366C4E929
:1088C0000755656584F858500822A01D08F08BFEF6
:1088D0002946102204F1240008F085FE29461022C2
:1088E00004F1340008F07FFE1022294604F1440010
:1088F00008F079FE2046F8BDB81E0020F58C000077
:10890000007840F0040070470148FEF77DBE00BFCC
:10891000B81E00208180014800F018BAC51E002052
:1089200007B50B680122C0F806304B68C0F80A3062
:108930006846FFF78AFF6946024800F001FA03B073
:108940005DF804FBC51E002010B54378044663B9EA
:108950000748FEF7A5FE50B90548FEF7B5FE30B949
:108960006378012B01D001236370002010BDFEE766
:10897000B81E002010B504465C30FFF77FFD0648A6
:10898000FEF7A2FE30B90448FEF794FE10B96378F2
:1089900003B1607010BD00BFB81E002010B50446C2
:1089A0000448FEF7AFFE20B96378022B1CBF0223F8
:1089B000637010BDB81E002010B543780446032B29
:1089C00027D10378DB0606D4436912489979FEF76C
:1089D00099FE00B1FEE763786069042B1CBF042395
:1089E0006370E36913B1226A0121984761690A48FB
:1089F00000F0B2F90D280AD16269136943B100236E
:108A00001361626904485361616900F0A5F900B11E
:108A1000FEE710BDB81E0020C51E00204378032BC2
:108A20001CBF03234370FFF7C7BF10B54278052A68
:108A300004D80123934013F0390F05D1002444805A
:108A4000FFF7ECFF204610BD0D20FCE7704700004B
:108A500010B504464078052804D80123834013F05C
:108A6000390F0CD123789B070BD50748FEF7F9FF88
:108A70006378052B01D005236370002000E00D20F2
:108A800010BD0C20FCE700BFB81E00204378183052
:108A9000022B1CBF022300F8173C00F049B900006C
:108AA00010B5037804469B0700D5FEE71048FEF793
:108AB00047FF7F2806D094F90F307F2B01D08342E7
:108AC00000DAE073FEF79CFB2369C01A002807DA7E
:108AD000216E04F15C000122BDE81040FFF70CBDDF
:108AE00094F90F102046BDE81040FFF7CFBF00BF3C
:108AF000B81E0020007880F00400C0F380007047AA
:108B00002DE9F04308290446DDE907CE0E4603D0DF
:108B1000102929D041B3FEE71D4680F8582000F106
:108B2000240803F11009474628686968083503C717
:108B30004D45B846F7D1654604F134080CF11009EB
:108B4000474628686968083503C74D45B846F7D1D8
:108B5000754644340EF110082746286869680835C0
:108B600003C745453C46F7D1CDE907CE3146BDE8C0
:108B7000F043014800F038B9B81E002041651830B4
:108B800000F0DCB870B5C36905460C4616466BB1FB
:108B900071B11AB9026A314620469847E37D9B07B6
:108BA00006D521692846FFF7E9FF01E00029F5D144
:108BB0003246214605F11800BDE8704000F0AAB821
:108BC00037B50B6805461B780C461B0714D50DF10D
:108BD00003012046FFF705FE00B1FEE79DF80330D4
:108BE000082B09D101A92046FFF70BFE00B1FEE7D3
:108BF00001992846FFF7C2FF03B030BD2DE9F743C6
:108C00001E4604465C300D469146FFF737FC0B2E9E
:108C100010D001D82EB1FEE70E2E02D00F2E33D089
:108C2000F9E70121AB7E9B0704D5AA7904F118006E
:108C300000F076F829462046FFF7C2FF0023A37014
:108C4000E3781EB32046FFF755FF074620B16F7E3D
:108C50009F4294BF0027012704F11808CDE900378F
:108C60004A4633462946404600F05BF887B1204625
:108C7000E3780133E370AB7E43F00103AB7603B0DE
:108C8000BDE8F043FFF7CABE0021CBE73746E3E774
:108C900063784A46022B18BF0223294618BF637027
:108CA0004046334603B0BDE8F04300F03BB8000057
:108CB00010B543780446042B07D0052B12D0032BA4
:108CC00014D1BDE81040FFF777BE43690848997991
:108CD000FEF718FD61692046BDE810400E23002212
:108CE000FFF78CBFBDE81040FFF7DABE10BD00BF34
:108CF000B81E002008B5FFF715FBBDE8084020307E
:108D0000FFF7D6BF4165014800F06FB8B81E0020DC
:108D1000704700000148FFF76FBC00BFC81E00206D
:108D2000704770470148FFF783BC00BFC81E002092
:108D30000148FFF797BC00BFC81E00207047000025
:108D40000148FEF77DBC00BFB81E00200148FEF7B9
:108D50008FBC00BFB81E00200148FEF785BD00BFD4
:108D6000B81E00200148FFF70DBF00BFD81E00202D
:108D70000148FFF76BBE00BFD81E00200148FFF777
:108D80003DBF00BFD81E00200148FFF77FBE00BFD7
:108D9000D81E002090F8883013B10E30FFF7E2BFE4
:108DA000704790F8883013B10E30FFF7E1BF70477D
:108DB00010B490F8884024B10E305DF8044BFFF7F2
:108DC000DDBF5DF8044B704790F8883013B10E306A
:108DD000FFF7DABF704700000048704700F8FF0750
:108DE00008B5FFF7F9FF08BD704770474FF0FF3037
:108DF0004FF0FF3170470C2070470C20704783887C
:108E000043B103685A1C026019708388013B838058
:108E10000020704703207047002201608280704765
:108E200008B54FF6FF737E2183800068FFF7E7FFE8
:108E300008BD00007E2938B505460C4600680AD8F2
:108E40007D2903D2112901D0132906D18388012B52
:108E500008D8032005E0F829F7E72146FFF7CFFF00
:108E600040B138BD7D21FFF7CAFF84F0200128689A
:108E7000FFF7C5FFAA88054B5440E4B233F814301D
:108E8000002083EA1223AB80EBE700BF1C2C01001B
:108E90002DE9F04186880368F543ADB2E9B2044696
:108EA0001F68B3F80480FFF7C5FF48B9290A2046B8
:108EB000FFF7C0FF20B97E212068FFF7A0FF20B197
:108EC00023681F60A3F80480A680BDE8F08130B558
:108ED0000025C0E901120570C0E9033530BD00006E
:108EE0002DE9F84304460D464FF00208354E8F1821
:108EF000AF4265D0237815F8011B012B24D01BD37A
:108F0000022BF5D16068B0F80490B9F1000F50D091
:108F1000B4F810C081F0200181EA0C02D2B236F818
:108F2000123083EA1C232382FFF769FF638A01332F
:108F3000638201232370DBE77E29D9D101232370CB
:108F40004FF6FF732361D3E77D2917D07E2918D010
:108F50006068B0F80490B9F1000F2AD0B4F810C0DE
:108F600081EA0C02D2B236F8123083EA1C23238243
:108F7000FFF745FF638A01336382B9E784F8008015
:108F8000B6E7638A002BDBD0012B10D94FF2B80370
:108F9000228A9A420BD1002163681A68023A1A6049
:108FA0009A8802329A80D4E902309847C8E70621AD
:108FB000F9E7A3680321E068984784F8009097E7F1
:108FC000BDE8F8831C2C0100F0B5002423468B4239
:108FD000C3EBC3070DD0052B0BD0C65C013306F0E5
:108FE0007F05BD402C433506F1D402B1146018460C
:108FF000F0BD4FF0FF33FAE77F280BD9B0F5804F73
:109000000AD3B0F5001F09D3B0F1805F34BF04204C
:1090100005207047012070470220704703207047E9
:1090200070B504461046FFF7E7FF81420DDA70BDC8
:1090300063F07F0301F8013BD2090E1BB542D3B2A6
:10904000F6D103F07F036355F1E72146451EF4E7AF
:10905000036810B55A1E114603628B4202D9048977
:109060002144FAE74162022101770021016380F87F
:10907000341080F835104FF6FF71C0E90A33C1860D
:109080008363934202D901890A44FAE7C0E90F23B6
:10909000C0E9113310BD002310B5016011444160D7
:1090A0000281C0E90333C0E90533FFF7D1FF10BDEA
:1090B000C0E903127047C0E905127047012B0AD0BE
:1090C00002D3022B0ED1FEE7114442688A4209D82E
:1090D0000389C91AFAE7891A02688A4202D9038900
:1090E0001944FAE708467047012B0ED002D3022B31
:1090F00015D1FEE78A4237BF4368511A5B1A0168EF
:109100003CBF511AC91888B270478A4281BF436870
:1091100000689A1A091A94BF891A8918F3E700217E
:10912000F1E710B5144612120A700122FFF7C6FFCC
:10913000047010BD10B5134601220C78FFF7BEFF76
:1091400000782402204480B210BD2DE9F041876AE6
:1091500090F81C800E464346C26A39460446FFF723
:10916000C3FF0128054614D9424639462046FFF779
:10917000E1FF023DC5F30D05354340EA05024346D4
:1091800092B239462046FFF7CCFFE36AA362BDE8FE
:10919000F081E762FBE72DE9F047067F8046022E6B
:1091A0000F4691461C4622D04D68836A9D4221D1CC
:1091B0003346C26A2946FFF797FF3F688246334627
:1091C0003A4629464046FFF78FFF2044504511DCC0
:1091D00094B119F8013B39463B7098F81C300122D4
:1091E0004046FFF76BFF013CA4B20746F0E70D20B5
:1091F000BDE8F0870720FBE72046F9E72DE9F047B7
:10920000057F0446022D0F461CD04E68836A9E429D
:1092100018D1D0F82C802B4642463146FFF764FF28
:109220003F6881462B463A4631462046FFF75CFFB1
:10923000814507D92B46424639462046BDE8F047CE
:10924000FFF752BF0020BDE8F0872DE9F041067F0F
:109250000446022E0F4616D04D68836A9D4214D1F3
:109260003346C26A2946FFF73FFF3F6880463346D0
:109270003A4629462046FFF737FF804505D90020AA
:10928000E762BDE8F0810D20FBE70720F9E738B57C
:10929000037F0446022B12D00021FFF756FF227FE6
:1092A000A06A04EB8203196A21631862E56815B1AC
:1092B00023462069A84702230020237738BD0D20CC
:1092C000FCE7006B7047C26B436A9A4205D1836B1F
:1092D000006A1B1A5842584170470020704790F8A6
:1092E000353033B9C36B426A9B1A18BF012380F82B
:1092F000343070472DE9F843044690F8346000EBB1
:109300008607D7F82080656C4545256422D0324613
:1093100029462046FFF70EFF030402D5BB6B9D4292
:1093200018D1C0F30D023346023229462046FFF71A
:10933000C5FE334681466064022229462046FFF777
:10934000BDFE8145A064DED00123002084F83530C5
:10935000BDE8F8830323172084F83530F8E708B513
:109360000146FFF7B0FF68B90846FFF7B8FF91F86C
:1093700034300E3351F82330C1E91033BDE80840D2
:10938000FFF7B8BF172008BD90F8350003281ABFB3
:10939000B0FA80F040090120704790F8352038B5C8
:1093A000012A04460ED1816C90F834300D78FFF715
:1093B00085FE636CA064984202D12046FFF79AFFB5
:1093C000284638BD0025FBE7416AD0E90E239942C3
:1093D0000CD1017F012909D00168531E994202D99D
:1093E00002891344FAE74362C3637047016A9142FA
:1093F0000AD1027F42B141680133994202D8028901
:109400009B1AFAE7036283637047037F022B06D03F
:10941000083350F82330C0E90A3302230377FFF7FB
:10942000D3BFF8B5047F0546022C0F4600D1FEE7F6
:109430002346B4FA84F4C66A01223146FFF73EFEA1
:109440006409083455F82430834203D03770E86249
:109450000020F8BD2846FFF7D8FF0320F9E7D0E940
:109460000A32934270B504461BD1027F00210832B4
:1094700050F82260B3420CBF4FF400460026FFF7BD
:10948000D0FF054658B901462046FFF7CAFF0546FA
:1094900028B9237F3246A16A2046FFF742FE2846BC
:1094A00070BD0025FBE738B5037F0446022B0D464F
:1094B00007D0FFF7D4FF18B9E36A2B60A36A6B608B
:1094C00038BD0D20FCE738B5037F0446022B0D465E
:1094D00008D0FFF7C4FF30B929462046BDE8384020
:1094E000FFF79FBF0D2038BDF8B5037F0746022B5D
:1094F0000D46164610D0FFF7B2FF044650B92E4471
:10950000B54207D015F8011B3846FFF78AFF00283F
:10951000F6D004462046F8BD0D24FBE738B50D46CD
:109520000446FFF772FF0DB1012D00D12577237F8F
:10953000083354F82330C4E90A3338BD2DE9F04725
:109540000446FFF7C0FE00283BD12046FFF7C7FEC8
:1095500094F834900B2604EB8908D8F83870D8F8C2
:1095600020A03D46AA4516D04A4629462046FFF788
:10957000E1FD030401D5BD420DD1C0F30D02294622
:109580004B4602322046FFF799FD013E16F0FF06DA
:109590000546E7D1FEE7C8F838502046FFF714FF2C
:1095A00000264FF6FF73656984F83560E38655B190
:1095B000A069234694F834203946A8473046BDE8D0
:1095C000F0871720FBE72846F9E70022C0E90022D0
:1095D000C0E90222704700228388C2800381827220
:1095E00083817047002908BF002210B50160828086
:1095F000FFF7F1FF8388838110BDC388028910B50E
:109600005C1C944297BF02680620D35C0B709FBF1E
:10961000C3880133C380002010BD13B50C460DF183
:109620000701FFF7EAFF18B99DF8073013B920705A
:1096300002B010BD012B0CBF23700620F8E713B554
:109640000C460DF10701FFF7D8FF10B99DF8073060
:10965000237002B010BDC288038930B5941C9C42AF
:109660000BD80468A3185D78A35C43EA05230B803C
:10967000C3880233C380002030BD0620FCE7F0B56C
:10968000C4880389251D9D420FD806683219937836
:109690005778345D1B04D27843EA0723234343EA17
:1096A00002630B60C5800020F0BD0620FCE7B0F827
:1096B00006C003890CF108029A422DE9F04F42D806
:1096C000D0F800E00EEB0C035E7893F802804FEACE
:1096D000166B4FEA18474BEA07054FEA062A0027A0
:1096E0004FEA08464AEA06044FF0000A1EF80C60EA
:1096F00047EA050946EA0408DE7893F804B0340620
:10970000350A48EA040646EA0A085E7949EA050786
:1097100047EA0B09350249EA050748EA0A06B04656
:10972000B9469E7948EA0A083504DE7949EA05090E
:1097300033064AEA080443EA0905C1E90045C28044
:109740005046BDE8F08F0620FBE737B5C3880446D6
:109750000D4601890068C91A184401AAFFF734FCB4
:109760000028C9BFE3880620C018E080C2BF0020DF
:10977000019B2B6003B030BD10B5C488038922441F
:109780009A42D7BF036806201B190B60DCBFC2805A
:10979000002010BD10B40389C4881B1B9BB213802A
:1097A0005DF8044B1A46FFF7E7BF73B50E460DF19F
:1097B000060105461446FFF74EFF48B9BDF80620DE
:1097C00031462846FFF7D8FF10B9BDF80630238090
:1097D00002B070BDC38883810389C381837AC37259
:1097E0007047838982889A4281BFC380C38903817D
:1097F000C37A86BF837200200D20704738B50446B7
:109800000D460068C9B2FFF75EFE28B9290A206834
:10981000BDE83840FFF757BE38BD38B504460D46A1
:109820000068C9B2FFF74FFE88B9C5F30721206869
:10983000FFF749FE58B9C5F307412068FFF743FE1B
:1098400028B9290E2068BDE83840FFF73CBE38BD76
:1098500070B5D1B20446006816461D46FFF733FEC8
:1098600038BBC6F307212068FFF72DFE08BBC6F3FF
:1098700007412068FFF727FED8B9310E2068FFF7AF
:1098800022FEB0B9E9B22068FFF71DFE88B9C5F322
:1098900007212068FFF717FE58B9C5F30741206874
:1098A000FFF711FE28B9290E2068BDE87040FFF7C8
:1098B0000ABE70BD13B50A46044606216846FFF786
:1098C000AFFB694682B22068FFF70EFE02B010BD02
:1098D00070B50D4611F00F01044618BF0023006853
:1098E00016BF012184F8241084F824301646FFF7AF
:1098F00015FE29462068FFF7E6FD28B931462046C7
:10990000BDE87040FFF7D6BF70BD70B50E4611467A
:1099100005461446FFF772FF30B9224631462868E3
:10992000BDE87040FFF7E0BD70BD38B5044608469D
:109930000D4608F015FA4FF6FF72824228BF024624
:10994000294692B22068FFF7CFFD014620B9206872
:10995000BDE83840FFF7B7BD38BD10B590F824100A
:109960000446032916D800EBC10104310068FFF753
:109970009AFD70B901462068FFF7A5FD48B9014678
:109980002068FFF7A0FD20B994F82430013384F853
:10999000243010BD0D20FCE773B590F82410044668
:1099A00011B90D2002B070BD082504260139C9B2D5
:1099B00080F8241015FB016101440068FFF71EFCCC
:1099C0000128EED994F82410023815FB016180B209
:1099D0008DF80400E8408DF8050002230DEB060227
:1099E00021442068FFF7D7FBDCE710B5044694F864
:1099F00024302BB12046FFF7CFFF0028F7D010BD51
:109A00002068BDE81040FFF742BC10B500F1280106
:109A100004460068FFF747FD18B994F8243084F82D
:109A2000253010BD38B504461D46FFF751FF48B933
:109A30002046FFF7EAFF28B929462046BDE838400E
:109A4000FFF738BF38BD10B500F1280104460068A3
:109A5000FFF7FBFB18B994F8253084F8243010BDCB
:109A600038B504460D46FFF7EEFF50B901462046D3
:109A7000FFF720FF28B929462046BDE83840FFF708
:109A800019BF38BD1F2070472DE9F04800230C2670
:109A90001D4D06FB03F467598F4230D12C44646896
:109AA00094422CD10025D0E90272C3F1200602FABB
:109AB00006F6A3F1200127FA03FB22FA01F14BEA93
:109AC000060B4BEA010B0BF0010454EA0502C3F14B
:109AD0002001A3F1200610D1012202FA06FC22FA8D
